{
	"Twitter.sol": {
		"Twitter": {
			"abi": [
				{
					"inputs": [
						{
							"internalType": "address",
							"name": "_profileContract",
							"type": "address"
						}
					],
					"stateMutability": "nonpayable",
					"type": "constructor"
				},
				{
					"inputs": [
						{
							"internalType": "address",
							"name": "owner",
							"type": "address"
						}
					],
					"name": "OwnableInvalidOwner",
					"type": "error"
				},
				{
					"inputs": [
						{
							"internalType": "address",
							"name": "account",
							"type": "address"
						}
					],
					"name": "OwnableUnauthorizedAccount",
					"type": "error"
				},
				{
					"anonymous": false,
					"inputs": [
						{
							"indexed": true,
							"internalType": "address",
							"name": "previousOwner",
							"type": "address"
						},
						{
							"indexed": true,
							"internalType": "address",
							"name": "newOwner",
							"type": "address"
						}
					],
					"name": "OwnershipTransferred",
					"type": "event"
				},
				{
					"anonymous": false,
					"inputs": [
						{
							"indexed": false,
							"internalType": "uint256",
							"name": "id",
							"type": "uint256"
						},
						{
							"indexed": false,
							"internalType": "address",
							"name": "author",
							"type": "address"
						},
						{
							"indexed": false,
							"internalType": "string",
							"name": "content",
							"type": "string"
						},
						{
							"indexed": false,
							"internalType": "uint256",
							"name": "timestamp",
							"type": "uint256"
						}
					],
					"name": "TweetCreated",
					"type": "event"
				},
				{
					"anonymous": false,
					"inputs": [
						{
							"indexed": false,
							"internalType": "address",
							"name": "liker",
							"type": "address"
						},
						{
							"indexed": false,
							"internalType": "address",
							"name": "tweetAuthor",
							"type": "address"
						},
						{
							"indexed": false,
							"internalType": "uint256",
							"name": "tweetId",
							"type": "uint256"
						},
						{
							"indexed": false,
							"internalType": "uint256",
							"name": "newLikeCount",
							"type": "uint256"
						}
					],
					"name": "TweetLiked",
					"type": "event"
				},
				{
					"anonymous": false,
					"inputs": [
						{
							"indexed": false,
							"internalType": "address",
							"name": "unliker",
							"type": "address"
						},
						{
							"indexed": false,
							"internalType": "address",
							"name": "tweetAuthor",
							"type": "address"
						},
						{
							"indexed": false,
							"internalType": "uint256",
							"name": "tweetId",
							"type": "uint256"
						},
						{
							"indexed": false,
							"internalType": "uint256",
							"name": "newLikeCount",
							"type": "uint256"
						}
					],
					"name": "TweetUnliked",
					"type": "event"
				},
				{
					"inputs": [],
					"name": "MAX_TWEET_LENGTH",
					"outputs": [
						{
							"internalType": "uint256",
							"name": "",
							"type": "uint256"
						}
					],
					"stateMutability": "view",
					"type": "function"
				},
				{
					"inputs": [
						{
							"internalType": "uint256",
							"name": "newTweetLength",
							"type": "uint256"
						}
					],
					"name": "changeTweetLength",
					"outputs": [],
					"stateMutability": "nonpayable",
					"type": "function"
				},
				{
					"inputs": [
						{
							"internalType": "string",
							"name": "_tweet",
							"type": "string"
						}
					],
					"name": "createTweet",
					"outputs": [],
					"stateMutability": "nonpayable",
					"type": "function"
				},
				{
					"inputs": [
						{
							"internalType": "address",
							"name": "_owner",
							"type": "address"
						}
					],
					"name": "getAllTweets",
					"outputs": [
						{
							"components": [
								{
									"internalType": "uint256",
									"name": "id",
									"type": "uint256"
								},
								{
									"internalType": "address",
									"name": "author",
									"type": "address"
								},
								{
									"internalType": "string",
									"name": "content",
									"type": "string"
								},
								{
									"internalType": "uint256",
									"name": "timeStamp",
									"type": "uint256"
								},
								{
									"internalType": "uint256",
									"name": "likes",
									"type": "uint256"
								}
							],
							"internalType": "struct Twitter.Tweet[]",
							"name": "",
							"type": "tuple[]"
						}
					],
					"stateMutability": "view",
					"type": "function"
				},
				{
					"inputs": [
						{
							"internalType": "address",
							"name": "_author",
							"type": "address"
						}
					],
					"name": "getTotalLikes",
					"outputs": [
						{
							"internalType": "uint256",
							"name": "",
							"type": "uint256"
						}
					],
					"stateMutability": "view",
					"type": "function"
				},
				{
					"inputs": [
						{
							"internalType": "uint256",
							"name": "_i",
							"type": "uint256"
						}
					],
					"name": "getTweet",
					"outputs": [
						{
							"components": [
								{
									"internalType": "uint256",
									"name": "id",
									"type": "uint256"
								},
								{
									"internalType": "address",
									"name": "author",
									"type": "address"
								},
								{
									"internalType": "string",
									"name": "content",
									"type": "string"
								},
								{
									"internalType": "uint256",
									"name": "timeStamp",
									"type": "uint256"
								},
								{
									"internalType": "uint256",
									"name": "likes",
									"type": "uint256"
								}
							],
							"internalType": "struct Twitter.Tweet",
							"name": "",
							"type": "tuple"
						}
					],
					"stateMutability": "view",
					"type": "function"
				},
				{
					"inputs": [
						{
							"internalType": "address",
							"name": "author",
							"type": "address"
						},
						{
							"internalType": "uint256",
							"name": "id",
							"type": "uint256"
						}
					],
					"name": "likeTweet",
					"outputs": [],
					"stateMutability": "nonpayable",
					"type": "function"
				},
				{
					"inputs": [],
					"name": "owner",
					"outputs": [
						{
							"internalType": "address",
							"name": "",
							"type": "address"
						}
					],
					"stateMutability": "view",
					"type": "function"
				},
				{
					"inputs": [],
					"name": "renounceOwnership",
					"outputs": [],
					"stateMutability": "nonpayable",
					"type": "function"
				},
				{
					"inputs": [
						{
							"internalType": "address",
							"name": "newOwner",
							"type": "address"
						}
					],
					"name": "transferOwnership",
					"outputs": [],
					"stateMutability": "nonpayable",
					"type": "function"
				},
				{
					"inputs": [
						{
							"internalType": "address",
							"name": "",
							"type": "address"
						},
						{
							"internalType": "uint256",
							"name": "",
							"type": "uint256"
						}
					],
					"name": "tweets",
					"outputs": [
						{
							"internalType": "uint256",
							"name": "id",
							"type": "uint256"
						},
						{
							"internalType": "address",
							"name": "author",
							"type": "address"
						},
						{
							"internalType": "string",
							"name": "content",
							"type": "string"
						},
						{
							"internalType": "uint256",
							"name": "timeStamp",
							"type": "uint256"
						},
						{
							"internalType": "uint256",
							"name": "likes",
							"type": "uint256"
						}
					],
					"stateMutability": "view",
					"type": "function"
				},
				{
					"inputs": [
						{
							"internalType": "address",
							"name": "author",
							"type": "address"
						},
						{
							"internalType": "uint256",
							"name": "id",
							"type": "uint256"
						}
					],
					"name": "unlikeTweet",
					"outputs": [],
					"stateMutability": "nonpayable",
					"type": "function"
				}
			],
			"devdoc": {
				"errors": {
					"OwnableInvalidOwner(address)": [
						{
							"details": "The owner is not a valid owner account. (eg. `address(0)`)"
						}
					],
					"OwnableUnauthorizedAccount(address)": [
						{
							"details": "The caller account is not authorized to perform an operation."
						}
					]
				},
				"kind": "dev",
				"methods": {
					"owner()": {
						"details": "Returns the address of the current owner."
					},
					"renounceOwnership()": {
						"details": "Leaves the contract without owner. It will not be possible to call `onlyOwner` functions. Can only be called by the current owner. NOTE: Renouncing ownership will leave the contract without an owner, thereby disabling any functionality that is only available to the owner."
					},
					"transferOwnership(address)": {
						"details": "Transfers ownership of the contract to a new account (`newOwner`). Can only be called by the current owner."
					}
				},
				"version": 1
			},
			"evm": {
				"assembly": "    /* \"Twitter.sol\":310:3441  contract Twitter is Ownable{... */\n  mstore(0x40, 0x80)\n    /* \"Twitter.sol\":380:383  280 */\n  0x0118\n    /* \"Twitter.sol\":346:383  uint256 public MAX_TWEET_LENGTH = 280 */\n  0x01\n  sstore\n    /* \"Twitter.sol\":907:1024  constructor(address _profileContract) Ownable(msg.sender) {... */\n  callvalue\n  dup1\n  iszero\n  tag_1\n  jumpi\n  revert(0x00, 0x00)\ntag_1:\n  pop\n  mload(0x40)\n  sub(codesize, bytecodeSize)\n  dup1\n  bytecodeSize\n  dup4\n  codecopy\n  dup2\n  dup2\n  add\n  0x40\n  mstore\n  dup2\n  add\n  swap1\n  tag_2\n  swap2\n  swap1\n  tag_3\n  jump\t// in\ntag_2:\n    /* \"Twitter.sol\":953:963  msg.sender */\n  caller\n    /* \"@openzeppelin/contracts/access/Ownable.sol\":1297:1298  0 */\n  0x00\n    /* \"@openzeppelin/contracts/access/Ownable.sol\":1273:1299  initialOwner == address(0) */\n  0xffffffffffffffffffffffffffffffffffffffff\n  and\n    /* \"@openzeppelin/contracts/access/Ownable.sol\":1273:1285  initialOwner */\n  dup2\n    /* \"@openzeppelin/contracts/access/Ownable.sol\":1273:1299  initialOwner == address(0) */\n  0xffffffffffffffffffffffffffffffffffffffff\n  and\n  sub\n    /* \"@openzeppelin/contracts/access/Ownable.sol\":1269:1364  if (initialOwner == address(0)) {... */\n  tag_7\n  jumpi\n    /* \"@openzeppelin/contracts/access/Ownable.sol\":1350:1351  0 */\n  0x00\n    /* \"@openzeppelin/contracts/access/Ownable.sol\":1322:1353  OwnableInvalidOwner(address(0)) */\n  mload(0x40)\n  0x1e4fbdf700000000000000000000000000000000000000000000000000000000\n  dup2\n  mstore\n  0x04\n  add\n  tag_8\n  swap2\n  swap1\n  tag_9\n  jump\t// in\ntag_8:\n  mload(0x40)\n  dup1\n  swap2\n  sub\n  swap1\n  revert\n    /* \"@openzeppelin/contracts/access/Ownable.sol\":1269:1364  if (initialOwner == address(0)) {... */\ntag_7:\n    /* \"@openzeppelin/contracts/access/Ownable.sol\":1373:1405  _transferOwnership(initialOwner) */\n  tag_10\n    /* \"@openzeppelin/contracts/access/Ownable.sol\":1392:1404  initialOwner */\n  dup2\n    /* \"@openzeppelin/contracts/access/Ownable.sol\":1373:1391  _transferOwnership */\n  shl(0x20, tag_11)\n    /* \"@openzeppelin/contracts/access/Ownable.sol\":1373:1405  _transferOwnership(initialOwner) */\n  0x20\n  shr\n  jump\t// in\ntag_10:\n    /* \"@openzeppelin/contracts/access/Ownable.sol\":1225:1412  constructor(address initialOwner) {... */\n  pop\n    /* \"Twitter.sol\":999:1015  _profileContract */\n  dup1\n    /* \"Twitter.sol\":972:987  profileContract */\n  0x03\n  0x00\n    /* \"Twitter.sol\":972:1016  profileContract = IProfile(_profileContract) */\n  0x0100\n  exp\n  dup2\n  sload\n  dup2\n  0xffffffffffffffffffffffffffffffffffffffff\n  mul\n  not\n  and\n  swap1\n  dup4\n  0xffffffffffffffffffffffffffffffffffffffff\n  and\n  mul\n  or\n  swap1\n  sstore\n  pop\n    /* \"Twitter.sol\":907:1024  constructor(address _profileContract) Ownable(msg.sender) {... */\n  pop\n    /* \"Twitter.sol\":310:3441  contract Twitter is Ownable{... */\n  jump(tag_13)\n    /* \"@openzeppelin/contracts/access/Ownable.sol\":2912:3099  function _transferOwnership(address newOwner) internal virtual {... */\ntag_11:\n    /* \"@openzeppelin/contracts/access/Ownable.sol\":2985:3001  address oldOwner */\n  0x00\n    /* \"@openzeppelin/contracts/access/Ownable.sol\":3004:3010  _owner */\n  0x00\n  0x00\n  swap1\n  sload\n  swap1\n  0x0100\n  exp\n  swap1\n  div\n  0xffffffffffffffffffffffffffffffffffffffff\n  and\n    /* \"@openzeppelin/contracts/access/Ownable.sol\":2985:3010  address oldOwner = _owner */\n  swap1\n  pop\n    /* \"@openzeppelin/contracts/access/Ownable.sol\":3029:3037  newOwner */\n  dup2\n    /* \"@openzeppelin/contracts/access/Ownable.sol\":3020:3026  _owner */\n  0x00\n  0x00\n    /* \"@openzeppelin/contracts/access/Ownable.sol\":3020:3037  _owner = newOwner */\n  0x0100\n  exp\n  dup2\n  sload\n  dup2\n  0xffffffffffffffffffffffffffffffffffffffff\n  mul\n  not\n  and\n  swap1\n  dup4\n  0xffffffffffffffffffffffffffffffffffffffff\n  and\n  mul\n  or\n  swap1\n  sstore\n  pop\n    /* \"@openzeppelin/contracts/access/Ownable.sol\":3083:3091  newOwner */\n  dup2\n    /* \"@openzeppelin/contracts/access/Ownable.sol\":3052:3092  OwnershipTransferred(oldOwner, newOwner) */\n  0xffffffffffffffffffffffffffffffffffffffff\n  and\n    /* \"@openzeppelin/contracts/access/Ownable.sol\":3073:3081  oldOwner */\n  dup2\n    /* \"@openzeppelin/contracts/access/Ownable.sol\":3052:3092  OwnershipTransferred(oldOwner, newOwner) */\n  0xffffffffffffffffffffffffffffffffffffffff\n  and\n  0x8be0079c531659141344cd1fd0a4f28419497f9722a3daafe3b4186f6b6457e0\n  mload(0x40)\n  mload(0x40)\n  dup1\n  swap2\n  sub\n  swap1\n  log3\n    /* \"@openzeppelin/contracts/access/Ownable.sol\":2975:3099  {... */\n  pop\n    /* \"@openzeppelin/contracts/access/Ownable.sol\":2912:3099  function _transferOwnership(address newOwner) internal virtual {... */\n  pop\n  jump\t// out\n    /* \"#utility.yul\":88:205   */\ntag_16:\n    /* \"#utility.yul\":197:198   */\n  0x00\n    /* \"#utility.yul\":194:195   */\n  0x00\n    /* \"#utility.yul\":187:199   */\n  revert\n    /* \"#utility.yul\":334:460   */\ntag_18:\n    /* \"#utility.yul\":371:378   */\n  0x00\n    /* \"#utility.yul\":411:453   */\n  0xffffffffffffffffffffffffffffffffffffffff\n    /* \"#utility.yul\":404:409   */\n  dup3\n    /* \"#utility.yul\":400:454   */\n  and\n    /* \"#utility.yul\":389:454   */\n  swap1\n  pop\n    /* \"#utility.yul\":334:460   */\n  swap2\n  swap1\n  pop\n  jump\t// out\n    /* \"#utility.yul\":466:562   */\ntag_19:\n    /* \"#utility.yul\":503:510   */\n  0x00\n    /* \"#utility.yul\":532:556   */\n  tag_29\n    /* \"#utility.yul\":550:555   */\n  dup3\n    /* \"#utility.yul\":532:556   */\n  tag_18\n  jump\t// in\ntag_29:\n    /* \"#utility.yul\":521:556   */\n  swap1\n  pop\n    /* \"#utility.yul\":466:562   */\n  swap2\n  swap1\n  pop\n  jump\t// out\n    /* \"#utility.yul\":568:690   */\ntag_20:\n    /* \"#utility.yul\":641:665   */\n  tag_31\n    /* \"#utility.yul\":659:664   */\n  dup2\n    /* \"#utility.yul\":641:665   */\n  tag_19\n  jump\t// in\ntag_31:\n    /* \"#utility.yul\":634:639   */\n  dup2\n    /* \"#utility.yul\":631:666   */\n  eq\n    /* \"#utility.yul\":621:684   */\n  tag_32\n  jumpi\n    /* \"#utility.yul\":680:681   */\n  0x00\n    /* \"#utility.yul\":677:678   */\n  0x00\n    /* \"#utility.yul\":670:682   */\n  revert\n    /* \"#utility.yul\":621:684   */\ntag_32:\n    /* \"#utility.yul\":568:690   */\n  pop\n  jump\t// out\n    /* \"#utility.yul\":696:839   */\ntag_21:\n    /* \"#utility.yul\":753:758   */\n  0x00\n    /* \"#utility.yul\":784:790   */\n  dup2\n    /* \"#utility.yul\":778:791   */\n  mload\n    /* \"#utility.yul\":769:791   */\n  swap1\n  pop\n    /* \"#utility.yul\":800:833   */\n  tag_34\n    /* \"#utility.yul\":827:832   */\n  dup2\n    /* \"#utility.yul\":800:833   */\n  tag_20\n  jump\t// in\ntag_34:\n    /* \"#utility.yul\":696:839   */\n  swap3\n  swap2\n  pop\n  pop\n  jump\t// out\n    /* \"#utility.yul\":845:1196   */\ntag_3:\n    /* \"#utility.yul\":915:921   */\n  0x00\n    /* \"#utility.yul\":964:966   */\n  0x20\n    /* \"#utility.yul\":952:961   */\n  dup3\n    /* \"#utility.yul\":943:950   */\n  dup5\n    /* \"#utility.yul\":939:962   */\n  sub\n    /* \"#utility.yul\":935:967   */\n  slt\n    /* \"#utility.yul\":932:1051   */\n  iszero\n  tag_36\n  jumpi\n    /* \"#utility.yul\":970:1049   */\n  tag_37\n  tag_16\n  jump\t// in\ntag_37:\n    /* \"#utility.yul\":932:1051   */\ntag_36:\n    /* \"#utility.yul\":1090:1091   */\n  0x00\n    /* \"#utility.yul\":1115:1179   */\n  tag_38\n    /* \"#utility.yul\":1171:1178   */\n  dup5\n    /* \"#utility.yul\":1162:1168   */\n  dup3\n    /* \"#utility.yul\":1151:1160   */\n  dup6\n    /* \"#utility.yul\":1147:1169   */\n  add\n    /* \"#utility.yul\":1115:1179   */\n  tag_21\n  jump\t// in\ntag_38:\n    /* \"#utility.yul\":1105:1179   */\n  swap2\n  pop\n    /* \"#utility.yul\":1061:1189   */\n  pop\n    /* \"#utility.yul\":845:1196   */\n  swap3\n  swap2\n  pop\n  pop\n  jump\t// out\n    /* \"#utility.yul\":1202:1320   */\ntag_22:\n    /* \"#utility.yul\":1289:1313   */\n  tag_40\n    /* \"#utility.yul\":1307:1312   */\n  dup2\n    /* \"#utility.yul\":1289:1313   */\n  tag_19\n  jump\t// in\ntag_40:\n    /* \"#utility.yul\":1284:1287   */\n  dup3\n    /* \"#utility.yul\":1277:1314   */\n  mstore\n    /* \"#utility.yul\":1202:1320   */\n  pop\n  pop\n  jump\t// out\n    /* \"#utility.yul\":1326:1548   */\ntag_9:\n    /* \"#utility.yul\":1419:1423   */\n  0x00\n    /* \"#utility.yul\":1457:1459   */\n  0x20\n    /* \"#utility.yul\":1446:1455   */\n  dup3\n    /* \"#utility.yul\":1442:1460   */\n  add\n    /* \"#utility.yul\":1434:1460   */\n  swap1\n  pop\n    /* \"#utility.yul\":1470:1541   */\n  tag_42\n    /* \"#utility.yul\":1538:1539   */\n  0x00\n    /* \"#utility.yul\":1527:1536   */\n  dup4\n    /* \"#utility.yul\":1523:1540   */\n  add\n    /* \"#utility.yul\":1514:1520   */\n  dup5\n    /* \"#utility.yul\":1470:1541   */\n  tag_22\n  jump\t// in\ntag_42:\n    /* \"#utility.yul\":1326:1548   */\n  swap3\n  swap2\n  pop\n  pop\n  jump\t// out\n    /* \"Twitter.sol\":310:3441  contract Twitter is Ownable{... */\ntag_13:\n  dataSize(sub_0)\n  dup1\n  dataOffset(sub_0)\n  0x00\n  codecopy\n  0x00\n  return\nstop\n\nsub_0: assembly {\n        /* \"Twitter.sol\":310:3441  contract Twitter is Ownable{... */\n      mstore(0x40, 0x80)\n      callvalue\n      dup1\n      iszero\n      tag_1\n      jumpi\n      revert(0x00, 0x00)\n    tag_1:\n      pop\n      jumpi(tag_2, lt(calldatasize, 0x04))\n      shr(0xe0, calldataload(0x00))\n      dup1\n      0x7c9cd2bc\n      gt\n      tag_15\n      jumpi\n      dup1\n      0x7c9cd2bc\n      eq\n      tag_9\n      jumpi\n      dup1\n      0x820785cc\n      eq\n      tag_10\n      jumpi\n      dup1\n      0x888a7880\n      eq\n      tag_11\n      jumpi\n      dup1\n      0x8da5cb5b\n      eq\n      tag_12\n      jumpi\n      dup1\n      0xc3ad5ecb\n      eq\n      tag_13\n      jumpi\n      dup1\n      0xf2fde38b\n      eq\n      tag_14\n      jumpi\n      jump(tag_2)\n    tag_15:\n      dup1\n      0x05a1b4a9\n      eq\n      tag_3\n      jumpi\n      dup1\n      0x12e7ee1c\n      eq\n      tag_4\n      jumpi\n      dup1\n      0x3d9b569f\n      eq\n      tag_5\n      jumpi\n      dup1\n      0x63378216\n      eq\n      tag_6\n      jumpi\n      dup1\n      0x6eb10797\n      eq\n      tag_7\n      jumpi\n      dup1\n      0x715018a6\n      eq\n      tag_8\n      jumpi\n    tag_2:\n      revert(0x00, 0x00)\n        /* \"Twitter.sol\":543:584  mapping(address => Tweet[]) public tweets */\n    tag_3:\n      tag_16\n      0x04\n      dup1\n      calldatasize\n      sub\n      dup2\n      add\n      swap1\n      tag_17\n      swap2\n      swap1\n      tag_18\n      jump\t// in\n    tag_17:\n      tag_19\n      jump\t// in\n    tag_16:\n      mload(0x40)\n      tag_20\n      swap6\n      swap5\n      swap4\n      swap3\n      swap2\n      swap1\n      tag_21\n      jump\t// in\n    tag_20:\n      mload(0x40)\n      dup1\n      swap2\n      sub\n      swap1\n      return\n        /* \"Twitter.sol\":3064:3178  function getAllTweets(address _owner) public view returns (Tweet[] memory){... */\n    tag_4:\n      tag_22\n      0x04\n      dup1\n      calldatasize\n      sub\n      dup2\n      add\n      swap1\n      tag_23\n      swap2\n      swap1\n      tag_24\n      jump\t// in\n    tag_23:\n      tag_25\n      jump\t// in\n    tag_22:\n      mload(0x40)\n      tag_26\n      swap2\n      swap1\n      tag_27\n      jump\t// in\n    tag_26:\n      mload(0x40)\n      dup1\n      swap2\n      sub\n      swap1\n      return\n        /* \"Twitter.sol\":2606:2939  function unlikeTweet(address author, uint256 id) external onlyRegistered{... */\n    tag_5:\n      tag_28\n      0x04\n      dup1\n      calldatasize\n      sub\n      dup2\n      add\n      swap1\n      tag_29\n      swap2\n      swap1\n      tag_18\n      jump\t// in\n    tag_29:\n      tag_30\n      jump\t// in\n    tag_28:\n      stop\n        /* \"Twitter.sol\":2232:2494  function likeTweet(address author, uint256 id) external onlyRegistered{... */\n    tag_6:\n      tag_31\n      0x04\n      dup1\n      calldatasize\n      sub\n      dup2\n      add\n      swap1\n      tag_32\n      swap2\n      swap1\n      tag_18\n      jump\t// in\n    tag_32:\n      tag_33\n      jump\t// in\n    tag_31:\n      stop\n        /* \"Twitter.sol\":346:383  uint256 public MAX_TWEET_LENGTH = 280 */\n    tag_7:\n      tag_34\n      tag_35\n      jump\t// in\n    tag_34:\n      mload(0x40)\n      tag_36\n      swap2\n      swap1\n      tag_37\n      jump\t// in\n    tag_36:\n      mload(0x40)\n      dup1\n      swap2\n      sub\n      swap1\n      return\n        /* \"@openzeppelin/contracts/access/Ownable.sol\":2293:2394  function renounceOwnership() public virtual onlyOwner {... */\n    tag_8:\n      tag_38\n      tag_39\n      jump\t// in\n    tag_38:\n      stop\n        /* \"Twitter.sol\":1597:2124  function createTweet(string memory _tweet) public onlyRegistered{... */\n    tag_9:\n      tag_40\n      0x04\n      dup1\n      calldatasize\n      sub\n      dup2\n      add\n      swap1\n      tag_41\n      swap2\n      swap1\n      tag_42\n      jump\t// in\n    tag_41:\n      tag_43\n      jump\t// in\n    tag_40:\n      stop\n        /* \"Twitter.sol\":3186:3438  function getTotalLikes(address _author) external view returns(uint256){... */\n    tag_10:\n      tag_44\n      0x04\n      dup1\n      calldatasize\n      sub\n      dup2\n      add\n      swap1\n      tag_45\n      swap2\n      swap1\n      tag_24\n      jump\t// in\n    tag_45:\n      tag_46\n      jump\t// in\n    tag_44:\n      mload(0x40)\n      tag_47\n      swap2\n      swap1\n      tag_37\n      jump\t// in\n    tag_47:\n      mload(0x40)\n      dup1\n      swap2\n      sub\n      swap1\n      return\n        /* \"Twitter.sol\":1380:1499  function changeTweetLength(uint256 newTweetLength) public onlyOwner{... */\n    tag_11:\n      tag_48\n      0x04\n      dup1\n      calldatasize\n      sub\n      dup2\n      add\n      swap1\n      tag_49\n      swap2\n      swap1\n      tag_50\n      jump\t// in\n    tag_49:\n      tag_51\n      jump\t// in\n    tag_48:\n      stop\n        /* \"@openzeppelin/contracts/access/Ownable.sol\":1638:1723  function owner() public view virtual returns (address) {... */\n    tag_12:\n      tag_52\n      tag_53\n      jump\t// in\n    tag_52:\n      mload(0x40)\n      tag_54\n      swap2\n      swap1\n      tag_55\n      jump\t// in\n    tag_54:\n      mload(0x40)\n      dup1\n      swap2\n      sub\n      swap1\n      return\n        /* \"Twitter.sol\":2947:3056  function getTweet(uint _i) public view returns (Tweet memory){... */\n    tag_13:\n      tag_56\n      0x04\n      dup1\n      calldatasize\n      sub\n      dup2\n      add\n      swap1\n      tag_57\n      swap2\n      swap1\n      tag_50\n      jump\t// in\n    tag_57:\n      tag_58\n      jump\t// in\n    tag_56:\n      mload(0x40)\n      tag_59\n      swap2\n      swap1\n      tag_60\n      jump\t// in\n    tag_59:\n      mload(0x40)\n      dup1\n      swap2\n      sub\n      swap1\n      return\n        /* \"@openzeppelin/contracts/access/Ownable.sol\":2543:2758  function transferOwnership(address newOwner) public virtual onlyOwner {... */\n    tag_14:\n      tag_61\n      0x04\n      dup1\n      calldatasize\n      sub\n      dup2\n      add\n      swap1\n      tag_62\n      swap2\n      swap1\n      tag_24\n      jump\t// in\n    tag_62:\n      tag_63\n      jump\t// in\n    tag_61:\n      stop\n        /* \"Twitter.sol\":543:584  mapping(address => Tweet[]) public tweets */\n    tag_19:\n      mstore(0x20, 0x02)\n      dup2\n      0x00\n      mstore\n      keccak256(0x00, 0x40)\n      dup2\n      dup2\n      sload\n      dup2\n      lt\n      tag_64\n      jumpi\n      0x00\n      dup1\n      revert\n    tag_64:\n      swap1\n      0x00\n      mstore\n      keccak256(0x00, 0x20)\n      swap1\n      0x05\n      mul\n      add\n      0x00\n      swap2\n      pop\n      swap2\n      pop\n      pop\n      dup1\n      0x00\n      add\n      sload\n      swap1\n      dup1\n      0x01\n      add\n      0x00\n      swap1\n      sload\n      swap1\n      0x0100\n      exp\n      swap1\n      div\n      0xffffffffffffffffffffffffffffffffffffffff\n      and\n      swap1\n      dup1\n      0x02\n      add\n      dup1\n      sload\n      tag_66\n      swap1\n      tag_67\n      jump\t// in\n    tag_66:\n      dup1\n      0x1f\n      add\n      0x20\n      dup1\n      swap2\n      div\n      mul\n      0x20\n      add\n      mload(0x40)\n      swap1\n      dup2\n      add\n      0x40\n      mstore\n      dup1\n      swap3\n      swap2\n      swap1\n      dup2\n      dup2\n      mstore\n      0x20\n      add\n      dup3\n      dup1\n      sload\n      tag_68\n      swap1\n      tag_67\n      jump\t// in\n    tag_68:\n      dup1\n      iszero\n      tag_69\n      jumpi\n      dup1\n      0x1f\n      lt\n      tag_70\n      jumpi\n      0x0100\n      dup1\n      dup4\n      sload\n      div\n      mul\n      dup4\n      mstore\n      swap2\n      0x20\n      add\n      swap2\n      jump(tag_69)\n    tag_70:\n      dup3\n      add\n      swap2\n      swap1\n      0x00\n      mstore\n      keccak256(0x00, 0x20)\n      swap1\n    tag_71:\n      dup2\n      sload\n      dup2\n      mstore\n      swap1\n      0x01\n      add\n      swap1\n      0x20\n      add\n      dup1\n      dup4\n      gt\n      tag_71\n      jumpi\n      dup3\n      swap1\n      sub\n      0x1f\n      and\n      dup3\n      add\n      swap2\n    tag_69:\n      pop\n      pop\n      pop\n      pop\n      pop\n      swap1\n      dup1\n      0x03\n      add\n      sload\n      swap1\n      dup1\n      0x04\n      add\n      sload\n      swap1\n      pop\n      dup6\n      jump\t// out\n        /* \"Twitter.sol\":3064:3178  function getAllTweets(address _owner) public view returns (Tweet[] memory){... */\n    tag_25:\n        /* \"Twitter.sol\":3123:3137  Tweet[] memory */\n      0x60\n        /* \"Twitter.sol\":3156:3162  tweets */\n      0x02\n        /* \"Twitter.sol\":3156:3170  tweets[_owner] */\n      0x00\n        /* \"Twitter.sol\":3163:3169  _owner */\n      dup4\n        /* \"Twitter.sol\":3156:3170  tweets[_owner] */\n      0xffffffffffffffffffffffffffffffffffffffff\n      and\n      0xffffffffffffffffffffffffffffffffffffffff\n      and\n      dup2\n      mstore\n      0x20\n      add\n      swap1\n      dup2\n      mstore\n      0x20\n      add\n      0x00\n      keccak256\n        /* \"Twitter.sol\":3149:3170  return tweets[_owner] */\n      dup1\n      sload\n      dup1\n      0x20\n      mul\n      0x20\n      add\n      mload(0x40)\n      swap1\n      dup2\n      add\n      0x40\n      mstore\n      dup1\n      swap3\n      swap2\n      swap1\n      dup2\n      dup2\n      mstore\n      0x20\n      add\n      0x00\n      swap1\n    tag_73:\n      dup3\n      dup3\n      lt\n      iszero\n      tag_74\n      jumpi\n      dup4\n      dup3\n      swap1\n      0x00\n      mstore\n      keccak256(0x00, 0x20)\n      swap1\n      0x05\n      mul\n      add\n      mload(0x40)\n      dup1\n      0xa0\n      add\n      0x40\n      mstore\n      swap1\n      dup2\n      0x00\n      dup3\n      add\n      sload\n      dup2\n      mstore\n      0x20\n      add\n      0x01\n      dup3\n      add\n      0x00\n      swap1\n      sload\n      swap1\n      0x0100\n      exp\n      swap1\n      div\n      0xffffffffffffffffffffffffffffffffffffffff\n      and\n      0xffffffffffffffffffffffffffffffffffffffff\n      and\n      0xffffffffffffffffffffffffffffffffffffffff\n      and\n      dup2\n      mstore\n      0x20\n      add\n      0x02\n      dup3\n      add\n      dup1\n      sload\n      tag_76\n      swap1\n      tag_67\n      jump\t// in\n    tag_76:\n      dup1\n      0x1f\n      add\n      0x20\n      dup1\n      swap2\n      div\n      mul\n      0x20\n      add\n      mload(0x40)\n      swap1\n      dup2\n      add\n      0x40\n      mstore\n      dup1\n      swap3\n      swap2\n      swap1\n      dup2\n      dup2\n      mstore\n      0x20\n      add\n      dup3\n      dup1\n      sload\n      tag_77\n      swap1\n      tag_67\n      jump\t// in\n    tag_77:\n      dup1\n      iszero\n      tag_78\n      jumpi\n      dup1\n      0x1f\n      lt\n      tag_79\n      jumpi\n      0x0100\n      dup1\n      dup4\n      sload\n      div\n      mul\n      dup4\n      mstore\n      swap2\n      0x20\n      add\n      swap2\n      jump(tag_78)\n    tag_79:\n      dup3\n      add\n      swap2\n      swap1\n      0x00\n      mstore\n      keccak256(0x00, 0x20)\n      swap1\n    tag_80:\n      dup2\n      sload\n      dup2\n      mstore\n      swap1\n      0x01\n      add\n      swap1\n      0x20\n      add\n      dup1\n      dup4\n      gt\n      tag_80\n      jumpi\n      dup3\n      swap1\n      sub\n      0x1f\n      and\n      dup3\n      add\n      swap2\n    tag_78:\n      pop\n      pop\n      pop\n      pop\n      pop\n      dup2\n      mstore\n      0x20\n      add\n      0x03\n      dup3\n      add\n      sload\n      dup2\n      mstore\n      0x20\n      add\n      0x04\n      dup3\n      add\n      sload\n      dup2\n      mstore\n      pop\n      pop\n      dup2\n      mstore\n      0x20\n      add\n      swap1\n      0x01\n      add\n      swap1\n      jump(tag_73)\n    tag_74:\n      pop\n      pop\n      pop\n      pop\n      swap1\n      pop\n        /* \"Twitter.sol\":3064:3178  function getAllTweets(address _owner) public view returns (Tweet[] memory){... */\n      swap2\n      swap1\n      pop\n      jump\t// out\n        /* \"Twitter.sol\":2606:2939  function unlikeTweet(address author, uint256 id) external onlyRegistered{... */\n    tag_30:\n        /* \"Twitter.sol\":710:753  IProfile.UserProfile memory userProfileTemp */\n      0x00\n        /* \"Twitter.sol\":756:771  profileContract */\n      0x03\n      0x00\n      swap1\n      sload\n      swap1\n      0x0100\n      exp\n      swap1\n      div\n      0xffffffffffffffffffffffffffffffffffffffff\n      and\n        /* \"Twitter.sol\":756:782  profileContract.getProfile */\n      0xffffffffffffffffffffffffffffffffffffffff\n      and\n      0x0f53a470\n        /* \"Twitter.sol\":783:793  msg.sender */\n      caller\n        /* \"Twitter.sol\":756:794  profileContract.getProfile(msg.sender) */\n      mload(0x40)\n      dup3\n      0xffffffff\n      and\n      0xe0\n      shl\n      dup2\n      mstore\n      0x04\n      add\n      tag_82\n      swap2\n      swap1\n      tag_55\n      jump\t// in\n    tag_82:\n      0x00\n      mload(0x40)\n      dup1\n      dup4\n      sub\n      dup2\n      dup7\n      gas\n      staticcall\n      iszero\n      dup1\n      iszero\n      tag_84\n      jumpi\n      returndatacopy(0x00, 0x00, returndatasize)\n      revert(0x00, returndatasize)\n    tag_84:\n      pop\n      pop\n      pop\n      pop\n      mload(0x40)\n      returndatasize\n      0x00\n      dup3\n      returndatacopy\n      returndatasize\n      not(0x1f)\n      0x1f\n      dup3\n      add\n      and\n      dup3\n      add\n      dup1\n      0x40\n      mstore\n      pop\n      dup2\n      add\n      swap1\n      tag_85\n      swap2\n      swap1\n      tag_86\n      jump\t// in\n    tag_85:\n        /* \"Twitter.sol\":710:794  IProfile.UserProfile memory userProfileTemp = profileContract.getProfile(msg.sender) */\n      swap1\n      pop\n        /* \"Twitter.sol\":855:856  0 */\n      0x00\n        /* \"Twitter.sol\":819:834  userProfileTemp */\n      dup2\n        /* \"Twitter.sol\":819:846  userProfileTemp.displayName */\n      0x00\n      add\n      mload\n        /* \"Twitter.sol\":813:854  bytes(userProfileTemp.displayName).length */\n      mload\n        /* \"Twitter.sol\":813:856  bytes(userProfileTemp.displayName).length>0 */\n      gt\n        /* \"Twitter.sol\":805:879  require(bytes(userProfileTemp.displayName).length>0, \"user not registerd\") */\n      tag_87\n      jumpi\n      mload(0x40)\n      0x08c379a000000000000000000000000000000000000000000000000000000000\n      dup2\n      mstore\n      0x04\n      add\n      tag_88\n      swap1\n      tag_89\n      jump\t// in\n    tag_88:\n      mload(0x40)\n      dup1\n      swap2\n      sub\n      swap1\n      revert\n    tag_87:\n        /* \"Twitter.sol\":2722:2724  id */\n      dup2\n        /* \"Twitter.sol\":2697:2703  tweets */\n      0x02\n        /* \"Twitter.sol\":2697:2711  tweets[author] */\n      0x00\n        /* \"Twitter.sol\":2704:2710  author */\n      dup6\n        /* \"Twitter.sol\":2697:2711  tweets[author] */\n      0xffffffffffffffffffffffffffffffffffffffff\n      and\n      0xffffffffffffffffffffffffffffffffffffffff\n      and\n      dup2\n      mstore\n      0x20\n      add\n      swap1\n      dup2\n      mstore\n      0x20\n      add\n      0x00\n      keccak256\n        /* \"Twitter.sol\":2712:2714  id */\n      dup4\n        /* \"Twitter.sol\":2697:2715  tweets[author][id] */\n      dup2\n      sload\n      dup2\n      lt\n      tag_91\n      jumpi\n      tag_92\n      tag_93\n      jump\t// in\n    tag_92:\n    tag_91:\n      swap1\n      0x00\n      mstore\n      keccak256(0x00, 0x20)\n      swap1\n      0x05\n      mul\n      add\n        /* \"Twitter.sol\":2697:2718  tweets[author][id].id */\n      0x00\n      add\n      sload\n        /* \"Twitter.sol\":2697:2724  tweets[author][id].id == id */\n      eq\n        /* \"Twitter.sol\":2689:2747  require(tweets[author][id].id == id, \"Tweet doesnt exist\") */\n      tag_95\n      jumpi\n      mload(0x40)\n      0x08c379a000000000000000000000000000000000000000000000000000000000\n      dup2\n      mstore\n      0x04\n      add\n      tag_96\n      swap1\n      tag_97\n      jump\t// in\n    tag_96:\n      mload(0x40)\n      dup1\n      swap2\n      sub\n      swap1\n      revert\n    tag_95:\n        /* \"Twitter.sol\":2791:2792  0 */\n      0x00\n        /* \"Twitter.sol\":2766:2772  tweets */\n      0x02\n        /* \"Twitter.sol\":2766:2780  tweets[author] */\n      0x00\n        /* \"Twitter.sol\":2773:2779  author */\n      dup6\n        /* \"Twitter.sol\":2766:2780  tweets[author] */\n      0xffffffffffffffffffffffffffffffffffffffff\n      and\n      0xffffffffffffffffffffffffffffffffffffffff\n      and\n      dup2\n      mstore\n      0x20\n      add\n      swap1\n      dup2\n      mstore\n      0x20\n      add\n      0x00\n      keccak256\n        /* \"Twitter.sol\":2781:2783  id */\n      dup4\n        /* \"Twitter.sol\":2766:2784  tweets[author][id] */\n      dup2\n      sload\n      dup2\n      lt\n      tag_98\n      jumpi\n      tag_99\n      tag_93\n      jump\t// in\n    tag_99:\n    tag_98:\n      swap1\n      0x00\n      mstore\n      keccak256(0x00, 0x20)\n      swap1\n      0x05\n      mul\n      add\n        /* \"Twitter.sol\":2766:2790  tweets[author][id].likes */\n      0x04\n      add\n      sload\n        /* \"Twitter.sol\":2766:2792  tweets[author][id].likes>0 */\n      gt\n        /* \"Twitter.sol\":2758:2814  require(tweets[author][id].likes>0, \"Tweet has no like\") */\n      tag_101\n      jumpi\n      mload(0x40)\n      0x08c379a000000000000000000000000000000000000000000000000000000000\n      dup2\n      mstore\n      0x04\n      add\n      tag_102\n      swap1\n      tag_103\n      jump\t// in\n    tag_102:\n      mload(0x40)\n      dup1\n      swap2\n      sub\n      swap1\n      revert\n    tag_101:\n        /* \"Twitter.sol\":2825:2831  tweets */\n      0x02\n        /* \"Twitter.sol\":2825:2839  tweets[author] */\n      0x00\n        /* \"Twitter.sol\":2832:2838  author */\n      dup5\n        /* \"Twitter.sol\":2825:2839  tweets[author] */\n      0xffffffffffffffffffffffffffffffffffffffff\n      and\n      0xffffffffffffffffffffffffffffffffffffffff\n      and\n      dup2\n      mstore\n      0x20\n      add\n      swap1\n      dup2\n      mstore\n      0x20\n      add\n      0x00\n      keccak256\n        /* \"Twitter.sol\":2840:2842  id */\n      dup3\n        /* \"Twitter.sol\":2825:2843  tweets[author][id] */\n      dup2\n      sload\n      dup2\n      lt\n      tag_104\n      jumpi\n      tag_105\n      tag_93\n      jump\t// in\n    tag_105:\n    tag_104:\n      swap1\n      0x00\n      mstore\n      keccak256(0x00, 0x20)\n      swap1\n      0x05\n      mul\n      add\n        /* \"Twitter.sol\":2825:2849  tweets[author][id].likes */\n      0x04\n      add\n      0x00\n        /* \"Twitter.sol\":2825:2851  tweets[author][id].likes-- */\n      dup2\n      sload\n      dup1\n      swap3\n      swap2\n      swap1\n      tag_107\n      swap1\n      tag_108\n      jump\t// in\n    tag_107:\n      swap2\n      swap1\n      pop\n      sstore\n      pop\n        /* \"Twitter.sol\":2869:2931  TweetUnliked(msg.sender, author, id, tweets[author][id].likes) */\n      0x762c2616349603ac16eba0de8e6141b79129a07ab63bd99e0a80b3a471716943\n        /* \"Twitter.sol\":2882:2892  msg.sender */\n      caller\n        /* \"Twitter.sol\":2894:2900  author */\n      dup5\n        /* \"Twitter.sol\":2902:2904  id */\n      dup5\n        /* \"Twitter.sol\":2906:2912  tweets */\n      0x02\n        /* \"Twitter.sol\":2906:2920  tweets[author] */\n      0x00\n        /* \"Twitter.sol\":2913:2919  author */\n      dup9\n        /* \"Twitter.sol\":2906:2920  tweets[author] */\n      0xffffffffffffffffffffffffffffffffffffffff\n      and\n      0xffffffffffffffffffffffffffffffffffffffff\n      and\n      dup2\n      mstore\n      0x20\n      add\n      swap1\n      dup2\n      mstore\n      0x20\n      add\n      0x00\n      keccak256\n        /* \"Twitter.sol\":2921:2923  id */\n      dup7\n        /* \"Twitter.sol\":2906:2924  tweets[author][id] */\n      dup2\n      sload\n      dup2\n      lt\n      tag_109\n      jumpi\n      tag_110\n      tag_93\n      jump\t// in\n    tag_110:\n    tag_109:\n      swap1\n      0x00\n      mstore\n      keccak256(0x00, 0x20)\n      swap1\n      0x05\n      mul\n      add\n        /* \"Twitter.sol\":2906:2930  tweets[author][id].likes */\n      0x04\n      add\n      sload\n        /* \"Twitter.sol\":2869:2931  TweetUnliked(msg.sender, author, id, tweets[author][id].likes) */\n      mload(0x40)\n      tag_112\n      swap5\n      swap4\n      swap3\n      swap2\n      swap1\n      tag_113\n      jump\t// in\n    tag_112:\n      mload(0x40)\n      dup1\n      swap2\n      sub\n      swap1\n      log1\n        /* \"Twitter.sol\":699:899  {... */\n      pop\n        /* \"Twitter.sol\":2606:2939  function unlikeTweet(address author, uint256 id) external onlyRegistered{... */\n      pop\n      pop\n      jump\t// out\n        /* \"Twitter.sol\":2232:2494  function likeTweet(address author, uint256 id) external onlyRegistered{... */\n    tag_33:\n        /* \"Twitter.sol\":710:753  IProfile.UserProfile memory userProfileTemp */\n      0x00\n        /* \"Twitter.sol\":756:771  profileContract */\n      0x03\n      0x00\n      swap1\n      sload\n      swap1\n      0x0100\n      exp\n      swap1\n      div\n      0xffffffffffffffffffffffffffffffffffffffff\n      and\n        /* \"Twitter.sol\":756:782  profileContract.getProfile */\n      0xffffffffffffffffffffffffffffffffffffffff\n      and\n      0x0f53a470\n        /* \"Twitter.sol\":783:793  msg.sender */\n      caller\n        /* \"Twitter.sol\":756:794  profileContract.getProfile(msg.sender) */\n      mload(0x40)\n      dup3\n      0xffffffff\n      and\n      0xe0\n      shl\n      dup2\n      mstore\n      0x04\n      add\n      tag_115\n      swap2\n      swap1\n      tag_55\n      jump\t// in\n    tag_115:\n      0x00\n      mload(0x40)\n      dup1\n      dup4\n      sub\n      dup2\n      dup7\n      gas\n      staticcall\n      iszero\n      dup1\n      iszero\n      tag_117\n      jumpi\n      returndatacopy(0x00, 0x00, returndatasize)\n      revert(0x00, returndatasize)\n    tag_117:\n      pop\n      pop\n      pop\n      pop\n      mload(0x40)\n      returndatasize\n      0x00\n      dup3\n      returndatacopy\n      returndatasize\n      not(0x1f)\n      0x1f\n      dup3\n      add\n      and\n      dup3\n      add\n      dup1\n      0x40\n      mstore\n      pop\n      dup2\n      add\n      swap1\n      tag_118\n      swap2\n      swap1\n      tag_86\n      jump\t// in\n    tag_118:\n        /* \"Twitter.sol\":710:794  IProfile.UserProfile memory userProfileTemp = profileContract.getProfile(msg.sender) */\n      swap1\n      pop\n        /* \"Twitter.sol\":855:856  0 */\n      0x00\n        /* \"Twitter.sol\":819:834  userProfileTemp */\n      dup2\n        /* \"Twitter.sol\":819:846  userProfileTemp.displayName */\n      0x00\n      add\n      mload\n        /* \"Twitter.sol\":813:854  bytes(userProfileTemp.displayName).length */\n      mload\n        /* \"Twitter.sol\":813:856  bytes(userProfileTemp.displayName).length>0 */\n      gt\n        /* \"Twitter.sol\":805:879  require(bytes(userProfileTemp.displayName).length>0, \"user not registerd\") */\n      tag_119\n      jumpi\n      mload(0x40)\n      0x08c379a000000000000000000000000000000000000000000000000000000000\n      dup2\n      mstore\n      0x04\n      add\n      tag_120\n      swap1\n      tag_89\n      jump\t// in\n    tag_120:\n      mload(0x40)\n      dup1\n      swap2\n      sub\n      swap1\n      revert\n    tag_119:\n        /* \"Twitter.sol\":2346:2348  id */\n      dup2\n        /* \"Twitter.sol\":2321:2327  tweets */\n      0x02\n        /* \"Twitter.sol\":2321:2335  tweets[author] */\n      0x00\n        /* \"Twitter.sol\":2328:2334  author */\n      dup6\n        /* \"Twitter.sol\":2321:2335  tweets[author] */\n      0xffffffffffffffffffffffffffffffffffffffff\n      and\n      0xffffffffffffffffffffffffffffffffffffffff\n      and\n      dup2\n      mstore\n      0x20\n      add\n      swap1\n      dup2\n      mstore\n      0x20\n      add\n      0x00\n      keccak256\n        /* \"Twitter.sol\":2336:2338  id */\n      dup4\n        /* \"Twitter.sol\":2321:2339  tweets[author][id] */\n      dup2\n      sload\n      dup2\n      lt\n      tag_122\n      jumpi\n      tag_123\n      tag_93\n      jump\t// in\n    tag_123:\n    tag_122:\n      swap1\n      0x00\n      mstore\n      keccak256(0x00, 0x20)\n      swap1\n      0x05\n      mul\n      add\n        /* \"Twitter.sol\":2321:2342  tweets[author][id].id */\n      0x00\n      add\n      sload\n        /* \"Twitter.sol\":2321:2348  tweets[author][id].id == id */\n      eq\n        /* \"Twitter.sol\":2313:2371  require(tweets[author][id].id == id, \"Tweet doesnt exist\") */\n      tag_125\n      jumpi\n      mload(0x40)\n      0x08c379a000000000000000000000000000000000000000000000000000000000\n      dup2\n      mstore\n      0x04\n      add\n      tag_126\n      swap1\n      tag_97\n      jump\t// in\n    tag_126:\n      mload(0x40)\n      dup1\n      swap2\n      sub\n      swap1\n      revert\n    tag_125:\n        /* \"Twitter.sol\":2382:2388  tweets */\n      0x02\n        /* \"Twitter.sol\":2382:2396  tweets[author] */\n      0x00\n        /* \"Twitter.sol\":2389:2395  author */\n      dup5\n        /* \"Twitter.sol\":2382:2396  tweets[author] */\n      0xffffffffffffffffffffffffffffffffffffffff\n      and\n      0xffffffffffffffffffffffffffffffffffffffff\n      and\n      dup2\n      mstore\n      0x20\n      add\n      swap1\n      dup2\n      mstore\n      0x20\n      add\n      0x00\n      keccak256\n        /* \"Twitter.sol\":2397:2399  id */\n      dup3\n        /* \"Twitter.sol\":2382:2400  tweets[author][id] */\n      dup2\n      sload\n      dup2\n      lt\n      tag_127\n      jumpi\n      tag_128\n      tag_93\n      jump\t// in\n    tag_128:\n    tag_127:\n      swap1\n      0x00\n      mstore\n      keccak256(0x00, 0x20)\n      swap1\n      0x05\n      mul\n      add\n        /* \"Twitter.sol\":2382:2406  tweets[author][id].likes */\n      0x04\n      add\n      0x00\n        /* \"Twitter.sol\":2382:2408  tweets[author][id].likes++ */\n      dup2\n      sload\n      dup1\n      swap3\n      swap2\n      swap1\n      tag_130\n      swap1\n      tag_131\n      jump\t// in\n    tag_130:\n      swap2\n      swap1\n      pop\n      sstore\n      pop\n        /* \"Twitter.sol\":2426:2486  TweetLiked(msg.sender, author, id, tweets[author][id].likes) */\n      0xe8a76fc0f16d11a00d1e93b689b63d76cf60af914dd3d915375dc41d01a0c3c8\n        /* \"Twitter.sol\":2437:2447  msg.sender */\n      caller\n        /* \"Twitter.sol\":2449:2455  author */\n      dup5\n        /* \"Twitter.sol\":2457:2459  id */\n      dup5\n        /* \"Twitter.sol\":2461:2467  tweets */\n      0x02\n        /* \"Twitter.sol\":2461:2475  tweets[author] */\n      0x00\n        /* \"Twitter.sol\":2468:2474  author */\n      dup9\n        /* \"Twitter.sol\":2461:2475  tweets[author] */\n      0xffffffffffffffffffffffffffffffffffffffff\n      and\n      0xffffffffffffffffffffffffffffffffffffffff\n      and\n      dup2\n      mstore\n      0x20\n      add\n      swap1\n      dup2\n      mstore\n      0x20\n      add\n      0x00\n      keccak256\n        /* \"Twitter.sol\":2476:2478  id */\n      dup7\n        /* \"Twitter.sol\":2461:2479  tweets[author][id] */\n      dup2\n      sload\n      dup2\n      lt\n      tag_132\n      jumpi\n      tag_133\n      tag_93\n      jump\t// in\n    tag_133:\n    tag_132:\n      swap1\n      0x00\n      mstore\n      keccak256(0x00, 0x20)\n      swap1\n      0x05\n      mul\n      add\n        /* \"Twitter.sol\":2461:2485  tweets[author][id].likes */\n      0x04\n      add\n      sload\n        /* \"Twitter.sol\":2426:2486  TweetLiked(msg.sender, author, id, tweets[author][id].likes) */\n      mload(0x40)\n      tag_135\n      swap5\n      swap4\n      swap3\n      swap2\n      swap1\n      tag_113\n      jump\t// in\n    tag_135:\n      mload(0x40)\n      dup1\n      swap2\n      sub\n      swap1\n      log1\n        /* \"Twitter.sol\":699:899  {... */\n      pop\n        /* \"Twitter.sol\":2232:2494  function likeTweet(address author, uint256 id) external onlyRegistered{... */\n      pop\n      pop\n      jump\t// out\n        /* \"Twitter.sol\":346:383  uint256 public MAX_TWEET_LENGTH = 280 */\n    tag_35:\n      sload(0x01)\n      dup2\n      jump\t// out\n        /* \"@openzeppelin/contracts/access/Ownable.sol\":2293:2394  function renounceOwnership() public virtual onlyOwner {... */\n    tag_39:\n        /* \"@openzeppelin/contracts/access/Ownable.sol\":1531:1544  _checkOwner() */\n      tag_137\n        /* \"@openzeppelin/contracts/access/Ownable.sol\":1531:1542  _checkOwner */\n      tag_138\n        /* \"@openzeppelin/contracts/access/Ownable.sol\":1531:1544  _checkOwner() */\n      jump\t// in\n    tag_137:\n        /* \"@openzeppelin/contracts/access/Ownable.sol\":2357:2387  _transferOwnership(address(0)) */\n      tag_140\n        /* \"@openzeppelin/contracts/access/Ownable.sol\":2384:2385  0 */\n      0x00\n        /* \"@openzeppelin/contracts/access/Ownable.sol\":2357:2375  _transferOwnership */\n      tag_141\n        /* \"@openzeppelin/contracts/access/Ownable.sol\":2357:2387  _transferOwnership(address(0)) */\n      jump\t// in\n    tag_140:\n        /* \"@openzeppelin/contracts/access/Ownable.sol\":2293:2394  function renounceOwnership() public virtual onlyOwner {... */\n      jump\t// out\n        /* \"Twitter.sol\":1597:2124  function createTweet(string memory _tweet) public onlyRegistered{... */\n    tag_43:\n        /* \"Twitter.sol\":710:753  IProfile.UserProfile memory userProfileTemp */\n      0x00\n        /* \"Twitter.sol\":756:771  profileContract */\n      0x03\n      0x00\n      swap1\n      sload\n      swap1\n      0x0100\n      exp\n      swap1\n      div\n      0xffffffffffffffffffffffffffffffffffffffff\n      and\n        /* \"Twitter.sol\":756:782  profileContract.getProfile */\n      0xffffffffffffffffffffffffffffffffffffffff\n      and\n      0x0f53a470\n        /* \"Twitter.sol\":783:793  msg.sender */\n      caller\n        /* \"Twitter.sol\":756:794  profileContract.getProfile(msg.sender) */\n      mload(0x40)\n      dup3\n      0xffffffff\n      and\n      0xe0\n      shl\n      dup2\n      mstore\n      0x04\n      add\n      tag_143\n      swap2\n      swap1\n      tag_55\n      jump\t// in\n    tag_143:\n      0x00\n      mload(0x40)\n      dup1\n      dup4\n      sub\n      dup2\n      dup7\n      gas\n      staticcall\n      iszero\n      dup1\n      iszero\n      tag_145\n      jumpi\n      returndatacopy(0x00, 0x00, returndatasize)\n      revert(0x00, returndatasize)\n    tag_145:\n      pop\n      pop\n      pop\n      pop\n      mload(0x40)\n      returndatasize\n      0x00\n      dup3\n      returndatacopy\n      returndatasize\n      not(0x1f)\n      0x1f\n      dup3\n      add\n      and\n      dup3\n      add\n      dup1\n      0x40\n      mstore\n      pop\n      dup2\n      add\n      swap1\n      tag_146\n      swap2\n      swap1\n      tag_86\n      jump\t// in\n    tag_146:\n        /* \"Twitter.sol\":710:794  IProfile.UserProfile memory userProfileTemp = profileContract.getProfile(msg.sender) */\n      swap1\n      pop\n        /* \"Twitter.sol\":855:856  0 */\n      0x00\n        /* \"Twitter.sol\":819:834  userProfileTemp */\n      dup2\n        /* \"Twitter.sol\":819:846  userProfileTemp.displayName */\n      0x00\n      add\n      mload\n        /* \"Twitter.sol\":813:854  bytes(userProfileTemp.displayName).length */\n      mload\n        /* \"Twitter.sol\":813:856  bytes(userProfileTemp.displayName).length>0 */\n      gt\n        /* \"Twitter.sol\":805:879  require(bytes(userProfileTemp.displayName).length>0, \"user not registerd\") */\n      tag_147\n      jumpi\n      mload(0x40)\n      0x08c379a000000000000000000000000000000000000000000000000000000000\n      dup2\n      mstore\n      0x04\n      add\n      tag_148\n      swap1\n      tag_89\n      jump\t// in\n    tag_148:\n      mload(0x40)\n      dup1\n      swap2\n      sub\n      swap1\n      revert\n    tag_147:\n        /* \"Twitter.sol\":1706:1722  MAX_TWEET_LENGTH */\n      sload(0x01)\n        /* \"Twitter.sol\":1688:1694  _tweet */\n      dup3\n        /* \"Twitter.sol\":1682:1702  bytes(_tweet).length */\n      mload\n        /* \"Twitter.sol\":1682:1722  bytes(_tweet).length <= MAX_TWEET_LENGTH */\n      gt\n      iszero\n        /* \"Twitter.sol\":1674:1746  require(bytes(_tweet).length <= MAX_TWEET_LENGTH, \"Tweet too long bruh\") */\n      tag_150\n      jumpi\n      mload(0x40)\n      0x08c379a000000000000000000000000000000000000000000000000000000000\n      dup2\n      mstore\n      0x04\n      add\n      tag_151\n      swap1\n      tag_152\n      jump\t// in\n    tag_151:\n      mload(0x40)\n      dup1\n      swap2\n      sub\n      swap1\n      revert\n    tag_150:\n        /* \"Twitter.sol\":1759:1780  Tweet memory newTweet */\n      0x00\n        /* \"Twitter.sol\":1783:1972  Tweet({... */\n      mload(0x40)\n      dup1\n      0xa0\n      add\n      0x40\n      mstore\n      dup1\n        /* \"Twitter.sol\":1808:1814  tweets */\n      0x02\n        /* \"Twitter.sol\":1808:1826  tweets[msg.sender] */\n      0x00\n        /* \"Twitter.sol\":1815:1825  msg.sender */\n      caller\n        /* \"Twitter.sol\":1808:1826  tweets[msg.sender] */\n      0xffffffffffffffffffffffffffffffffffffffff\n      and\n      0xffffffffffffffffffffffffffffffffffffffff\n      and\n      dup2\n      mstore\n      0x20\n      add\n      swap1\n      dup2\n      mstore\n      0x20\n      add\n      0x00\n      keccak256\n        /* \"Twitter.sol\":1808:1833  tweets[msg.sender].length */\n      dup1\n      sload\n      swap1\n      pop\n        /* \"Twitter.sol\":1783:1972  Tweet({... */\n      dup2\n      mstore\n      0x20\n      add\n        /* \"Twitter.sol\":1856:1866  msg.sender */\n      caller\n        /* \"Twitter.sol\":1783:1972  Tweet({... */\n      0xffffffffffffffffffffffffffffffffffffffff\n      and\n      dup2\n      mstore\n      0x20\n      add\n        /* \"Twitter.sol\":1890:1896  _tweet */\n      dup5\n        /* \"Twitter.sol\":1783:1972  Tweet({... */\n      dup2\n      mstore\n      0x20\n      add\n        /* \"Twitter.sol\":1922:1937  block.timestamp */\n      timestamp\n        /* \"Twitter.sol\":1783:1972  Tweet({... */\n      dup2\n      mstore\n      0x20\n      add\n        /* \"Twitter.sol\":1959:1960  0 */\n      0x00\n        /* \"Twitter.sol\":1783:1972  Tweet({... */\n      dup2\n      mstore\n      pop\n        /* \"Twitter.sol\":1759:1972  Tweet memory newTweet = Tweet({... */\n      swap1\n      pop\n        /* \"Twitter.sol\":1985:1991  tweets */\n      0x02\n        /* \"Twitter.sol\":1985:2003  tweets[msg.sender] */\n      0x00\n        /* \"Twitter.sol\":1992:2002  msg.sender */\n      caller\n        /* \"Twitter.sol\":1985:2003  tweets[msg.sender] */\n      0xffffffffffffffffffffffffffffffffffffffff\n      and\n      0xffffffffffffffffffffffffffffffffffffffff\n      and\n      dup2\n      mstore\n      0x20\n      add\n      swap1\n      dup2\n      mstore\n      0x20\n      add\n      0x00\n      keccak256\n        /* \"Twitter.sol\":2009:2017  newTweet */\n      dup2\n        /* \"Twitter.sol\":1985:2018  tweets[msg.sender].push(newTweet) */\n      swap1\n      dup1\n      0x01\n      dup2\n      sload\n      add\n      dup1\n      dup3\n      sstore\n      dup1\n      swap2\n      pop\n      pop\n      0x01\n      swap1\n      sub\n      swap1\n      0x00\n      mstore\n      keccak256(0x00, 0x20)\n      swap1\n      0x05\n      mul\n      add\n      0x00\n      swap1\n      swap2\n      swap1\n      swap2\n      swap1\n      swap2\n      pop\n      0x00\n      dup3\n      add\n      mload\n      dup2\n      0x00\n      add\n      sstore\n      0x20\n      dup3\n      add\n      mload\n      dup2\n      0x01\n      add\n      exp(0x0100, 0x00)\n      dup2\n      sload\n      dup2\n      0xffffffffffffffffffffffffffffffffffffffff\n      mul\n      not\n      and\n      swap1\n      dup4\n      0xffffffffffffffffffffffffffffffffffffffff\n      and\n      mul\n      or\n      swap1\n      sstore\n      pop\n      0x40\n      dup3\n      add\n      mload\n      dup2\n      0x02\n      add\n      swap1\n      dup2\n      tag_154\n      swap2\n      swap1\n      tag_155\n      jump\t// in\n    tag_154:\n      pop\n      0x60\n      dup3\n      add\n      mload\n      dup2\n      0x03\n      add\n      sstore\n      0x80\n      dup3\n      add\n      mload\n      dup2\n      0x04\n      add\n      sstore\n      pop\n      pop\n        /* \"Twitter.sol\":2036:2116  TweetCreated(newTweet.id, newTweet.author, newTweet.content, newTweet.timeStamp) */\n      0x16fd3c13e9d46923e0a8bce11c7b473ec508a72e6c96cd2404b29ce972afc29e\n        /* \"Twitter.sol\":2049:2057  newTweet */\n      dup2\n        /* \"Twitter.sol\":2049:2060  newTweet.id */\n      0x00\n      add\n      mload\n        /* \"Twitter.sol\":2062:2070  newTweet */\n      dup3\n        /* \"Twitter.sol\":2062:2077  newTweet.author */\n      0x20\n      add\n      mload\n        /* \"Twitter.sol\":2079:2087  newTweet */\n      dup4\n        /* \"Twitter.sol\":2079:2095  newTweet.content */\n      0x40\n      add\n      mload\n        /* \"Twitter.sol\":2097:2105  newTweet */\n      dup5\n        /* \"Twitter.sol\":2097:2115  newTweet.timeStamp */\n      0x60\n      add\n      mload\n        /* \"Twitter.sol\":2036:2116  TweetCreated(newTweet.id, newTweet.author, newTweet.content, newTweet.timeStamp) */\n      mload(0x40)\n      tag_156\n      swap5\n      swap4\n      swap3\n      swap2\n      swap1\n      tag_157\n      jump\t// in\n    tag_156:\n      mload(0x40)\n      dup1\n      swap2\n      sub\n      swap1\n      log1\n        /* \"Twitter.sol\":1661:2124  {... */\n      pop\n        /* \"Twitter.sol\":699:899  {... */\n      pop\n        /* \"Twitter.sol\":1597:2124  function createTweet(string memory _tweet) public onlyRegistered{... */\n      pop\n      jump\t// out\n        /* \"Twitter.sol\":3186:3438  function getTotalLikes(address _author) external view returns(uint256){... */\n    tag_46:\n        /* \"Twitter.sol\":3248:3255  uint256 */\n      0x00\n        /* \"Twitter.sol\":3267:3285  uint256 totalLikes */\n      0x00\n        /* \"Twitter.sol\":3300:3306  uint i */\n      0x00\n        /* \"Twitter.sol\":3307:3308  0 */\n      0x00\n        /* \"Twitter.sol\":3300:3308  uint i=0 */\n      swap1\n      pop\n        /* \"Twitter.sol\":3296:3401  for(uint i=0;i<tweets[_author].length;i++){... */\n    tag_159:\n        /* \"Twitter.sol\":3311:3317  tweets */\n      0x02\n        /* \"Twitter.sol\":3311:3326  tweets[_author] */\n      0x00\n        /* \"Twitter.sol\":3318:3325  _author */\n      dup6\n        /* \"Twitter.sol\":3311:3326  tweets[_author] */\n      0xffffffffffffffffffffffffffffffffffffffff\n      and\n      0xffffffffffffffffffffffffffffffffffffffff\n      and\n      dup2\n      mstore\n      0x20\n      add\n      swap1\n      dup2\n      mstore\n      0x20\n      add\n      0x00\n      keccak256\n        /* \"Twitter.sol\":3311:3333  tweets[_author].length */\n      dup1\n      sload\n      swap1\n      pop\n        /* \"Twitter.sol\":3309:3310  i */\n      dup2\n        /* \"Twitter.sol\":3309:3333  i<tweets[_author].length */\n      lt\n        /* \"Twitter.sol\":3296:3401  for(uint i=0;i<tweets[_author].length;i++){... */\n      iszero\n      tag_160\n      jumpi\n        /* \"Twitter.sol\":3365:3371  tweets */\n      0x02\n        /* \"Twitter.sol\":3365:3380  tweets[_author] */\n      0x00\n        /* \"Twitter.sol\":3372:3379  _author */\n      dup6\n        /* \"Twitter.sol\":3365:3380  tweets[_author] */\n      0xffffffffffffffffffffffffffffffffffffffff\n      and\n      0xffffffffffffffffffffffffffffffffffffffff\n      and\n      dup2\n      mstore\n      0x20\n      add\n      swap1\n      dup2\n      mstore\n      0x20\n      add\n      0x00\n      keccak256\n        /* \"Twitter.sol\":3381:3382  i */\n      dup2\n        /* \"Twitter.sol\":3365:3383  tweets[_author][i] */\n      dup2\n      sload\n      dup2\n      lt\n      tag_162\n      jumpi\n      tag_163\n      tag_93\n      jump\t// in\n    tag_163:\n    tag_162:\n      swap1\n      0x00\n      mstore\n      keccak256(0x00, 0x20)\n      swap1\n      0x05\n      mul\n      add\n        /* \"Twitter.sol\":3365:3389  tweets[_author][i].likes */\n      0x04\n      add\n      sload\n        /* \"Twitter.sol\":3353:3389  totalLikes+=tweets[_author][i].likes */\n      dup3\n      tag_165\n      swap2\n      swap1\n      tag_166\n      jump\t// in\n    tag_165:\n      swap2\n      pop\n        /* \"Twitter.sol\":3334:3337  i++ */\n      dup1\n      dup1\n      0x01\n      add\n      swap2\n      pop\n      pop\n        /* \"Twitter.sol\":3296:3401  for(uint i=0;i<tweets[_author].length;i++){... */\n      jump(tag_159)\n    tag_160:\n      pop\n        /* \"Twitter.sol\":3420:3430  totalLikes */\n      dup1\n        /* \"Twitter.sol\":3413:3430  return totalLikes */\n      swap2\n      pop\n      pop\n        /* \"Twitter.sol\":3186:3438  function getTotalLikes(address _author) external view returns(uint256){... */\n      swap2\n      swap1\n      pop\n      jump\t// out\n        /* \"Twitter.sol\":1380:1499  function changeTweetLength(uint256 newTweetLength) public onlyOwner{... */\n    tag_51:\n        /* \"@openzeppelin/contracts/access/Ownable.sol\":1531:1544  _checkOwner() */\n      tag_168\n        /* \"@openzeppelin/contracts/access/Ownable.sol\":1531:1542  _checkOwner */\n      tag_138\n        /* \"@openzeppelin/contracts/access/Ownable.sol\":1531:1544  _checkOwner() */\n      jump\t// in\n    tag_168:\n        /* \"Twitter.sol\":1477:1491  newTweetLength */\n      dup1\n        /* \"Twitter.sol\":1458:1474  MAX_TWEET_LENGTH */\n      0x01\n        /* \"Twitter.sol\":1458:1491  MAX_TWEET_LENGTH = newTweetLength */\n      dup2\n      swap1\n      sstore\n      pop\n        /* \"Twitter.sol\":1380:1499  function changeTweetLength(uint256 newTweetLength) public onlyOwner{... */\n      pop\n      jump\t// out\n        /* \"@openzeppelin/contracts/access/Ownable.sol\":1638:1723  function owner() public view virtual returns (address) {... */\n    tag_53:\n        /* \"@openzeppelin/contracts/access/Ownable.sol\":1684:1691  address */\n      0x00\n        /* \"@openzeppelin/contracts/access/Ownable.sol\":1710:1716  _owner */\n      0x00\n      0x00\n      swap1\n      sload\n      swap1\n      0x0100\n      exp\n      swap1\n      div\n      0xffffffffffffffffffffffffffffffffffffffff\n      and\n        /* \"@openzeppelin/contracts/access/Ownable.sol\":1703:1716  return _owner */\n      swap1\n      pop\n        /* \"@openzeppelin/contracts/access/Ownable.sol\":1638:1723  function owner() public view virtual returns (address) {... */\n      swap1\n      jump\t// out\n        /* \"Twitter.sol\":2947:3056  function getTweet(uint _i) public view returns (Tweet memory){... */\n    tag_58:\n        /* \"Twitter.sol\":2995:3007  Tweet memory */\n      tag_171\n      tag_172\n      jump\t// in\n    tag_171:\n        /* \"Twitter.sol\":3026:3032  tweets */\n      0x02\n        /* \"Twitter.sol\":3026:3044  tweets[msg.sender] */\n      0x00\n        /* \"Twitter.sol\":3033:3043  msg.sender */\n      caller\n        /* \"Twitter.sol\":3026:3044  tweets[msg.sender] */\n      0xffffffffffffffffffffffffffffffffffffffff\n      and\n      0xffffffffffffffffffffffffffffffffffffffff\n      and\n      dup2\n      mstore\n      0x20\n      add\n      swap1\n      dup2\n      mstore\n      0x20\n      add\n      0x00\n      keccak256\n        /* \"Twitter.sol\":3045:3047  _i */\n      dup3\n        /* \"Twitter.sol\":3026:3048  tweets[msg.sender][_i] */\n      dup2\n      sload\n      dup2\n      lt\n      tag_174\n      jumpi\n      tag_175\n      tag_93\n      jump\t// in\n    tag_175:\n    tag_174:\n      swap1\n      0x00\n      mstore\n      keccak256(0x00, 0x20)\n      swap1\n      0x05\n      mul\n      add\n        /* \"Twitter.sol\":3019:3048  return tweets[msg.sender][_i] */\n      mload(0x40)\n      dup1\n      0xa0\n      add\n      0x40\n      mstore\n      swap1\n      dup2\n      0x00\n      dup3\n      add\n      sload\n      dup2\n      mstore\n      0x20\n      add\n      0x01\n      dup3\n      add\n      0x00\n      swap1\n      sload\n      swap1\n      0x0100\n      exp\n      swap1\n      div\n      0xffffffffffffffffffffffffffffffffffffffff\n      and\n      0xffffffffffffffffffffffffffffffffffffffff\n      and\n      0xffffffffffffffffffffffffffffffffffffffff\n      and\n      dup2\n      mstore\n      0x20\n      add\n      0x02\n      dup3\n      add\n      dup1\n      sload\n      tag_177\n      swap1\n      tag_67\n      jump\t// in\n    tag_177:\n      dup1\n      0x1f\n      add\n      0x20\n      dup1\n      swap2\n      div\n      mul\n      0x20\n      add\n      mload(0x40)\n      swap1\n      dup2\n      add\n      0x40\n      mstore\n      dup1\n      swap3\n      swap2\n      swap1\n      dup2\n      dup2\n      mstore\n      0x20\n      add\n      dup3\n      dup1\n      sload\n      tag_178\n      swap1\n      tag_67\n      jump\t// in\n    tag_178:\n      dup1\n      iszero\n      tag_179\n      jumpi\n      dup1\n      0x1f\n      lt\n      tag_180\n      jumpi\n      0x0100\n      dup1\n      dup4\n      sload\n      div\n      mul\n      dup4\n      mstore\n      swap2\n      0x20\n      add\n      swap2\n      jump(tag_179)\n    tag_180:\n      dup3\n      add\n      swap2\n      swap1\n      0x00\n      mstore\n      keccak256(0x00, 0x20)\n      swap1\n    tag_181:\n      dup2\n      sload\n      dup2\n      mstore\n      swap1\n      0x01\n      add\n      swap1\n      0x20\n      add\n      dup1\n      dup4\n      gt\n      tag_181\n      jumpi\n      dup3\n      swap1\n      sub\n      0x1f\n      and\n      dup3\n      add\n      swap2\n    tag_179:\n      pop\n      pop\n      pop\n      pop\n      pop\n      dup2\n      mstore\n      0x20\n      add\n      0x03\n      dup3\n      add\n      sload\n      dup2\n      mstore\n      0x20\n      add\n      0x04\n      dup3\n      add\n      sload\n      dup2\n      mstore\n      pop\n      pop\n      swap1\n      pop\n        /* \"Twitter.sol\":2947:3056  function getTweet(uint _i) public view returns (Tweet memory){... */\n      swap2\n      swap1\n      pop\n      jump\t// out\n        /* \"@openzeppelin/contracts/access/Ownable.sol\":2543:2758  function transferOwnership(address newOwner) public virtual onlyOwner {... */\n    tag_63:\n        /* \"@openzeppelin/contracts/access/Ownable.sol\":1531:1544  _checkOwner() */\n      tag_183\n        /* \"@openzeppelin/contracts/access/Ownable.sol\":1531:1542  _checkOwner */\n      tag_138\n        /* \"@openzeppelin/contracts/access/Ownable.sol\":1531:1544  _checkOwner() */\n      jump\t// in\n    tag_183:\n        /* \"@openzeppelin/contracts/access/Ownable.sol\":2647:2648  0 */\n      0x00\n        /* \"@openzeppelin/contracts/access/Ownable.sol\":2627:2649  newOwner == address(0) */\n      0xffffffffffffffffffffffffffffffffffffffff\n      and\n        /* \"@openzeppelin/contracts/access/Ownable.sol\":2627:2635  newOwner */\n      dup2\n        /* \"@openzeppelin/contracts/access/Ownable.sol\":2627:2649  newOwner == address(0) */\n      0xffffffffffffffffffffffffffffffffffffffff\n      and\n      sub\n        /* \"@openzeppelin/contracts/access/Ownable.sol\":2623:2714  if (newOwner == address(0)) {... */\n      tag_185\n      jumpi\n        /* \"@openzeppelin/contracts/access/Ownable.sol\":2700:2701  0 */\n      0x00\n        /* \"@openzeppelin/contracts/access/Ownable.sol\":2672:2703  OwnableInvalidOwner(address(0)) */\n      mload(0x40)\n      0x1e4fbdf700000000000000000000000000000000000000000000000000000000\n      dup2\n      mstore\n      0x04\n      add\n      tag_186\n      swap2\n      swap1\n      tag_55\n      jump\t// in\n    tag_186:\n      mload(0x40)\n      dup1\n      swap2\n      sub\n      swap1\n      revert\n        /* \"@openzeppelin/contracts/access/Ownable.sol\":2623:2714  if (newOwner == address(0)) {... */\n    tag_185:\n        /* \"@openzeppelin/contracts/access/Ownable.sol\":2723:2751  _transferOwnership(newOwner) */\n      tag_187\n        /* \"@openzeppelin/contracts/access/Ownable.sol\":2742:2750  newOwner */\n      dup2\n        /* \"@openzeppelin/contracts/access/Ownable.sol\":2723:2741  _transferOwnership */\n      tag_141\n        /* \"@openzeppelin/contracts/access/Ownable.sol\":2723:2751  _transferOwnership(newOwner) */\n      jump\t// in\n    tag_187:\n        /* \"@openzeppelin/contracts/access/Ownable.sol\":2543:2758  function transferOwnership(address newOwner) public virtual onlyOwner {... */\n      pop\n      jump\t// out\n        /* \"@openzeppelin/contracts/access/Ownable.sol\":1796:1958  function _checkOwner() internal view virtual {... */\n    tag_138:\n        /* \"@openzeppelin/contracts/access/Ownable.sol\":1866:1878  _msgSender() */\n      tag_189\n        /* \"@openzeppelin/contracts/access/Ownable.sol\":1866:1876  _msgSender */\n      tag_190\n        /* \"@openzeppelin/contracts/access/Ownable.sol\":1866:1878  _msgSender() */\n      jump\t// in\n    tag_189:\n        /* \"@openzeppelin/contracts/access/Ownable.sol\":1855:1878  owner() != _msgSender() */\n      0xffffffffffffffffffffffffffffffffffffffff\n      and\n        /* \"@openzeppelin/contracts/access/Ownable.sol\":1855:1862  owner() */\n      tag_191\n        /* \"@openzeppelin/contracts/access/Ownable.sol\":1855:1860  owner */\n      tag_53\n        /* \"@openzeppelin/contracts/access/Ownable.sol\":1855:1862  owner() */\n      jump\t// in\n    tag_191:\n        /* \"@openzeppelin/contracts/access/Ownable.sol\":1855:1878  owner() != _msgSender() */\n      0xffffffffffffffffffffffffffffffffffffffff\n      and\n      eq\n        /* \"@openzeppelin/contracts/access/Ownable.sol\":1851:1952  if (owner() != _msgSender()) {... */\n      tag_192\n      jumpi\n        /* \"@openzeppelin/contracts/access/Ownable.sol\":1928:1940  _msgSender() */\n      tag_193\n        /* \"@openzeppelin/contracts/access/Ownable.sol\":1928:1938  _msgSender */\n      tag_190\n        /* \"@openzeppelin/contracts/access/Ownable.sol\":1928:1940  _msgSender() */\n      jump\t// in\n    tag_193:\n        /* \"@openzeppelin/contracts/access/Ownable.sol\":1901:1941  OwnableUnauthorizedAccount(_msgSender()) */\n      mload(0x40)\n      0x118cdaa700000000000000000000000000000000000000000000000000000000\n      dup2\n      mstore\n      0x04\n      add\n      tag_194\n      swap2\n      swap1\n      tag_55\n      jump\t// in\n    tag_194:\n      mload(0x40)\n      dup1\n      swap2\n      sub\n      swap1\n      revert\n        /* \"@openzeppelin/contracts/access/Ownable.sol\":1851:1952  if (owner() != _msgSender()) {... */\n    tag_192:\n        /* \"@openzeppelin/contracts/access/Ownable.sol\":1796:1958  function _checkOwner() internal view virtual {... */\n      jump\t// out\n        /* \"@openzeppelin/contracts/access/Ownable.sol\":2912:3099  function _transferOwnership(address newOwner) internal virtual {... */\n    tag_141:\n        /* \"@openzeppelin/contracts/access/Ownable.sol\":2985:3001  address oldOwner */\n      0x00\n        /* \"@openzeppelin/contracts/access/Ownable.sol\":3004:3010  _owner */\n      0x00\n      0x00\n      swap1\n      sload\n      swap1\n      0x0100\n      exp\n      swap1\n      div\n      0xffffffffffffffffffffffffffffffffffffffff\n      and\n        /* \"@openzeppelin/contracts/access/Ownable.sol\":2985:3010  address oldOwner = _owner */\n      swap1\n      pop\n        /* \"@openzeppelin/contracts/access/Ownable.sol\":3029:3037  newOwner */\n      dup2\n        /* \"@openzeppelin/contracts/access/Ownable.sol\":3020:3026  _owner */\n      0x00\n      0x00\n        /* \"@openzeppelin/contracts/access/Ownable.sol\":3020:3037  _owner = newOwner */\n      0x0100\n      exp\n      dup2\n      sload\n      dup2\n      0xffffffffffffffffffffffffffffffffffffffff\n      mul\n      not\n      and\n      swap1\n      dup4\n      0xffffffffffffffffffffffffffffffffffffffff\n      and\n      mul\n      or\n      swap1\n      sstore\n      pop\n        /* \"@openzeppelin/contracts/access/Ownable.sol\":3083:3091  newOwner */\n      dup2\n        /* \"@openzeppelin/contracts/access/Ownable.sol\":3052:3092  OwnershipTransferred(oldOwner, newOwner) */\n      0xffffffffffffffffffffffffffffffffffffffff\n      and\n        /* \"@openzeppelin/contracts/access/Ownable.sol\":3073:3081  oldOwner */\n      dup2\n        /* \"@openzeppelin/contracts/access/Ownable.sol\":3052:3092  OwnershipTransferred(oldOwner, newOwner) */\n      0xffffffffffffffffffffffffffffffffffffffff\n      and\n      0x8be0079c531659141344cd1fd0a4f28419497f9722a3daafe3b4186f6b6457e0\n      mload(0x40)\n      mload(0x40)\n      dup1\n      swap2\n      sub\n      swap1\n      log3\n        /* \"@openzeppelin/contracts/access/Ownable.sol\":2975:3099  {... */\n      pop\n        /* \"@openzeppelin/contracts/access/Ownable.sol\":2912:3099  function _transferOwnership(address newOwner) internal virtual {... */\n      pop\n      jump\t// out\n        /* \"@openzeppelin/contracts/utils/Context.sol\":656:752  function _msgSender() internal view virtual returns (address) {... */\n    tag_190:\n        /* \"@openzeppelin/contracts/utils/Context.sol\":709:716  address */\n      0x00\n        /* \"@openzeppelin/contracts/utils/Context.sol\":735:745  msg.sender */\n      caller\n        /* \"@openzeppelin/contracts/utils/Context.sol\":728:745  return msg.sender */\n      swap1\n      pop\n        /* \"@openzeppelin/contracts/utils/Context.sol\":656:752  function _msgSender() internal view virtual returns (address) {... */\n      swap1\n      jump\t// out\n    tag_172:\n      mload(0x40)\n      dup1\n      0xa0\n      add\n      0x40\n      mstore\n      dup1\n      0x00\n      dup2\n      mstore\n      0x20\n      add\n      and(0xffffffffffffffffffffffffffffffffffffffff, 0x00)\n      dup2\n      mstore\n      0x20\n      add\n      0x60\n      dup2\n      mstore\n      0x20\n      add\n      0x00\n      dup2\n      mstore\n      0x20\n      add\n      0x00\n      dup2\n      mstore\n      pop\n      swap1\n      jump\t// out\n        /* \"#utility.yul\":7:82   */\n    tag_197:\n        /* \"#utility.yul\":40:46   */\n      0x00\n        /* \"#utility.yul\":73:75   */\n      0x40\n        /* \"#utility.yul\":67:76   */\n      mload\n        /* \"#utility.yul\":57:76   */\n      swap1\n      pop\n        /* \"#utility.yul\":7:82   */\n      swap1\n      jump\t// out\n        /* \"#utility.yul\":88:205   */\n    tag_198:\n        /* \"#utility.yul\":197:198   */\n      0x00\n        /* \"#utility.yul\":194:195   */\n      0x00\n        /* \"#utility.yul\":187:199   */\n      revert\n        /* \"#utility.yul\":211:328   */\n    tag_199:\n        /* \"#utility.yul\":320:321   */\n      0x00\n        /* \"#utility.yul\":317:318   */\n      0x00\n        /* \"#utility.yul\":310:322   */\n      revert\n        /* \"#utility.yul\":334:460   */\n    tag_200:\n        /* \"#utility.yul\":371:378   */\n      0x00\n        /* \"#utility.yul\":411:453   */\n      0xffffffffffffffffffffffffffffffffffffffff\n        /* \"#utility.yul\":404:409   */\n      dup3\n        /* \"#utility.yul\":400:454   */\n      and\n        /* \"#utility.yul\":389:454   */\n      swap1\n      pop\n        /* \"#utility.yul\":334:460   */\n      swap2\n      swap1\n      pop\n      jump\t// out\n        /* \"#utility.yul\":466:562   */\n    tag_201:\n        /* \"#utility.yul\":503:510   */\n      0x00\n        /* \"#utility.yul\":532:556   */\n      tag_271\n        /* \"#utility.yul\":550:555   */\n      dup3\n        /* \"#utility.yul\":532:556   */\n      tag_200\n      jump\t// in\n    tag_271:\n        /* \"#utility.yul\":521:556   */\n      swap1\n      pop\n        /* \"#utility.yul\":466:562   */\n      swap2\n      swap1\n      pop\n      jump\t// out\n        /* \"#utility.yul\":568:690   */\n    tag_202:\n        /* \"#utility.yul\":641:665   */\n      tag_273\n        /* \"#utility.yul\":659:664   */\n      dup2\n        /* \"#utility.yul\":641:665   */\n      tag_201\n      jump\t// in\n    tag_273:\n        /* \"#utility.yul\":634:639   */\n      dup2\n        /* \"#utility.yul\":631:666   */\n      eq\n        /* \"#utility.yul\":621:684   */\n      tag_274\n      jumpi\n        /* \"#utility.yul\":680:681   */\n      0x00\n        /* \"#utility.yul\":677:678   */\n      0x00\n        /* \"#utility.yul\":670:682   */\n      revert\n        /* \"#utility.yul\":621:684   */\n    tag_274:\n        /* \"#utility.yul\":568:690   */\n      pop\n      jump\t// out\n        /* \"#utility.yul\":696:835   */\n    tag_203:\n        /* \"#utility.yul\":742:747   */\n      0x00\n        /* \"#utility.yul\":780:786   */\n      dup2\n        /* \"#utility.yul\":767:787   */\n      calldataload\n        /* \"#utility.yul\":758:787   */\n      swap1\n      pop\n        /* \"#utility.yul\":796:829   */\n      tag_276\n        /* \"#utility.yul\":823:828   */\n      dup2\n        /* \"#utility.yul\":796:829   */\n      tag_202\n      jump\t// in\n    tag_276:\n        /* \"#utility.yul\":696:835   */\n      swap3\n      swap2\n      pop\n      pop\n      jump\t// out\n        /* \"#utility.yul\":841:918   */\n    tag_204:\n        /* \"#utility.yul\":878:885   */\n      0x00\n        /* \"#utility.yul\":907:912   */\n      dup2\n        /* \"#utility.yul\":896:912   */\n      swap1\n      pop\n        /* \"#utility.yul\":841:918   */\n      swap2\n      swap1\n      pop\n      jump\t// out\n        /* \"#utility.yul\":924:1046   */\n    tag_205:\n        /* \"#utility.yul\":997:1021   */\n      tag_279\n        /* \"#utility.yul\":1015:1020   */\n      dup2\n        /* \"#utility.yul\":997:1021   */\n      tag_204\n      jump\t// in\n    tag_279:\n        /* \"#utility.yul\":990:995   */\n      dup2\n        /* \"#utility.yul\":987:1022   */\n      eq\n        /* \"#utility.yul\":977:1040   */\n      tag_280\n      jumpi\n        /* \"#utility.yul\":1036:1037   */\n      0x00\n        /* \"#utility.yul\":1033:1034   */\n      0x00\n        /* \"#utility.yul\":1026:1038   */\n      revert\n        /* \"#utility.yul\":977:1040   */\n    tag_280:\n        /* \"#utility.yul\":924:1046   */\n      pop\n      jump\t// out\n        /* \"#utility.yul\":1052:1191   */\n    tag_206:\n        /* \"#utility.yul\":1098:1103   */\n      0x00\n        /* \"#utility.yul\":1136:1142   */\n      dup2\n        /* \"#utility.yul\":1123:1143   */\n      calldataload\n        /* \"#utility.yul\":1114:1143   */\n      swap1\n      pop\n        /* \"#utility.yul\":1152:1185   */\n      tag_282\n        /* \"#utility.yul\":1179:1184   */\n      dup2\n        /* \"#utility.yul\":1152:1185   */\n      tag_205\n      jump\t// in\n    tag_282:\n        /* \"#utility.yul\":1052:1191   */\n      swap3\n      swap2\n      pop\n      pop\n      jump\t// out\n        /* \"#utility.yul\":1197:1671   */\n    tag_18:\n        /* \"#utility.yul\":1265:1271   */\n      0x00\n        /* \"#utility.yul\":1273:1279   */\n      0x00\n        /* \"#utility.yul\":1322:1324   */\n      0x40\n        /* \"#utility.yul\":1310:1319   */\n      dup4\n        /* \"#utility.yul\":1301:1308   */\n      dup6\n        /* \"#utility.yul\":1297:1320   */\n      sub\n        /* \"#utility.yul\":1293:1325   */\n      slt\n        /* \"#utility.yul\":1290:1409   */\n      iszero\n      tag_284\n      jumpi\n        /* \"#utility.yul\":1328:1407   */\n      tag_285\n      tag_198\n      jump\t// in\n    tag_285:\n        /* \"#utility.yul\":1290:1409   */\n    tag_284:\n        /* \"#utility.yul\":1448:1449   */\n      0x00\n        /* \"#utility.yul\":1473:1526   */\n      tag_286\n        /* \"#utility.yul\":1518:1525   */\n      dup6\n        /* \"#utility.yul\":1509:1515   */\n      dup3\n        /* \"#utility.yul\":1498:1507   */\n      dup7\n        /* \"#utility.yul\":1494:1516   */\n      add\n        /* \"#utility.yul\":1473:1526   */\n      tag_203\n      jump\t// in\n    tag_286:\n        /* \"#utility.yul\":1463:1526   */\n      swap3\n      pop\n        /* \"#utility.yul\":1419:1536   */\n      pop\n        /* \"#utility.yul\":1575:1577   */\n      0x20\n        /* \"#utility.yul\":1601:1654   */\n      tag_287\n        /* \"#utility.yul\":1646:1653   */\n      dup6\n        /* \"#utility.yul\":1637:1643   */\n      dup3\n        /* \"#utility.yul\":1626:1635   */\n      dup7\n        /* \"#utility.yul\":1622:1644   */\n      add\n        /* \"#utility.yul\":1601:1654   */\n      tag_206\n      jump\t// in\n    tag_287:\n        /* \"#utility.yul\":1591:1654   */\n      swap2\n      pop\n        /* \"#utility.yul\":1546:1664   */\n      pop\n        /* \"#utility.yul\":1197:1671   */\n      swap3\n      pop\n      swap3\n      swap1\n      pop\n      jump\t// out\n        /* \"#utility.yul\":1677:1795   */\n    tag_207:\n        /* \"#utility.yul\":1764:1788   */\n      tag_289\n        /* \"#utility.yul\":1782:1787   */\n      dup2\n        /* \"#utility.yul\":1764:1788   */\n      tag_204\n      jump\t// in\n    tag_289:\n        /* \"#utility.yul\":1759:1762   */\n      dup3\n        /* \"#utility.yul\":1752:1789   */\n      mstore\n        /* \"#utility.yul\":1677:1795   */\n      pop\n      pop\n      jump\t// out\n        /* \"#utility.yul\":1801:1919   */\n    tag_208:\n        /* \"#utility.yul\":1888:1912   */\n      tag_291\n        /* \"#utility.yul\":1906:1911   */\n      dup2\n        /* \"#utility.yul\":1888:1912   */\n      tag_201\n      jump\t// in\n    tag_291:\n        /* \"#utility.yul\":1883:1886   */\n      dup3\n        /* \"#utility.yul\":1876:1913   */\n      mstore\n        /* \"#utility.yul\":1801:1919   */\n      pop\n      pop\n      jump\t// out\n        /* \"#utility.yul\":1925:2024   */\n    tag_209:\n        /* \"#utility.yul\":1977:1983   */\n      0x00\n        /* \"#utility.yul\":2011:2016   */\n      dup2\n        /* \"#utility.yul\":2005:2017   */\n      mload\n        /* \"#utility.yul\":1995:2017   */\n      swap1\n      pop\n        /* \"#utility.yul\":1925:2024   */\n      swap2\n      swap1\n      pop\n      jump\t// out\n        /* \"#utility.yul\":2030:2199   */\n    tag_210:\n        /* \"#utility.yul\":2114:2125   */\n      0x00\n        /* \"#utility.yul\":2148:2154   */\n      dup3\n        /* \"#utility.yul\":2143:2146   */\n      dup3\n        /* \"#utility.yul\":2136:2155   */\n      mstore\n        /* \"#utility.yul\":2188:2192   */\n      0x20\n        /* \"#utility.yul\":2183:2186   */\n      dup3\n        /* \"#utility.yul\":2179:2193   */\n      add\n        /* \"#utility.yul\":2164:2193   */\n      swap1\n      pop\n        /* \"#utility.yul\":2030:2199   */\n      swap3\n      swap2\n      pop\n      pop\n      jump\t// out\n        /* \"#utility.yul\":2205:2344   */\n    tag_211:\n        /* \"#utility.yul\":2294:2300   */\n      dup3\n        /* \"#utility.yul\":2289:2292   */\n      dup2\n        /* \"#utility.yul\":2284:2287   */\n      dup4\n        /* \"#utility.yul\":2278:2301   */\n      mcopy\n        /* \"#utility.yul\":2335:2336   */\n      0x00\n        /* \"#utility.yul\":2326:2332   */\n      dup4\n        /* \"#utility.yul\":2321:2324   */\n      dup4\n        /* \"#utility.yul\":2317:2333   */\n      add\n        /* \"#utility.yul\":2310:2337   */\n      mstore\n        /* \"#utility.yul\":2205:2344   */\n      pop\n      pop\n      pop\n      jump\t// out\n        /* \"#utility.yul\":2350:2452   */\n    tag_212:\n        /* \"#utility.yul\":2391:2397   */\n      0x00\n        /* \"#utility.yul\":2442:2444   */\n      0x1f\n        /* \"#utility.yul\":2438:2445   */\n      not\n        /* \"#utility.yul\":2433:2435   */\n      0x1f\n        /* \"#utility.yul\":2426:2431   */\n      dup4\n        /* \"#utility.yul\":2422:2436   */\n      add\n        /* \"#utility.yul\":2418:2446   */\n      and\n        /* \"#utility.yul\":2408:2446   */\n      swap1\n      pop\n        /* \"#utility.yul\":2350:2452   */\n      swap2\n      swap1\n      pop\n      jump\t// out\n        /* \"#utility.yul\":2458:2835   */\n    tag_213:\n        /* \"#utility.yul\":2546:2549   */\n      0x00\n        /* \"#utility.yul\":2574:2613   */\n      tag_297\n        /* \"#utility.yul\":2607:2612   */\n      dup3\n        /* \"#utility.yul\":2574:2613   */\n      tag_209\n      jump\t// in\n    tag_297:\n        /* \"#utility.yul\":2629:2700   */\n      tag_298\n        /* \"#utility.yul\":2693:2699   */\n      dup2\n        /* \"#utility.yul\":2688:2691   */\n      dup6\n        /* \"#utility.yul\":2629:2700   */\n      tag_210\n      jump\t// in\n    tag_298:\n        /* \"#utility.yul\":2622:2700   */\n      swap4\n      pop\n        /* \"#utility.yul\":2709:2774   */\n      tag_299\n        /* \"#utility.yul\":2767:2773   */\n      dup2\n        /* \"#utility.yul\":2762:2765   */\n      dup6\n        /* \"#utility.yul\":2755:2759   */\n      0x20\n        /* \"#utility.yul\":2748:2753   */\n      dup7\n        /* \"#utility.yul\":2744:2760   */\n      add\n        /* \"#utility.yul\":2709:2774   */\n      tag_211\n      jump\t// in\n    tag_299:\n        /* \"#utility.yul\":2799:2828   */\n      tag_300\n        /* \"#utility.yul\":2821:2827   */\n      dup2\n        /* \"#utility.yul\":2799:2828   */\n      tag_212\n      jump\t// in\n    tag_300:\n        /* \"#utility.yul\":2794:2797   */\n      dup5\n        /* \"#utility.yul\":2790:2829   */\n      add\n        /* \"#utility.yul\":2783:2829   */\n      swap2\n      pop\n        /* \"#utility.yul\":2550:2835   */\n      pop\n        /* \"#utility.yul\":2458:2835   */\n      swap3\n      swap2\n      pop\n      pop\n      jump\t// out\n        /* \"#utility.yul\":2841:3596   */\n    tag_21:\n        /* \"#utility.yul\":3066:3070   */\n      0x00\n        /* \"#utility.yul\":3104:3107   */\n      0xa0\n        /* \"#utility.yul\":3093:3102   */\n      dup3\n        /* \"#utility.yul\":3089:3108   */\n      add\n        /* \"#utility.yul\":3081:3108   */\n      swap1\n      pop\n        /* \"#utility.yul\":3118:3189   */\n      tag_302\n        /* \"#utility.yul\":3186:3187   */\n      0x00\n        /* \"#utility.yul\":3175:3184   */\n      dup4\n        /* \"#utility.yul\":3171:3188   */\n      add\n        /* \"#utility.yul\":3162:3168   */\n      dup9\n        /* \"#utility.yul\":3118:3189   */\n      tag_207\n      jump\t// in\n    tag_302:\n        /* \"#utility.yul\":3199:3271   */\n      tag_303\n        /* \"#utility.yul\":3267:3269   */\n      0x20\n        /* \"#utility.yul\":3256:3265   */\n      dup4\n        /* \"#utility.yul\":3252:3270   */\n      add\n        /* \"#utility.yul\":3243:3249   */\n      dup8\n        /* \"#utility.yul\":3199:3271   */\n      tag_208\n      jump\t// in\n    tag_303:\n        /* \"#utility.yul\":3318:3327   */\n      dup2\n        /* \"#utility.yul\":3312:3316   */\n      dup2\n        /* \"#utility.yul\":3308:3328   */\n      sub\n        /* \"#utility.yul\":3303:3305   */\n      0x40\n        /* \"#utility.yul\":3292:3301   */\n      dup4\n        /* \"#utility.yul\":3288:3306   */\n      add\n        /* \"#utility.yul\":3281:3329   */\n      mstore\n        /* \"#utility.yul\":3346:3424   */\n      tag_304\n        /* \"#utility.yul\":3419:3423   */\n      dup2\n        /* \"#utility.yul\":3410:3416   */\n      dup7\n        /* \"#utility.yul\":3346:3424   */\n      tag_213\n      jump\t// in\n    tag_304:\n        /* \"#utility.yul\":3338:3424   */\n      swap1\n      pop\n        /* \"#utility.yul\":3434:3506   */\n      tag_305\n        /* \"#utility.yul\":3502:3504   */\n      0x60\n        /* \"#utility.yul\":3491:3500   */\n      dup4\n        /* \"#utility.yul\":3487:3505   */\n      add\n        /* \"#utility.yul\":3478:3484   */\n      dup6\n        /* \"#utility.yul\":3434:3506   */\n      tag_207\n      jump\t// in\n    tag_305:\n        /* \"#utility.yul\":3516:3589   */\n      tag_306\n        /* \"#utility.yul\":3584:3587   */\n      0x80\n        /* \"#utility.yul\":3573:3582   */\n      dup4\n        /* \"#utility.yul\":3569:3588   */\n      add\n        /* \"#utility.yul\":3560:3566   */\n      dup5\n        /* \"#utility.yul\":3516:3589   */\n      tag_207\n      jump\t// in\n    tag_306:\n        /* \"#utility.yul\":2841:3596   */\n      swap7\n      swap6\n      pop\n      pop\n      pop\n      pop\n      pop\n      pop\n      jump\t// out\n        /* \"#utility.yul\":3602:3931   */\n    tag_24:\n        /* \"#utility.yul\":3661:3667   */\n      0x00\n        /* \"#utility.yul\":3710:3712   */\n      0x20\n        /* \"#utility.yul\":3698:3707   */\n      dup3\n        /* \"#utility.yul\":3689:3696   */\n      dup5\n        /* \"#utility.yul\":3685:3708   */\n      sub\n        /* \"#utility.yul\":3681:3713   */\n      slt\n        /* \"#utility.yul\":3678:3797   */\n      iszero\n      tag_308\n      jumpi\n        /* \"#utility.yul\":3716:3795   */\n      tag_309\n      tag_198\n      jump\t// in\n    tag_309:\n        /* \"#utility.yul\":3678:3797   */\n    tag_308:\n        /* \"#utility.yul\":3836:3837   */\n      0x00\n        /* \"#utility.yul\":3861:3914   */\n      tag_310\n        /* \"#utility.yul\":3906:3913   */\n      dup5\n        /* \"#utility.yul\":3897:3903   */\n      dup3\n        /* \"#utility.yul\":3886:3895   */\n      dup6\n        /* \"#utility.yul\":3882:3904   */\n      add\n        /* \"#utility.yul\":3861:3914   */\n      tag_203\n      jump\t// in\n    tag_310:\n        /* \"#utility.yul\":3851:3914   */\n      swap2\n      pop\n        /* \"#utility.yul\":3807:3924   */\n      pop\n        /* \"#utility.yul\":3602:3931   */\n      swap3\n      swap2\n      pop\n      pop\n      jump\t// out\n        /* \"#utility.yul\":3937:4073   */\n    tag_214:\n        /* \"#utility.yul\":4026:4032   */\n      0x00\n        /* \"#utility.yul\":4060:4065   */\n      dup2\n        /* \"#utility.yul\":4054:4066   */\n      mload\n        /* \"#utility.yul\":4044:4066   */\n      swap1\n      pop\n        /* \"#utility.yul\":3937:4073   */\n      swap2\n      swap1\n      pop\n      jump\t// out\n        /* \"#utility.yul\":4079:4285   */\n    tag_215:\n        /* \"#utility.yul\":4200:4211   */\n      0x00\n        /* \"#utility.yul\":4234:4240   */\n      dup3\n        /* \"#utility.yul\":4229:4232   */\n      dup3\n        /* \"#utility.yul\":4222:4241   */\n      mstore\n        /* \"#utility.yul\":4274:4278   */\n      0x20\n        /* \"#utility.yul\":4269:4272   */\n      dup3\n        /* \"#utility.yul\":4265:4279   */\n      add\n        /* \"#utility.yul\":4250:4279   */\n      swap1\n      pop\n        /* \"#utility.yul\":4079:4285   */\n      swap3\n      swap2\n      pop\n      pop\n      jump\t// out\n        /* \"#utility.yul\":4291:4445   */\n    tag_216:\n        /* \"#utility.yul\":4380:4384   */\n      0x00\n        /* \"#utility.yul\":4403:4406   */\n      dup2\n        /* \"#utility.yul\":4395:4406   */\n      swap1\n      pop\n        /* \"#utility.yul\":4433:4437   */\n      0x20\n        /* \"#utility.yul\":4428:4431   */\n      dup3\n        /* \"#utility.yul\":4424:4438   */\n      add\n        /* \"#utility.yul\":4416:4438   */\n      swap1\n      pop\n        /* \"#utility.yul\":4291:4445   */\n      swap2\n      swap1\n      pop\n      jump\t// out\n        /* \"#utility.yul\":4451:4559   */\n    tag_217:\n        /* \"#utility.yul\":4528:4552   */\n      tag_315\n        /* \"#utility.yul\":4546:4551   */\n      dup2\n        /* \"#utility.yul\":4528:4552   */\n      tag_204\n      jump\t// in\n    tag_315:\n        /* \"#utility.yul\":4523:4526   */\n      dup3\n        /* \"#utility.yul\":4516:4553   */\n      mstore\n        /* \"#utility.yul\":4451:4559   */\n      pop\n      pop\n      jump\t// out\n        /* \"#utility.yul\":4565:4673   */\n    tag_218:\n        /* \"#utility.yul\":4642:4666   */\n      tag_317\n        /* \"#utility.yul\":4660:4665   */\n      dup2\n        /* \"#utility.yul\":4642:4666   */\n      tag_201\n      jump\t// in\n    tag_317:\n        /* \"#utility.yul\":4637:4640   */\n      dup3\n        /* \"#utility.yul\":4630:4667   */\n      mstore\n        /* \"#utility.yul\":4565:4673   */\n      pop\n      pop\n      jump\t// out\n        /* \"#utility.yul\":4679:4838   */\n    tag_219:\n        /* \"#utility.yul\":4753:4764   */\n      0x00\n        /* \"#utility.yul\":4787:4793   */\n      dup3\n        /* \"#utility.yul\":4782:4785   */\n      dup3\n        /* \"#utility.yul\":4775:4794   */\n      mstore\n        /* \"#utility.yul\":4827:4831   */\n      0x20\n        /* \"#utility.yul\":4822:4825   */\n      dup3\n        /* \"#utility.yul\":4818:4832   */\n      add\n        /* \"#utility.yul\":4803:4832   */\n      swap1\n      pop\n        /* \"#utility.yul\":4679:4838   */\n      swap3\n      swap2\n      pop\n      pop\n      jump\t// out\n        /* \"#utility.yul\":4844:5201   */\n    tag_220:\n        /* \"#utility.yul\":4922:4925   */\n      0x00\n        /* \"#utility.yul\":4950:4989   */\n      tag_320\n        /* \"#utility.yul\":4983:4988   */\n      dup3\n        /* \"#utility.yul\":4950:4989   */\n      tag_209\n      jump\t// in\n    tag_320:\n        /* \"#utility.yul\":5005:5066   */\n      tag_321\n        /* \"#utility.yul\":5059:5065   */\n      dup2\n        /* \"#utility.yul\":5054:5057   */\n      dup6\n        /* \"#utility.yul\":5005:5066   */\n      tag_219\n      jump\t// in\n    tag_321:\n        /* \"#utility.yul\":4998:5066   */\n      swap4\n      pop\n        /* \"#utility.yul\":5075:5140   */\n      tag_322\n        /* \"#utility.yul\":5133:5139   */\n      dup2\n        /* \"#utility.yul\":5128:5131   */\n      dup6\n        /* \"#utility.yul\":5121:5125   */\n      0x20\n        /* \"#utility.yul\":5114:5119   */\n      dup7\n        /* \"#utility.yul\":5110:5126   */\n      add\n        /* \"#utility.yul\":5075:5140   */\n      tag_211\n      jump\t// in\n    tag_322:\n        /* \"#utility.yul\":5165:5194   */\n      tag_323\n        /* \"#utility.yul\":5187:5193   */\n      dup2\n        /* \"#utility.yul\":5165:5194   */\n      tag_212\n      jump\t// in\n    tag_323:\n        /* \"#utility.yul\":5160:5163   */\n      dup5\n        /* \"#utility.yul\":5156:5195   */\n      add\n        /* \"#utility.yul\":5149:5195   */\n      swap2\n      pop\n        /* \"#utility.yul\":4926:5201   */\n      pop\n        /* \"#utility.yul\":4844:5201   */\n      swap3\n      swap2\n      pop\n      pop\n      jump\t// out\n        /* \"#utility.yul\":5259:6380   */\n    tag_221:\n        /* \"#utility.yul\":5362:5365   */\n      0x00\n        /* \"#utility.yul\":5398:5402   */\n      0xa0\n        /* \"#utility.yul\":5393:5396   */\n      dup4\n        /* \"#utility.yul\":5389:5403   */\n      add\n        /* \"#utility.yul\":5483:5487   */\n      0x00\n        /* \"#utility.yul\":5476:5481   */\n      dup4\n        /* \"#utility.yul\":5472:5488   */\n      add\n        /* \"#utility.yul\":5466:5489   */\n      mload\n        /* \"#utility.yul\":5502:5565   */\n      tag_325\n        /* \"#utility.yul\":5559:5563   */\n      0x00\n        /* \"#utility.yul\":5554:5557   */\n      dup7\n        /* \"#utility.yul\":5550:5564   */\n      add\n        /* \"#utility.yul\":5536:5548   */\n      dup3\n        /* \"#utility.yul\":5502:5565   */\n      tag_217\n      jump\t// in\n    tag_325:\n        /* \"#utility.yul\":5413:5575   */\n      pop\n        /* \"#utility.yul\":5659:5663   */\n      0x20\n        /* \"#utility.yul\":5652:5657   */\n      dup4\n        /* \"#utility.yul\":5648:5664   */\n      add\n        /* \"#utility.yul\":5642:5665   */\n      mload\n        /* \"#utility.yul\":5678:5741   */\n      tag_326\n        /* \"#utility.yul\":5735:5739   */\n      0x20\n        /* \"#utility.yul\":5730:5733   */\n      dup7\n        /* \"#utility.yul\":5726:5740   */\n      add\n        /* \"#utility.yul\":5712:5724   */\n      dup3\n        /* \"#utility.yul\":5678:5741   */\n      tag_218\n      jump\t// in\n    tag_326:\n        /* \"#utility.yul\":5585:5751   */\n      pop\n        /* \"#utility.yul\":5836:5840   */\n      0x40\n        /* \"#utility.yul\":5829:5834   */\n      dup4\n        /* \"#utility.yul\":5825:5841   */\n      add\n        /* \"#utility.yul\":5819:5842   */\n      mload\n        /* \"#utility.yul\":5889:5892   */\n      dup5\n        /* \"#utility.yul\":5883:5887   */\n      dup3\n        /* \"#utility.yul\":5879:5893   */\n      sub\n        /* \"#utility.yul\":5872:5876   */\n      0x40\n        /* \"#utility.yul\":5867:5870   */\n      dup7\n        /* \"#utility.yul\":5863:5877   */\n      add\n        /* \"#utility.yul\":5856:5894   */\n      mstore\n        /* \"#utility.yul\":5915:5988   */\n      tag_327\n        /* \"#utility.yul\":5983:5987   */\n      dup3\n        /* \"#utility.yul\":5969:5981   */\n      dup3\n        /* \"#utility.yul\":5915:5988   */\n      tag_220\n      jump\t// in\n    tag_327:\n        /* \"#utility.yul\":5907:5988   */\n      swap2\n      pop\n        /* \"#utility.yul\":5761:5999   */\n      pop\n        /* \"#utility.yul\":6086:6090   */\n      0x60\n        /* \"#utility.yul\":6079:6084   */\n      dup4\n        /* \"#utility.yul\":6075:6091   */\n      add\n        /* \"#utility.yul\":6069:6092   */\n      mload\n        /* \"#utility.yul\":6105:6168   */\n      tag_328\n        /* \"#utility.yul\":6162:6166   */\n      0x60\n        /* \"#utility.yul\":6157:6160   */\n      dup7\n        /* \"#utility.yul\":6153:6167   */\n      add\n        /* \"#utility.yul\":6139:6151   */\n      dup3\n        /* \"#utility.yul\":6105:6168   */\n      tag_217\n      jump\t// in\n    tag_328:\n        /* \"#utility.yul\":6009:6178   */\n      pop\n        /* \"#utility.yul\":6261:6265   */\n      0x80\n        /* \"#utility.yul\":6254:6259   */\n      dup4\n        /* \"#utility.yul\":6250:6266   */\n      add\n        /* \"#utility.yul\":6244:6267   */\n      mload\n        /* \"#utility.yul\":6280:6343   */\n      tag_329\n        /* \"#utility.yul\":6337:6341   */\n      0x80\n        /* \"#utility.yul\":6332:6335   */\n      dup7\n        /* \"#utility.yul\":6328:6342   */\n      add\n        /* \"#utility.yul\":6314:6326   */\n      dup3\n        /* \"#utility.yul\":6280:6343   */\n      tag_217\n      jump\t// in\n    tag_329:\n        /* \"#utility.yul\":6188:6353   */\n      pop\n        /* \"#utility.yul\":6370:6374   */\n      dup1\n        /* \"#utility.yul\":6363:6374   */\n      swap2\n      pop\n        /* \"#utility.yul\":5367:6380   */\n      pop\n        /* \"#utility.yul\":5259:6380   */\n      swap3\n      swap2\n      pop\n      pop\n      jump\t// out\n        /* \"#utility.yul\":6386:6630   */\n    tag_222:\n        /* \"#utility.yul\":6499:6509   */\n      0x00\n        /* \"#utility.yul\":6534:6624   */\n      tag_331\n        /* \"#utility.yul\":6620:6623   */\n      dup4\n        /* \"#utility.yul\":6612:6618   */\n      dup4\n        /* \"#utility.yul\":6534:6624   */\n      tag_221\n      jump\t// in\n    tag_331:\n        /* \"#utility.yul\":6520:6624   */\n      swap1\n      pop\n        /* \"#utility.yul\":6386:6630   */\n      swap3\n      swap2\n      pop\n      pop\n      jump\t// out\n        /* \"#utility.yul\":6636:6771   */\n    tag_223:\n        /* \"#utility.yul\":6728:6732   */\n      0x00\n        /* \"#utility.yul\":6760:6764   */\n      0x20\n        /* \"#utility.yul\":6755:6758   */\n      dup3\n        /* \"#utility.yul\":6751:6765   */\n      add\n        /* \"#utility.yul\":6743:6765   */\n      swap1\n      pop\n        /* \"#utility.yul\":6636:6771   */\n      swap2\n      swap1\n      pop\n      jump\t// out\n        /* \"#utility.yul\":6833:7920   */\n    tag_224:\n        /* \"#utility.yul\":6996:6999   */\n      0x00\n        /* \"#utility.yul\":7025:7101   */\n      tag_334\n        /* \"#utility.yul\":7095:7100   */\n      dup3\n        /* \"#utility.yul\":7025:7101   */\n      tag_214\n      jump\t// in\n    tag_334:\n        /* \"#utility.yul\":7117:7225   */\n      tag_335\n        /* \"#utility.yul\":7218:7224   */\n      dup2\n        /* \"#utility.yul\":7213:7216   */\n      dup6\n        /* \"#utility.yul\":7117:7225   */\n      tag_215\n      jump\t// in\n    tag_335:\n        /* \"#utility.yul\":7110:7225   */\n      swap4\n      pop\n        /* \"#utility.yul\":7251:7254   */\n      dup4\n        /* \"#utility.yul\":7296:7300   */\n      0x20\n        /* \"#utility.yul\":7288:7294   */\n      dup3\n        /* \"#utility.yul\":7284:7301   */\n      mul\n        /* \"#utility.yul\":7279:7282   */\n      dup6\n        /* \"#utility.yul\":7275:7302   */\n      add\n        /* \"#utility.yul\":7326:7404   */\n      tag_336\n        /* \"#utility.yul\":7398:7403   */\n      dup6\n        /* \"#utility.yul\":7326:7404   */\n      tag_216\n      jump\t// in\n    tag_336:\n        /* \"#utility.yul\":7427:7434   */\n      dup1\n        /* \"#utility.yul\":7458:7459   */\n      0x00\n        /* \"#utility.yul\":7443:7875   */\n    tag_337:\n        /* \"#utility.yul\":7468:7474   */\n      dup6\n        /* \"#utility.yul\":7465:7466   */\n      dup2\n        /* \"#utility.yul\":7462:7475   */\n      lt\n        /* \"#utility.yul\":7443:7875   */\n      iszero\n      tag_339\n      jumpi\n        /* \"#utility.yul\":7539:7548   */\n      dup5\n        /* \"#utility.yul\":7533:7537   */\n      dup5\n        /* \"#utility.yul\":7529:7549   */\n      sub\n        /* \"#utility.yul\":7524:7527   */\n      dup10\n        /* \"#utility.yul\":7517:7550   */\n      mstore\n        /* \"#utility.yul\":7590:7596   */\n      dup2\n        /* \"#utility.yul\":7584:7597   */\n      mload\n        /* \"#utility.yul\":7618:7726   */\n      tag_340\n        /* \"#utility.yul\":7721:7725   */\n      dup6\n        /* \"#utility.yul\":7706:7719   */\n      dup3\n        /* \"#utility.yul\":7618:7726   */\n      tag_222\n      jump\t// in\n    tag_340:\n        /* \"#utility.yul\":7610:7726   */\n      swap5\n      pop\n        /* \"#utility.yul\":7749:7831   */\n      tag_341\n        /* \"#utility.yul\":7824:7830   */\n      dup4\n        /* \"#utility.yul\":7749:7831   */\n      tag_223\n      jump\t// in\n    tag_341:\n        /* \"#utility.yul\":7739:7831   */\n      swap3\n      pop\n        /* \"#utility.yul\":7860:7864   */\n      0x20\n        /* \"#utility.yul\":7855:7858   */\n      dup11\n        /* \"#utility.yul\":7851:7865   */\n      add\n        /* \"#utility.yul\":7844:7865   */\n      swap10\n      pop\n        /* \"#utility.yul\":7503:7875   */\n      pop\n        /* \"#utility.yul\":7490:7491   */\n      0x01\n        /* \"#utility.yul\":7487:7488   */\n      dup2\n        /* \"#utility.yul\":7483:7492   */\n      add\n        /* \"#utility.yul\":7478:7492   */\n      swap1\n      pop\n        /* \"#utility.yul\":7443:7875   */\n      jump(tag_337)\n    tag_339:\n        /* \"#utility.yul\":7447:7461   */\n      pop\n        /* \"#utility.yul\":7891:7895   */\n      dup3\n        /* \"#utility.yul\":7884:7895   */\n      swap8\n      pop\n        /* \"#utility.yul\":7911:7914   */\n      dup8\n        /* \"#utility.yul\":7904:7914   */\n      swap6\n      pop\n        /* \"#utility.yul\":7001:7920   */\n      pop\n      pop\n      pop\n      pop\n      pop\n        /* \"#utility.yul\":6833:7920   */\n      swap3\n      swap2\n      pop\n      pop\n      jump\t// out\n        /* \"#utility.yul\":7926:8387   */\n    tag_27:\n        /* \"#utility.yul\":8113:8117   */\n      0x00\n        /* \"#utility.yul\":8151:8153   */\n      0x20\n        /* \"#utility.yul\":8140:8149   */\n      dup3\n        /* \"#utility.yul\":8136:8154   */\n      add\n        /* \"#utility.yul\":8128:8154   */\n      swap1\n      pop\n        /* \"#utility.yul\":8200:8209   */\n      dup2\n        /* \"#utility.yul\":8194:8198   */\n      dup2\n        /* \"#utility.yul\":8190:8210   */\n      sub\n        /* \"#utility.yul\":8186:8187   */\n      0x00\n        /* \"#utility.yul\":8175:8184   */\n      dup4\n        /* \"#utility.yul\":8171:8188   */\n      add\n        /* \"#utility.yul\":8164:8211   */\n      mstore\n        /* \"#utility.yul\":8228:8380   */\n      tag_343\n        /* \"#utility.yul\":8375:8379   */\n      dup2\n        /* \"#utility.yul\":8366:8372   */\n      dup5\n        /* \"#utility.yul\":8228:8380   */\n      tag_224\n      jump\t// in\n    tag_343:\n        /* \"#utility.yul\":8220:8380   */\n      swap1\n      pop\n        /* \"#utility.yul\":7926:8387   */\n      swap3\n      swap2\n      pop\n      pop\n      jump\t// out\n        /* \"#utility.yul\":8393:8615   */\n    tag_37:\n        /* \"#utility.yul\":8486:8490   */\n      0x00\n        /* \"#utility.yul\":8524:8526   */\n      0x20\n        /* \"#utility.yul\":8513:8522   */\n      dup3\n        /* \"#utility.yul\":8509:8527   */\n      add\n        /* \"#utility.yul\":8501:8527   */\n      swap1\n      pop\n        /* \"#utility.yul\":8537:8608   */\n      tag_345\n        /* \"#utility.yul\":8605:8606   */\n      0x00\n        /* \"#utility.yul\":8594:8603   */\n      dup4\n        /* \"#utility.yul\":8590:8607   */\n      add\n        /* \"#utility.yul\":8581:8587   */\n      dup5\n        /* \"#utility.yul\":8537:8608   */\n      tag_207\n      jump\t// in\n    tag_345:\n        /* \"#utility.yul\":8393:8615   */\n      swap3\n      swap2\n      pop\n      pop\n      jump\t// out\n        /* \"#utility.yul\":8621:8738   */\n    tag_225:\n        /* \"#utility.yul\":8730:8731   */\n      0x00\n        /* \"#utility.yul\":8727:8728   */\n      0x00\n        /* \"#utility.yul\":8720:8732   */\n      revert\n        /* \"#utility.yul\":8744:8861   */\n    tag_226:\n        /* \"#utility.yul\":8853:8854   */\n      0x00\n        /* \"#utility.yul\":8850:8851   */\n      0x00\n        /* \"#utility.yul\":8843:8855   */\n      revert\n        /* \"#utility.yul\":8867:9047   */\n    tag_227:\n        /* \"#utility.yul\":8915:8992   */\n      0x4e487b7100000000000000000000000000000000000000000000000000000000\n        /* \"#utility.yul\":8912:8913   */\n      0x00\n        /* \"#utility.yul\":8905:8993   */\n      mstore\n        /* \"#utility.yul\":9012:9016   */\n      0x41\n        /* \"#utility.yul\":9009:9010   */\n      0x04\n        /* \"#utility.yul\":9002:9017   */\n      mstore\n        /* \"#utility.yul\":9036:9040   */\n      0x24\n        /* \"#utility.yul\":9033:9034   */\n      0x00\n        /* \"#utility.yul\":9026:9041   */\n      revert\n        /* \"#utility.yul\":9053:9334   */\n    tag_228:\n        /* \"#utility.yul\":9136:9163   */\n      tag_350\n        /* \"#utility.yul\":9158:9162   */\n      dup3\n        /* \"#utility.yul\":9136:9163   */\n      tag_212\n      jump\t// in\n    tag_350:\n        /* \"#utility.yul\":9128:9134   */\n      dup2\n        /* \"#utility.yul\":9124:9164   */\n      add\n        /* \"#utility.yul\":9266:9272   */\n      dup2\n        /* \"#utility.yul\":9254:9264   */\n      dup2\n        /* \"#utility.yul\":9251:9273   */\n      lt\n        /* \"#utility.yul\":9230:9248   */\n      0xffffffffffffffff\n        /* \"#utility.yul\":9218:9228   */\n      dup3\n        /* \"#utility.yul\":9215:9249   */\n      gt\n        /* \"#utility.yul\":9212:9274   */\n      or\n        /* \"#utility.yul\":9209:9297   */\n      iszero\n      tag_351\n      jumpi\n        /* \"#utility.yul\":9277:9295   */\n      tag_352\n      tag_227\n      jump\t// in\n    tag_352:\n        /* \"#utility.yul\":9209:9297   */\n    tag_351:\n        /* \"#utility.yul\":9317:9327   */\n      dup1\n        /* \"#utility.yul\":9313:9315   */\n      0x40\n        /* \"#utility.yul\":9306:9328   */\n      mstore\n        /* \"#utility.yul\":9096:9334   */\n      pop\n        /* \"#utility.yul\":9053:9334   */\n      pop\n      pop\n      jump\t// out\n        /* \"#utility.yul\":9340:9469   */\n    tag_229:\n        /* \"#utility.yul\":9374:9380   */\n      0x00\n        /* \"#utility.yul\":9401:9421   */\n      tag_354\n      tag_197\n      jump\t// in\n    tag_354:\n        /* \"#utility.yul\":9391:9421   */\n      swap1\n      pop\n        /* \"#utility.yul\":9430:9463   */\n      tag_355\n        /* \"#utility.yul\":9458:9462   */\n      dup3\n        /* \"#utility.yul\":9450:9456   */\n      dup3\n        /* \"#utility.yul\":9430:9463   */\n      tag_228\n      jump\t// in\n    tag_355:\n        /* \"#utility.yul\":9340:9469   */\n      swap2\n      swap1\n      pop\n      jump\t// out\n        /* \"#utility.yul\":9475:9783   */\n    tag_230:\n        /* \"#utility.yul\":9537:9541   */\n      0x00\n        /* \"#utility.yul\":9627:9645   */\n      0xffffffffffffffff\n        /* \"#utility.yul\":9619:9625   */\n      dup3\n        /* \"#utility.yul\":9616:9646   */\n      gt\n        /* \"#utility.yul\":9613:9669   */\n      iszero\n      tag_357\n      jumpi\n        /* \"#utility.yul\":9649:9667   */\n      tag_358\n      tag_227\n      jump\t// in\n    tag_358:\n        /* \"#utility.yul\":9613:9669   */\n    tag_357:\n        /* \"#utility.yul\":9687:9716   */\n      tag_359\n        /* \"#utility.yul\":9709:9715   */\n      dup3\n        /* \"#utility.yul\":9687:9716   */\n      tag_212\n      jump\t// in\n    tag_359:\n        /* \"#utility.yul\":9679:9716   */\n      swap1\n      pop\n        /* \"#utility.yul\":9771:9775   */\n      0x20\n        /* \"#utility.yul\":9765:9769   */\n      dup2\n        /* \"#utility.yul\":9761:9776   */\n      add\n        /* \"#utility.yul\":9753:9776   */\n      swap1\n      pop\n        /* \"#utility.yul\":9475:9783   */\n      swap2\n      swap1\n      pop\n      jump\t// out\n        /* \"#utility.yul\":9789:9937   */\n    tag_231:\n        /* \"#utility.yul\":9887:9893   */\n      dup3\n        /* \"#utility.yul\":9882:9885   */\n      dup2\n        /* \"#utility.yul\":9877:9880   */\n      dup4\n        /* \"#utility.yul\":9864:9894   */\n      calldatacopy\n        /* \"#utility.yul\":9928:9929   */\n      0x00\n        /* \"#utility.yul\":9919:9925   */\n      dup4\n        /* \"#utility.yul\":9914:9917   */\n      dup4\n        /* \"#utility.yul\":9910:9926   */\n      add\n        /* \"#utility.yul\":9903:9930   */\n      mstore\n        /* \"#utility.yul\":9789:9937   */\n      pop\n      pop\n      pop\n      jump\t// out\n        /* \"#utility.yul\":9943:10368   */\n    tag_232:\n        /* \"#utility.yul\":10021:10026   */\n      0x00\n        /* \"#utility.yul\":10046:10112   */\n      tag_362\n        /* \"#utility.yul\":10062:10111   */\n      tag_363\n        /* \"#utility.yul\":10104:10110   */\n      dup5\n        /* \"#utility.yul\":10062:10111   */\n      tag_230\n      jump\t// in\n    tag_363:\n        /* \"#utility.yul\":10046:10112   */\n      tag_229\n      jump\t// in\n    tag_362:\n        /* \"#utility.yul\":10037:10112   */\n      swap1\n      pop\n        /* \"#utility.yul\":10135:10141   */\n      dup3\n        /* \"#utility.yul\":10128:10133   */\n      dup2\n        /* \"#utility.yul\":10121:10142   */\n      mstore\n        /* \"#utility.yul\":10173:10177   */\n      0x20\n        /* \"#utility.yul\":10166:10171   */\n      dup2\n        /* \"#utility.yul\":10162:10178   */\n      add\n        /* \"#utility.yul\":10211:10214   */\n      dup5\n        /* \"#utility.yul\":10202:10208   */\n      dup5\n        /* \"#utility.yul\":10197:10200   */\n      dup5\n        /* \"#utility.yul\":10193:10209   */\n      add\n        /* \"#utility.yul\":10190:10215   */\n      gt\n        /* \"#utility.yul\":10187:10299   */\n      iszero\n      tag_364\n      jumpi\n        /* \"#utility.yul\":10218:10297   */\n      tag_365\n      tag_226\n      jump\t// in\n    tag_365:\n        /* \"#utility.yul\":10187:10299   */\n    tag_364:\n        /* \"#utility.yul\":10308:10362   */\n      tag_366\n        /* \"#utility.yul\":10355:10361   */\n      dup5\n        /* \"#utility.yul\":10350:10353   */\n      dup3\n        /* \"#utility.yul\":10345:10348   */\n      dup6\n        /* \"#utility.yul\":10308:10362   */\n      tag_231\n      jump\t// in\n    tag_366:\n        /* \"#utility.yul\":10027:10368   */\n      pop\n        /* \"#utility.yul\":9943:10368   */\n      swap4\n      swap3\n      pop\n      pop\n      pop\n      jump\t// out\n        /* \"#utility.yul\":10388:10728   */\n    tag_233:\n        /* \"#utility.yul\":10444:10449   */\n      0x00\n        /* \"#utility.yul\":10493:10496   */\n      dup3\n        /* \"#utility.yul\":10486:10490   */\n      0x1f\n        /* \"#utility.yul\":10478:10484   */\n      dup4\n        /* \"#utility.yul\":10474:10491   */\n      add\n        /* \"#utility.yul\":10470:10497   */\n      slt\n        /* \"#utility.yul\":10460:10582   */\n      tag_368\n      jumpi\n        /* \"#utility.yul\":10501:10580   */\n      tag_369\n      tag_225\n      jump\t// in\n    tag_369:\n        /* \"#utility.yul\":10460:10582   */\n    tag_368:\n        /* \"#utility.yul\":10618:10624   */\n      dup2\n        /* \"#utility.yul\":10605:10625   */\n      calldataload\n        /* \"#utility.yul\":10643:10722   */\n      tag_370\n        /* \"#utility.yul\":10718:10721   */\n      dup5\n        /* \"#utility.yul\":10710:10716   */\n      dup3\n        /* \"#utility.yul\":10703:10707   */\n      0x20\n        /* \"#utility.yul\":10695:10701   */\n      dup7\n        /* \"#utility.yul\":10691:10708   */\n      add\n        /* \"#utility.yul\":10643:10722   */\n      tag_232\n      jump\t// in\n    tag_370:\n        /* \"#utility.yul\":10634:10722   */\n      swap2\n      pop\n        /* \"#utility.yul\":10450:10728   */\n      pop\n        /* \"#utility.yul\":10388:10728   */\n      swap3\n      swap2\n      pop\n      pop\n      jump\t// out\n        /* \"#utility.yul\":10734:11243   */\n    tag_42:\n        /* \"#utility.yul\":10803:10809   */\n      0x00\n        /* \"#utility.yul\":10852:10854   */\n      0x20\n        /* \"#utility.yul\":10840:10849   */\n      dup3\n        /* \"#utility.yul\":10831:10838   */\n      dup5\n        /* \"#utility.yul\":10827:10850   */\n      sub\n        /* \"#utility.yul\":10823:10855   */\n      slt\n        /* \"#utility.yul\":10820:10939   */\n      iszero\n      tag_372\n      jumpi\n        /* \"#utility.yul\":10858:10937   */\n      tag_373\n      tag_198\n      jump\t// in\n    tag_373:\n        /* \"#utility.yul\":10820:10939   */\n    tag_372:\n        /* \"#utility.yul\":11006:11007   */\n      0x00\n        /* \"#utility.yul\":10995:11004   */\n      dup3\n        /* \"#utility.yul\":10991:11008   */\n      add\n        /* \"#utility.yul\":10978:11009   */\n      calldataload\n        /* \"#utility.yul\":11036:11054   */\n      0xffffffffffffffff\n        /* \"#utility.yul\":11028:11034   */\n      dup2\n        /* \"#utility.yul\":11025:11055   */\n      gt\n        /* \"#utility.yul\":11022:11139   */\n      iszero\n      tag_374\n      jumpi\n        /* \"#utility.yul\":11058:11137   */\n      tag_375\n      tag_199\n      jump\t// in\n    tag_375:\n        /* \"#utility.yul\":11022:11139   */\n    tag_374:\n        /* \"#utility.yul\":11163:11226   */\n      tag_376\n        /* \"#utility.yul\":11218:11225   */\n      dup5\n        /* \"#utility.yul\":11209:11215   */\n      dup3\n        /* \"#utility.yul\":11198:11207   */\n      dup6\n        /* \"#utility.yul\":11194:11216   */\n      add\n        /* \"#utility.yul\":11163:11226   */\n      tag_233\n      jump\t// in\n    tag_376:\n        /* \"#utility.yul\":11153:11226   */\n      swap2\n      pop\n        /* \"#utility.yul\":10949:11236   */\n      pop\n        /* \"#utility.yul\":10734:11243   */\n      swap3\n      swap2\n      pop\n      pop\n      jump\t// out\n        /* \"#utility.yul\":11249:11578   */\n    tag_50:\n        /* \"#utility.yul\":11308:11314   */\n      0x00\n        /* \"#utility.yul\":11357:11359   */\n      0x20\n        /* \"#utility.yul\":11345:11354   */\n      dup3\n        /* \"#utility.yul\":11336:11343   */\n      dup5\n        /* \"#utility.yul\":11332:11355   */\n      sub\n        /* \"#utility.yul\":11328:11360   */\n      slt\n        /* \"#utility.yul\":11325:11444   */\n      iszero\n      tag_378\n      jumpi\n        /* \"#utility.yul\":11363:11442   */\n      tag_379\n      tag_198\n      jump\t// in\n    tag_379:\n        /* \"#utility.yul\":11325:11444   */\n    tag_378:\n        /* \"#utility.yul\":11483:11484   */\n      0x00\n        /* \"#utility.yul\":11508:11561   */\n      tag_380\n        /* \"#utility.yul\":11553:11560   */\n      dup5\n        /* \"#utility.yul\":11544:11550   */\n      dup3\n        /* \"#utility.yul\":11533:11542   */\n      dup6\n        /* \"#utility.yul\":11529:11551   */\n      add\n        /* \"#utility.yul\":11508:11561   */\n      tag_206\n      jump\t// in\n    tag_380:\n        /* \"#utility.yul\":11498:11561   */\n      swap2\n      pop\n        /* \"#utility.yul\":11454:11571   */\n      pop\n        /* \"#utility.yul\":11249:11578   */\n      swap3\n      swap2\n      pop\n      pop\n      jump\t// out\n        /* \"#utility.yul\":11584:11806   */\n    tag_55:\n        /* \"#utility.yul\":11677:11681   */\n      0x00\n        /* \"#utility.yul\":11715:11717   */\n      0x20\n        /* \"#utility.yul\":11704:11713   */\n      dup3\n        /* \"#utility.yul\":11700:11718   */\n      add\n        /* \"#utility.yul\":11692:11718   */\n      swap1\n      pop\n        /* \"#utility.yul\":11728:11799   */\n      tag_382\n        /* \"#utility.yul\":11796:11797   */\n      0x00\n        /* \"#utility.yul\":11785:11794   */\n      dup4\n        /* \"#utility.yul\":11781:11798   */\n      add\n        /* \"#utility.yul\":11772:11778   */\n      dup5\n        /* \"#utility.yul\":11728:11799   */\n      tag_208\n      jump\t// in\n    tag_382:\n        /* \"#utility.yul\":11584:11806   */\n      swap3\n      swap2\n      pop\n      pop\n      jump\t// out\n        /* \"#utility.yul\":11864:12995   */\n    tag_234:\n        /* \"#utility.yul\":11977:11980   */\n      0x00\n        /* \"#utility.yul\":12013:12017   */\n      0xa0\n        /* \"#utility.yul\":12008:12011   */\n      dup4\n        /* \"#utility.yul\":12004:12018   */\n      add\n        /* \"#utility.yul\":12098:12102   */\n      0x00\n        /* \"#utility.yul\":12091:12096   */\n      dup4\n        /* \"#utility.yul\":12087:12103   */\n      add\n        /* \"#utility.yul\":12081:12104   */\n      mload\n        /* \"#utility.yul\":12117:12180   */\n      tag_384\n        /* \"#utility.yul\":12174:12178   */\n      0x00\n        /* \"#utility.yul\":12169:12172   */\n      dup7\n        /* \"#utility.yul\":12165:12179   */\n      add\n        /* \"#utility.yul\":12151:12163   */\n      dup3\n        /* \"#utility.yul\":12117:12180   */\n      tag_217\n      jump\t// in\n    tag_384:\n        /* \"#utility.yul\":12028:12190   */\n      pop\n        /* \"#utility.yul\":12274:12278   */\n      0x20\n        /* \"#utility.yul\":12267:12272   */\n      dup4\n        /* \"#utility.yul\":12263:12279   */\n      add\n        /* \"#utility.yul\":12257:12280   */\n      mload\n        /* \"#utility.yul\":12293:12356   */\n      tag_385\n        /* \"#utility.yul\":12350:12354   */\n      0x20\n        /* \"#utility.yul\":12345:12348   */\n      dup7\n        /* \"#utility.yul\":12341:12355   */\n      add\n        /* \"#utility.yul\":12327:12339   */\n      dup3\n        /* \"#utility.yul\":12293:12356   */\n      tag_218\n      jump\t// in\n    tag_385:\n        /* \"#utility.yul\":12200:12366   */\n      pop\n        /* \"#utility.yul\":12451:12455   */\n      0x40\n        /* \"#utility.yul\":12444:12449   */\n      dup4\n        /* \"#utility.yul\":12440:12456   */\n      add\n        /* \"#utility.yul\":12434:12457   */\n      mload\n        /* \"#utility.yul\":12504:12507   */\n      dup5\n        /* \"#utility.yul\":12498:12502   */\n      dup3\n        /* \"#utility.yul\":12494:12508   */\n      sub\n        /* \"#utility.yul\":12487:12491   */\n      0x40\n        /* \"#utility.yul\":12482:12485   */\n      dup7\n        /* \"#utility.yul\":12478:12492   */\n      add\n        /* \"#utility.yul\":12471:12509   */\n      mstore\n        /* \"#utility.yul\":12530:12603   */\n      tag_386\n        /* \"#utility.yul\":12598:12602   */\n      dup3\n        /* \"#utility.yul\":12584:12596   */\n      dup3\n        /* \"#utility.yul\":12530:12603   */\n      tag_220\n      jump\t// in\n    tag_386:\n        /* \"#utility.yul\":12522:12603   */\n      swap2\n      pop\n        /* \"#utility.yul\":12376:12614   */\n      pop\n        /* \"#utility.yul\":12701:12705   */\n      0x60\n        /* \"#utility.yul\":12694:12699   */\n      dup4\n        /* \"#utility.yul\":12690:12706   */\n      add\n        /* \"#utility.yul\":12684:12707   */\n      mload\n        /* \"#utility.yul\":12720:12783   */\n      tag_387\n        /* \"#utility.yul\":12777:12781   */\n      0x60\n        /* \"#utility.yul\":12772:12775   */\n      dup7\n        /* \"#utility.yul\":12768:12782   */\n      add\n        /* \"#utility.yul\":12754:12766   */\n      dup3\n        /* \"#utility.yul\":12720:12783   */\n      tag_217\n      jump\t// in\n    tag_387:\n        /* \"#utility.yul\":12624:12793   */\n      pop\n        /* \"#utility.yul\":12876:12880   */\n      0x80\n        /* \"#utility.yul\":12869:12874   */\n      dup4\n        /* \"#utility.yul\":12865:12881   */\n      add\n        /* \"#utility.yul\":12859:12882   */\n      mload\n        /* \"#utility.yul\":12895:12958   */\n      tag_388\n        /* \"#utility.yul\":12952:12956   */\n      0x80\n        /* \"#utility.yul\":12947:12950   */\n      dup7\n        /* \"#utility.yul\":12943:12957   */\n      add\n        /* \"#utility.yul\":12929:12941   */\n      dup3\n        /* \"#utility.yul\":12895:12958   */\n      tag_217\n      jump\t// in\n    tag_388:\n        /* \"#utility.yul\":12803:12968   */\n      pop\n        /* \"#utility.yul\":12985:12989   */\n      dup1\n        /* \"#utility.yul\":12978:12989   */\n      swap2\n      pop\n        /* \"#utility.yul\":11982:12995   */\n      pop\n        /* \"#utility.yul\":11864:12995   */\n      swap3\n      swap2\n      pop\n      pop\n      jump\t// out\n        /* \"#utility.yul\":13001:13362   */\n    tag_60:\n        /* \"#utility.yul\":13138:13142   */\n      0x00\n        /* \"#utility.yul\":13176:13178   */\n      0x20\n        /* \"#utility.yul\":13165:13174   */\n      dup3\n        /* \"#utility.yul\":13161:13179   */\n      add\n        /* \"#utility.yul\":13153:13179   */\n      swap1\n      pop\n        /* \"#utility.yul\":13225:13234   */\n      dup2\n        /* \"#utility.yul\":13219:13223   */\n      dup2\n        /* \"#utility.yul\":13215:13235   */\n      sub\n        /* \"#utility.yul\":13211:13212   */\n      0x00\n        /* \"#utility.yul\":13200:13209   */\n      dup4\n        /* \"#utility.yul\":13196:13213   */\n      add\n        /* \"#utility.yul\":13189:13236   */\n      mstore\n        /* \"#utility.yul\":13253:13355   */\n      tag_390\n        /* \"#utility.yul\":13350:13354   */\n      dup2\n        /* \"#utility.yul\":13341:13347   */\n      dup5\n        /* \"#utility.yul\":13253:13355   */\n      tag_234\n      jump\t// in\n    tag_390:\n        /* \"#utility.yul\":13245:13355   */\n      swap1\n      pop\n        /* \"#utility.yul\":13001:13362   */\n      swap3\n      swap2\n      pop\n      pop\n      jump\t// out\n        /* \"#utility.yul\":13368:13548   */\n    tag_235:\n        /* \"#utility.yul\":13416:13493   */\n      0x4e487b7100000000000000000000000000000000000000000000000000000000\n        /* \"#utility.yul\":13413:13414   */\n      0x00\n        /* \"#utility.yul\":13406:13494   */\n      mstore\n        /* \"#utility.yul\":13513:13517   */\n      0x22\n        /* \"#utility.yul\":13510:13511   */\n      0x04\n        /* \"#utility.yul\":13503:13518   */\n      mstore\n        /* \"#utility.yul\":13537:13541   */\n      0x24\n        /* \"#utility.yul\":13534:13535   */\n      0x00\n        /* \"#utility.yul\":13527:13542   */\n      revert\n        /* \"#utility.yul\":13554:13874   */\n    tag_67:\n        /* \"#utility.yul\":13598:13604   */\n      0x00\n        /* \"#utility.yul\":13635:13636   */\n      0x02\n        /* \"#utility.yul\":13629:13633   */\n      dup3\n        /* \"#utility.yul\":13625:13637   */\n      div\n        /* \"#utility.yul\":13615:13637   */\n      swap1\n      pop\n        /* \"#utility.yul\":13682:13683   */\n      0x01\n        /* \"#utility.yul\":13676:13680   */\n      dup3\n        /* \"#utility.yul\":13672:13684   */\n      and\n        /* \"#utility.yul\":13703:13721   */\n      dup1\n        /* \"#utility.yul\":13693:13774   */\n      tag_393\n      jumpi\n        /* \"#utility.yul\":13759:13763   */\n      0x7f\n        /* \"#utility.yul\":13751:13757   */\n      dup3\n        /* \"#utility.yul\":13747:13764   */\n      and\n        /* \"#utility.yul\":13737:13764   */\n      swap2\n      pop\n        /* \"#utility.yul\":13693:13774   */\n    tag_393:\n        /* \"#utility.yul\":13821:13823   */\n      0x20\n        /* \"#utility.yul\":13813:13819   */\n      dup3\n        /* \"#utility.yul\":13810:13824   */\n      lt\n        /* \"#utility.yul\":13790:13808   */\n      dup2\n        /* \"#utility.yul\":13787:13825   */\n      sub\n        /* \"#utility.yul\":13784:13868   */\n      tag_394\n      jumpi\n        /* \"#utility.yul\":13840:13858   */\n      tag_395\n      tag_235\n      jump\t// in\n    tag_395:\n        /* \"#utility.yul\":13784:13868   */\n    tag_394:\n        /* \"#utility.yul\":13605:13874   */\n      pop\n        /* \"#utility.yul\":13554:13874   */\n      swap2\n      swap1\n      pop\n      jump\t// out\n        /* \"#utility.yul\":13880:13997   */\n    tag_236:\n        /* \"#utility.yul\":13989:13990   */\n      0x00\n        /* \"#utility.yul\":13986:13987   */\n      0x00\n        /* \"#utility.yul\":13979:13991   */\n      revert\n        /* \"#utility.yul\":14003:14120   */\n    tag_237:\n        /* \"#utility.yul\":14112:14113   */\n      0x00\n        /* \"#utility.yul\":14109:14110   */\n      0x00\n        /* \"#utility.yul\":14102:14114   */\n      revert\n        /* \"#utility.yul\":14126:14560   */\n    tag_238:\n        /* \"#utility.yul\":14215:14220   */\n      0x00\n        /* \"#utility.yul\":14240:14306   */\n      tag_399\n        /* \"#utility.yul\":14256:14305   */\n      tag_400\n        /* \"#utility.yul\":14298:14304   */\n      dup5\n        /* \"#utility.yul\":14256:14305   */\n      tag_230\n      jump\t// in\n    tag_400:\n        /* \"#utility.yul\":14240:14306   */\n      tag_229\n      jump\t// in\n    tag_399:\n        /* \"#utility.yul\":14231:14306   */\n      swap1\n      pop\n        /* \"#utility.yul\":14329:14335   */\n      dup3\n        /* \"#utility.yul\":14322:14327   */\n      dup2\n        /* \"#utility.yul\":14315:14336   */\n      mstore\n        /* \"#utility.yul\":14367:14371   */\n      0x20\n        /* \"#utility.yul\":14360:14365   */\n      dup2\n        /* \"#utility.yul\":14356:14372   */\n      add\n        /* \"#utility.yul\":14405:14408   */\n      dup5\n        /* \"#utility.yul\":14396:14402   */\n      dup5\n        /* \"#utility.yul\":14391:14394   */\n      dup5\n        /* \"#utility.yul\":14387:14403   */\n      add\n        /* \"#utility.yul\":14384:14409   */\n      gt\n        /* \"#utility.yul\":14381:14493   */\n      iszero\n      tag_401\n      jumpi\n        /* \"#utility.yul\":14412:14491   */\n      tag_402\n      tag_226\n      jump\t// in\n    tag_402:\n        /* \"#utility.yul\":14381:14493   */\n    tag_401:\n        /* \"#utility.yul\":14502:14554   */\n      tag_403\n        /* \"#utility.yul\":14547:14553   */\n      dup5\n        /* \"#utility.yul\":14542:14545   */\n      dup3\n        /* \"#utility.yul\":14537:14540   */\n      dup6\n        /* \"#utility.yul\":14502:14554   */\n      tag_211\n      jump\t// in\n    tag_403:\n        /* \"#utility.yul\":14221:14560   */\n      pop\n        /* \"#utility.yul\":14126:14560   */\n      swap4\n      swap3\n      pop\n      pop\n      pop\n      jump\t// out\n        /* \"#utility.yul\":14580:14935   */\n    tag_239:\n        /* \"#utility.yul\":14647:14652   */\n      0x00\n        /* \"#utility.yul\":14696:14699   */\n      dup3\n        /* \"#utility.yul\":14689:14693   */\n      0x1f\n        /* \"#utility.yul\":14681:14687   */\n      dup4\n        /* \"#utility.yul\":14677:14694   */\n      add\n        /* \"#utility.yul\":14673:14700   */\n      slt\n        /* \"#utility.yul\":14663:14785   */\n      tag_405\n      jumpi\n        /* \"#utility.yul\":14704:14783   */\n      tag_406\n      tag_225\n      jump\t// in\n    tag_406:\n        /* \"#utility.yul\":14663:14785   */\n    tag_405:\n        /* \"#utility.yul\":14814:14820   */\n      dup2\n        /* \"#utility.yul\":14808:14821   */\n      mload\n        /* \"#utility.yul\":14839:14929   */\n      tag_407\n        /* \"#utility.yul\":14925:14928   */\n      dup5\n        /* \"#utility.yul\":14917:14923   */\n      dup3\n        /* \"#utility.yul\":14910:14914   */\n      0x20\n        /* \"#utility.yul\":14902:14908   */\n      dup7\n        /* \"#utility.yul\":14898:14915   */\n      add\n        /* \"#utility.yul\":14839:14929   */\n      tag_238\n      jump\t// in\n    tag_407:\n        /* \"#utility.yul\":14830:14929   */\n      swap2\n      pop\n        /* \"#utility.yul\":14653:14935   */\n      pop\n        /* \"#utility.yul\":14580:14935   */\n      swap3\n      swap2\n      pop\n      pop\n      jump\t// out\n        /* \"#utility.yul\":14976:15918   */\n    tag_240:\n        /* \"#utility.yul\":15064:15069   */\n      0x00\n        /* \"#utility.yul\":15108:15112   */\n      0x40\n        /* \"#utility.yul\":15096:15105   */\n      dup3\n        /* \"#utility.yul\":15091:15094   */\n      dup5\n        /* \"#utility.yul\":15087:15106   */\n      sub\n        /* \"#utility.yul\":15083:15113   */\n      slt\n        /* \"#utility.yul\":15080:15197   */\n      iszero\n      tag_409\n      jumpi\n        /* \"#utility.yul\":15116:15195   */\n      tag_410\n      tag_236\n      jump\t// in\n    tag_410:\n        /* \"#utility.yul\":15080:15197   */\n    tag_409:\n        /* \"#utility.yul\":15215:15236   */\n      tag_411\n        /* \"#utility.yul\":15231:15235   */\n      0x40\n        /* \"#utility.yul\":15215:15236   */\n      tag_229\n      jump\t// in\n    tag_411:\n        /* \"#utility.yul\":15206:15236   */\n      swap1\n      pop\n        /* \"#utility.yul\":15323:15324   */\n      0x00\n        /* \"#utility.yul\":15312:15321   */\n      dup3\n        /* \"#utility.yul\":15308:15325   */\n      add\n        /* \"#utility.yul\":15302:15326   */\n      mload\n        /* \"#utility.yul\":15353:15371   */\n      0xffffffffffffffff\n        /* \"#utility.yul\":15345:15351   */\n      dup2\n        /* \"#utility.yul\":15342:15372   */\n      gt\n        /* \"#utility.yul\":15339:15456   */\n      iszero\n      tag_412\n      jumpi\n        /* \"#utility.yul\":15375:15454   */\n      tag_413\n      tag_237\n      jump\t// in\n    tag_413:\n        /* \"#utility.yul\":15339:15456   */\n    tag_412:\n        /* \"#utility.yul\":15495:15565   */\n      tag_414\n        /* \"#utility.yul\":15561:15564   */\n      dup5\n        /* \"#utility.yul\":15552:15558   */\n      dup3\n        /* \"#utility.yul\":15541:15550   */\n      dup6\n        /* \"#utility.yul\":15537:15559   */\n      add\n        /* \"#utility.yul\":15495:15565   */\n      tag_239\n      jump\t// in\n    tag_414:\n        /* \"#utility.yul\":15488:15492   */\n      0x00\n        /* \"#utility.yul\":15481:15486   */\n      dup4\n        /* \"#utility.yul\":15477:15493   */\n      add\n        /* \"#utility.yul\":15470:15566   */\n      mstore\n        /* \"#utility.yul\":15246:15577   */\n      pop\n        /* \"#utility.yul\":15656:15658   */\n      0x20\n        /* \"#utility.yul\":15645:15654   */\n      dup3\n        /* \"#utility.yul\":15641:15659   */\n      add\n        /* \"#utility.yul\":15635:15660   */\n      mload\n        /* \"#utility.yul\":15687:15705   */\n      0xffffffffffffffff\n        /* \"#utility.yul\":15679:15685   */\n      dup2\n        /* \"#utility.yul\":15676:15706   */\n      gt\n        /* \"#utility.yul\":15673:15790   */\n      iszero\n      tag_415\n      jumpi\n        /* \"#utility.yul\":15709:15788   */\n      tag_416\n      tag_237\n      jump\t// in\n    tag_416:\n        /* \"#utility.yul\":15673:15790   */\n    tag_415:\n        /* \"#utility.yul\":15829:15899   */\n      tag_417\n        /* \"#utility.yul\":15895:15898   */\n      dup5\n        /* \"#utility.yul\":15886:15892   */\n      dup3\n        /* \"#utility.yul\":15875:15884   */\n      dup6\n        /* \"#utility.yul\":15871:15893   */\n      add\n        /* \"#utility.yul\":15829:15899   */\n      tag_239\n      jump\t// in\n    tag_417:\n        /* \"#utility.yul\":15822:15826   */\n      0x20\n        /* \"#utility.yul\":15815:15820   */\n      dup4\n        /* \"#utility.yul\":15811:15827   */\n      add\n        /* \"#utility.yul\":15804:15900   */\n      mstore\n        /* \"#utility.yul\":15587:15911   */\n      pop\n        /* \"#utility.yul\":14976:15918   */\n      swap3\n      swap2\n      pop\n      pop\n      jump\t// out\n        /* \"#utility.yul\":15924:16484   */\n    tag_86:\n        /* \"#utility.yul\":16022:16028   */\n      0x00\n        /* \"#utility.yul\":16071:16073   */\n      0x20\n        /* \"#utility.yul\":16059:16068   */\n      dup3\n        /* \"#utility.yul\":16050:16057   */\n      dup5\n        /* \"#utility.yul\":16046:16069   */\n      sub\n        /* \"#utility.yul\":16042:16074   */\n      slt\n        /* \"#utility.yul\":16039:16158   */\n      iszero\n      tag_419\n      jumpi\n        /* \"#utility.yul\":16077:16156   */\n      tag_420\n      tag_198\n      jump\t// in\n    tag_420:\n        /* \"#utility.yul\":16039:16158   */\n    tag_419:\n        /* \"#utility.yul\":16218:16219   */\n      0x00\n        /* \"#utility.yul\":16207:16216   */\n      dup3\n        /* \"#utility.yul\":16203:16220   */\n      add\n        /* \"#utility.yul\":16197:16221   */\n      mload\n        /* \"#utility.yul\":16248:16266   */\n      0xffffffffffffffff\n        /* \"#utility.yul\":16240:16246   */\n      dup2\n        /* \"#utility.yul\":16237:16267   */\n      gt\n        /* \"#utility.yul\":16234:16351   */\n      iszero\n      tag_421\n      jumpi\n        /* \"#utility.yul\":16270:16349   */\n      tag_422\n      tag_199\n      jump\t// in\n    tag_422:\n        /* \"#utility.yul\":16234:16351   */\n    tag_421:\n        /* \"#utility.yul\":16375:16467   */\n      tag_423\n        /* \"#utility.yul\":16459:16466   */\n      dup5\n        /* \"#utility.yul\":16450:16456   */\n      dup3\n        /* \"#utility.yul\":16439:16448   */\n      dup6\n        /* \"#utility.yul\":16435:16457   */\n      add\n        /* \"#utility.yul\":16375:16467   */\n      tag_240\n      jump\t// in\n    tag_423:\n        /* \"#utility.yul\":16365:16467   */\n      swap2\n      pop\n        /* \"#utility.yul\":16168:16477   */\n      pop\n        /* \"#utility.yul\":15924:16484   */\n      swap3\n      swap2\n      pop\n      pop\n      jump\t// out\n        /* \"#utility.yul\":16490:16658   */\n    tag_241:\n        /* \"#utility.yul\":16630:16650   */\n      0x75736572206e6f74207265676973746572640000000000000000000000000000\n        /* \"#utility.yul\":16626:16627   */\n      0x00\n        /* \"#utility.yul\":16618:16624   */\n      dup3\n        /* \"#utility.yul\":16614:16628   */\n      add\n        /* \"#utility.yul\":16607:16651   */\n      mstore\n        /* \"#utility.yul\":16490:16658   */\n      pop\n      jump\t// out\n        /* \"#utility.yul\":16664:17030   */\n    tag_242:\n        /* \"#utility.yul\":16806:16809   */\n      0x00\n        /* \"#utility.yul\":16827:16894   */\n      tag_426\n        /* \"#utility.yul\":16891:16893   */\n      0x12\n        /* \"#utility.yul\":16886:16889   */\n      dup4\n        /* \"#utility.yul\":16827:16894   */\n      tag_210\n      jump\t// in\n    tag_426:\n        /* \"#utility.yul\":16820:16894   */\n      swap2\n      pop\n        /* \"#utility.yul\":16903:16996   */\n      tag_427\n        /* \"#utility.yul\":16992:16995   */\n      dup3\n        /* \"#utility.yul\":16903:16996   */\n      tag_241\n      jump\t// in\n    tag_427:\n        /* \"#utility.yul\":17021:17023   */\n      0x20\n        /* \"#utility.yul\":17016:17019   */\n      dup3\n        /* \"#utility.yul\":17012:17024   */\n      add\n        /* \"#utility.yul\":17005:17024   */\n      swap1\n      pop\n        /* \"#utility.yul\":16664:17030   */\n      swap2\n      swap1\n      pop\n      jump\t// out\n        /* \"#utility.yul\":17036:17455   */\n    tag_89:\n        /* \"#utility.yul\":17202:17206   */\n      0x00\n        /* \"#utility.yul\":17240:17242   */\n      0x20\n        /* \"#utility.yul\":17229:17238   */\n      dup3\n        /* \"#utility.yul\":17225:17243   */\n      add\n        /* \"#utility.yul\":17217:17243   */\n      swap1\n      pop\n        /* \"#utility.yul\":17289:17298   */\n      dup2\n        /* \"#utility.yul\":17283:17287   */\n      dup2\n        /* \"#utility.yul\":17279:17299   */\n      sub\n        /* \"#utility.yul\":17275:17276   */\n      0x00\n        /* \"#utility.yul\":17264:17273   */\n      dup4\n        /* \"#utility.yul\":17260:17277   */\n      add\n        /* \"#utility.yul\":17253:17300   */\n      mstore\n        /* \"#utility.yul\":17317:17448   */\n      tag_429\n        /* \"#utility.yul\":17443:17447   */\n      dup2\n        /* \"#utility.yul\":17317:17448   */\n      tag_242\n      jump\t// in\n    tag_429:\n        /* \"#utility.yul\":17309:17448   */\n      swap1\n      pop\n        /* \"#utility.yul\":17036:17455   */\n      swap2\n      swap1\n      pop\n      jump\t// out\n        /* \"#utility.yul\":17461:17641   */\n    tag_93:\n        /* \"#utility.yul\":17509:17586   */\n      0x4e487b7100000000000000000000000000000000000000000000000000000000\n        /* \"#utility.yul\":17506:17507   */\n      0x00\n        /* \"#utility.yul\":17499:17587   */\n      mstore\n        /* \"#utility.yul\":17606:17610   */\n      0x32\n        /* \"#utility.yul\":17603:17604   */\n      0x04\n        /* \"#utility.yul\":17596:17611   */\n      mstore\n        /* \"#utility.yul\":17630:17634   */\n      0x24\n        /* \"#utility.yul\":17627:17628   */\n      0x00\n        /* \"#utility.yul\":17620:17635   */\n      revert\n        /* \"#utility.yul\":17647:17815   */\n    tag_243:\n        /* \"#utility.yul\":17787:17807   */\n      0x547765657420646f65736e742065786973740000000000000000000000000000\n        /* \"#utility.yul\":17783:17784   */\n      0x00\n        /* \"#utility.yul\":17775:17781   */\n      dup3\n        /* \"#utility.yul\":17771:17785   */\n      add\n        /* \"#utility.yul\":17764:17808   */\n      mstore\n        /* \"#utility.yul\":17647:17815   */\n      pop\n      jump\t// out\n        /* \"#utility.yul\":17821:18187   */\n    tag_244:\n        /* \"#utility.yul\":17963:17966   */\n      0x00\n        /* \"#utility.yul\":17984:18051   */\n      tag_433\n        /* \"#utility.yul\":18048:18050   */\n      0x12\n        /* \"#utility.yul\":18043:18046   */\n      dup4\n        /* \"#utility.yul\":17984:18051   */\n      tag_210\n      jump\t// in\n    tag_433:\n        /* \"#utility.yul\":17977:18051   */\n      swap2\n      pop\n        /* \"#utility.yul\":18060:18153   */\n      tag_434\n        /* \"#utility.yul\":18149:18152   */\n      dup3\n        /* \"#utility.yul\":18060:18153   */\n      tag_243\n      jump\t// in\n    tag_434:\n        /* \"#utility.yul\":18178:18180   */\n      0x20\n        /* \"#utility.yul\":18173:18176   */\n      dup3\n        /* \"#utility.yul\":18169:18181   */\n      add\n        /* \"#utility.yul\":18162:18181   */\n      swap1\n      pop\n        /* \"#utility.yul\":17821:18187   */\n      swap2\n      swap1\n      pop\n      jump\t// out\n        /* \"#utility.yul\":18193:18612   */\n    tag_97:\n        /* \"#utility.yul\":18359:18363   */\n      0x00\n        /* \"#utility.yul\":18397:18399   */\n      0x20\n        /* \"#utility.yul\":18386:18395   */\n      dup3\n        /* \"#utility.yul\":18382:18400   */\n      add\n        /* \"#utility.yul\":18374:18400   */\n      swap1\n      pop\n        /* \"#utility.yul\":18446:18455   */\n      dup2\n        /* \"#utility.yul\":18440:18444   */\n      dup2\n        /* \"#utility.yul\":18436:18456   */\n      sub\n        /* \"#utility.yul\":18432:18433   */\n      0x00\n        /* \"#utility.yul\":18421:18430   */\n      dup4\n        /* \"#utility.yul\":18417:18434   */\n      add\n        /* \"#utility.yul\":18410:18457   */\n      mstore\n        /* \"#utility.yul\":18474:18605   */\n      tag_436\n        /* \"#utility.yul\":18600:18604   */\n      dup2\n        /* \"#utility.yul\":18474:18605   */\n      tag_244\n      jump\t// in\n    tag_436:\n        /* \"#utility.yul\":18466:18605   */\n      swap1\n      pop\n        /* \"#utility.yul\":18193:18612   */\n      swap2\n      swap1\n      pop\n      jump\t// out\n        /* \"#utility.yul\":18618:18785   */\n    tag_245:\n        /* \"#utility.yul\":18758:18777   */\n      0x547765657420686173206e6f206c696b65000000000000000000000000000000\n        /* \"#utility.yul\":18754:18755   */\n      0x00\n        /* \"#utility.yul\":18746:18752   */\n      dup3\n        /* \"#utility.yul\":18742:18756   */\n      add\n        /* \"#utility.yul\":18735:18778   */\n      mstore\n        /* \"#utility.yul\":18618:18785   */\n      pop\n      jump\t// out\n        /* \"#utility.yul\":18791:19157   */\n    tag_246:\n        /* \"#utility.yul\":18933:18936   */\n      0x00\n        /* \"#utility.yul\":18954:19021   */\n      tag_439\n        /* \"#utility.yul\":19018:19020   */\n      0x11\n        /* \"#utility.yul\":19013:19016   */\n      dup4\n        /* \"#utility.yul\":18954:19021   */\n      tag_210\n      jump\t// in\n    tag_439:\n        /* \"#utility.yul\":18947:19021   */\n      swap2\n      pop\n        /* \"#utility.yul\":19030:19123   */\n      tag_440\n        /* \"#utility.yul\":19119:19122   */\n      dup3\n        /* \"#utility.yul\":19030:19123   */\n      tag_245\n      jump\t// in\n    tag_440:\n        /* \"#utility.yul\":19148:19150   */\n      0x20\n        /* \"#utility.yul\":19143:19146   */\n      dup3\n        /* \"#utility.yul\":19139:19151   */\n      add\n        /* \"#utility.yul\":19132:19151   */\n      swap1\n      pop\n        /* \"#utility.yul\":18791:19157   */\n      swap2\n      swap1\n      pop\n      jump\t// out\n        /* \"#utility.yul\":19163:19582   */\n    tag_103:\n        /* \"#utility.yul\":19329:19333   */\n      0x00\n        /* \"#utility.yul\":19367:19369   */\n      0x20\n        /* \"#utility.yul\":19356:19365   */\n      dup3\n        /* \"#utility.yul\":19352:19370   */\n      add\n        /* \"#utility.yul\":19344:19370   */\n      swap1\n      pop\n        /* \"#utility.yul\":19416:19425   */\n      dup2\n        /* \"#utility.yul\":19410:19414   */\n      dup2\n        /* \"#utility.yul\":19406:19426   */\n      sub\n        /* \"#utility.yul\":19402:19403   */\n      0x00\n        /* \"#utility.yul\":19391:19400   */\n      dup4\n        /* \"#utility.yul\":19387:19404   */\n      add\n        /* \"#utility.yul\":19380:19427   */\n      mstore\n        /* \"#utility.yul\":19444:19575   */\n      tag_442\n        /* \"#utility.yul\":19570:19574   */\n      dup2\n        /* \"#utility.yul\":19444:19575   */\n      tag_246\n      jump\t// in\n    tag_442:\n        /* \"#utility.yul\":19436:19575   */\n      swap1\n      pop\n        /* \"#utility.yul\":19163:19582   */\n      swap2\n      swap1\n      pop\n      jump\t// out\n        /* \"#utility.yul\":19588:19768   */\n    tag_247:\n        /* \"#utility.yul\":19636:19713   */\n      0x4e487b7100000000000000000000000000000000000000000000000000000000\n        /* \"#utility.yul\":19633:19634   */\n      0x00\n        /* \"#utility.yul\":19626:19714   */\n      mstore\n        /* \"#utility.yul\":19733:19737   */\n      0x11\n        /* \"#utility.yul\":19730:19731   */\n      0x04\n        /* \"#utility.yul\":19723:19738   */\n      mstore\n        /* \"#utility.yul\":19757:19761   */\n      0x24\n        /* \"#utility.yul\":19754:19755   */\n      0x00\n        /* \"#utility.yul\":19747:19762   */\n      revert\n        /* \"#utility.yul\":19774:19945   */\n    tag_108:\n        /* \"#utility.yul\":19813:19816   */\n      0x00\n        /* \"#utility.yul\":19836:19860   */\n      tag_445\n        /* \"#utility.yul\":19854:19859   */\n      dup3\n        /* \"#utility.yul\":19836:19860   */\n      tag_204\n      jump\t// in\n    tag_445:\n        /* \"#utility.yul\":19827:19860   */\n      swap2\n      pop\n        /* \"#utility.yul\":19882:19886   */\n      0x00\n        /* \"#utility.yul\":19875:19880   */\n      dup3\n        /* \"#utility.yul\":19872:19887   */\n      sub\n        /* \"#utility.yul\":19869:19910   */\n      tag_446\n      jumpi\n        /* \"#utility.yul\":19890:19908   */\n      tag_447\n      tag_247\n      jump\t// in\n    tag_447:\n        /* \"#utility.yul\":19869:19910   */\n    tag_446:\n        /* \"#utility.yul\":19937:19938   */\n      0x01\n        /* \"#utility.yul\":19930:19935   */\n      dup3\n        /* \"#utility.yul\":19926:19939   */\n      sub\n        /* \"#utility.yul\":19919:19939   */\n      swap1\n      pop\n        /* \"#utility.yul\":19774:19945   */\n      swap2\n      swap1\n      pop\n      jump\t// out\n        /* \"#utility.yul\":19951:20504   */\n    tag_113:\n        /* \"#utility.yul\":20128:20132   */\n      0x00\n        /* \"#utility.yul\":20166:20169   */\n      0x80\n        /* \"#utility.yul\":20155:20164   */\n      dup3\n        /* \"#utility.yul\":20151:20170   */\n      add\n        /* \"#utility.yul\":20143:20170   */\n      swap1\n      pop\n        /* \"#utility.yul\":20180:20251   */\n      tag_449\n        /* \"#utility.yul\":20248:20249   */\n      0x00\n        /* \"#utility.yul\":20237:20246   */\n      dup4\n        /* \"#utility.yul\":20233:20250   */\n      add\n        /* \"#utility.yul\":20224:20230   */\n      dup8\n        /* \"#utility.yul\":20180:20251   */\n      tag_208\n      jump\t// in\n    tag_449:\n        /* \"#utility.yul\":20261:20333   */\n      tag_450\n        /* \"#utility.yul\":20329:20331   */\n      0x20\n        /* \"#utility.yul\":20318:20327   */\n      dup4\n        /* \"#utility.yul\":20314:20332   */\n      add\n        /* \"#utility.yul\":20305:20311   */\n      dup7\n        /* \"#utility.yul\":20261:20333   */\n      tag_208\n      jump\t// in\n    tag_450:\n        /* \"#utility.yul\":20343:20415   */\n      tag_451\n        /* \"#utility.yul\":20411:20413   */\n      0x40\n        /* \"#utility.yul\":20400:20409   */\n      dup4\n        /* \"#utility.yul\":20396:20414   */\n      add\n        /* \"#utility.yul\":20387:20393   */\n      dup6\n        /* \"#utility.yul\":20343:20415   */\n      tag_207\n      jump\t// in\n    tag_451:\n        /* \"#utility.yul\":20425:20497   */\n      tag_452\n        /* \"#utility.yul\":20493:20495   */\n      0x60\n        /* \"#utility.yul\":20482:20491   */\n      dup4\n        /* \"#utility.yul\":20478:20496   */\n      add\n        /* \"#utility.yul\":20469:20475   */\n      dup5\n        /* \"#utility.yul\":20425:20497   */\n      tag_207\n      jump\t// in\n    tag_452:\n        /* \"#utility.yul\":19951:20504   */\n      swap6\n      swap5\n      pop\n      pop\n      pop\n      pop\n      pop\n      jump\t// out\n        /* \"#utility.yul\":20510:20743   */\n    tag_131:\n        /* \"#utility.yul\":20549:20552   */\n      0x00\n        /* \"#utility.yul\":20572:20596   */\n      tag_454\n        /* \"#utility.yul\":20590:20595   */\n      dup3\n        /* \"#utility.yul\":20572:20596   */\n      tag_204\n      jump\t// in\n    tag_454:\n        /* \"#utility.yul\":20563:20596   */\n      swap2\n      pop\n        /* \"#utility.yul\":20618:20684   */\n      0xffffffffffffffffffffffffffffffffffffffffffffffffffffffffffffffff\n        /* \"#utility.yul\":20611:20616   */\n      dup3\n        /* \"#utility.yul\":20608:20685   */\n      sub\n        /* \"#utility.yul\":20605:20708   */\n      tag_455\n      jumpi\n        /* \"#utility.yul\":20688:20706   */\n      tag_456\n      tag_247\n      jump\t// in\n    tag_456:\n        /* \"#utility.yul\":20605:20708   */\n    tag_455:\n        /* \"#utility.yul\":20735:20736   */\n      0x01\n        /* \"#utility.yul\":20728:20733   */\n      dup3\n        /* \"#utility.yul\":20724:20737   */\n      add\n        /* \"#utility.yul\":20717:20737   */\n      swap1\n      pop\n        /* \"#utility.yul\":20510:20743   */\n      swap2\n      swap1\n      pop\n      jump\t// out\n        /* \"#utility.yul\":20749:20918   */\n    tag_248:\n        /* \"#utility.yul\":20889:20910   */\n      0x547765657420746f6f206c6f6e67206272756800000000000000000000000000\n        /* \"#utility.yul\":20885:20886   */\n      0x00\n        /* \"#utility.yul\":20877:20883   */\n      dup3\n        /* \"#utility.yul\":20873:20887   */\n      add\n        /* \"#utility.yul\":20866:20911   */\n      mstore\n        /* \"#utility.yul\":20749:20918   */\n      pop\n      jump\t// out\n        /* \"#utility.yul\":20924:21290   */\n    tag_249:\n        /* \"#utility.yul\":21066:21069   */\n      0x00\n        /* \"#utility.yul\":21087:21154   */\n      tag_459\n        /* \"#utility.yul\":21151:21153   */\n      0x13\n        /* \"#utility.yul\":21146:21149   */\n      dup4\n        /* \"#utility.yul\":21087:21154   */\n      tag_210\n      jump\t// in\n    tag_459:\n        /* \"#utility.yul\":21080:21154   */\n      swap2\n      pop\n        /* \"#utility.yul\":21163:21256   */\n      tag_460\n        /* \"#utility.yul\":21252:21255   */\n      dup3\n        /* \"#utility.yul\":21163:21256   */\n      tag_248\n      jump\t// in\n    tag_460:\n        /* \"#utility.yul\":21281:21283   */\n      0x20\n        /* \"#utility.yul\":21276:21279   */\n      dup3\n        /* \"#utility.yul\":21272:21284   */\n      add\n        /* \"#utility.yul\":21265:21284   */\n      swap1\n      pop\n        /* \"#utility.yul\":20924:21290   */\n      swap2\n      swap1\n      pop\n      jump\t// out\n        /* \"#utility.yul\":21296:21715   */\n    tag_152:\n        /* \"#utility.yul\":21462:21466   */\n      0x00\n        /* \"#utility.yul\":21500:21502   */\n      0x20\n        /* \"#utility.yul\":21489:21498   */\n      dup3\n        /* \"#utility.yul\":21485:21503   */\n      add\n        /* \"#utility.yul\":21477:21503   */\n      swap1\n      pop\n        /* \"#utility.yul\":21549:21558   */\n      dup2\n        /* \"#utility.yul\":21543:21547   */\n      dup2\n        /* \"#utility.yul\":21539:21559   */\n      sub\n        /* \"#utility.yul\":21535:21536   */\n      0x00\n        /* \"#utility.yul\":21524:21533   */\n      dup4\n        /* \"#utility.yul\":21520:21537   */\n      add\n        /* \"#utility.yul\":21513:21560   */\n      mstore\n        /* \"#utility.yul\":21577:21708   */\n      tag_462\n        /* \"#utility.yul\":21703:21707   */\n      dup2\n        /* \"#utility.yul\":21577:21708   */\n      tag_249\n      jump\t// in\n    tag_462:\n        /* \"#utility.yul\":21569:21708   */\n      swap1\n      pop\n        /* \"#utility.yul\":21296:21715   */\n      swap2\n      swap1\n      pop\n      jump\t// out\n        /* \"#utility.yul\":21721:21862   */\n    tag_250:\n        /* \"#utility.yul\":21770:21774   */\n      0x00\n        /* \"#utility.yul\":21793:21796   */\n      dup2\n        /* \"#utility.yul\":21785:21796   */\n      swap1\n      pop\n        /* \"#utility.yul\":21816:21819   */\n      dup2\n        /* \"#utility.yul\":21813:21814   */\n      0x00\n        /* \"#utility.yul\":21806:21820   */\n      mstore\n        /* \"#utility.yul\":21850:21854   */\n      0x20\n        /* \"#utility.yul\":21847:21848   */\n      0x00\n        /* \"#utility.yul\":21837:21855   */\n      keccak256\n        /* \"#utility.yul\":21829:21855   */\n      swap1\n      pop\n        /* \"#utility.yul\":21721:21862   */\n      swap2\n      swap1\n      pop\n      jump\t// out\n        /* \"#utility.yul\":21868:21961   */\n    tag_251:\n        /* \"#utility.yul\":21905:21911   */\n      0x00\n        /* \"#utility.yul\":21952:21954   */\n      0x20\n        /* \"#utility.yul\":21947:21949   */\n      0x1f\n        /* \"#utility.yul\":21940:21945   */\n      dup4\n        /* \"#utility.yul\":21936:21950   */\n      add\n        /* \"#utility.yul\":21932:21955   */\n      div\n        /* \"#utility.yul\":21922:21955   */\n      swap1\n      pop\n        /* \"#utility.yul\":21868:21961   */\n      swap2\n      swap1\n      pop\n      jump\t// out\n        /* \"#utility.yul\":21967:22074   */\n    tag_252:\n        /* \"#utility.yul\":22011:22019   */\n      0x00\n        /* \"#utility.yul\":22061:22066   */\n      dup3\n        /* \"#utility.yul\":22055:22059   */\n      dup3\n        /* \"#utility.yul\":22051:22067   */\n      shl\n        /* \"#utility.yul\":22030:22067   */\n      swap1\n      pop\n        /* \"#utility.yul\":21967:22074   */\n      swap3\n      swap2\n      pop\n      pop\n      jump\t// out\n        /* \"#utility.yul\":22080:22473   */\n    tag_253:\n        /* \"#utility.yul\":22149:22155   */\n      0x00\n        /* \"#utility.yul\":22199:22200   */\n      0x08\n        /* \"#utility.yul\":22187:22197   */\n      dup4\n        /* \"#utility.yul\":22183:22201   */\n      mul\n        /* \"#utility.yul\":22222:22319   */\n      tag_467\n        /* \"#utility.yul\":22252:22318   */\n      0xffffffffffffffffffffffffffffffffffffffffffffffffffffffffffffffff\n        /* \"#utility.yul\":22241:22250   */\n      dup3\n        /* \"#utility.yul\":22222:22319   */\n      tag_252\n      jump\t// in\n    tag_467:\n        /* \"#utility.yul\":22340:22379   */\n      tag_468\n        /* \"#utility.yul\":22370:22378   */\n      dup7\n        /* \"#utility.yul\":22359:22368   */\n      dup4\n        /* \"#utility.yul\":22340:22379   */\n      tag_252\n      jump\t// in\n    tag_468:\n        /* \"#utility.yul\":22328:22379   */\n      swap6\n      pop\n        /* \"#utility.yul\":22412:22416   */\n      dup1\n        /* \"#utility.yul\":22408:22417   */\n      not\n        /* \"#utility.yul\":22401:22406   */\n      dup5\n        /* \"#utility.yul\":22397:22418   */\n      and\n        /* \"#utility.yul\":22388:22418   */\n      swap4\n      pop\n        /* \"#utility.yul\":22461:22465   */\n      dup1\n        /* \"#utility.yul\":22451:22459   */\n      dup7\n        /* \"#utility.yul\":22447:22466   */\n      and\n        /* \"#utility.yul\":22440:22445   */\n      dup5\n        /* \"#utility.yul\":22437:22467   */\n      or\n        /* \"#utility.yul\":22427:22467   */\n      swap3\n      pop\n        /* \"#utility.yul\":22156:22473   */\n      pop\n      pop\n        /* \"#utility.yul\":22080:22473   */\n      swap4\n      swap3\n      pop\n      pop\n      pop\n      jump\t// out\n        /* \"#utility.yul\":22479:22539   */\n    tag_254:\n        /* \"#utility.yul\":22507:22510   */\n      0x00\n        /* \"#utility.yul\":22528:22533   */\n      dup2\n        /* \"#utility.yul\":22521:22533   */\n      swap1\n      pop\n        /* \"#utility.yul\":22479:22539   */\n      swap2\n      swap1\n      pop\n      jump\t// out\n        /* \"#utility.yul\":22545:22687   */\n    tag_255:\n        /* \"#utility.yul\":22595:22604   */\n      0x00\n        /* \"#utility.yul\":22628:22681   */\n      tag_471\n        /* \"#utility.yul\":22646:22680   */\n      tag_472\n        /* \"#utility.yul\":22655:22679   */\n      tag_473\n        /* \"#utility.yul\":22673:22678   */\n      dup5\n        /* \"#utility.yul\":22655:22679   */\n      tag_204\n      jump\t// in\n    tag_473:\n        /* \"#utility.yul\":22646:22680   */\n      tag_254\n      jump\t// in\n    tag_472:\n        /* \"#utility.yul\":22628:22681   */\n      tag_204\n      jump\t// in\n    tag_471:\n        /* \"#utility.yul\":22615:22681   */\n      swap1\n      pop\n        /* \"#utility.yul\":22545:22687   */\n      swap2\n      swap1\n      pop\n      jump\t// out\n        /* \"#utility.yul\":22693:22768   */\n    tag_256:\n        /* \"#utility.yul\":22736:22739   */\n      0x00\n        /* \"#utility.yul\":22757:22762   */\n      dup2\n        /* \"#utility.yul\":22750:22762   */\n      swap1\n      pop\n        /* \"#utility.yul\":22693:22768   */\n      swap2\n      swap1\n      pop\n      jump\t// out\n        /* \"#utility.yul\":22774:23043   */\n    tag_257:\n        /* \"#utility.yul\":22884:22923   */\n      tag_476\n        /* \"#utility.yul\":22915:22922   */\n      dup4\n        /* \"#utility.yul\":22884:22923   */\n      tag_255\n      jump\t// in\n    tag_476:\n        /* \"#utility.yul\":22945:23036   */\n      tag_477\n        /* \"#utility.yul\":22994:23035   */\n      tag_478\n        /* \"#utility.yul\":23018:23034   */\n      dup3\n        /* \"#utility.yul\":22994:23035   */\n      tag_256\n      jump\t// in\n    tag_478:\n        /* \"#utility.yul\":22986:22992   */\n      dup5\n        /* \"#utility.yul\":22979:22983   */\n      dup5\n        /* \"#utility.yul\":22973:22984   */\n      sload\n        /* \"#utility.yul\":22945:23036   */\n      tag_253\n      jump\t// in\n    tag_477:\n        /* \"#utility.yul\":22939:22943   */\n      dup3\n        /* \"#utility.yul\":22932:23037   */\n      sstore\n        /* \"#utility.yul\":22850:23043   */\n      pop\n        /* \"#utility.yul\":22774:23043   */\n      pop\n      pop\n      pop\n      jump\t// out\n        /* \"#utility.yul\":23049:23122   */\n    tag_258:\n        /* \"#utility.yul\":23094:23097   */\n      0x00\n        /* \"#utility.yul\":23115:23116   */\n      0x00\n        /* \"#utility.yul\":23108:23116   */\n      swap1\n      pop\n        /* \"#utility.yul\":23049:23122   */\n      swap1\n      jump\t// out\n        /* \"#utility.yul\":23128:23317   */\n    tag_259:\n        /* \"#utility.yul\":23205:23237   */\n      tag_481\n      tag_258\n      jump\t// in\n    tag_481:\n        /* \"#utility.yul\":23246:23311   */\n      tag_482\n        /* \"#utility.yul\":23304:23310   */\n      dup2\n        /* \"#utility.yul\":23296:23302   */\n      dup5\n        /* \"#utility.yul\":23290:23294   */\n      dup5\n        /* \"#utility.yul\":23246:23311   */\n      tag_257\n      jump\t// in\n    tag_482:\n        /* \"#utility.yul\":23181:23317   */\n      pop\n        /* \"#utility.yul\":23128:23317   */\n      pop\n      pop\n      jump\t// out\n        /* \"#utility.yul\":23323:23509   */\n    tag_260:\n        /* \"#utility.yul\":23383:23503   */\n    tag_484:\n        /* \"#utility.yul\":23400:23403   */\n      dup2\n        /* \"#utility.yul\":23393:23398   */\n      dup2\n        /* \"#utility.yul\":23390:23404   */\n      lt\n        /* \"#utility.yul\":23383:23503   */\n      iszero\n      tag_486\n      jumpi\n        /* \"#utility.yul\":23454:23493   */\n      tag_487\n        /* \"#utility.yul\":23491:23492   */\n      0x00\n        /* \"#utility.yul\":23484:23489   */\n      dup3\n        /* \"#utility.yul\":23454:23493   */\n      tag_259\n      jump\t// in\n    tag_487:\n        /* \"#utility.yul\":23427:23428   */\n      0x01\n        /* \"#utility.yul\":23420:23425   */\n      dup2\n        /* \"#utility.yul\":23416:23429   */\n      add\n        /* \"#utility.yul\":23407:23429   */\n      swap1\n      pop\n        /* \"#utility.yul\":23383:23503   */\n      jump(tag_484)\n    tag_486:\n        /* \"#utility.yul\":23323:23509   */\n      pop\n      pop\n      jump\t// out\n        /* \"#utility.yul\":23515:24058   */\n    tag_261:\n        /* \"#utility.yul\":23616:23618   */\n      0x1f\n        /* \"#utility.yul\":23611:23614   */\n      dup3\n        /* \"#utility.yul\":23608:23619   */\n      gt\n        /* \"#utility.yul\":23605:24051   */\n      iszero\n      tag_489\n      jumpi\n        /* \"#utility.yul\":23650:23688   */\n      tag_490\n        /* \"#utility.yul\":23682:23687   */\n      dup2\n        /* \"#utility.yul\":23650:23688   */\n      tag_250\n      jump\t// in\n    tag_490:\n        /* \"#utility.yul\":23734:23763   */\n      tag_491\n        /* \"#utility.yul\":23752:23762   */\n      dup5\n        /* \"#utility.yul\":23734:23763   */\n      tag_251\n      jump\t// in\n    tag_491:\n        /* \"#utility.yul\":23724:23732   */\n      dup2\n        /* \"#utility.yul\":23720:23764   */\n      add\n        /* \"#utility.yul\":23917:23919   */\n      0x20\n        /* \"#utility.yul\":23905:23915   */\n      dup6\n        /* \"#utility.yul\":23902:23920   */\n      lt\n        /* \"#utility.yul\":23899:23948   */\n      iszero\n      tag_492\n      jumpi\n        /* \"#utility.yul\":23938:23946   */\n      dup2\n        /* \"#utility.yul\":23923:23946   */\n      swap1\n      pop\n        /* \"#utility.yul\":23899:23948   */\n    tag_492:\n        /* \"#utility.yul\":23961:24041   */\n      tag_493\n        /* \"#utility.yul\":24017:24039   */\n      tag_494\n        /* \"#utility.yul\":24035:24038   */\n      dup6\n        /* \"#utility.yul\":24017:24039   */\n      tag_251\n      jump\t// in\n    tag_494:\n        /* \"#utility.yul\":24007:24015   */\n      dup4\n        /* \"#utility.yul\":24003:24040   */\n      add\n        /* \"#utility.yul\":23990:24001   */\n      dup3\n        /* \"#utility.yul\":23961:24041   */\n      tag_260\n      jump\t// in\n    tag_493:\n        /* \"#utility.yul\":23620:24051   */\n      pop\n      pop\n        /* \"#utility.yul\":23605:24051   */\n    tag_489:\n        /* \"#utility.yul\":23515:24058   */\n      pop\n      pop\n      pop\n      jump\t// out\n        /* \"#utility.yul\":24064:24181   */\n    tag_262:\n        /* \"#utility.yul\":24118:24126   */\n      0x00\n        /* \"#utility.yul\":24168:24173   */\n      dup3\n        /* \"#utility.yul\":24162:24166   */\n      dup3\n        /* \"#utility.yul\":24158:24174   */\n      shr\n        /* \"#utility.yul\":24137:24174   */\n      swap1\n      pop\n        /* \"#utility.yul\":24064:24181   */\n      swap3\n      swap2\n      pop\n      pop\n      jump\t// out\n        /* \"#utility.yul\":24187:24356   */\n    tag_263:\n        /* \"#utility.yul\":24231:24237   */\n      0x00\n        /* \"#utility.yul\":24264:24315   */\n      tag_497\n        /* \"#utility.yul\":24312:24313   */\n      0x00\n        /* \"#utility.yul\":24308:24314   */\n      not\n        /* \"#utility.yul\":24300:24305   */\n      dup5\n        /* \"#utility.yul\":24297:24298   */\n      0x08\n        /* \"#utility.yul\":24293:24306   */\n      mul\n        /* \"#utility.yul\":24264:24315   */\n      tag_262\n      jump\t// in\n    tag_497:\n        /* \"#utility.yul\":24260:24316   */\n      not\n        /* \"#utility.yul\":24345:24349   */\n      dup1\n        /* \"#utility.yul\":24339:24343   */\n      dup4\n        /* \"#utility.yul\":24335:24350   */\n      and\n        /* \"#utility.yul\":24325:24350   */\n      swap2\n      pop\n        /* \"#utility.yul\":24238:24356   */\n      pop\n        /* \"#utility.yul\":24187:24356   */\n      swap3\n      swap2\n      pop\n      pop\n      jump\t// out\n        /* \"#utility.yul\":24361:24656   */\n    tag_264:\n        /* \"#utility.yul\":24437:24441   */\n      0x00\n        /* \"#utility.yul\":24583:24612   */\n      tag_499\n        /* \"#utility.yul\":24608:24611   */\n      dup4\n        /* \"#utility.yul\":24602:24606   */\n      dup4\n        /* \"#utility.yul\":24583:24612   */\n      tag_263\n      jump\t// in\n    tag_499:\n        /* \"#utility.yul\":24575:24612   */\n      swap2\n      pop\n        /* \"#utility.yul\":24645:24648   */\n      dup3\n        /* \"#utility.yul\":24642:24643   */\n      0x02\n        /* \"#utility.yul\":24638:24649   */\n      mul\n        /* \"#utility.yul\":24632:24636   */\n      dup3\n        /* \"#utility.yul\":24629:24650   */\n      or\n        /* \"#utility.yul\":24621:24650   */\n      swap1\n      pop\n        /* \"#utility.yul\":24361:24656   */\n      swap3\n      swap2\n      pop\n      pop\n      jump\t// out\n        /* \"#utility.yul\":24661:26056   */\n    tag_155:\n        /* \"#utility.yul\":24778:24815   */\n      tag_501\n        /* \"#utility.yul\":24811:24814   */\n      dup3\n        /* \"#utility.yul\":24778:24815   */\n      tag_209\n      jump\t// in\n    tag_501:\n        /* \"#utility.yul\":24880:24898   */\n      0xffffffffffffffff\n        /* \"#utility.yul\":24872:24878   */\n      dup2\n        /* \"#utility.yul\":24869:24899   */\n      gt\n        /* \"#utility.yul\":24866:24922   */\n      iszero\n      tag_502\n      jumpi\n        /* \"#utility.yul\":24902:24920   */\n      tag_503\n      tag_227\n      jump\t// in\n    tag_503:\n        /* \"#utility.yul\":24866:24922   */\n    tag_502:\n        /* \"#utility.yul\":24946:24984   */\n      tag_504\n        /* \"#utility.yul\":24978:24982   */\n      dup3\n        /* \"#utility.yul\":24972:24983   */\n      sload\n        /* \"#utility.yul\":24946:24984   */\n      tag_67\n      jump\t// in\n    tag_504:\n        /* \"#utility.yul\":25031:25098   */\n      tag_505\n        /* \"#utility.yul\":25091:25097   */\n      dup3\n        /* \"#utility.yul\":25083:25089   */\n      dup3\n        /* \"#utility.yul\":25077:25081   */\n      dup6\n        /* \"#utility.yul\":25031:25098   */\n      tag_261\n      jump\t// in\n    tag_505:\n        /* \"#utility.yul\":25125:25126   */\n      0x00\n        /* \"#utility.yul\":25149:25153   */\n      0x20\n        /* \"#utility.yul\":25136:25153   */\n      swap1\n      pop\n        /* \"#utility.yul\":25181:25183   */\n      0x1f\n        /* \"#utility.yul\":25173:25179   */\n      dup4\n        /* \"#utility.yul\":25170:25184   */\n      gt\n        /* \"#utility.yul\":25198:25199   */\n      0x01\n        /* \"#utility.yul\":25193:25811   */\n      dup2\n      eq\n      tag_507\n      jumpi\n        /* \"#utility.yul\":25855:25856   */\n      0x00\n        /* \"#utility.yul\":25872:25878   */\n      dup5\n        /* \"#utility.yul\":25869:25946   */\n      iszero\n      tag_508\n      jumpi\n        /* \"#utility.yul\":25921:25930   */\n      dup3\n        /* \"#utility.yul\":25916:25919   */\n      dup8\n        /* \"#utility.yul\":25912:25931   */\n      add\n        /* \"#utility.yul\":25906:25932   */\n      mload\n        /* \"#utility.yul\":25897:25932   */\n      swap1\n      pop\n        /* \"#utility.yul\":25869:25946   */\n    tag_508:\n        /* \"#utility.yul\":25972:26039   */\n      tag_509\n        /* \"#utility.yul\":26032:26038   */\n      dup6\n        /* \"#utility.yul\":26025:26030   */\n      dup3\n        /* \"#utility.yul\":25972:26039   */\n      tag_264\n      jump\t// in\n    tag_509:\n        /* \"#utility.yul\":25966:25970   */\n      dup7\n        /* \"#utility.yul\":25959:26040   */\n      sstore\n        /* \"#utility.yul\":25828:26050   */\n      pop\n        /* \"#utility.yul\":25163:26050   */\n      jump(tag_506)\n        /* \"#utility.yul\":25193:25811   */\n    tag_507:\n        /* \"#utility.yul\":25245:25249   */\n      0x1f\n        /* \"#utility.yul\":25241:25250   */\n      not\n        /* \"#utility.yul\":25233:25239   */\n      dup5\n        /* \"#utility.yul\":25229:25251   */\n      and\n        /* \"#utility.yul\":25279:25316   */\n      tag_510\n        /* \"#utility.yul\":25311:25315   */\n      dup7\n        /* \"#utility.yul\":25279:25316   */\n      tag_250\n      jump\t// in\n    tag_510:\n        /* \"#utility.yul\":25338:25339   */\n      0x00\n        /* \"#utility.yul\":25352:25560   */\n    tag_511:\n        /* \"#utility.yul\":25366:25373   */\n      dup3\n        /* \"#utility.yul\":25363:25364   */\n      dup2\n        /* \"#utility.yul\":25360:25374   */\n      lt\n        /* \"#utility.yul\":25352:25560   */\n      iszero\n      tag_513\n      jumpi\n        /* \"#utility.yul\":25445:25454   */\n      dup5\n        /* \"#utility.yul\":25440:25443   */\n      dup10\n        /* \"#utility.yul\":25436:25455   */\n      add\n        /* \"#utility.yul\":25430:25456   */\n      mload\n        /* \"#utility.yul\":25422:25428   */\n      dup3\n        /* \"#utility.yul\":25415:25457   */\n      sstore\n        /* \"#utility.yul\":25496:25497   */\n      0x01\n        /* \"#utility.yul\":25488:25494   */\n      dup3\n        /* \"#utility.yul\":25484:25498   */\n      add\n        /* \"#utility.yul\":25474:25498   */\n      swap2\n      pop\n        /* \"#utility.yul\":25543:25545   */\n      0x20\n        /* \"#utility.yul\":25532:25541   */\n      dup6\n        /* \"#utility.yul\":25528:25546   */\n      add\n        /* \"#utility.yul\":25515:25546   */\n      swap5\n      pop\n        /* \"#utility.yul\":25389:25393   */\n      0x20\n        /* \"#utility.yul\":25386:25387   */\n      dup2\n        /* \"#utility.yul\":25382:25394   */\n      add\n        /* \"#utility.yul\":25377:25394   */\n      swap1\n      pop\n        /* \"#utility.yul\":25352:25560   */\n      jump(tag_511)\n    tag_513:\n        /* \"#utility.yul\":25588:25594   */\n      dup7\n        /* \"#utility.yul\":25579:25586   */\n      dup4\n        /* \"#utility.yul\":25576:25595   */\n      lt\n        /* \"#utility.yul\":25573:25752   */\n      iszero\n      tag_514\n      jumpi\n        /* \"#utility.yul\":25646:25655   */\n      dup5\n        /* \"#utility.yul\":25641:25644   */\n      dup10\n        /* \"#utility.yul\":25637:25656   */\n      add\n        /* \"#utility.yul\":25631:25657   */\n      mload\n        /* \"#utility.yul\":25689:25737   */\n      tag_515\n        /* \"#utility.yul\":25731:25735   */\n      0x1f\n        /* \"#utility.yul\":25723:25729   */\n      dup10\n        /* \"#utility.yul\":25719:25736   */\n      and\n        /* \"#utility.yul\":25708:25717   */\n      dup3\n        /* \"#utility.yul\":25689:25737   */\n      tag_263\n      jump\t// in\n    tag_515:\n        /* \"#utility.yul\":25681:25687   */\n      dup4\n        /* \"#utility.yul\":25674:25738   */\n      sstore\n        /* \"#utility.yul\":25596:25752   */\n      pop\n        /* \"#utility.yul\":25573:25752   */\n    tag_514:\n        /* \"#utility.yul\":25798:25799   */\n      0x01\n        /* \"#utility.yul\":25794:25795   */\n      0x02\n        /* \"#utility.yul\":25786:25792   */\n      dup9\n        /* \"#utility.yul\":25782:25796   */\n      mul\n        /* \"#utility.yul\":25778:25800   */\n      add\n        /* \"#utility.yul\":25772:25776   */\n      dup9\n        /* \"#utility.yul\":25765:25801   */\n      sstore\n        /* \"#utility.yul\":25200:25811   */\n      pop\n      pop\n      pop\n        /* \"#utility.yul\":25163:26050   */\n    tag_506:\n      pop\n        /* \"#utility.yul\":24753:26056   */\n      pop\n      pop\n      pop\n        /* \"#utility.yul\":24661:26056   */\n      pop\n      pop\n      jump\t// out\n        /* \"#utility.yul\":26062:26706   */\n    tag_157:\n        /* \"#utility.yul\":26259:26263   */\n      0x00\n        /* \"#utility.yul\":26297:26300   */\n      0x80\n        /* \"#utility.yul\":26286:26295   */\n      dup3\n        /* \"#utility.yul\":26282:26301   */\n      add\n        /* \"#utility.yul\":26274:26301   */\n      swap1\n      pop\n        /* \"#utility.yul\":26311:26382   */\n      tag_517\n        /* \"#utility.yul\":26379:26380   */\n      0x00\n        /* \"#utility.yul\":26368:26377   */\n      dup4\n        /* \"#utility.yul\":26364:26381   */\n      add\n        /* \"#utility.yul\":26355:26361   */\n      dup8\n        /* \"#utility.yul\":26311:26382   */\n      tag_207\n      jump\t// in\n    tag_517:\n        /* \"#utility.yul\":26392:26464   */\n      tag_518\n        /* \"#utility.yul\":26460:26462   */\n      0x20\n        /* \"#utility.yul\":26449:26458   */\n      dup4\n        /* \"#utility.yul\":26445:26463   */\n      add\n        /* \"#utility.yul\":26436:26442   */\n      dup7\n        /* \"#utility.yul\":26392:26464   */\n      tag_208\n      jump\t// in\n    tag_518:\n        /* \"#utility.yul\":26511:26520   */\n      dup2\n        /* \"#utility.yul\":26505:26509   */\n      dup2\n        /* \"#utility.yul\":26501:26521   */\n      sub\n        /* \"#utility.yul\":26496:26498   */\n      0x40\n        /* \"#utility.yul\":26485:26494   */\n      dup4\n        /* \"#utility.yul\":26481:26499   */\n      add\n        /* \"#utility.yul\":26474:26522   */\n      mstore\n        /* \"#utility.yul\":26539:26617   */\n      tag_519\n        /* \"#utility.yul\":26612:26616   */\n      dup2\n        /* \"#utility.yul\":26603:26609   */\n      dup6\n        /* \"#utility.yul\":26539:26617   */\n      tag_213\n      jump\t// in\n    tag_519:\n        /* \"#utility.yul\":26531:26617   */\n      swap1\n      pop\n        /* \"#utility.yul\":26627:26699   */\n      tag_520\n        /* \"#utility.yul\":26695:26697   */\n      0x60\n        /* \"#utility.yul\":26684:26693   */\n      dup4\n        /* \"#utility.yul\":26680:26698   */\n      add\n        /* \"#utility.yul\":26671:26677   */\n      dup5\n        /* \"#utility.yul\":26627:26699   */\n      tag_207\n      jump\t// in\n    tag_520:\n        /* \"#utility.yul\":26062:26706   */\n      swap6\n      swap5\n      pop\n      pop\n      pop\n      pop\n      pop\n      jump\t// out\n        /* \"#utility.yul\":26712:26903   */\n    tag_166:\n        /* \"#utility.yul\":26752:26755   */\n      0x00\n        /* \"#utility.yul\":26771:26791   */\n      tag_522\n        /* \"#utility.yul\":26789:26790   */\n      dup3\n        /* \"#utility.yul\":26771:26791   */\n      tag_204\n      jump\t// in\n    tag_522:\n        /* \"#utility.yul\":26766:26791   */\n      swap2\n      pop\n        /* \"#utility.yul\":26805:26825   */\n      tag_523\n        /* \"#utility.yul\":26823:26824   */\n      dup4\n        /* \"#utility.yul\":26805:26825   */\n      tag_204\n      jump\t// in\n    tag_523:\n        /* \"#utility.yul\":26800:26825   */\n      swap3\n      pop\n        /* \"#utility.yul\":26848:26849   */\n      dup3\n        /* \"#utility.yul\":26845:26846   */\n      dup3\n        /* \"#utility.yul\":26841:26850   */\n      add\n        /* \"#utility.yul\":26834:26850   */\n      swap1\n      pop\n        /* \"#utility.yul\":26869:26872   */\n      dup1\n        /* \"#utility.yul\":26866:26867   */\n      dup3\n        /* \"#utility.yul\":26863:26873   */\n      gt\n        /* \"#utility.yul\":26860:26896   */\n      iszero\n      tag_524\n      jumpi\n        /* \"#utility.yul\":26876:26894   */\n      tag_525\n      tag_247\n      jump\t// in\n    tag_525:\n        /* \"#utility.yul\":26860:26896   */\n    tag_524:\n        /* \"#utility.yul\":26712:26903   */\n      swap3\n      swap2\n      pop\n      pop\n      jump\t// out\n\n    auxdata: 0xa2646970667358221220bc6e9cfe6d0768f4b3ab0507ea7bebcf3a55c8a72017908c124913e356f1cccc64736f6c634300081e0033\n}\n",
				"bytecode": {
					"linkReferences": {},
					"object": "6080604052610118600155348015610015575f5ffd5b5060405161221c38038061221c8339818101604052810190610037919061021d565b335f73ffffffffffffffffffffffffffffffffffffffff168173ffffffffffffffffffffffffffffffffffffffff16036100a8575f6040517f1e4fbdf700000000000000000000000000000000000000000000000000000000815260040161009f9190610257565b60405180910390fd5b6100b7816100fe60201b60201c565b508060035f6101000a81548173ffffffffffffffffffffffffffffffffffffffff021916908373ffffffffffffffffffffffffffffffffffffffff16021790555050610270565b5f5f5f9054906101000a900473ffffffffffffffffffffffffffffffffffffffff169050815f5f6101000a81548173ffffffffffffffffffffffffffffffffffffffff021916908373ffffffffffffffffffffffffffffffffffffffff1602179055508173ffffffffffffffffffffffffffffffffffffffff168173ffffffffffffffffffffffffffffffffffffffff167f8be0079c531659141344cd1fd0a4f28419497f9722a3daafe3b4186f6b6457e060405160405180910390a35050565b5f5ffd5b5f73ffffffffffffffffffffffffffffffffffffffff82169050919050565b5f6101ec826101c3565b9050919050565b6101fc816101e2565b8114610206575f5ffd5b50565b5f81519050610217816101f3565b92915050565b5f60208284031215610232576102316101bf565b5b5f61023f84828501610209565b91505092915050565b610251816101e2565b82525050565b5f60208201905061026a5f830184610248565b92915050565b611f9f8061027d5f395ff3fe608060405234801561000f575f5ffd5b50600436106100b2575f3560e01c80637c9cd2bc1161006f5780637c9cd2bc1461017a578063820785cc14610196578063888a7880146101c65780638da5cb5b146101e2578063c3ad5ecb14610200578063f2fde38b14610230576100b2565b806305a1b4a9146100b657806312e7ee1c146100ea5780633d9b569f1461011a57806363378216146101365780636eb1079714610152578063715018a614610170575b5f5ffd5b6100d060048036038101906100cb91906112cd565b61024c565b6040516100e1959493929190611399565b60405180910390f35b61010460048036038101906100ff91906113f1565b61033d565b60405161011191906115b0565b60405180910390f35b610134600480360381019061012f91906112cd565b6104d8565b005b610150600480360381019061014b91906112cd565b61080f565b005b61015a610aa6565b60405161016791906115d0565b60405180910390f35b610178610aac565b005b610194600480360381019061018f9190611715565b610abf565b005b6101b060048036038101906101ab91906113f1565b610d99565b6040516101bd91906115d0565b60405180910390f35b6101e060048036038101906101db919061175c565b610e6b565b005b6101ea610e7d565b6040516101f79190611787565b60405180910390f35b61021a6004803603810190610215919061175c565b610ea4565b6040516102279190611813565b60405180910390f35b61024a600480360381019061024591906113f1565b61101b565b005b6002602052815f5260405f208181548110610265575f80fd5b905f5260205f2090600502015f9150915050805f015490806001015f9054906101000a900473ffffffffffffffffffffffffffffffffffffffff16908060020180546102b090611860565b80601f01602080910402602001604051908101604052809291908181526020018280546102dc90611860565b80156103275780601f106102fe57610100808354040283529160200191610327565b820191905f5260205f20905b81548152906001019060200180831161030a57829003601f168201915b5050505050908060030154908060040154905085565b606060025f8373ffffffffffffffffffffffffffffffffffffffff1673ffffffffffffffffffffffffffffffffffffffff1681526020019081526020015f20805480602002602001604051908101604052809291908181526020015f905b828210156104cd578382905f5260205f2090600502016040518060a00160405290815f8201548152602001600182015f9054906101000a900473ffffffffffffffffffffffffffffffffffffffff1673ffffffffffffffffffffffffffffffffffffffff1673ffffffffffffffffffffffffffffffffffffffff16815260200160028201805461042a90611860565b80601f016020809104026020016040519081016040528092919081815260200182805461045690611860565b80156104a15780601f10610478576101008083540402835291602001916104a1565b820191905f5260205f20905b81548152906001019060200180831161048457829003601f168201915b50505050508152602001600382015481526020016004820154815250508152602001906001019061039b565b505050509050919050565b5f60035f9054906101000a900473ffffffffffffffffffffffffffffffffffffffff1673ffffffffffffffffffffffffffffffffffffffff16630f53a470336040518263ffffffff1660e01b81526004016105339190611787565b5f60405180830381865afa15801561054d573d5f5f3e3d5ffd5b505050506040513d5f823e3d601f19601f82011682018060405250810190610575919061198b565b90505f815f015151116105bd576040517f08c379a00000000000000000000000000000000000000000000000000000000081526004016105b490611a1c565b60405180910390fd5b8160025f8573ffffffffffffffffffffffffffffffffffffffff1673ffffffffffffffffffffffffffffffffffffffff1681526020019081526020015f20838154811061060d5761060c611a3a565b5b905f5260205f2090600502015f01541461065c576040517f08c379a000000000000000000000000000000000000000000000000000000000815260040161065390611ab1565b60405180910390fd5b5f60025f8573ffffffffffffffffffffffffffffffffffffffff1673ffffffffffffffffffffffffffffffffffffffff1681526020019081526020015f2083815481106106ac576106ab611a3a565b5b905f5260205f20906005020160040154116106fc576040517f08c379a00000000000000000000000000000000000000000000000000000000081526004016106f390611b19565b60405180910390fd5b60025f8473ffffffffffffffffffffffffffffffffffffffff1673ffffffffffffffffffffffffffffffffffffffff1681526020019081526020015f20828154811061074b5761074a611a3a565b5b905f5260205f2090600502016004015f81548092919061076a90611b64565b91905055507f762c2616349603ac16eba0de8e6141b79129a07ab63bd99e0a80b3a47171694333848460025f8873ffffffffffffffffffffffffffffffffffffffff1673ffffffffffffffffffffffffffffffffffffffff1681526020019081526020015f2086815481106107e2576107e1611a3a565b5b905f5260205f209060050201600401546040516108029493929190611b8b565b60405180910390a1505050565b5f60035f9054906101000a900473ffffffffffffffffffffffffffffffffffffffff1673ffffffffffffffffffffffffffffffffffffffff16630f53a470336040518263ffffffff1660e01b815260040161086a9190611787565b5f60405180830381865afa158015610884573d5f5f3e3d5ffd5b505050506040513d5f823e3d601f19601f820116820180604052508101906108ac919061198b565b90505f815f015151116108f4576040517f08c379a00000000000000000000000000000000000000000000000000000000081526004016108eb90611a1c565b60405180910390fd5b8160025f8573ffffffffffffffffffffffffffffffffffffffff1673ffffffffffffffffffffffffffffffffffffffff1681526020019081526020015f20838154811061094457610943611a3a565b5b905f5260205f2090600502015f015414610993576040517f08c379a000000000000000000000000000000000000000000000000000000000815260040161098a90611ab1565b60405180910390fd5b60025f8473ffffffffffffffffffffffffffffffffffffffff1673ffffffffffffffffffffffffffffffffffffffff1681526020019081526020015f2082815481106109e2576109e1611a3a565b5b905f5260205f2090600502016004015f815480929190610a0190611bce565b91905055507fe8a76fc0f16d11a00d1e93b689b63d76cf60af914dd3d915375dc41d01a0c3c833848460025f8873ffffffffffffffffffffffffffffffffffffffff1673ffffffffffffffffffffffffffffffffffffffff1681526020019081526020015f208681548110610a7957610a78611a3a565b5b905f5260205f20906005020160040154604051610a999493929190611b8b565b60405180910390a1505050565b60015481565b610ab461109f565b610abd5f611126565b565b5f60035f9054906101000a900473ffffffffffffffffffffffffffffffffffffffff1673ffffffffffffffffffffffffffffffffffffffff16630f53a470336040518263ffffffff1660e01b8152600401610b1a9190611787565b5f60405180830381865afa158015610b34573d5f5f3e3d5ffd5b505050506040513d5f823e3d601f19601f82011682018060405250810190610b5c919061198b565b90505f815f01515111610ba4576040517f08c379a0000000000000000000000000000000000000000000000000000000008152600401610b9b90611a1c565b60405180910390fd5b60015482511115610bea576040517f08c379a0000000000000000000000000000000000000000000000000000000008152600401610be190611c5f565b60405180910390fd5b5f6040518060a0016040528060025f3373ffffffffffffffffffffffffffffffffffffffff1673ffffffffffffffffffffffffffffffffffffffff1681526020019081526020015f208054905081526020013373ffffffffffffffffffffffffffffffffffffffff1681526020018481526020014281526020015f815250905060025f3373ffffffffffffffffffffffffffffffffffffffff1673ffffffffffffffffffffffffffffffffffffffff1681526020019081526020015f2081908060018154018082558091505060019003905f5260205f2090600502015f909190919091505f820151815f01556020820151816001015f6101000a81548173ffffffffffffffffffffffffffffffffffffffff021916908373ffffffffffffffffffffffffffffffffffffffff1602179055506040820151816002019081610d319190611e1d565b50606082015181600301556080820151816004015550507f16fd3c13e9d46923e0a8bce11c7b473ec508a72e6c96cd2404b29ce972afc29e815f0151826020015183604001518460600151604051610d8c9493929190611eec565b60405180910390a1505050565b5f5f5f5f90505b60025f8573ffffffffffffffffffffffffffffffffffffffff1673ffffffffffffffffffffffffffffffffffffffff1681526020019081526020015f2080549050811015610e615760025f8573ffffffffffffffffffffffffffffffffffffffff1673ffffffffffffffffffffffffffffffffffffffff1681526020019081526020015f208181548110610e3757610e36611a3a565b5b905f5260205f2090600502016004015482610e529190611f36565b91508080600101915050610da0565b5080915050919050565b610e7361109f565b8060018190555050565b5f5f5f9054906101000a900473ffffffffffffffffffffffffffffffffffffffff16905090565b610eac6111ee565b60025f3373ffffffffffffffffffffffffffffffffffffffff1673ffffffffffffffffffffffffffffffffffffffff1681526020019081526020015f208281548110610efb57610efa611a3a565b5b905f5260205f2090600502016040518060a00160405290815f8201548152602001600182015f9054906101000a900473ffffffffffffffffffffffffffffffffffffffff1673ffffffffffffffffffffffffffffffffffffffff1673ffffffffffffffffffffffffffffffffffffffff168152602001600282018054610f8090611860565b80601f0160208091040260200160405190810160405280929190818152602001828054610fac90611860565b8015610ff75780601f10610fce57610100808354040283529160200191610ff7565b820191905f5260205f20905b815481529060010190602001808311610fda57829003601f168201915b50505050508152602001600382015481526020016004820154815250509050919050565b61102361109f565b5f73ffffffffffffffffffffffffffffffffffffffff168173ffffffffffffffffffffffffffffffffffffffff1603611093575f6040517f1e4fbdf700000000000000000000000000000000000000000000000000000000815260040161108a9190611787565b60405180910390fd5b61109c81611126565b50565b6110a76111e7565b73ffffffffffffffffffffffffffffffffffffffff166110c5610e7d565b73ffffffffffffffffffffffffffffffffffffffff1614611124576110e86111e7565b6040517f118cdaa700000000000000000000000000000000000000000000000000000000815260040161111b9190611787565b60405180910390fd5b565b5f5f5f9054906101000a900473ffffffffffffffffffffffffffffffffffffffff169050815f5f6101000a81548173ffffffffffffffffffffffffffffffffffffffff021916908373ffffffffffffffffffffffffffffffffffffffff1602179055508173ffffffffffffffffffffffffffffffffffffffff168173ffffffffffffffffffffffffffffffffffffffff167f8be0079c531659141344cd1fd0a4f28419497f9722a3daafe3b4186f6b6457e060405160405180910390a35050565b5f33905090565b6040518060a001604052805f81526020015f73ffffffffffffffffffffffffffffffffffffffff168152602001606081526020015f81526020015f81525090565b5f604051905090565b5f5ffd5b5f5ffd5b5f73ffffffffffffffffffffffffffffffffffffffff82169050919050565b5f61126982611240565b9050919050565b6112798161125f565b8114611283575f5ffd5b50565b5f8135905061129481611270565b92915050565b5f819050919050565b6112ac8161129a565b81146112b6575f5ffd5b50565b5f813590506112c7816112a3565b92915050565b5f5f604083850312156112e3576112e2611238565b5b5f6112f085828601611286565b9250506020611301858286016112b9565b9150509250929050565b6113148161129a565b82525050565b6113238161125f565b82525050565b5f81519050919050565b5f82825260208201905092915050565b8281835e5f83830152505050565b5f601f19601f8301169050919050565b5f61136b82611329565b6113758185611333565b9350611385818560208601611343565b61138e81611351565b840191505092915050565b5f60a0820190506113ac5f83018861130b565b6113b9602083018761131a565b81810360408301526113cb8186611361565b90506113da606083018561130b565b6113e7608083018461130b565b9695505050505050565b5f6020828403121561140657611405611238565b5b5f61141384828501611286565b91505092915050565b5f81519050919050565b5f82825260208201905092915050565b5f819050602082019050919050565b61144e8161129a565b82525050565b61145d8161125f565b82525050565b5f82825260208201905092915050565b5f61147d82611329565b6114878185611463565b9350611497818560208601611343565b6114a081611351565b840191505092915050565b5f60a083015f8301516114c05f860182611445565b5060208301516114d36020860182611454565b50604083015184820360408601526114eb8282611473565b91505060608301516115006060860182611445565b5060808301516115136080860182611445565b508091505092915050565b5f61152983836114ab565b905092915050565b5f602082019050919050565b5f6115478261141c565b6115518185611426565b93508360208202850161156385611436565b805f5b8581101561159e578484038952815161157f858261151e565b945061158a83611531565b925060208a01995050600181019050611566565b50829750879550505050505092915050565b5f6020820190508181035f8301526115c8818461153d565b905092915050565b5f6020820190506115e35f83018461130b565b92915050565b5f5ffd5b5f5ffd5b7f4e487b71000000000000000000000000000000000000000000000000000000005f52604160045260245ffd5b61162782611351565b810181811067ffffffffffffffff82111715611646576116456115f1565b5b80604052505050565b5f61165861122f565b9050611664828261161e565b919050565b5f67ffffffffffffffff821115611683576116826115f1565b5b61168c82611351565b9050602081019050919050565b828183375f83830152505050565b5f6116b96116b484611669565b61164f565b9050828152602081018484840111156116d5576116d46115ed565b5b6116e0848285611699565b509392505050565b5f82601f8301126116fc576116fb6115e9565b5b813561170c8482602086016116a7565b91505092915050565b5f6020828403121561172a57611729611238565b5b5f82013567ffffffffffffffff8111156117475761174661123c565b5b611753848285016116e8565b91505092915050565b5f6020828403121561177157611770611238565b5b5f61177e848285016112b9565b91505092915050565b5f60208201905061179a5f83018461131a565b92915050565b5f60a083015f8301516117b55f860182611445565b5060208301516117c86020860182611454565b50604083015184820360408601526117e08282611473565b91505060608301516117f56060860182611445565b5060808301516118086080860182611445565b508091505092915050565b5f6020820190508181035f83015261182b81846117a0565b905092915050565b7f4e487b71000000000000000000000000000000000000000000000000000000005f52602260045260245ffd5b5f600282049050600182168061187757607f821691505b60208210810361188a57611889611833565b5b50919050565b5f5ffd5b5f5ffd5b5f6118aa6118a584611669565b61164f565b9050828152602081018484840111156118c6576118c56115ed565b5b6118d1848285611343565b509392505050565b5f82601f8301126118ed576118ec6115e9565b5b81516118fd848260208601611898565b91505092915050565b5f6040828403121561191b5761191a611890565b5b611925604061164f565b90505f82015167ffffffffffffffff81111561194457611943611894565b5b611950848285016118d9565b5f83015250602082015167ffffffffffffffff81111561197357611972611894565b5b61197f848285016118d9565b60208301525092915050565b5f602082840312156119a05761199f611238565b5b5f82015167ffffffffffffffff8111156119bd576119bc61123c565b5b6119c984828501611906565b91505092915050565b7f75736572206e6f742072656769737465726400000000000000000000000000005f82015250565b5f611a06601283611333565b9150611a11826119d2565b602082019050919050565b5f6020820190508181035f830152611a33816119fa565b9050919050565b7f4e487b71000000000000000000000000000000000000000000000000000000005f52603260045260245ffd5b7f547765657420646f65736e7420657869737400000000000000000000000000005f82015250565b5f611a9b601283611333565b9150611aa682611a67565b602082019050919050565b5f6020820190508181035f830152611ac881611a8f565b9050919050565b7f547765657420686173206e6f206c696b650000000000000000000000000000005f82015250565b5f611b03601183611333565b9150611b0e82611acf565b602082019050919050565b5f6020820190508181035f830152611b3081611af7565b9050919050565b7f4e487b71000000000000000000000000000000000000000000000000000000005f52601160045260245ffd5b5f611b6e8261129a565b91505f8203611b8057611b7f611b37565b5b600182039050919050565b5f608082019050611b9e5f83018761131a565b611bab602083018661131a565b611bb8604083018561130b565b611bc5606083018461130b565b95945050505050565b5f611bd88261129a565b91507fffffffffffffffffffffffffffffffffffffffffffffffffffffffffffffffff8203611c0a57611c09611b37565b5b600182019050919050565b7f547765657420746f6f206c6f6e672062727568000000000000000000000000005f82015250565b5f611c49601383611333565b9150611c5482611c15565b602082019050919050565b5f6020820190508181035f830152611c7681611c3d565b9050919050565b5f819050815f5260205f209050919050565b5f6020601f8301049050919050565b5f82821b905092915050565b5f60088302611cd97fffffffffffffffffffffffffffffffffffffffffffffffffffffffffffffffff82611c9e565b611ce38683611c9e565b95508019841693508086168417925050509392505050565b5f819050919050565b5f611d1e611d19611d148461129a565b611cfb565b61129a565b9050919050565b5f819050919050565b611d3783611d04565b611d4b611d4382611d25565b848454611caa565b825550505050565b5f5f905090565b611d62611d53565b611d6d818484611d2e565b505050565b5b81811015611d9057611d855f82611d5a565b600181019050611d73565b5050565b601f821115611dd557611da681611c7d565b611daf84611c8f565b81016020851015611dbe578190505b611dd2611dca85611c8f565b830182611d72565b50505b505050565b5f82821c905092915050565b5f611df55f1984600802611dda565b1980831691505092915050565b5f611e0d8383611de6565b9150826002028217905092915050565b611e2682611329565b67ffffffffffffffff811115611e3f57611e3e6115f1565b5b611e498254611860565b611e54828285611d94565b5f60209050601f831160018114611e85575f8415611e73578287015190505b611e7d8582611e02565b865550611ee4565b601f198416611e9386611c7d565b5f5b82811015611eba57848901518255600182019150602085019450602081019050611e95565b86831015611ed75784890151611ed3601f891682611de6565b8355505b6001600288020188555050505b505050505050565b5f608082019050611eff5f83018761130b565b611f0c602083018661131a565b8181036040830152611f1e8185611361565b9050611f2d606083018461130b565b95945050505050565b5f611f408261129a565b9150611f4b8361129a565b9250828201905080821115611f6357611f62611b37565b5b9291505056fea2646970667358221220bc6e9cfe6d0768f4b3ab0507ea7bebcf3a55c8a72017908c124913e356f1cccc64736f6c634300081e0033",
					"opcodes": "PUSH1 0x80 PUSH1 0x40 MSTORE PUSH2 0x118 PUSH1 0x1 SSTORE CALLVALUE DUP1 ISZERO PUSH2 0x15 JUMPI PUSH0 PUSH0 REVERT JUMPDEST POP PUSH1 0x40 MLOAD PUSH2 0x221C CODESIZE SUB DUP1 PUSH2 0x221C DUP4 CODECOPY DUP2 DUP2 ADD PUSH1 0x40 MSTORE DUP2 ADD SWAP1 PUSH2 0x37 SWAP2 SWAP1 PUSH2 0x21D JUMP JUMPDEST CALLER PUSH0 PUSH20 0xFFFFFFFFFFFFFFFFFFFFFFFFFFFFFFFFFFFFFFFF AND DUP2 PUSH20 0xFFFFFFFFFFFFFFFFFFFFFFFFFFFFFFFFFFFFFFFF AND SUB PUSH2 0xA8 JUMPI PUSH0 PUSH1 0x40 MLOAD PUSH32 0x1E4FBDF700000000000000000000000000000000000000000000000000000000 DUP2 MSTORE PUSH1 0x4 ADD PUSH2 0x9F SWAP2 SWAP1 PUSH2 0x257 JUMP JUMPDEST PUSH1 0x40 MLOAD DUP1 SWAP2 SUB SWAP1 REVERT JUMPDEST PUSH2 0xB7 DUP2 PUSH2 0xFE PUSH1 0x20 SHL PUSH1 0x20 SHR JUMP JUMPDEST POP DUP1 PUSH1 0x3 PUSH0 PUSH2 0x100 EXP DUP2 SLOAD DUP2 PUSH20 0xFFFFFFFFFFFFFFFFFFFFFFFFFFFFFFFFFFFFFFFF MUL NOT AND SWAP1 DUP4 PUSH20 0xFFFFFFFFFFFFFFFFFFFFFFFFFFFFFFFFFFFFFFFF AND MUL OR SWAP1 SSTORE POP POP PUSH2 0x270 JUMP JUMPDEST PUSH0 PUSH0 PUSH0 SWAP1 SLOAD SWAP1 PUSH2 0x100 EXP SWAP1 DIV PUSH20 0xFFFFFFFFFFFFFFFFFFFFFFFFFFFFFFFFFFFFFFFF AND SWAP1 POP DUP2 PUSH0 PUSH0 PUSH2 0x100 EXP DUP2 SLOAD DUP2 PUSH20 0xFFFFFFFFFFFFFFFFFFFFFFFFFFFFFFFFFFFFFFFF MUL NOT AND SWAP1 DUP4 PUSH20 0xFFFFFFFFFFFFFFFFFFFFFFFFFFFFFFFFFFFFFFFF AND MUL OR SWAP1 SSTORE POP DUP2 PUSH20 0xFFFFFFFFFFFFFFFFFFFFFFFFFFFFFFFFFFFFFFFF AND DUP2 PUSH20 0xFFFFFFFFFFFFFFFFFFFFFFFFFFFFFFFFFFFFFFFF AND PUSH32 0x8BE0079C531659141344CD1FD0A4F28419497F9722A3DAAFE3B4186F6B6457E0 PUSH1 0x40 MLOAD PUSH1 0x40 MLOAD DUP1 SWAP2 SUB SWAP1 LOG3 POP POP JUMP JUMPDEST PUSH0 PUSH0 REVERT JUMPDEST PUSH0 PUSH20 0xFFFFFFFFFFFFFFFFFFFFFFFFFFFFFFFFFFFFFFFF DUP3 AND SWAP1 POP SWAP2 SWAP1 POP JUMP JUMPDEST PUSH0 PUSH2 0x1EC DUP3 PUSH2 0x1C3 JUMP JUMPDEST SWAP1 POP SWAP2 SWAP1 POP JUMP JUMPDEST PUSH2 0x1FC DUP2 PUSH2 0x1E2 JUMP JUMPDEST DUP2 EQ PUSH2 0x206 JUMPI PUSH0 PUSH0 REVERT JUMPDEST POP JUMP JUMPDEST PUSH0 DUP2 MLOAD SWAP1 POP PUSH2 0x217 DUP2 PUSH2 0x1F3 JUMP JUMPDEST SWAP3 SWAP2 POP POP JUMP JUMPDEST PUSH0 PUSH1 0x20 DUP3 DUP5 SUB SLT ISZERO PUSH2 0x232 JUMPI PUSH2 0x231 PUSH2 0x1BF JUMP JUMPDEST JUMPDEST PUSH0 PUSH2 0x23F DUP5 DUP3 DUP6 ADD PUSH2 0x209 JUMP JUMPDEST SWAP2 POP POP SWAP3 SWAP2 POP POP JUMP JUMPDEST PUSH2 0x251 DUP2 PUSH2 0x1E2 JUMP JUMPDEST DUP3 MSTORE POP POP JUMP JUMPDEST PUSH0 PUSH1 0x20 DUP3 ADD SWAP1 POP PUSH2 0x26A PUSH0 DUP4 ADD DUP5 PUSH2 0x248 JUMP JUMPDEST SWAP3 SWAP2 POP POP JUMP JUMPDEST PUSH2 0x1F9F DUP1 PUSH2 0x27D PUSH0 CODECOPY PUSH0 RETURN INVALID PUSH1 0x80 PUSH1 0x40 MSTORE CALLVALUE DUP1 ISZERO PUSH2 0xF JUMPI PUSH0 PUSH0 REVERT JUMPDEST POP PUSH1 0x4 CALLDATASIZE LT PUSH2 0xB2 JUMPI PUSH0 CALLDATALOAD PUSH1 0xE0 SHR DUP1 PUSH4 0x7C9CD2BC GT PUSH2 0x6F JUMPI DUP1 PUSH4 0x7C9CD2BC EQ PUSH2 0x17A JUMPI DUP1 PUSH4 0x820785CC EQ PUSH2 0x196 JUMPI DUP1 PUSH4 0x888A7880 EQ PUSH2 0x1C6 JUMPI DUP1 PUSH4 0x8DA5CB5B EQ PUSH2 0x1E2 JUMPI DUP1 PUSH4 0xC3AD5ECB EQ PUSH2 0x200 JUMPI DUP1 PUSH4 0xF2FDE38B EQ PUSH2 0x230 JUMPI PUSH2 0xB2 JUMP JUMPDEST DUP1 PUSH4 0x5A1B4A9 EQ PUSH2 0xB6 JUMPI DUP1 PUSH4 0x12E7EE1C EQ PUSH2 0xEA JUMPI DUP1 PUSH4 0x3D9B569F EQ PUSH2 0x11A JUMPI DUP1 PUSH4 0x63378216 EQ PUSH2 0x136 JUMPI DUP1 PUSH4 0x6EB10797 EQ PUSH2 0x152 JUMPI DUP1 PUSH4 0x715018A6 EQ PUSH2 0x170 JUMPI JUMPDEST PUSH0 PUSH0 REVERT JUMPDEST PUSH2 0xD0 PUSH1 0x4 DUP1 CALLDATASIZE SUB DUP2 ADD SWAP1 PUSH2 0xCB SWAP2 SWAP1 PUSH2 0x12CD JUMP JUMPDEST PUSH2 0x24C JUMP JUMPDEST PUSH1 0x40 MLOAD PUSH2 0xE1 SWAP6 SWAP5 SWAP4 SWAP3 SWAP2 SWAP1 PUSH2 0x1399 JUMP JUMPDEST PUSH1 0x40 MLOAD DUP1 SWAP2 SUB SWAP1 RETURN JUMPDEST PUSH2 0x104 PUSH1 0x4 DUP1 CALLDATASIZE SUB DUP2 ADD SWAP1 PUSH2 0xFF SWAP2 SWAP1 PUSH2 0x13F1 JUMP JUMPDEST PUSH2 0x33D JUMP JUMPDEST PUSH1 0x40 MLOAD PUSH2 0x111 SWAP2 SWAP1 PUSH2 0x15B0 JUMP JUMPDEST PUSH1 0x40 MLOAD DUP1 SWAP2 SUB SWAP1 RETURN JUMPDEST PUSH2 0x134 PUSH1 0x4 DUP1 CALLDATASIZE SUB DUP2 ADD SWAP1 PUSH2 0x12F SWAP2 SWAP1 PUSH2 0x12CD JUMP JUMPDEST PUSH2 0x4D8 JUMP JUMPDEST STOP JUMPDEST PUSH2 0x150 PUSH1 0x4 DUP1 CALLDATASIZE SUB DUP2 ADD SWAP1 PUSH2 0x14B SWAP2 SWAP1 PUSH2 0x12CD JUMP JUMPDEST PUSH2 0x80F JUMP JUMPDEST STOP JUMPDEST PUSH2 0x15A PUSH2 0xAA6 JUMP JUMPDEST PUSH1 0x40 MLOAD PUSH2 0x167 SWAP2 SWAP1 PUSH2 0x15D0 JUMP JUMPDEST PUSH1 0x40 MLOAD DUP1 SWAP2 SUB SWAP1 RETURN JUMPDEST PUSH2 0x178 PUSH2 0xAAC JUMP JUMPDEST STOP JUMPDEST PUSH2 0x194 PUSH1 0x4 DUP1 CALLDATASIZE SUB DUP2 ADD SWAP1 PUSH2 0x18F SWAP2 SWAP1 PUSH2 0x1715 JUMP JUMPDEST PUSH2 0xABF JUMP JUMPDEST STOP JUMPDEST PUSH2 0x1B0 PUSH1 0x4 DUP1 CALLDATASIZE SUB DUP2 ADD SWAP1 PUSH2 0x1AB SWAP2 SWAP1 PUSH2 0x13F1 JUMP JUMPDEST PUSH2 0xD99 JUMP JUMPDEST PUSH1 0x40 MLOAD PUSH2 0x1BD SWAP2 SWAP1 PUSH2 0x15D0 JUMP JUMPDEST PUSH1 0x40 MLOAD DUP1 SWAP2 SUB SWAP1 RETURN JUMPDEST PUSH2 0x1E0 PUSH1 0x4 DUP1 CALLDATASIZE SUB DUP2 ADD SWAP1 PUSH2 0x1DB SWAP2 SWAP1 PUSH2 0x175C JUMP JUMPDEST PUSH2 0xE6B JUMP JUMPDEST STOP JUMPDEST PUSH2 0x1EA PUSH2 0xE7D JUMP JUMPDEST PUSH1 0x40 MLOAD PUSH2 0x1F7 SWAP2 SWAP1 PUSH2 0x1787 JUMP JUMPDEST PUSH1 0x40 MLOAD DUP1 SWAP2 SUB SWAP1 RETURN JUMPDEST PUSH2 0x21A PUSH1 0x4 DUP1 CALLDATASIZE SUB DUP2 ADD SWAP1 PUSH2 0x215 SWAP2 SWAP1 PUSH2 0x175C JUMP JUMPDEST PUSH2 0xEA4 JUMP JUMPDEST PUSH1 0x40 MLOAD PUSH2 0x227 SWAP2 SWAP1 PUSH2 0x1813 JUMP JUMPDEST PUSH1 0x40 MLOAD DUP1 SWAP2 SUB SWAP1 RETURN JUMPDEST PUSH2 0x24A PUSH1 0x4 DUP1 CALLDATASIZE SUB DUP2 ADD SWAP1 PUSH2 0x245 SWAP2 SWAP1 PUSH2 0x13F1 JUMP JUMPDEST PUSH2 0x101B JUMP JUMPDEST STOP JUMPDEST PUSH1 0x2 PUSH1 0x20 MSTORE DUP2 PUSH0 MSTORE PUSH1 0x40 PUSH0 KECCAK256 DUP2 DUP2 SLOAD DUP2 LT PUSH2 0x265 JUMPI PUSH0 DUP1 REVERT JUMPDEST SWAP1 PUSH0 MSTORE PUSH1 0x20 PUSH0 KECCAK256 SWAP1 PUSH1 0x5 MUL ADD PUSH0 SWAP2 POP SWAP2 POP POP DUP1 PUSH0 ADD SLOAD SWAP1 DUP1 PUSH1 0x1 ADD PUSH0 SWAP1 SLOAD SWAP1 PUSH2 0x100 EXP SWAP1 DIV PUSH20 0xFFFFFFFFFFFFFFFFFFFFFFFFFFFFFFFFFFFFFFFF AND SWAP1 DUP1 PUSH1 0x2 ADD DUP1 SLOAD PUSH2 0x2B0 SWAP1 PUSH2 0x1860 JUMP JUMPDEST DUP1 PUSH1 0x1F ADD PUSH1 0x20 DUP1 SWAP2 DIV MUL PUSH1 0x20 ADD PUSH1 0x40 MLOAD SWAP1 DUP2 ADD PUSH1 0x40 MSTORE DUP1 SWAP3 SWAP2 SWAP1 DUP2 DUP2 MSTORE PUSH1 0x20 ADD DUP3 DUP1 SLOAD PUSH2 0x2DC SWAP1 PUSH2 0x1860 JUMP JUMPDEST DUP1 ISZERO PUSH2 0x327 JUMPI DUP1 PUSH1 0x1F LT PUSH2 0x2FE JUMPI PUSH2 0x100 DUP1 DUP4 SLOAD DIV MUL DUP4 MSTORE SWAP2 PUSH1 0x20 ADD SWAP2 PUSH2 0x327 JUMP JUMPDEST DUP3 ADD SWAP2 SWAP1 PUSH0 MSTORE PUSH1 0x20 PUSH0 KECCAK256 SWAP1 JUMPDEST DUP2 SLOAD DUP2 MSTORE SWAP1 PUSH1 0x1 ADD SWAP1 PUSH1 0x20 ADD DUP1 DUP4 GT PUSH2 0x30A JUMPI DUP3 SWAP1 SUB PUSH1 0x1F AND DUP3 ADD SWAP2 JUMPDEST POP POP POP POP POP SWAP1 DUP1 PUSH1 0x3 ADD SLOAD SWAP1 DUP1 PUSH1 0x4 ADD SLOAD SWAP1 POP DUP6 JUMP JUMPDEST PUSH1 0x60 PUSH1 0x2 PUSH0 DUP4 PUSH20 0xFFFFFFFFFFFFFFFFFFFFFFFFFFFFFFFFFFFFFFFF AND PUSH20 0xFFFFFFFFFFFFFFFFFFFFFFFFFFFFFFFFFFFFFFFF AND DUP2 MSTORE PUSH1 0x20 ADD SWAP1 DUP2 MSTORE PUSH1 0x20 ADD PUSH0 KECCAK256 DUP1 SLOAD DUP1 PUSH1 0x20 MUL PUSH1 0x20 ADD PUSH1 0x40 MLOAD SWAP1 DUP2 ADD PUSH1 0x40 MSTORE DUP1 SWAP3 SWAP2 SWAP1 DUP2 DUP2 MSTORE PUSH1 0x20 ADD PUSH0 SWAP1 JUMPDEST DUP3 DUP3 LT ISZERO PUSH2 0x4CD JUMPI DUP4 DUP3 SWAP1 PUSH0 MSTORE PUSH1 0x20 PUSH0 KECCAK256 SWAP1 PUSH1 0x5 MUL ADD PUSH1 0x40 MLOAD DUP1 PUSH1 0xA0 ADD PUSH1 0x40 MSTORE SWAP1 DUP2 PUSH0 DUP3 ADD SLOAD DUP2 MSTORE PUSH1 0x20 ADD PUSH1 0x1 DUP3 ADD PUSH0 SWAP1 SLOAD SWAP1 PUSH2 0x100 EXP SWAP1 DIV PUSH20 0xFFFFFFFFFFFFFFFFFFFFFFFFFFFFFFFFFFFFFFFF AND PUSH20 0xFFFFFFFFFFFFFFFFFFFFFFFFFFFFFFFFFFFFFFFF AND PUSH20 0xFFFFFFFFFFFFFFFFFFFFFFFFFFFFFFFFFFFFFFFF AND DUP2 MSTORE PUSH1 0x20 ADD PUSH1 0x2 DUP3 ADD DUP1 SLOAD PUSH2 0x42A SWAP1 PUSH2 0x1860 JUMP JUMPDEST DUP1 PUSH1 0x1F ADD PUSH1 0x20 DUP1 SWAP2 DIV MUL PUSH1 0x20 ADD PUSH1 0x40 MLOAD SWAP1 DUP2 ADD PUSH1 0x40 MSTORE DUP1 SWAP3 SWAP2 SWAP1 DUP2 DUP2 MSTORE PUSH1 0x20 ADD DUP3 DUP1 SLOAD PUSH2 0x456 SWAP1 PUSH2 0x1860 JUMP JUMPDEST DUP1 ISZERO PUSH2 0x4A1 JUMPI DUP1 PUSH1 0x1F LT PUSH2 0x478 JUMPI PUSH2 0x100 DUP1 DUP4 SLOAD DIV MUL DUP4 MSTORE SWAP2 PUSH1 0x20 ADD SWAP2 PUSH2 0x4A1 JUMP JUMPDEST DUP3 ADD SWAP2 SWAP1 PUSH0 MSTORE PUSH1 0x20 PUSH0 KECCAK256 SWAP1 JUMPDEST DUP2 SLOAD DUP2 MSTORE SWAP1 PUSH1 0x1 ADD SWAP1 PUSH1 0x20 ADD DUP1 DUP4 GT PUSH2 0x484 JUMPI DUP3 SWAP1 SUB PUSH1 0x1F AND DUP3 ADD SWAP2 JUMPDEST POP POP POP POP POP DUP2 MSTORE PUSH1 0x20 ADD PUSH1 0x3 DUP3 ADD SLOAD DUP2 MSTORE PUSH1 0x20 ADD PUSH1 0x4 DUP3 ADD SLOAD DUP2 MSTORE POP POP DUP2 MSTORE PUSH1 0x20 ADD SWAP1 PUSH1 0x1 ADD SWAP1 PUSH2 0x39B JUMP JUMPDEST POP POP POP POP SWAP1 POP SWAP2 SWAP1 POP JUMP JUMPDEST PUSH0 PUSH1 0x3 PUSH0 SWAP1 SLOAD SWAP1 PUSH2 0x100 EXP SWAP1 DIV PUSH20 0xFFFFFFFFFFFFFFFFFFFFFFFFFFFFFFFFFFFFFFFF AND PUSH20 0xFFFFFFFFFFFFFFFFFFFFFFFFFFFFFFFFFFFFFFFF AND PUSH4 0xF53A470 CALLER PUSH1 0x40 MLOAD DUP3 PUSH4 0xFFFFFFFF AND PUSH1 0xE0 SHL DUP2 MSTORE PUSH1 0x4 ADD PUSH2 0x533 SWAP2 SWAP1 PUSH2 0x1787 JUMP JUMPDEST PUSH0 PUSH1 0x40 MLOAD DUP1 DUP4 SUB DUP2 DUP7 GAS STATICCALL ISZERO DUP1 ISZERO PUSH2 0x54D JUMPI RETURNDATASIZE PUSH0 PUSH0 RETURNDATACOPY RETURNDATASIZE PUSH0 REVERT JUMPDEST POP POP POP POP PUSH1 0x40 MLOAD RETURNDATASIZE PUSH0 DUP3 RETURNDATACOPY RETURNDATASIZE PUSH1 0x1F NOT PUSH1 0x1F DUP3 ADD AND DUP3 ADD DUP1 PUSH1 0x40 MSTORE POP DUP2 ADD SWAP1 PUSH2 0x575 SWAP2 SWAP1 PUSH2 0x198B JUMP JUMPDEST SWAP1 POP PUSH0 DUP2 PUSH0 ADD MLOAD MLOAD GT PUSH2 0x5BD JUMPI PUSH1 0x40 MLOAD PUSH32 0x8C379A000000000000000000000000000000000000000000000000000000000 DUP2 MSTORE PUSH1 0x4 ADD PUSH2 0x5B4 SWAP1 PUSH2 0x1A1C JUMP JUMPDEST PUSH1 0x40 MLOAD DUP1 SWAP2 SUB SWAP1 REVERT JUMPDEST DUP2 PUSH1 0x2 PUSH0 DUP6 PUSH20 0xFFFFFFFFFFFFFFFFFFFFFFFFFFFFFFFFFFFFFFFF AND PUSH20 0xFFFFFFFFFFFFFFFFFFFFFFFFFFFFFFFFFFFFFFFF AND DUP2 MSTORE PUSH1 0x20 ADD SWAP1 DUP2 MSTORE PUSH1 0x20 ADD PUSH0 KECCAK256 DUP4 DUP2 SLOAD DUP2 LT PUSH2 0x60D JUMPI PUSH2 0x60C PUSH2 0x1A3A JUMP JUMPDEST JUMPDEST SWAP1 PUSH0 MSTORE PUSH1 0x20 PUSH0 KECCAK256 SWAP1 PUSH1 0x5 MUL ADD PUSH0 ADD SLOAD EQ PUSH2 0x65C JUMPI PUSH1 0x40 MLOAD PUSH32 0x8C379A000000000000000000000000000000000000000000000000000000000 DUP2 MSTORE PUSH1 0x4 ADD PUSH2 0x653 SWAP1 PUSH2 0x1AB1 JUMP JUMPDEST PUSH1 0x40 MLOAD DUP1 SWAP2 SUB SWAP1 REVERT JUMPDEST PUSH0 PUSH1 0x2 PUSH0 DUP6 PUSH20 0xFFFFFFFFFFFFFFFFFFFFFFFFFFFFFFFFFFFFFFFF AND PUSH20 0xFFFFFFFFFFFFFFFFFFFFFFFFFFFFFFFFFFFFFFFF AND DUP2 MSTORE PUSH1 0x20 ADD SWAP1 DUP2 MSTORE PUSH1 0x20 ADD PUSH0 KECCAK256 DUP4 DUP2 SLOAD DUP2 LT PUSH2 0x6AC JUMPI PUSH2 0x6AB PUSH2 0x1A3A JUMP JUMPDEST JUMPDEST SWAP1 PUSH0 MSTORE PUSH1 0x20 PUSH0 KECCAK256 SWAP1 PUSH1 0x5 MUL ADD PUSH1 0x4 ADD SLOAD GT PUSH2 0x6FC JUMPI PUSH1 0x40 MLOAD PUSH32 0x8C379A000000000000000000000000000000000000000000000000000000000 DUP2 MSTORE PUSH1 0x4 ADD PUSH2 0x6F3 SWAP1 PUSH2 0x1B19 JUMP JUMPDEST PUSH1 0x40 MLOAD DUP1 SWAP2 SUB SWAP1 REVERT JUMPDEST PUSH1 0x2 PUSH0 DUP5 PUSH20 0xFFFFFFFFFFFFFFFFFFFFFFFFFFFFFFFFFFFFFFFF AND PUSH20 0xFFFFFFFFFFFFFFFFFFFFFFFFFFFFFFFFFFFFFFFF AND DUP2 MSTORE PUSH1 0x20 ADD SWAP1 DUP2 MSTORE PUSH1 0x20 ADD PUSH0 KECCAK256 DUP3 DUP2 SLOAD DUP2 LT PUSH2 0x74B JUMPI PUSH2 0x74A PUSH2 0x1A3A JUMP JUMPDEST JUMPDEST SWAP1 PUSH0 MSTORE PUSH1 0x20 PUSH0 KECCAK256 SWAP1 PUSH1 0x5 MUL ADD PUSH1 0x4 ADD PUSH0 DUP2 SLOAD DUP1 SWAP3 SWAP2 SWAP1 PUSH2 0x76A SWAP1 PUSH2 0x1B64 JUMP JUMPDEST SWAP2 SWAP1 POP SSTORE POP PUSH32 0x762C2616349603AC16EBA0DE8E6141B79129A07AB63BD99E0A80B3A471716943 CALLER DUP5 DUP5 PUSH1 0x2 PUSH0 DUP9 PUSH20 0xFFFFFFFFFFFFFFFFFFFFFFFFFFFFFFFFFFFFFFFF AND PUSH20 0xFFFFFFFFFFFFFFFFFFFFFFFFFFFFFFFFFFFFFFFF AND DUP2 MSTORE PUSH1 0x20 ADD SWAP1 DUP2 MSTORE PUSH1 0x20 ADD PUSH0 KECCAK256 DUP7 DUP2 SLOAD DUP2 LT PUSH2 0x7E2 JUMPI PUSH2 0x7E1 PUSH2 0x1A3A JUMP JUMPDEST JUMPDEST SWAP1 PUSH0 MSTORE PUSH1 0x20 PUSH0 KECCAK256 SWAP1 PUSH1 0x5 MUL ADD PUSH1 0x4 ADD SLOAD PUSH1 0x40 MLOAD PUSH2 0x802 SWAP5 SWAP4 SWAP3 SWAP2 SWAP1 PUSH2 0x1B8B JUMP JUMPDEST PUSH1 0x40 MLOAD DUP1 SWAP2 SUB SWAP1 LOG1 POP POP POP JUMP JUMPDEST PUSH0 PUSH1 0x3 PUSH0 SWAP1 SLOAD SWAP1 PUSH2 0x100 EXP SWAP1 DIV PUSH20 0xFFFFFFFFFFFFFFFFFFFFFFFFFFFFFFFFFFFFFFFF AND PUSH20 0xFFFFFFFFFFFFFFFFFFFFFFFFFFFFFFFFFFFFFFFF AND PUSH4 0xF53A470 CALLER PUSH1 0x40 MLOAD DUP3 PUSH4 0xFFFFFFFF AND PUSH1 0xE0 SHL DUP2 MSTORE PUSH1 0x4 ADD PUSH2 0x86A SWAP2 SWAP1 PUSH2 0x1787 JUMP JUMPDEST PUSH0 PUSH1 0x40 MLOAD DUP1 DUP4 SUB DUP2 DUP7 GAS STATICCALL ISZERO DUP1 ISZERO PUSH2 0x884 JUMPI RETURNDATASIZE PUSH0 PUSH0 RETURNDATACOPY RETURNDATASIZE PUSH0 REVERT JUMPDEST POP POP POP POP PUSH1 0x40 MLOAD RETURNDATASIZE PUSH0 DUP3 RETURNDATACOPY RETURNDATASIZE PUSH1 0x1F NOT PUSH1 0x1F DUP3 ADD AND DUP3 ADD DUP1 PUSH1 0x40 MSTORE POP DUP2 ADD SWAP1 PUSH2 0x8AC SWAP2 SWAP1 PUSH2 0x198B JUMP JUMPDEST SWAP1 POP PUSH0 DUP2 PUSH0 ADD MLOAD MLOAD GT PUSH2 0x8F4 JUMPI PUSH1 0x40 MLOAD PUSH32 0x8C379A000000000000000000000000000000000000000000000000000000000 DUP2 MSTORE PUSH1 0x4 ADD PUSH2 0x8EB SWAP1 PUSH2 0x1A1C JUMP JUMPDEST PUSH1 0x40 MLOAD DUP1 SWAP2 SUB SWAP1 REVERT JUMPDEST DUP2 PUSH1 0x2 PUSH0 DUP6 PUSH20 0xFFFFFFFFFFFFFFFFFFFFFFFFFFFFFFFFFFFFFFFF AND PUSH20 0xFFFFFFFFFFFFFFFFFFFFFFFFFFFFFFFFFFFFFFFF AND DUP2 MSTORE PUSH1 0x20 ADD SWAP1 DUP2 MSTORE PUSH1 0x20 ADD PUSH0 KECCAK256 DUP4 DUP2 SLOAD DUP2 LT PUSH2 0x944 JUMPI PUSH2 0x943 PUSH2 0x1A3A JUMP JUMPDEST JUMPDEST SWAP1 PUSH0 MSTORE PUSH1 0x20 PUSH0 KECCAK256 SWAP1 PUSH1 0x5 MUL ADD PUSH0 ADD SLOAD EQ PUSH2 0x993 JUMPI PUSH1 0x40 MLOAD PUSH32 0x8C379A000000000000000000000000000000000000000000000000000000000 DUP2 MSTORE PUSH1 0x4 ADD PUSH2 0x98A SWAP1 PUSH2 0x1AB1 JUMP JUMPDEST PUSH1 0x40 MLOAD DUP1 SWAP2 SUB SWAP1 REVERT JUMPDEST PUSH1 0x2 PUSH0 DUP5 PUSH20 0xFFFFFFFFFFFFFFFFFFFFFFFFFFFFFFFFFFFFFFFF AND PUSH20 0xFFFFFFFFFFFFFFFFFFFFFFFFFFFFFFFFFFFFFFFF AND DUP2 MSTORE PUSH1 0x20 ADD SWAP1 DUP2 MSTORE PUSH1 0x20 ADD PUSH0 KECCAK256 DUP3 DUP2 SLOAD DUP2 LT PUSH2 0x9E2 JUMPI PUSH2 0x9E1 PUSH2 0x1A3A JUMP JUMPDEST JUMPDEST SWAP1 PUSH0 MSTORE PUSH1 0x20 PUSH0 KECCAK256 SWAP1 PUSH1 0x5 MUL ADD PUSH1 0x4 ADD PUSH0 DUP2 SLOAD DUP1 SWAP3 SWAP2 SWAP1 PUSH2 0xA01 SWAP1 PUSH2 0x1BCE JUMP JUMPDEST SWAP2 SWAP1 POP SSTORE POP PUSH32 0xE8A76FC0F16D11A00D1E93B689B63D76CF60AF914DD3D915375DC41D01A0C3C8 CALLER DUP5 DUP5 PUSH1 0x2 PUSH0 DUP9 PUSH20 0xFFFFFFFFFFFFFFFFFFFFFFFFFFFFFFFFFFFFFFFF AND PUSH20 0xFFFFFFFFFFFFFFFFFFFFFFFFFFFFFFFFFFFFFFFF AND DUP2 MSTORE PUSH1 0x20 ADD SWAP1 DUP2 MSTORE PUSH1 0x20 ADD PUSH0 KECCAK256 DUP7 DUP2 SLOAD DUP2 LT PUSH2 0xA79 JUMPI PUSH2 0xA78 PUSH2 0x1A3A JUMP JUMPDEST JUMPDEST SWAP1 PUSH0 MSTORE PUSH1 0x20 PUSH0 KECCAK256 SWAP1 PUSH1 0x5 MUL ADD PUSH1 0x4 ADD SLOAD PUSH1 0x40 MLOAD PUSH2 0xA99 SWAP5 SWAP4 SWAP3 SWAP2 SWAP1 PUSH2 0x1B8B JUMP JUMPDEST PUSH1 0x40 MLOAD DUP1 SWAP2 SUB SWAP1 LOG1 POP POP POP JUMP JUMPDEST PUSH1 0x1 SLOAD DUP2 JUMP JUMPDEST PUSH2 0xAB4 PUSH2 0x109F JUMP JUMPDEST PUSH2 0xABD PUSH0 PUSH2 0x1126 JUMP JUMPDEST JUMP JUMPDEST PUSH0 PUSH1 0x3 PUSH0 SWAP1 SLOAD SWAP1 PUSH2 0x100 EXP SWAP1 DIV PUSH20 0xFFFFFFFFFFFFFFFFFFFFFFFFFFFFFFFFFFFFFFFF AND PUSH20 0xFFFFFFFFFFFFFFFFFFFFFFFFFFFFFFFFFFFFFFFF AND PUSH4 0xF53A470 CALLER PUSH1 0x40 MLOAD DUP3 PUSH4 0xFFFFFFFF AND PUSH1 0xE0 SHL DUP2 MSTORE PUSH1 0x4 ADD PUSH2 0xB1A SWAP2 SWAP1 PUSH2 0x1787 JUMP JUMPDEST PUSH0 PUSH1 0x40 MLOAD DUP1 DUP4 SUB DUP2 DUP7 GAS STATICCALL ISZERO DUP1 ISZERO PUSH2 0xB34 JUMPI RETURNDATASIZE PUSH0 PUSH0 RETURNDATACOPY RETURNDATASIZE PUSH0 REVERT JUMPDEST POP POP POP POP PUSH1 0x40 MLOAD RETURNDATASIZE PUSH0 DUP3 RETURNDATACOPY RETURNDATASIZE PUSH1 0x1F NOT PUSH1 0x1F DUP3 ADD AND DUP3 ADD DUP1 PUSH1 0x40 MSTORE POP DUP2 ADD SWAP1 PUSH2 0xB5C SWAP2 SWAP1 PUSH2 0x198B JUMP JUMPDEST SWAP1 POP PUSH0 DUP2 PUSH0 ADD MLOAD MLOAD GT PUSH2 0xBA4 JUMPI PUSH1 0x40 MLOAD PUSH32 0x8C379A000000000000000000000000000000000000000000000000000000000 DUP2 MSTORE PUSH1 0x4 ADD PUSH2 0xB9B SWAP1 PUSH2 0x1A1C JUMP JUMPDEST PUSH1 0x40 MLOAD DUP1 SWAP2 SUB SWAP1 REVERT JUMPDEST PUSH1 0x1 SLOAD DUP3 MLOAD GT ISZERO PUSH2 0xBEA JUMPI PUSH1 0x40 MLOAD PUSH32 0x8C379A000000000000000000000000000000000000000000000000000000000 DUP2 MSTORE PUSH1 0x4 ADD PUSH2 0xBE1 SWAP1 PUSH2 0x1C5F JUMP JUMPDEST PUSH1 0x40 MLOAD DUP1 SWAP2 SUB SWAP1 REVERT JUMPDEST PUSH0 PUSH1 0x40 MLOAD DUP1 PUSH1 0xA0 ADD PUSH1 0x40 MSTORE DUP1 PUSH1 0x2 PUSH0 CALLER PUSH20 0xFFFFFFFFFFFFFFFFFFFFFFFFFFFFFFFFFFFFFFFF AND PUSH20 0xFFFFFFFFFFFFFFFFFFFFFFFFFFFFFFFFFFFFFFFF AND DUP2 MSTORE PUSH1 0x20 ADD SWAP1 DUP2 MSTORE PUSH1 0x20 ADD PUSH0 KECCAK256 DUP1 SLOAD SWAP1 POP DUP2 MSTORE PUSH1 0x20 ADD CALLER PUSH20 0xFFFFFFFFFFFFFFFFFFFFFFFFFFFFFFFFFFFFFFFF AND DUP2 MSTORE PUSH1 0x20 ADD DUP5 DUP2 MSTORE PUSH1 0x20 ADD TIMESTAMP DUP2 MSTORE PUSH1 0x20 ADD PUSH0 DUP2 MSTORE POP SWAP1 POP PUSH1 0x2 PUSH0 CALLER PUSH20 0xFFFFFFFFFFFFFFFFFFFFFFFFFFFFFFFFFFFFFFFF AND PUSH20 0xFFFFFFFFFFFFFFFFFFFFFFFFFFFFFFFFFFFFFFFF AND DUP2 MSTORE PUSH1 0x20 ADD SWAP1 DUP2 MSTORE PUSH1 0x20 ADD PUSH0 KECCAK256 DUP2 SWAP1 DUP1 PUSH1 0x1 DUP2 SLOAD ADD DUP1 DUP3 SSTORE DUP1 SWAP2 POP POP PUSH1 0x1 SWAP1 SUB SWAP1 PUSH0 MSTORE PUSH1 0x20 PUSH0 KECCAK256 SWAP1 PUSH1 0x5 MUL ADD PUSH0 SWAP1 SWAP2 SWAP1 SWAP2 SWAP1 SWAP2 POP PUSH0 DUP3 ADD MLOAD DUP2 PUSH0 ADD SSTORE PUSH1 0x20 DUP3 ADD MLOAD DUP2 PUSH1 0x1 ADD PUSH0 PUSH2 0x100 EXP DUP2 SLOAD DUP2 PUSH20 0xFFFFFFFFFFFFFFFFFFFFFFFFFFFFFFFFFFFFFFFF MUL NOT AND SWAP1 DUP4 PUSH20 0xFFFFFFFFFFFFFFFFFFFFFFFFFFFFFFFFFFFFFFFF AND MUL OR SWAP1 SSTORE POP PUSH1 0x40 DUP3 ADD MLOAD DUP2 PUSH1 0x2 ADD SWAP1 DUP2 PUSH2 0xD31 SWAP2 SWAP1 PUSH2 0x1E1D JUMP JUMPDEST POP PUSH1 0x60 DUP3 ADD MLOAD DUP2 PUSH1 0x3 ADD SSTORE PUSH1 0x80 DUP3 ADD MLOAD DUP2 PUSH1 0x4 ADD SSTORE POP POP PUSH32 0x16FD3C13E9D46923E0A8BCE11C7B473EC508A72E6C96CD2404B29CE972AFC29E DUP2 PUSH0 ADD MLOAD DUP3 PUSH1 0x20 ADD MLOAD DUP4 PUSH1 0x40 ADD MLOAD DUP5 PUSH1 0x60 ADD MLOAD PUSH1 0x40 MLOAD PUSH2 0xD8C SWAP5 SWAP4 SWAP3 SWAP2 SWAP1 PUSH2 0x1EEC JUMP JUMPDEST PUSH1 0x40 MLOAD DUP1 SWAP2 SUB SWAP1 LOG1 POP POP POP JUMP JUMPDEST PUSH0 PUSH0 PUSH0 PUSH0 SWAP1 POP JUMPDEST PUSH1 0x2 PUSH0 DUP6 PUSH20 0xFFFFFFFFFFFFFFFFFFFFFFFFFFFFFFFFFFFFFFFF AND PUSH20 0xFFFFFFFFFFFFFFFFFFFFFFFFFFFFFFFFFFFFFFFF AND DUP2 MSTORE PUSH1 0x20 ADD SWAP1 DUP2 MSTORE PUSH1 0x20 ADD PUSH0 KECCAK256 DUP1 SLOAD SWAP1 POP DUP2 LT ISZERO PUSH2 0xE61 JUMPI PUSH1 0x2 PUSH0 DUP6 PUSH20 0xFFFFFFFFFFFFFFFFFFFFFFFFFFFFFFFFFFFFFFFF AND PUSH20 0xFFFFFFFFFFFFFFFFFFFFFFFFFFFFFFFFFFFFFFFF AND DUP2 MSTORE PUSH1 0x20 ADD SWAP1 DUP2 MSTORE PUSH1 0x20 ADD PUSH0 KECCAK256 DUP2 DUP2 SLOAD DUP2 LT PUSH2 0xE37 JUMPI PUSH2 0xE36 PUSH2 0x1A3A JUMP JUMPDEST JUMPDEST SWAP1 PUSH0 MSTORE PUSH1 0x20 PUSH0 KECCAK256 SWAP1 PUSH1 0x5 MUL ADD PUSH1 0x4 ADD SLOAD DUP3 PUSH2 0xE52 SWAP2 SWAP1 PUSH2 0x1F36 JUMP JUMPDEST SWAP2 POP DUP1 DUP1 PUSH1 0x1 ADD SWAP2 POP POP PUSH2 0xDA0 JUMP JUMPDEST POP DUP1 SWAP2 POP POP SWAP2 SWAP1 POP JUMP JUMPDEST PUSH2 0xE73 PUSH2 0x109F JUMP JUMPDEST DUP1 PUSH1 0x1 DUP2 SWAP1 SSTORE POP POP JUMP JUMPDEST PUSH0 PUSH0 PUSH0 SWAP1 SLOAD SWAP1 PUSH2 0x100 EXP SWAP1 DIV PUSH20 0xFFFFFFFFFFFFFFFFFFFFFFFFFFFFFFFFFFFFFFFF AND SWAP1 POP SWAP1 JUMP JUMPDEST PUSH2 0xEAC PUSH2 0x11EE JUMP JUMPDEST PUSH1 0x2 PUSH0 CALLER PUSH20 0xFFFFFFFFFFFFFFFFFFFFFFFFFFFFFFFFFFFFFFFF AND PUSH20 0xFFFFFFFFFFFFFFFFFFFFFFFFFFFFFFFFFFFFFFFF AND DUP2 MSTORE PUSH1 0x20 ADD SWAP1 DUP2 MSTORE PUSH1 0x20 ADD PUSH0 KECCAK256 DUP3 DUP2 SLOAD DUP2 LT PUSH2 0xEFB JUMPI PUSH2 0xEFA PUSH2 0x1A3A JUMP JUMPDEST JUMPDEST SWAP1 PUSH0 MSTORE PUSH1 0x20 PUSH0 KECCAK256 SWAP1 PUSH1 0x5 MUL ADD PUSH1 0x40 MLOAD DUP1 PUSH1 0xA0 ADD PUSH1 0x40 MSTORE SWAP1 DUP2 PUSH0 DUP3 ADD SLOAD DUP2 MSTORE PUSH1 0x20 ADD PUSH1 0x1 DUP3 ADD PUSH0 SWAP1 SLOAD SWAP1 PUSH2 0x100 EXP SWAP1 DIV PUSH20 0xFFFFFFFFFFFFFFFFFFFFFFFFFFFFFFFFFFFFFFFF AND PUSH20 0xFFFFFFFFFFFFFFFFFFFFFFFFFFFFFFFFFFFFFFFF AND PUSH20 0xFFFFFFFFFFFFFFFFFFFFFFFFFFFFFFFFFFFFFFFF AND DUP2 MSTORE PUSH1 0x20 ADD PUSH1 0x2 DUP3 ADD DUP1 SLOAD PUSH2 0xF80 SWAP1 PUSH2 0x1860 JUMP JUMPDEST DUP1 PUSH1 0x1F ADD PUSH1 0x20 DUP1 SWAP2 DIV MUL PUSH1 0x20 ADD PUSH1 0x40 MLOAD SWAP1 DUP2 ADD PUSH1 0x40 MSTORE DUP1 SWAP3 SWAP2 SWAP1 DUP2 DUP2 MSTORE PUSH1 0x20 ADD DUP3 DUP1 SLOAD PUSH2 0xFAC SWAP1 PUSH2 0x1860 JUMP JUMPDEST DUP1 ISZERO PUSH2 0xFF7 JUMPI DUP1 PUSH1 0x1F LT PUSH2 0xFCE JUMPI PUSH2 0x100 DUP1 DUP4 SLOAD DIV MUL DUP4 MSTORE SWAP2 PUSH1 0x20 ADD SWAP2 PUSH2 0xFF7 JUMP JUMPDEST DUP3 ADD SWAP2 SWAP1 PUSH0 MSTORE PUSH1 0x20 PUSH0 KECCAK256 SWAP1 JUMPDEST DUP2 SLOAD DUP2 MSTORE SWAP1 PUSH1 0x1 ADD SWAP1 PUSH1 0x20 ADD DUP1 DUP4 GT PUSH2 0xFDA JUMPI DUP3 SWAP1 SUB PUSH1 0x1F AND DUP3 ADD SWAP2 JUMPDEST POP POP POP POP POP DUP2 MSTORE PUSH1 0x20 ADD PUSH1 0x3 DUP3 ADD SLOAD DUP2 MSTORE PUSH1 0x20 ADD PUSH1 0x4 DUP3 ADD SLOAD DUP2 MSTORE POP POP SWAP1 POP SWAP2 SWAP1 POP JUMP JUMPDEST PUSH2 0x1023 PUSH2 0x109F JUMP JUMPDEST PUSH0 PUSH20 0xFFFFFFFFFFFFFFFFFFFFFFFFFFFFFFFFFFFFFFFF AND DUP2 PUSH20 0xFFFFFFFFFFFFFFFFFFFFFFFFFFFFFFFFFFFFFFFF AND SUB PUSH2 0x1093 JUMPI PUSH0 PUSH1 0x40 MLOAD PUSH32 0x1E4FBDF700000000000000000000000000000000000000000000000000000000 DUP2 MSTORE PUSH1 0x4 ADD PUSH2 0x108A SWAP2 SWAP1 PUSH2 0x1787 JUMP JUMPDEST PUSH1 0x40 MLOAD DUP1 SWAP2 SUB SWAP1 REVERT JUMPDEST PUSH2 0x109C DUP2 PUSH2 0x1126 JUMP JUMPDEST POP JUMP JUMPDEST PUSH2 0x10A7 PUSH2 0x11E7 JUMP JUMPDEST PUSH20 0xFFFFFFFFFFFFFFFFFFFFFFFFFFFFFFFFFFFFFFFF AND PUSH2 0x10C5 PUSH2 0xE7D JUMP JUMPDEST PUSH20 0xFFFFFFFFFFFFFFFFFFFFFFFFFFFFFFFFFFFFFFFF AND EQ PUSH2 0x1124 JUMPI PUSH2 0x10E8 PUSH2 0x11E7 JUMP JUMPDEST PUSH1 0x40 MLOAD PUSH32 0x118CDAA700000000000000000000000000000000000000000000000000000000 DUP2 MSTORE PUSH1 0x4 ADD PUSH2 0x111B SWAP2 SWAP1 PUSH2 0x1787 JUMP JUMPDEST PUSH1 0x40 MLOAD DUP1 SWAP2 SUB SWAP1 REVERT JUMPDEST JUMP JUMPDEST PUSH0 PUSH0 PUSH0 SWAP1 SLOAD SWAP1 PUSH2 0x100 EXP SWAP1 DIV PUSH20 0xFFFFFFFFFFFFFFFFFFFFFFFFFFFFFFFFFFFFFFFF AND SWAP1 POP DUP2 PUSH0 PUSH0 PUSH2 0x100 EXP DUP2 SLOAD DUP2 PUSH20 0xFFFFFFFFFFFFFFFFFFFFFFFFFFFFFFFFFFFFFFFF MUL NOT AND SWAP1 DUP4 PUSH20 0xFFFFFFFFFFFFFFFFFFFFFFFFFFFFFFFFFFFFFFFF AND MUL OR SWAP1 SSTORE POP DUP2 PUSH20 0xFFFFFFFFFFFFFFFFFFFFFFFFFFFFFFFFFFFFFFFF AND DUP2 PUSH20 0xFFFFFFFFFFFFFFFFFFFFFFFFFFFFFFFFFFFFFFFF AND PUSH32 0x8BE0079C531659141344CD1FD0A4F28419497F9722A3DAAFE3B4186F6B6457E0 PUSH1 0x40 MLOAD PUSH1 0x40 MLOAD DUP1 SWAP2 SUB SWAP1 LOG3 POP POP JUMP JUMPDEST PUSH0 CALLER SWAP1 POP SWAP1 JUMP JUMPDEST PUSH1 0x40 MLOAD DUP1 PUSH1 0xA0 ADD PUSH1 0x40 MSTORE DUP1 PUSH0 DUP2 MSTORE PUSH1 0x20 ADD PUSH0 PUSH20 0xFFFFFFFFFFFFFFFFFFFFFFFFFFFFFFFFFFFFFFFF AND DUP2 MSTORE PUSH1 0x20 ADD PUSH1 0x60 DUP2 MSTORE PUSH1 0x20 ADD PUSH0 DUP2 MSTORE PUSH1 0x20 ADD PUSH0 DUP2 MSTORE POP SWAP1 JUMP JUMPDEST PUSH0 PUSH1 0x40 MLOAD SWAP1 POP SWAP1 JUMP JUMPDEST PUSH0 PUSH0 REVERT JUMPDEST PUSH0 PUSH0 REVERT JUMPDEST PUSH0 PUSH20 0xFFFFFFFFFFFFFFFFFFFFFFFFFFFFFFFFFFFFFFFF DUP3 AND SWAP1 POP SWAP2 SWAP1 POP JUMP JUMPDEST PUSH0 PUSH2 0x1269 DUP3 PUSH2 0x1240 JUMP JUMPDEST SWAP1 POP SWAP2 SWAP1 POP JUMP JUMPDEST PUSH2 0x1279 DUP2 PUSH2 0x125F JUMP JUMPDEST DUP2 EQ PUSH2 0x1283 JUMPI PUSH0 PUSH0 REVERT JUMPDEST POP JUMP JUMPDEST PUSH0 DUP2 CALLDATALOAD SWAP1 POP PUSH2 0x1294 DUP2 PUSH2 0x1270 JUMP JUMPDEST SWAP3 SWAP2 POP POP JUMP JUMPDEST PUSH0 DUP2 SWAP1 POP SWAP2 SWAP1 POP JUMP JUMPDEST PUSH2 0x12AC DUP2 PUSH2 0x129A JUMP JUMPDEST DUP2 EQ PUSH2 0x12B6 JUMPI PUSH0 PUSH0 REVERT JUMPDEST POP JUMP JUMPDEST PUSH0 DUP2 CALLDATALOAD SWAP1 POP PUSH2 0x12C7 DUP2 PUSH2 0x12A3 JUMP JUMPDEST SWAP3 SWAP2 POP POP JUMP JUMPDEST PUSH0 PUSH0 PUSH1 0x40 DUP4 DUP6 SUB SLT ISZERO PUSH2 0x12E3 JUMPI PUSH2 0x12E2 PUSH2 0x1238 JUMP JUMPDEST JUMPDEST PUSH0 PUSH2 0x12F0 DUP6 DUP3 DUP7 ADD PUSH2 0x1286 JUMP JUMPDEST SWAP3 POP POP PUSH1 0x20 PUSH2 0x1301 DUP6 DUP3 DUP7 ADD PUSH2 0x12B9 JUMP JUMPDEST SWAP2 POP POP SWAP3 POP SWAP3 SWAP1 POP JUMP JUMPDEST PUSH2 0x1314 DUP2 PUSH2 0x129A JUMP JUMPDEST DUP3 MSTORE POP POP JUMP JUMPDEST PUSH2 0x1323 DUP2 PUSH2 0x125F JUMP JUMPDEST DUP3 MSTORE POP POP JUMP JUMPDEST PUSH0 DUP2 MLOAD SWAP1 POP SWAP2 SWAP1 POP JUMP JUMPDEST PUSH0 DUP3 DUP3 MSTORE PUSH1 0x20 DUP3 ADD SWAP1 POP SWAP3 SWAP2 POP POP JUMP JUMPDEST DUP3 DUP2 DUP4 MCOPY PUSH0 DUP4 DUP4 ADD MSTORE POP POP POP JUMP JUMPDEST PUSH0 PUSH1 0x1F NOT PUSH1 0x1F DUP4 ADD AND SWAP1 POP SWAP2 SWAP1 POP JUMP JUMPDEST PUSH0 PUSH2 0x136B DUP3 PUSH2 0x1329 JUMP JUMPDEST PUSH2 0x1375 DUP2 DUP6 PUSH2 0x1333 JUMP JUMPDEST SWAP4 POP PUSH2 0x1385 DUP2 DUP6 PUSH1 0x20 DUP7 ADD PUSH2 0x1343 JUMP JUMPDEST PUSH2 0x138E DUP2 PUSH2 0x1351 JUMP JUMPDEST DUP5 ADD SWAP2 POP POP SWAP3 SWAP2 POP POP JUMP JUMPDEST PUSH0 PUSH1 0xA0 DUP3 ADD SWAP1 POP PUSH2 0x13AC PUSH0 DUP4 ADD DUP9 PUSH2 0x130B JUMP JUMPDEST PUSH2 0x13B9 PUSH1 0x20 DUP4 ADD DUP8 PUSH2 0x131A JUMP JUMPDEST DUP2 DUP2 SUB PUSH1 0x40 DUP4 ADD MSTORE PUSH2 0x13CB DUP2 DUP7 PUSH2 0x1361 JUMP JUMPDEST SWAP1 POP PUSH2 0x13DA PUSH1 0x60 DUP4 ADD DUP6 PUSH2 0x130B JUMP JUMPDEST PUSH2 0x13E7 PUSH1 0x80 DUP4 ADD DUP5 PUSH2 0x130B JUMP JUMPDEST SWAP7 SWAP6 POP POP POP POP POP POP JUMP JUMPDEST PUSH0 PUSH1 0x20 DUP3 DUP5 SUB SLT ISZERO PUSH2 0x1406 JUMPI PUSH2 0x1405 PUSH2 0x1238 JUMP JUMPDEST JUMPDEST PUSH0 PUSH2 0x1413 DUP5 DUP3 DUP6 ADD PUSH2 0x1286 JUMP JUMPDEST SWAP2 POP POP SWAP3 SWAP2 POP POP JUMP JUMPDEST PUSH0 DUP2 MLOAD SWAP1 POP SWAP2 SWAP1 POP JUMP JUMPDEST PUSH0 DUP3 DUP3 MSTORE PUSH1 0x20 DUP3 ADD SWAP1 POP SWAP3 SWAP2 POP POP JUMP JUMPDEST PUSH0 DUP2 SWAP1 POP PUSH1 0x20 DUP3 ADD SWAP1 POP SWAP2 SWAP1 POP JUMP JUMPDEST PUSH2 0x144E DUP2 PUSH2 0x129A JUMP JUMPDEST DUP3 MSTORE POP POP JUMP JUMPDEST PUSH2 0x145D DUP2 PUSH2 0x125F JUMP JUMPDEST DUP3 MSTORE POP POP JUMP JUMPDEST PUSH0 DUP3 DUP3 MSTORE PUSH1 0x20 DUP3 ADD SWAP1 POP SWAP3 SWAP2 POP POP JUMP JUMPDEST PUSH0 PUSH2 0x147D DUP3 PUSH2 0x1329 JUMP JUMPDEST PUSH2 0x1487 DUP2 DUP6 PUSH2 0x1463 JUMP JUMPDEST SWAP4 POP PUSH2 0x1497 DUP2 DUP6 PUSH1 0x20 DUP7 ADD PUSH2 0x1343 JUMP JUMPDEST PUSH2 0x14A0 DUP2 PUSH2 0x1351 JUMP JUMPDEST DUP5 ADD SWAP2 POP POP SWAP3 SWAP2 POP POP JUMP JUMPDEST PUSH0 PUSH1 0xA0 DUP4 ADD PUSH0 DUP4 ADD MLOAD PUSH2 0x14C0 PUSH0 DUP7 ADD DUP3 PUSH2 0x1445 JUMP JUMPDEST POP PUSH1 0x20 DUP4 ADD MLOAD PUSH2 0x14D3 PUSH1 0x20 DUP7 ADD DUP3 PUSH2 0x1454 JUMP JUMPDEST POP PUSH1 0x40 DUP4 ADD MLOAD DUP5 DUP3 SUB PUSH1 0x40 DUP7 ADD MSTORE PUSH2 0x14EB DUP3 DUP3 PUSH2 0x1473 JUMP JUMPDEST SWAP2 POP POP PUSH1 0x60 DUP4 ADD MLOAD PUSH2 0x1500 PUSH1 0x60 DUP7 ADD DUP3 PUSH2 0x1445 JUMP JUMPDEST POP PUSH1 0x80 DUP4 ADD MLOAD PUSH2 0x1513 PUSH1 0x80 DUP7 ADD DUP3 PUSH2 0x1445 JUMP JUMPDEST POP DUP1 SWAP2 POP POP SWAP3 SWAP2 POP POP JUMP JUMPDEST PUSH0 PUSH2 0x1529 DUP4 DUP4 PUSH2 0x14AB JUMP JUMPDEST SWAP1 POP SWAP3 SWAP2 POP POP JUMP JUMPDEST PUSH0 PUSH1 0x20 DUP3 ADD SWAP1 POP SWAP2 SWAP1 POP JUMP JUMPDEST PUSH0 PUSH2 0x1547 DUP3 PUSH2 0x141C JUMP JUMPDEST PUSH2 0x1551 DUP2 DUP6 PUSH2 0x1426 JUMP JUMPDEST SWAP4 POP DUP4 PUSH1 0x20 DUP3 MUL DUP6 ADD PUSH2 0x1563 DUP6 PUSH2 0x1436 JUMP JUMPDEST DUP1 PUSH0 JUMPDEST DUP6 DUP2 LT ISZERO PUSH2 0x159E JUMPI DUP5 DUP5 SUB DUP10 MSTORE DUP2 MLOAD PUSH2 0x157F DUP6 DUP3 PUSH2 0x151E JUMP JUMPDEST SWAP5 POP PUSH2 0x158A DUP4 PUSH2 0x1531 JUMP JUMPDEST SWAP3 POP PUSH1 0x20 DUP11 ADD SWAP10 POP POP PUSH1 0x1 DUP2 ADD SWAP1 POP PUSH2 0x1566 JUMP JUMPDEST POP DUP3 SWAP8 POP DUP8 SWAP6 POP POP POP POP POP POP SWAP3 SWAP2 POP POP JUMP JUMPDEST PUSH0 PUSH1 0x20 DUP3 ADD SWAP1 POP DUP2 DUP2 SUB PUSH0 DUP4 ADD MSTORE PUSH2 0x15C8 DUP2 DUP5 PUSH2 0x153D JUMP JUMPDEST SWAP1 POP SWAP3 SWAP2 POP POP JUMP JUMPDEST PUSH0 PUSH1 0x20 DUP3 ADD SWAP1 POP PUSH2 0x15E3 PUSH0 DUP4 ADD DUP5 PUSH2 0x130B JUMP JUMPDEST SWAP3 SWAP2 POP POP JUMP JUMPDEST PUSH0 PUSH0 REVERT JUMPDEST PUSH0 PUSH0 REVERT JUMPDEST PUSH32 0x4E487B7100000000000000000000000000000000000000000000000000000000 PUSH0 MSTORE PUSH1 0x41 PUSH1 0x4 MSTORE PUSH1 0x24 PUSH0 REVERT JUMPDEST PUSH2 0x1627 DUP3 PUSH2 0x1351 JUMP JUMPDEST DUP2 ADD DUP2 DUP2 LT PUSH8 0xFFFFFFFFFFFFFFFF DUP3 GT OR ISZERO PUSH2 0x1646 JUMPI PUSH2 0x1645 PUSH2 0x15F1 JUMP JUMPDEST JUMPDEST DUP1 PUSH1 0x40 MSTORE POP POP POP JUMP JUMPDEST PUSH0 PUSH2 0x1658 PUSH2 0x122F JUMP JUMPDEST SWAP1 POP PUSH2 0x1664 DUP3 DUP3 PUSH2 0x161E JUMP JUMPDEST SWAP2 SWAP1 POP JUMP JUMPDEST PUSH0 PUSH8 0xFFFFFFFFFFFFFFFF DUP3 GT ISZERO PUSH2 0x1683 JUMPI PUSH2 0x1682 PUSH2 0x15F1 JUMP JUMPDEST JUMPDEST PUSH2 0x168C DUP3 PUSH2 0x1351 JUMP JUMPDEST SWAP1 POP PUSH1 0x20 DUP2 ADD SWAP1 POP SWAP2 SWAP1 POP JUMP JUMPDEST DUP3 DUP2 DUP4 CALLDATACOPY PUSH0 DUP4 DUP4 ADD MSTORE POP POP POP JUMP JUMPDEST PUSH0 PUSH2 0x16B9 PUSH2 0x16B4 DUP5 PUSH2 0x1669 JUMP JUMPDEST PUSH2 0x164F JUMP JUMPDEST SWAP1 POP DUP3 DUP2 MSTORE PUSH1 0x20 DUP2 ADD DUP5 DUP5 DUP5 ADD GT ISZERO PUSH2 0x16D5 JUMPI PUSH2 0x16D4 PUSH2 0x15ED JUMP JUMPDEST JUMPDEST PUSH2 0x16E0 DUP5 DUP3 DUP6 PUSH2 0x1699 JUMP JUMPDEST POP SWAP4 SWAP3 POP POP POP JUMP JUMPDEST PUSH0 DUP3 PUSH1 0x1F DUP4 ADD SLT PUSH2 0x16FC JUMPI PUSH2 0x16FB PUSH2 0x15E9 JUMP JUMPDEST JUMPDEST DUP2 CALLDATALOAD PUSH2 0x170C DUP5 DUP3 PUSH1 0x20 DUP7 ADD PUSH2 0x16A7 JUMP JUMPDEST SWAP2 POP POP SWAP3 SWAP2 POP POP JUMP JUMPDEST PUSH0 PUSH1 0x20 DUP3 DUP5 SUB SLT ISZERO PUSH2 0x172A JUMPI PUSH2 0x1729 PUSH2 0x1238 JUMP JUMPDEST JUMPDEST PUSH0 DUP3 ADD CALLDATALOAD PUSH8 0xFFFFFFFFFFFFFFFF DUP2 GT ISZERO PUSH2 0x1747 JUMPI PUSH2 0x1746 PUSH2 0x123C JUMP JUMPDEST JUMPDEST PUSH2 0x1753 DUP5 DUP3 DUP6 ADD PUSH2 0x16E8 JUMP JUMPDEST SWAP2 POP POP SWAP3 SWAP2 POP POP JUMP JUMPDEST PUSH0 PUSH1 0x20 DUP3 DUP5 SUB SLT ISZERO PUSH2 0x1771 JUMPI PUSH2 0x1770 PUSH2 0x1238 JUMP JUMPDEST JUMPDEST PUSH0 PUSH2 0x177E DUP5 DUP3 DUP6 ADD PUSH2 0x12B9 JUMP JUMPDEST SWAP2 POP POP SWAP3 SWAP2 POP POP JUMP JUMPDEST PUSH0 PUSH1 0x20 DUP3 ADD SWAP1 POP PUSH2 0x179A PUSH0 DUP4 ADD DUP5 PUSH2 0x131A JUMP JUMPDEST SWAP3 SWAP2 POP POP JUMP JUMPDEST PUSH0 PUSH1 0xA0 DUP4 ADD PUSH0 DUP4 ADD MLOAD PUSH2 0x17B5 PUSH0 DUP7 ADD DUP3 PUSH2 0x1445 JUMP JUMPDEST POP PUSH1 0x20 DUP4 ADD MLOAD PUSH2 0x17C8 PUSH1 0x20 DUP7 ADD DUP3 PUSH2 0x1454 JUMP JUMPDEST POP PUSH1 0x40 DUP4 ADD MLOAD DUP5 DUP3 SUB PUSH1 0x40 DUP7 ADD MSTORE PUSH2 0x17E0 DUP3 DUP3 PUSH2 0x1473 JUMP JUMPDEST SWAP2 POP POP PUSH1 0x60 DUP4 ADD MLOAD PUSH2 0x17F5 PUSH1 0x60 DUP7 ADD DUP3 PUSH2 0x1445 JUMP JUMPDEST POP PUSH1 0x80 DUP4 ADD MLOAD PUSH2 0x1808 PUSH1 0x80 DUP7 ADD DUP3 PUSH2 0x1445 JUMP JUMPDEST POP DUP1 SWAP2 POP POP SWAP3 SWAP2 POP POP JUMP JUMPDEST PUSH0 PUSH1 0x20 DUP3 ADD SWAP1 POP DUP2 DUP2 SUB PUSH0 DUP4 ADD MSTORE PUSH2 0x182B DUP2 DUP5 PUSH2 0x17A0 JUMP JUMPDEST SWAP1 POP SWAP3 SWAP2 POP POP JUMP JUMPDEST PUSH32 0x4E487B7100000000000000000000000000000000000000000000000000000000 PUSH0 MSTORE PUSH1 0x22 PUSH1 0x4 MSTORE PUSH1 0x24 PUSH0 REVERT JUMPDEST PUSH0 PUSH1 0x2 DUP3 DIV SWAP1 POP PUSH1 0x1 DUP3 AND DUP1 PUSH2 0x1877 JUMPI PUSH1 0x7F DUP3 AND SWAP2 POP JUMPDEST PUSH1 0x20 DUP3 LT DUP2 SUB PUSH2 0x188A JUMPI PUSH2 0x1889 PUSH2 0x1833 JUMP JUMPDEST JUMPDEST POP SWAP2 SWAP1 POP JUMP JUMPDEST PUSH0 PUSH0 REVERT JUMPDEST PUSH0 PUSH0 REVERT JUMPDEST PUSH0 PUSH2 0x18AA PUSH2 0x18A5 DUP5 PUSH2 0x1669 JUMP JUMPDEST PUSH2 0x164F JUMP JUMPDEST SWAP1 POP DUP3 DUP2 MSTORE PUSH1 0x20 DUP2 ADD DUP5 DUP5 DUP5 ADD GT ISZERO PUSH2 0x18C6 JUMPI PUSH2 0x18C5 PUSH2 0x15ED JUMP JUMPDEST JUMPDEST PUSH2 0x18D1 DUP5 DUP3 DUP6 PUSH2 0x1343 JUMP JUMPDEST POP SWAP4 SWAP3 POP POP POP JUMP JUMPDEST PUSH0 DUP3 PUSH1 0x1F DUP4 ADD SLT PUSH2 0x18ED JUMPI PUSH2 0x18EC PUSH2 0x15E9 JUMP JUMPDEST JUMPDEST DUP2 MLOAD PUSH2 0x18FD DUP5 DUP3 PUSH1 0x20 DUP7 ADD PUSH2 0x1898 JUMP JUMPDEST SWAP2 POP POP SWAP3 SWAP2 POP POP JUMP JUMPDEST PUSH0 PUSH1 0x40 DUP3 DUP5 SUB SLT ISZERO PUSH2 0x191B JUMPI PUSH2 0x191A PUSH2 0x1890 JUMP JUMPDEST JUMPDEST PUSH2 0x1925 PUSH1 0x40 PUSH2 0x164F JUMP JUMPDEST SWAP1 POP PUSH0 DUP3 ADD MLOAD PUSH8 0xFFFFFFFFFFFFFFFF DUP2 GT ISZERO PUSH2 0x1944 JUMPI PUSH2 0x1943 PUSH2 0x1894 JUMP JUMPDEST JUMPDEST PUSH2 0x1950 DUP5 DUP3 DUP6 ADD PUSH2 0x18D9 JUMP JUMPDEST PUSH0 DUP4 ADD MSTORE POP PUSH1 0x20 DUP3 ADD MLOAD PUSH8 0xFFFFFFFFFFFFFFFF DUP2 GT ISZERO PUSH2 0x1973 JUMPI PUSH2 0x1972 PUSH2 0x1894 JUMP JUMPDEST JUMPDEST PUSH2 0x197F DUP5 DUP3 DUP6 ADD PUSH2 0x18D9 JUMP JUMPDEST PUSH1 0x20 DUP4 ADD MSTORE POP SWAP3 SWAP2 POP POP JUMP JUMPDEST PUSH0 PUSH1 0x20 DUP3 DUP5 SUB SLT ISZERO PUSH2 0x19A0 JUMPI PUSH2 0x199F PUSH2 0x1238 JUMP JUMPDEST JUMPDEST PUSH0 DUP3 ADD MLOAD PUSH8 0xFFFFFFFFFFFFFFFF DUP2 GT ISZERO PUSH2 0x19BD JUMPI PUSH2 0x19BC PUSH2 0x123C JUMP JUMPDEST JUMPDEST PUSH2 0x19C9 DUP5 DUP3 DUP6 ADD PUSH2 0x1906 JUMP JUMPDEST SWAP2 POP POP SWAP3 SWAP2 POP POP JUMP JUMPDEST PUSH32 0x75736572206E6F74207265676973746572640000000000000000000000000000 PUSH0 DUP3 ADD MSTORE POP JUMP JUMPDEST PUSH0 PUSH2 0x1A06 PUSH1 0x12 DUP4 PUSH2 0x1333 JUMP JUMPDEST SWAP2 POP PUSH2 0x1A11 DUP3 PUSH2 0x19D2 JUMP JUMPDEST PUSH1 0x20 DUP3 ADD SWAP1 POP SWAP2 SWAP1 POP JUMP JUMPDEST PUSH0 PUSH1 0x20 DUP3 ADD SWAP1 POP DUP2 DUP2 SUB PUSH0 DUP4 ADD MSTORE PUSH2 0x1A33 DUP2 PUSH2 0x19FA JUMP JUMPDEST SWAP1 POP SWAP2 SWAP1 POP JUMP JUMPDEST PUSH32 0x4E487B7100000000000000000000000000000000000000000000000000000000 PUSH0 MSTORE PUSH1 0x32 PUSH1 0x4 MSTORE PUSH1 0x24 PUSH0 REVERT JUMPDEST PUSH32 0x547765657420646F65736E742065786973740000000000000000000000000000 PUSH0 DUP3 ADD MSTORE POP JUMP JUMPDEST PUSH0 PUSH2 0x1A9B PUSH1 0x12 DUP4 PUSH2 0x1333 JUMP JUMPDEST SWAP2 POP PUSH2 0x1AA6 DUP3 PUSH2 0x1A67 JUMP JUMPDEST PUSH1 0x20 DUP3 ADD SWAP1 POP SWAP2 SWAP1 POP JUMP JUMPDEST PUSH0 PUSH1 0x20 DUP3 ADD SWAP1 POP DUP2 DUP2 SUB PUSH0 DUP4 ADD MSTORE PUSH2 0x1AC8 DUP2 PUSH2 0x1A8F JUMP JUMPDEST SWAP1 POP SWAP2 SWAP1 POP JUMP JUMPDEST PUSH32 0x547765657420686173206E6F206C696B65000000000000000000000000000000 PUSH0 DUP3 ADD MSTORE POP JUMP JUMPDEST PUSH0 PUSH2 0x1B03 PUSH1 0x11 DUP4 PUSH2 0x1333 JUMP JUMPDEST SWAP2 POP PUSH2 0x1B0E DUP3 PUSH2 0x1ACF JUMP JUMPDEST PUSH1 0x20 DUP3 ADD SWAP1 POP SWAP2 SWAP1 POP JUMP JUMPDEST PUSH0 PUSH1 0x20 DUP3 ADD SWAP1 POP DUP2 DUP2 SUB PUSH0 DUP4 ADD MSTORE PUSH2 0x1B30 DUP2 PUSH2 0x1AF7 JUMP JUMPDEST SWAP1 POP SWAP2 SWAP1 POP JUMP JUMPDEST PUSH32 0x4E487B7100000000000000000000000000000000000000000000000000000000 PUSH0 MSTORE PUSH1 0x11 PUSH1 0x4 MSTORE PUSH1 0x24 PUSH0 REVERT JUMPDEST PUSH0 PUSH2 0x1B6E DUP3 PUSH2 0x129A JUMP JUMPDEST SWAP2 POP PUSH0 DUP3 SUB PUSH2 0x1B80 JUMPI PUSH2 0x1B7F PUSH2 0x1B37 JUMP JUMPDEST JUMPDEST PUSH1 0x1 DUP3 SUB SWAP1 POP SWAP2 SWAP1 POP JUMP JUMPDEST PUSH0 PUSH1 0x80 DUP3 ADD SWAP1 POP PUSH2 0x1B9E PUSH0 DUP4 ADD DUP8 PUSH2 0x131A JUMP JUMPDEST PUSH2 0x1BAB PUSH1 0x20 DUP4 ADD DUP7 PUSH2 0x131A JUMP JUMPDEST PUSH2 0x1BB8 PUSH1 0x40 DUP4 ADD DUP6 PUSH2 0x130B JUMP JUMPDEST PUSH2 0x1BC5 PUSH1 0x60 DUP4 ADD DUP5 PUSH2 0x130B JUMP JUMPDEST SWAP6 SWAP5 POP POP POP POP POP JUMP JUMPDEST PUSH0 PUSH2 0x1BD8 DUP3 PUSH2 0x129A JUMP JUMPDEST SWAP2 POP PUSH32 0xFFFFFFFFFFFFFFFFFFFFFFFFFFFFFFFFFFFFFFFFFFFFFFFFFFFFFFFFFFFFFFFF DUP3 SUB PUSH2 0x1C0A JUMPI PUSH2 0x1C09 PUSH2 0x1B37 JUMP JUMPDEST JUMPDEST PUSH1 0x1 DUP3 ADD SWAP1 POP SWAP2 SWAP1 POP JUMP JUMPDEST PUSH32 0x547765657420746F6F206C6F6E67206272756800000000000000000000000000 PUSH0 DUP3 ADD MSTORE POP JUMP JUMPDEST PUSH0 PUSH2 0x1C49 PUSH1 0x13 DUP4 PUSH2 0x1333 JUMP JUMPDEST SWAP2 POP PUSH2 0x1C54 DUP3 PUSH2 0x1C15 JUMP JUMPDEST PUSH1 0x20 DUP3 ADD SWAP1 POP SWAP2 SWAP1 POP JUMP JUMPDEST PUSH0 PUSH1 0x20 DUP3 ADD SWAP1 POP DUP2 DUP2 SUB PUSH0 DUP4 ADD MSTORE PUSH2 0x1C76 DUP2 PUSH2 0x1C3D JUMP JUMPDEST SWAP1 POP SWAP2 SWAP1 POP JUMP JUMPDEST PUSH0 DUP2 SWAP1 POP DUP2 PUSH0 MSTORE PUSH1 0x20 PUSH0 KECCAK256 SWAP1 POP SWAP2 SWAP1 POP JUMP JUMPDEST PUSH0 PUSH1 0x20 PUSH1 0x1F DUP4 ADD DIV SWAP1 POP SWAP2 SWAP1 POP JUMP JUMPDEST PUSH0 DUP3 DUP3 SHL SWAP1 POP SWAP3 SWAP2 POP POP JUMP JUMPDEST PUSH0 PUSH1 0x8 DUP4 MUL PUSH2 0x1CD9 PUSH32 0xFFFFFFFFFFFFFFFFFFFFFFFFFFFFFFFFFFFFFFFFFFFFFFFFFFFFFFFFFFFFFFFF DUP3 PUSH2 0x1C9E JUMP JUMPDEST PUSH2 0x1CE3 DUP7 DUP4 PUSH2 0x1C9E JUMP JUMPDEST SWAP6 POP DUP1 NOT DUP5 AND SWAP4 POP DUP1 DUP7 AND DUP5 OR SWAP3 POP POP POP SWAP4 SWAP3 POP POP POP JUMP JUMPDEST PUSH0 DUP2 SWAP1 POP SWAP2 SWAP1 POP JUMP JUMPDEST PUSH0 PUSH2 0x1D1E PUSH2 0x1D19 PUSH2 0x1D14 DUP5 PUSH2 0x129A JUMP JUMPDEST PUSH2 0x1CFB JUMP JUMPDEST PUSH2 0x129A JUMP JUMPDEST SWAP1 POP SWAP2 SWAP1 POP JUMP JUMPDEST PUSH0 DUP2 SWAP1 POP SWAP2 SWAP1 POP JUMP JUMPDEST PUSH2 0x1D37 DUP4 PUSH2 0x1D04 JUMP JUMPDEST PUSH2 0x1D4B PUSH2 0x1D43 DUP3 PUSH2 0x1D25 JUMP JUMPDEST DUP5 DUP5 SLOAD PUSH2 0x1CAA JUMP JUMPDEST DUP3 SSTORE POP POP POP POP JUMP JUMPDEST PUSH0 PUSH0 SWAP1 POP SWAP1 JUMP JUMPDEST PUSH2 0x1D62 PUSH2 0x1D53 JUMP JUMPDEST PUSH2 0x1D6D DUP2 DUP5 DUP5 PUSH2 0x1D2E JUMP JUMPDEST POP POP POP JUMP JUMPDEST JUMPDEST DUP2 DUP2 LT ISZERO PUSH2 0x1D90 JUMPI PUSH2 0x1D85 PUSH0 DUP3 PUSH2 0x1D5A JUMP JUMPDEST PUSH1 0x1 DUP2 ADD SWAP1 POP PUSH2 0x1D73 JUMP JUMPDEST POP POP JUMP JUMPDEST PUSH1 0x1F DUP3 GT ISZERO PUSH2 0x1DD5 JUMPI PUSH2 0x1DA6 DUP2 PUSH2 0x1C7D JUMP JUMPDEST PUSH2 0x1DAF DUP5 PUSH2 0x1C8F JUMP JUMPDEST DUP2 ADD PUSH1 0x20 DUP6 LT ISZERO PUSH2 0x1DBE JUMPI DUP2 SWAP1 POP JUMPDEST PUSH2 0x1DD2 PUSH2 0x1DCA DUP6 PUSH2 0x1C8F JUMP JUMPDEST DUP4 ADD DUP3 PUSH2 0x1D72 JUMP JUMPDEST POP POP JUMPDEST POP POP POP JUMP JUMPDEST PUSH0 DUP3 DUP3 SHR SWAP1 POP SWAP3 SWAP2 POP POP JUMP JUMPDEST PUSH0 PUSH2 0x1DF5 PUSH0 NOT DUP5 PUSH1 0x8 MUL PUSH2 0x1DDA JUMP JUMPDEST NOT DUP1 DUP4 AND SWAP2 POP POP SWAP3 SWAP2 POP POP JUMP JUMPDEST PUSH0 PUSH2 0x1E0D DUP4 DUP4 PUSH2 0x1DE6 JUMP JUMPDEST SWAP2 POP DUP3 PUSH1 0x2 MUL DUP3 OR SWAP1 POP SWAP3 SWAP2 POP POP JUMP JUMPDEST PUSH2 0x1E26 DUP3 PUSH2 0x1329 JUMP JUMPDEST PUSH8 0xFFFFFFFFFFFFFFFF DUP2 GT ISZERO PUSH2 0x1E3F JUMPI PUSH2 0x1E3E PUSH2 0x15F1 JUMP JUMPDEST JUMPDEST PUSH2 0x1E49 DUP3 SLOAD PUSH2 0x1860 JUMP JUMPDEST PUSH2 0x1E54 DUP3 DUP3 DUP6 PUSH2 0x1D94 JUMP JUMPDEST PUSH0 PUSH1 0x20 SWAP1 POP PUSH1 0x1F DUP4 GT PUSH1 0x1 DUP2 EQ PUSH2 0x1E85 JUMPI PUSH0 DUP5 ISZERO PUSH2 0x1E73 JUMPI DUP3 DUP8 ADD MLOAD SWAP1 POP JUMPDEST PUSH2 0x1E7D DUP6 DUP3 PUSH2 0x1E02 JUMP JUMPDEST DUP7 SSTORE POP PUSH2 0x1EE4 JUMP JUMPDEST PUSH1 0x1F NOT DUP5 AND PUSH2 0x1E93 DUP7 PUSH2 0x1C7D JUMP JUMPDEST PUSH0 JUMPDEST DUP3 DUP2 LT ISZERO PUSH2 0x1EBA JUMPI DUP5 DUP10 ADD MLOAD DUP3 SSTORE PUSH1 0x1 DUP3 ADD SWAP2 POP PUSH1 0x20 DUP6 ADD SWAP5 POP PUSH1 0x20 DUP2 ADD SWAP1 POP PUSH2 0x1E95 JUMP JUMPDEST DUP7 DUP4 LT ISZERO PUSH2 0x1ED7 JUMPI DUP5 DUP10 ADD MLOAD PUSH2 0x1ED3 PUSH1 0x1F DUP10 AND DUP3 PUSH2 0x1DE6 JUMP JUMPDEST DUP4 SSTORE POP JUMPDEST PUSH1 0x1 PUSH1 0x2 DUP9 MUL ADD DUP9 SSTORE POP POP POP JUMPDEST POP POP POP POP POP POP JUMP JUMPDEST PUSH0 PUSH1 0x80 DUP3 ADD SWAP1 POP PUSH2 0x1EFF PUSH0 DUP4 ADD DUP8 PUSH2 0x130B JUMP JUMPDEST PUSH2 0x1F0C PUSH1 0x20 DUP4 ADD DUP7 PUSH2 0x131A JUMP JUMPDEST DUP2 DUP2 SUB PUSH1 0x40 DUP4 ADD MSTORE PUSH2 0x1F1E DUP2 DUP6 PUSH2 0x1361 JUMP JUMPDEST SWAP1 POP PUSH2 0x1F2D PUSH1 0x60 DUP4 ADD DUP5 PUSH2 0x130B JUMP JUMPDEST SWAP6 SWAP5 POP POP POP POP POP JUMP JUMPDEST PUSH0 PUSH2 0x1F40 DUP3 PUSH2 0x129A JUMP JUMPDEST SWAP2 POP PUSH2 0x1F4B DUP4 PUSH2 0x129A JUMP JUMPDEST SWAP3 POP DUP3 DUP3 ADD SWAP1 POP DUP1 DUP3 GT ISZERO PUSH2 0x1F63 JUMPI PUSH2 0x1F62 PUSH2 0x1B37 JUMP JUMPDEST JUMPDEST SWAP3 SWAP2 POP POP JUMP INVALID LOG2 PUSH5 0x6970667358 0x22 SLT KECCAK256 0xBC PUSH15 0x9CFE6D0768F4B3AB0507EA7BEBCF3A SSTORE 0xC8 0xA7 KECCAK256 OR SWAP1 DUP13 SLT BLOBHASH SGT CALLF 0x56F1 0xCC 0xCC PUSH5 0x736F6C6343 STOP ADDMOD 0x1E STOP CALLER "
				},
				"gasEstimates": {
					"creation": {
						"codeDepositCost": "1619000",
						"executionCost": "infinite",
						"totalCost": "infinite"
					},
					"external": {
						"MAX_TWEET_LENGTH()": "2514",
						"changeTweetLength(uint256)": "infinite",
						"createTweet(string)": "infinite",
						"getAllTweets(address)": "infinite",
						"getTotalLikes(address)": "infinite",
						"getTweet(uint256)": "infinite",
						"likeTweet(address,uint256)": "infinite",
						"owner()": "2580",
						"renounceOwnership()": "infinite",
						"transferOwnership(address)": "infinite",
						"tweets(address,uint256)": "infinite",
						"unlikeTweet(address,uint256)": "infinite"
					}
				},
				"methodIdentifiers": {
					"MAX_TWEET_LENGTH()": "6eb10797",
					"changeTweetLength(uint256)": "888a7880",
					"createTweet(string)": "7c9cd2bc",
					"getAllTweets(address)": "12e7ee1c",
					"getTotalLikes(address)": "820785cc",
					"getTweet(uint256)": "c3ad5ecb",
					"likeTweet(address,uint256)": "63378216",
					"owner()": "8da5cb5b",
					"renounceOwnership()": "715018a6",
					"transferOwnership(address)": "f2fde38b",
					"tweets(address,uint256)": "05a1b4a9",
					"unlikeTweet(address,uint256)": "3d9b569f"
				}
			},
			"storageLayout": {
				"storage": [
					{
						"astId": 8,
						"contract": "Twitter.sol:Twitter",
						"label": "_owner",
						"offset": 0,
						"slot": "0",
						"type": "t_address"
					},
					{
						"astId": 199,
						"contract": "Twitter.sol:Twitter",
						"label": "MAX_TWEET_LENGTH",
						"offset": 0,
						"slot": "1",
						"type": "t_uint256"
					},
					{
						"astId": 216,
						"contract": "Twitter.sol:Twitter",
						"label": "tweets",
						"offset": 0,
						"slot": "2",
						"type": "t_mapping(t_address,t_array(t_struct(Tweet)210_storage)dyn_storage)"
					},
					{
						"astId": 219,
						"contract": "Twitter.sol:Twitter",
						"label": "profileContract",
						"offset": 0,
						"slot": "3",
						"type": "t_contract(IProfile)194"
					}
				],
				"types": {
					"t_address": {
						"encoding": "inplace",
						"label": "address",
						"numberOfBytes": "20"
					},
					"t_array(t_struct(Tweet)210_storage)dyn_storage": {
						"base": "t_struct(Tweet)210_storage",
						"encoding": "dynamic_array",
						"label": "struct Twitter.Tweet[]",
						"numberOfBytes": "32"
					},
					"t_contract(IProfile)194": {
						"encoding": "inplace",
						"label": "contract IProfile",
						"numberOfBytes": "20"
					},
					"t_mapping(t_address,t_array(t_struct(Tweet)210_storage)dyn_storage)": {
						"encoding": "mapping",
						"key": "t_address",
						"label": "mapping(address => struct Twitter.Tweet[])",
						"numberOfBytes": "32",
						"value": "t_array(t_struct(Tweet)210_storage)dyn_storage"
					},
					"t_string_storage": {
						"encoding": "bytes",
						"label": "string",
						"numberOfBytes": "32"
					},
					"t_struct(Tweet)210_storage": {
						"encoding": "inplace",
						"label": "struct Twitter.Tweet",
						"members": [
							{
								"astId": 201,
								"contract": "Twitter.sol:Twitter",
								"label": "id",
								"offset": 0,
								"slot": "0",
								"type": "t_uint256"
							},
							{
								"astId": 203,
								"contract": "Twitter.sol:Twitter",
								"label": "author",
								"offset": 0,
								"slot": "1",
								"type": "t_address"
							},
							{
								"astId": 205,
								"contract": "Twitter.sol:Twitter",
								"label": "content",
								"offset": 0,
								"slot": "2",
								"type": "t_string_storage"
							},
							{
								"astId": 207,
								"contract": "Twitter.sol:Twitter",
								"label": "timeStamp",
								"offset": 0,
								"slot": "3",
								"type": "t_uint256"
							},
							{
								"astId": 209,
								"contract": "Twitter.sol:Twitter",
								"label": "likes",
								"offset": 0,
								"slot": "4",
								"type": "t_uint256"
							}
						],
						"numberOfBytes": "160"
					},
					"t_uint256": {
						"encoding": "inplace",
						"label": "uint256",
						"numberOfBytes": "32"
					}
				}
			},
			"userdoc": {
				"kind": "user",
				"methods": {},
				"version": 1
			}
		}
	}
}