{
	"Twitter.sol": {
		"Twitter": {
			"abi": [
				{
					"inputs": [],
					"stateMutability": "nonpayable",
					"type": "constructor"
				},
				{
					"anonymous": false,
					"inputs": [
						{
							"indexed": false,
							"internalType": "uint256",
							"name": "id",
							"type": "uint256"
						},
						{
							"indexed": false,
							"internalType": "address",
							"name": "author",
							"type": "address"
						},
						{
							"indexed": false,
							"internalType": "string",
							"name": "content",
							"type": "string"
						},
						{
							"indexed": false,
							"internalType": "uint256",
							"name": "timestamp",
							"type": "uint256"
						}
					],
					"name": "TweetCreated",
					"type": "event"
				},
				{
					"anonymous": false,
					"inputs": [
						{
							"indexed": false,
							"internalType": "address",
							"name": "liker",
							"type": "address"
						},
						{
							"indexed": false,
							"internalType": "address",
							"name": "tweetAuthor",
							"type": "address"
						},
						{
							"indexed": false,
							"internalType": "uint256",
							"name": "tweetId",
							"type": "uint256"
						},
						{
							"indexed": false,
							"internalType": "uint256",
							"name": "newLikeCount",
							"type": "uint256"
						}
					],
					"name": "TweetLiked",
					"type": "event"
				},
				{
					"anonymous": false,
					"inputs": [
						{
							"indexed": false,
							"internalType": "address",
							"name": "unliker",
							"type": "address"
						},
						{
							"indexed": false,
							"internalType": "address",
							"name": "tweetAuthor",
							"type": "address"
						},
						{
							"indexed": false,
							"internalType": "uint256",
							"name": "tweetId",
							"type": "uint256"
						},
						{
							"indexed": false,
							"internalType": "uint256",
							"name": "newLikeCount",
							"type": "uint256"
						}
					],
					"name": "TweetUnliked",
					"type": "event"
				},
				{
					"inputs": [],
					"name": "MAX_TWEET_LENGTH",
					"outputs": [
						{
							"internalType": "uint256",
							"name": "",
							"type": "uint256"
						}
					],
					"stateMutability": "view",
					"type": "function"
				},
				{
					"inputs": [
						{
							"internalType": "uint256",
							"name": "newTweetLength",
							"type": "uint256"
						}
					],
					"name": "changeTweetLength",
					"outputs": [],
					"stateMutability": "nonpayable",
					"type": "function"
				},
				{
					"inputs": [
						{
							"internalType": "string",
							"name": "_tweet",
							"type": "string"
						}
					],
					"name": "createTweet",
					"outputs": [],
					"stateMutability": "nonpayable",
					"type": "function"
				},
				{
					"inputs": [
						{
							"internalType": "address",
							"name": "_owner",
							"type": "address"
						}
					],
					"name": "getAllTweets",
					"outputs": [
						{
							"components": [
								{
									"internalType": "uint256",
									"name": "id",
									"type": "uint256"
								},
								{
									"internalType": "address",
									"name": "author",
									"type": "address"
								},
								{
									"internalType": "string",
									"name": "content",
									"type": "string"
								},
								{
									"internalType": "uint256",
									"name": "timeStamp",
									"type": "uint256"
								},
								{
									"internalType": "uint256",
									"name": "likes",
									"type": "uint256"
								}
							],
							"internalType": "struct Twitter.Tweet[]",
							"name": "",
							"type": "tuple[]"
						}
					],
					"stateMutability": "view",
					"type": "function"
				},
				{
					"inputs": [
						{
							"internalType": "address",
							"name": "_author",
							"type": "address"
						}
					],
					"name": "getTotalLikes",
					"outputs": [
						{
							"internalType": "uint256",
							"name": "",
							"type": "uint256"
						}
					],
					"stateMutability": "view",
					"type": "function"
				},
				{
					"inputs": [
						{
							"internalType": "uint256",
							"name": "_i",
							"type": "uint256"
						}
					],
					"name": "getTweet",
					"outputs": [
						{
							"components": [
								{
									"internalType": "uint256",
									"name": "id",
									"type": "uint256"
								},
								{
									"internalType": "address",
									"name": "author",
									"type": "address"
								},
								{
									"internalType": "string",
									"name": "content",
									"type": "string"
								},
								{
									"internalType": "uint256",
									"name": "timeStamp",
									"type": "uint256"
								},
								{
									"internalType": "uint256",
									"name": "likes",
									"type": "uint256"
								}
							],
							"internalType": "struct Twitter.Tweet",
							"name": "",
							"type": "tuple"
						}
					],
					"stateMutability": "view",
					"type": "function"
				},
				{
					"inputs": [
						{
							"internalType": "address",
							"name": "author",
							"type": "address"
						},
						{
							"internalType": "uint256",
							"name": "id",
							"type": "uint256"
						}
					],
					"name": "likeTweet",
					"outputs": [],
					"stateMutability": "nonpayable",
					"type": "function"
				},
				{
					"inputs": [],
					"name": "owner",
					"outputs": [
						{
							"internalType": "address",
							"name": "",
							"type": "address"
						}
					],
					"stateMutability": "view",
					"type": "function"
				},
				{
					"inputs": [
						{
							"internalType": "address",
							"name": "",
							"type": "address"
						},
						{
							"internalType": "uint256",
							"name": "",
							"type": "uint256"
						}
					],
					"name": "tweets",
					"outputs": [
						{
							"internalType": "uint256",
							"name": "id",
							"type": "uint256"
						},
						{
							"internalType": "address",
							"name": "author",
							"type": "address"
						},
						{
							"internalType": "string",
							"name": "content",
							"type": "string"
						},
						{
							"internalType": "uint256",
							"name": "timeStamp",
							"type": "uint256"
						},
						{
							"internalType": "uint256",
							"name": "likes",
							"type": "uint256"
						}
					],
					"stateMutability": "view",
					"type": "function"
				},
				{
					"inputs": [
						{
							"internalType": "address",
							"name": "author",
							"type": "address"
						},
						{
							"internalType": "uint256",
							"name": "id",
							"type": "uint256"
						}
					],
					"name": "unlikeTweet",
					"outputs": [],
					"stateMutability": "nonpayable",
					"type": "function"
				}
			],
			"devdoc": {
				"kind": "dev",
				"methods": {},
				"version": 1
			},
			"evm": {
				"assembly": "    /* \"Twitter.sol\":60:2548  contract Twitter{... */\n  mstore(0x40, 0x80)\n    /* \"Twitter.sol\":119:122  280 */\n  0x0118\n    /* \"Twitter.sol\":85:122  uint256 public MAX_TWEET_LENGTH = 280 */\n  0x00\n  sstore\n    /* \"Twitter.sol\":361:409  constructor(){... */\n  callvalue\n  dup1\n  iszero\n  tag_1\n  jumpi\n  revert(0x00, 0x00)\ntag_1:\n  pop\n    /* \"Twitter.sol\":391:401  msg.sender */\n  caller\n    /* \"Twitter.sol\":385:390  owner */\n  0x02\n  0x00\n    /* \"Twitter.sol\":385:401  owner=msg.sender */\n  0x0100\n  exp\n  dup2\n  sload\n  dup2\n  0xffffffffffffffffffffffffffffffffffffffff\n  mul\n  not\n  and\n  swap1\n  dup4\n  0xffffffffffffffffffffffffffffffffffffffff\n  and\n  mul\n  or\n  swap1\n  sstore\n  pop\n    /* \"Twitter.sol\":60:2548  contract Twitter{... */\n  dataSize(sub_0)\n  dup1\n  dataOffset(sub_0)\n  0x00\n  codecopy\n  0x00\n  return\nstop\n\nsub_0: assembly {\n        /* \"Twitter.sol\":60:2548  contract Twitter{... */\n      mstore(0x40, 0x80)\n      callvalue\n      dup1\n      iszero\n      tag_1\n      jumpi\n      revert(0x00, 0x00)\n    tag_1:\n      pop\n      jumpi(tag_2, lt(calldatasize, 0x04))\n      shr(0xe0, calldataload(0x00))\n      dup1\n      0x7c9cd2bc\n      gt\n      tag_13\n      jumpi\n      dup1\n      0x7c9cd2bc\n      eq\n      tag_8\n      jumpi\n      dup1\n      0x820785cc\n      eq\n      tag_9\n      jumpi\n      dup1\n      0x888a7880\n      eq\n      tag_10\n      jumpi\n      dup1\n      0x8da5cb5b\n      eq\n      tag_11\n      jumpi\n      dup1\n      0xc3ad5ecb\n      eq\n      tag_12\n      jumpi\n      jump(tag_2)\n    tag_13:\n      dup1\n      0x05a1b4a9\n      eq\n      tag_3\n      jumpi\n      dup1\n      0x12e7ee1c\n      eq\n      tag_4\n      jumpi\n      dup1\n      0x3d9b569f\n      eq\n      tag_5\n      jumpi\n      dup1\n      0x63378216\n      eq\n      tag_6\n      jumpi\n      dup1\n      0x6eb10797\n      eq\n      tag_7\n      jumpi\n    tag_2:\n      revert(0x00, 0x00)\n        /* \"Twitter.sol\":282:323  mapping(address => Tweet[]) public tweets */\n    tag_3:\n      tag_14\n      0x04\n      dup1\n      calldatasize\n      sub\n      dup2\n      add\n      swap1\n      tag_15\n      swap2\n      swap1\n      tag_16\n      jump\t// in\n    tag_15:\n      tag_17\n      jump\t// in\n    tag_14:\n      mload(0x40)\n      tag_18\n      swap6\n      swap5\n      swap4\n      swap3\n      swap2\n      swap1\n      tag_19\n      jump\t// in\n    tag_18:\n      mload(0x40)\n      dup1\n      swap2\n      sub\n      swap1\n      return\n        /* \"Twitter.sol\":2171:2285  function getAllTweets(address _owner) public view returns (Tweet[] memory){... */\n    tag_4:\n      tag_20\n      0x04\n      dup1\n      calldatasize\n      sub\n      dup2\n      add\n      swap1\n      tag_21\n      swap2\n      swap1\n      tag_22\n      jump\t// in\n    tag_21:\n      tag_23\n      jump\t// in\n    tag_20:\n      mload(0x40)\n      tag_24\n      swap2\n      swap1\n      tag_25\n      jump\t// in\n    tag_24:\n      mload(0x40)\n      dup1\n      swap2\n      sub\n      swap1\n      return\n        /* \"Twitter.sol\":1727:2046  function unlikeTweet(address author, uint256 id) external {... */\n    tag_5:\n      tag_26\n      0x04\n      dup1\n      calldatasize\n      sub\n      dup2\n      add\n      swap1\n      tag_27\n      swap2\n      swap1\n      tag_16\n      jump\t// in\n    tag_27:\n      tag_28\n      jump\t// in\n    tag_26:\n      stop\n        /* \"Twitter.sol\":1368:1615  function likeTweet(address author, uint256 id) external{... */\n    tag_6:\n      tag_29\n      0x04\n      dup1\n      calldatasize\n      sub\n      dup2\n      add\n      swap1\n      tag_30\n      swap2\n      swap1\n      tag_16\n      jump\t// in\n    tag_30:\n      tag_31\n      jump\t// in\n    tag_29:\n      stop\n        /* \"Twitter.sol\":85:122  uint256 public MAX_TWEET_LENGTH = 280 */\n    tag_7:\n      tag_32\n      tag_33\n      jump\t// in\n    tag_32:\n      mload(0x40)\n      tag_34\n      swap2\n      swap1\n      tag_35\n      jump\t// in\n    tag_34:\n      mload(0x40)\n      dup1\n      swap2\n      sub\n      swap1\n      return\n        /* \"Twitter.sol\":748:1260  function createTweet(string memory _tweet) public{... */\n    tag_8:\n      tag_36\n      0x04\n      dup1\n      calldatasize\n      sub\n      dup2\n      add\n      swap1\n      tag_37\n      swap2\n      swap1\n      tag_38\n      jump\t// in\n    tag_37:\n      tag_39\n      jump\t// in\n    tag_36:\n      stop\n        /* \"Twitter.sol\":2293:2545  function getTotalLikes(address _author) external view returns(uint256){... */\n    tag_9:\n      tag_40\n      0x04\n      dup1\n      calldatasize\n      sub\n      dup2\n      add\n      swap1\n      tag_41\n      swap2\n      swap1\n      tag_22\n      jump\t// in\n    tag_41:\n      tag_42\n      jump\t// in\n    tag_40:\n      mload(0x40)\n      tag_43\n      swap2\n      swap1\n      tag_35\n      jump\t// in\n    tag_43:\n      mload(0x40)\n      dup1\n      swap2\n      sub\n      swap1\n      return\n        /* \"Twitter.sol\":531:650  function changeTweetLength(uint256 newTweetLength) public onlyOwner{... */\n    tag_10:\n      tag_44\n      0x04\n      dup1\n      calldatasize\n      sub\n      dup2\n      add\n      swap1\n      tag_45\n      swap2\n      swap1\n      tag_46\n      jump\t// in\n    tag_45:\n      tag_47\n      jump\t// in\n    tag_44:\n      stop\n        /* \"Twitter.sol\":332:352  address public owner */\n    tag_11:\n      tag_48\n      tag_49\n      jump\t// in\n    tag_48:\n      mload(0x40)\n      tag_50\n      swap2\n      swap1\n      tag_51\n      jump\t// in\n    tag_50:\n      mload(0x40)\n      dup1\n      swap2\n      sub\n      swap1\n      return\n        /* \"Twitter.sol\":2054:2163  function getTweet(uint _i) public view returns (Tweet memory){... */\n    tag_12:\n      tag_52\n      0x04\n      dup1\n      calldatasize\n      sub\n      dup2\n      add\n      swap1\n      tag_53\n      swap2\n      swap1\n      tag_46\n      jump\t// in\n    tag_53:\n      tag_54\n      jump\t// in\n    tag_52:\n      mload(0x40)\n      tag_55\n      swap2\n      swap1\n      tag_56\n      jump\t// in\n    tag_55:\n      mload(0x40)\n      dup1\n      swap2\n      sub\n      swap1\n      return\n        /* \"Twitter.sol\":282:323  mapping(address => Tweet[]) public tweets */\n    tag_17:\n      mstore(0x20, 0x01)\n      dup2\n      0x00\n      mstore\n      keccak256(0x00, 0x40)\n      dup2\n      dup2\n      sload\n      dup2\n      lt\n      tag_57\n      jumpi\n      0x00\n      dup1\n      revert\n    tag_57:\n      swap1\n      0x00\n      mstore\n      keccak256(0x00, 0x20)\n      swap1\n      0x05\n      mul\n      add\n      0x00\n      swap2\n      pop\n      swap2\n      pop\n      pop\n      dup1\n      0x00\n      add\n      sload\n      swap1\n      dup1\n      0x01\n      add\n      0x00\n      swap1\n      sload\n      swap1\n      0x0100\n      exp\n      swap1\n      div\n      0xffffffffffffffffffffffffffffffffffffffff\n      and\n      swap1\n      dup1\n      0x02\n      add\n      dup1\n      sload\n      tag_59\n      swap1\n      tag_60\n      jump\t// in\n    tag_59:\n      dup1\n      0x1f\n      add\n      0x20\n      dup1\n      swap2\n      div\n      mul\n      0x20\n      add\n      mload(0x40)\n      swap1\n      dup2\n      add\n      0x40\n      mstore\n      dup1\n      swap3\n      swap2\n      swap1\n      dup2\n      dup2\n      mstore\n      0x20\n      add\n      dup3\n      dup1\n      sload\n      tag_61\n      swap1\n      tag_60\n      jump\t// in\n    tag_61:\n      dup1\n      iszero\n      tag_62\n      jumpi\n      dup1\n      0x1f\n      lt\n      tag_63\n      jumpi\n      0x0100\n      dup1\n      dup4\n      sload\n      div\n      mul\n      dup4\n      mstore\n      swap2\n      0x20\n      add\n      swap2\n      jump(tag_62)\n    tag_63:\n      dup3\n      add\n      swap2\n      swap1\n      0x00\n      mstore\n      keccak256(0x00, 0x20)\n      swap1\n    tag_64:\n      dup2\n      sload\n      dup2\n      mstore\n      swap1\n      0x01\n      add\n      swap1\n      0x20\n      add\n      dup1\n      dup4\n      gt\n      tag_64\n      jumpi\n      dup3\n      swap1\n      sub\n      0x1f\n      and\n      dup3\n      add\n      swap2\n    tag_62:\n      pop\n      pop\n      pop\n      pop\n      pop\n      swap1\n      dup1\n      0x03\n      add\n      sload\n      swap1\n      dup1\n      0x04\n      add\n      sload\n      swap1\n      pop\n      dup6\n      jump\t// out\n        /* \"Twitter.sol\":2171:2285  function getAllTweets(address _owner) public view returns (Tweet[] memory){... */\n    tag_23:\n        /* \"Twitter.sol\":2230:2244  Tweet[] memory */\n      0x60\n        /* \"Twitter.sol\":2263:2269  tweets */\n      0x01\n        /* \"Twitter.sol\":2263:2277  tweets[_owner] */\n      0x00\n        /* \"Twitter.sol\":2270:2276  _owner */\n      dup4\n        /* \"Twitter.sol\":2263:2277  tweets[_owner] */\n      0xffffffffffffffffffffffffffffffffffffffff\n      and\n      0xffffffffffffffffffffffffffffffffffffffff\n      and\n      dup2\n      mstore\n      0x20\n      add\n      swap1\n      dup2\n      mstore\n      0x20\n      add\n      0x00\n      keccak256\n        /* \"Twitter.sol\":2256:2277  return tweets[_owner] */\n      dup1\n      sload\n      dup1\n      0x20\n      mul\n      0x20\n      add\n      mload(0x40)\n      swap1\n      dup2\n      add\n      0x40\n      mstore\n      dup1\n      swap3\n      swap2\n      swap1\n      dup2\n      dup2\n      mstore\n      0x20\n      add\n      0x00\n      swap1\n    tag_66:\n      dup3\n      dup3\n      lt\n      iszero\n      tag_67\n      jumpi\n      dup4\n      dup3\n      swap1\n      0x00\n      mstore\n      keccak256(0x00, 0x20)\n      swap1\n      0x05\n      mul\n      add\n      mload(0x40)\n      dup1\n      0xa0\n      add\n      0x40\n      mstore\n      swap1\n      dup2\n      0x00\n      dup3\n      add\n      sload\n      dup2\n      mstore\n      0x20\n      add\n      0x01\n      dup3\n      add\n      0x00\n      swap1\n      sload\n      swap1\n      0x0100\n      exp\n      swap1\n      div\n      0xffffffffffffffffffffffffffffffffffffffff\n      and\n      0xffffffffffffffffffffffffffffffffffffffff\n      and\n      0xffffffffffffffffffffffffffffffffffffffff\n      and\n      dup2\n      mstore\n      0x20\n      add\n      0x02\n      dup3\n      add\n      dup1\n      sload\n      tag_69\n      swap1\n      tag_60\n      jump\t// in\n    tag_69:\n      dup1\n      0x1f\n      add\n      0x20\n      dup1\n      swap2\n      div\n      mul\n      0x20\n      add\n      mload(0x40)\n      swap1\n      dup2\n      add\n      0x40\n      mstore\n      dup1\n      swap3\n      swap2\n      swap1\n      dup2\n      dup2\n      mstore\n      0x20\n      add\n      dup3\n      dup1\n      sload\n      tag_70\n      swap1\n      tag_60\n      jump\t// in\n    tag_70:\n      dup1\n      iszero\n      tag_71\n      jumpi\n      dup1\n      0x1f\n      lt\n      tag_72\n      jumpi\n      0x0100\n      dup1\n      dup4\n      sload\n      div\n      mul\n      dup4\n      mstore\n      swap2\n      0x20\n      add\n      swap2\n      jump(tag_71)\n    tag_72:\n      dup3\n      add\n      swap2\n      swap1\n      0x00\n      mstore\n      keccak256(0x00, 0x20)\n      swap1\n    tag_73:\n      dup2\n      sload\n      dup2\n      mstore\n      swap1\n      0x01\n      add\n      swap1\n      0x20\n      add\n      dup1\n      dup4\n      gt\n      tag_73\n      jumpi\n      dup3\n      swap1\n      sub\n      0x1f\n      and\n      dup3\n      add\n      swap2\n    tag_71:\n      pop\n      pop\n      pop\n      pop\n      pop\n      dup2\n      mstore\n      0x20\n      add\n      0x03\n      dup3\n      add\n      sload\n      dup2\n      mstore\n      0x20\n      add\n      0x04\n      dup3\n      add\n      sload\n      dup2\n      mstore\n      pop\n      pop\n      dup2\n      mstore\n      0x20\n      add\n      swap1\n      0x01\n      add\n      swap1\n      jump(tag_66)\n    tag_67:\n      pop\n      pop\n      pop\n      pop\n      swap1\n      pop\n        /* \"Twitter.sol\":2171:2285  function getAllTweets(address _owner) public view returns (Tweet[] memory){... */\n      swap2\n      swap1\n      pop\n      jump\t// out\n        /* \"Twitter.sol\":1727:2046  function unlikeTweet(address author, uint256 id) external {... */\n    tag_28:\n        /* \"Twitter.sol\":1829:1831  id */\n      dup1\n        /* \"Twitter.sol\":1804:1810  tweets */\n      0x01\n        /* \"Twitter.sol\":1804:1818  tweets[author] */\n      0x00\n        /* \"Twitter.sol\":1811:1817  author */\n      dup5\n        /* \"Twitter.sol\":1804:1818  tweets[author] */\n      0xffffffffffffffffffffffffffffffffffffffff\n      and\n      0xffffffffffffffffffffffffffffffffffffffff\n      and\n      dup2\n      mstore\n      0x20\n      add\n      swap1\n      dup2\n      mstore\n      0x20\n      add\n      0x00\n      keccak256\n        /* \"Twitter.sol\":1819:1821  id */\n      dup3\n        /* \"Twitter.sol\":1804:1822  tweets[author][id] */\n      dup2\n      sload\n      dup2\n      lt\n      tag_75\n      jumpi\n      tag_76\n      tag_77\n      jump\t// in\n    tag_76:\n    tag_75:\n      swap1\n      0x00\n      mstore\n      keccak256(0x00, 0x20)\n      swap1\n      0x05\n      mul\n      add\n        /* \"Twitter.sol\":1804:1825  tweets[author][id].id */\n      0x00\n      add\n      sload\n        /* \"Twitter.sol\":1804:1831  tweets[author][id].id == id */\n      eq\n        /* \"Twitter.sol\":1796:1854  require(tweets[author][id].id == id, \"Tweet doesnt exist\") */\n      tag_79\n      jumpi\n      mload(0x40)\n      0x08c379a000000000000000000000000000000000000000000000000000000000\n      dup2\n      mstore\n      0x04\n      add\n      tag_80\n      swap1\n      tag_81\n      jump\t// in\n    tag_80:\n      mload(0x40)\n      dup1\n      swap2\n      sub\n      swap1\n      revert\n    tag_79:\n        /* \"Twitter.sol\":1898:1899  0 */\n      0x00\n        /* \"Twitter.sol\":1873:1879  tweets */\n      0x01\n        /* \"Twitter.sol\":1873:1887  tweets[author] */\n      0x00\n        /* \"Twitter.sol\":1880:1886  author */\n      dup5\n        /* \"Twitter.sol\":1873:1887  tweets[author] */\n      0xffffffffffffffffffffffffffffffffffffffff\n      and\n      0xffffffffffffffffffffffffffffffffffffffff\n      and\n      dup2\n      mstore\n      0x20\n      add\n      swap1\n      dup2\n      mstore\n      0x20\n      add\n      0x00\n      keccak256\n        /* \"Twitter.sol\":1888:1890  id */\n      dup3\n        /* \"Twitter.sol\":1873:1891  tweets[author][id] */\n      dup2\n      sload\n      dup2\n      lt\n      tag_82\n      jumpi\n      tag_83\n      tag_77\n      jump\t// in\n    tag_83:\n    tag_82:\n      swap1\n      0x00\n      mstore\n      keccak256(0x00, 0x20)\n      swap1\n      0x05\n      mul\n      add\n        /* \"Twitter.sol\":1873:1897  tweets[author][id].likes */\n      0x04\n      add\n      sload\n        /* \"Twitter.sol\":1873:1899  tweets[author][id].likes>0 */\n      gt\n        /* \"Twitter.sol\":1865:1921  require(tweets[author][id].likes>0, \"Tweet has no like\") */\n      tag_85\n      jumpi\n      mload(0x40)\n      0x08c379a000000000000000000000000000000000000000000000000000000000\n      dup2\n      mstore\n      0x04\n      add\n      tag_86\n      swap1\n      tag_87\n      jump\t// in\n    tag_86:\n      mload(0x40)\n      dup1\n      swap2\n      sub\n      swap1\n      revert\n    tag_85:\n        /* \"Twitter.sol\":1932:1938  tweets */\n      0x01\n        /* \"Twitter.sol\":1932:1946  tweets[author] */\n      0x00\n        /* \"Twitter.sol\":1939:1945  author */\n      dup4\n        /* \"Twitter.sol\":1932:1946  tweets[author] */\n      0xffffffffffffffffffffffffffffffffffffffff\n      and\n      0xffffffffffffffffffffffffffffffffffffffff\n      and\n      dup2\n      mstore\n      0x20\n      add\n      swap1\n      dup2\n      mstore\n      0x20\n      add\n      0x00\n      keccak256\n        /* \"Twitter.sol\":1947:1949  id */\n      dup2\n        /* \"Twitter.sol\":1932:1950  tweets[author][id] */\n      dup2\n      sload\n      dup2\n      lt\n      tag_88\n      jumpi\n      tag_89\n      tag_77\n      jump\t// in\n    tag_89:\n    tag_88:\n      swap1\n      0x00\n      mstore\n      keccak256(0x00, 0x20)\n      swap1\n      0x05\n      mul\n      add\n        /* \"Twitter.sol\":1932:1956  tweets[author][id].likes */\n      0x04\n      add\n      0x00\n        /* \"Twitter.sol\":1932:1958  tweets[author][id].likes-- */\n      dup2\n      sload\n      dup1\n      swap3\n      swap2\n      swap1\n      tag_91\n      swap1\n      tag_92\n      jump\t// in\n    tag_91:\n      swap2\n      swap1\n      pop\n      sstore\n      pop\n        /* \"Twitter.sol\":1976:2038  TweetUnliked(msg.sender, author, id, tweets[author][id].likes) */\n      0x762c2616349603ac16eba0de8e6141b79129a07ab63bd99e0a80b3a471716943\n        /* \"Twitter.sol\":1989:1999  msg.sender */\n      caller\n        /* \"Twitter.sol\":2001:2007  author */\n      dup4\n        /* \"Twitter.sol\":2009:2011  id */\n      dup4\n        /* \"Twitter.sol\":2013:2019  tweets */\n      0x01\n        /* \"Twitter.sol\":2013:2027  tweets[author] */\n      0x00\n        /* \"Twitter.sol\":2020:2026  author */\n      dup8\n        /* \"Twitter.sol\":2013:2027  tweets[author] */\n      0xffffffffffffffffffffffffffffffffffffffff\n      and\n      0xffffffffffffffffffffffffffffffffffffffff\n      and\n      dup2\n      mstore\n      0x20\n      add\n      swap1\n      dup2\n      mstore\n      0x20\n      add\n      0x00\n      keccak256\n        /* \"Twitter.sol\":2028:2030  id */\n      dup6\n        /* \"Twitter.sol\":2013:2031  tweets[author][id] */\n      dup2\n      sload\n      dup2\n      lt\n      tag_93\n      jumpi\n      tag_94\n      tag_77\n      jump\t// in\n    tag_94:\n    tag_93:\n      swap1\n      0x00\n      mstore\n      keccak256(0x00, 0x20)\n      swap1\n      0x05\n      mul\n      add\n        /* \"Twitter.sol\":2013:2037  tweets[author][id].likes */\n      0x04\n      add\n      sload\n        /* \"Twitter.sol\":1976:2038  TweetUnliked(msg.sender, author, id, tweets[author][id].likes) */\n      mload(0x40)\n      tag_96\n      swap5\n      swap4\n      swap3\n      swap2\n      swap1\n      tag_97\n      jump\t// in\n    tag_96:\n      mload(0x40)\n      dup1\n      swap2\n      sub\n      swap1\n      log1\n        /* \"Twitter.sol\":1727:2046  function unlikeTweet(address author, uint256 id) external {... */\n      pop\n      pop\n      jump\t// out\n        /* \"Twitter.sol\":1368:1615  function likeTweet(address author, uint256 id) external{... */\n    tag_31:\n        /* \"Twitter.sol\":1467:1469  id */\n      dup1\n        /* \"Twitter.sol\":1442:1448  tweets */\n      0x01\n        /* \"Twitter.sol\":1442:1456  tweets[author] */\n      0x00\n        /* \"Twitter.sol\":1449:1455  author */\n      dup5\n        /* \"Twitter.sol\":1442:1456  tweets[author] */\n      0xffffffffffffffffffffffffffffffffffffffff\n      and\n      0xffffffffffffffffffffffffffffffffffffffff\n      and\n      dup2\n      mstore\n      0x20\n      add\n      swap1\n      dup2\n      mstore\n      0x20\n      add\n      0x00\n      keccak256\n        /* \"Twitter.sol\":1457:1459  id */\n      dup3\n        /* \"Twitter.sol\":1442:1460  tweets[author][id] */\n      dup2\n      sload\n      dup2\n      lt\n      tag_99\n      jumpi\n      tag_100\n      tag_77\n      jump\t// in\n    tag_100:\n    tag_99:\n      swap1\n      0x00\n      mstore\n      keccak256(0x00, 0x20)\n      swap1\n      0x05\n      mul\n      add\n        /* \"Twitter.sol\":1442:1463  tweets[author][id].id */\n      0x00\n      add\n      sload\n        /* \"Twitter.sol\":1442:1469  tweets[author][id].id == id */\n      eq\n        /* \"Twitter.sol\":1434:1492  require(tweets[author][id].id == id, \"Tweet doesnt exist\") */\n      tag_102\n      jumpi\n      mload(0x40)\n      0x08c379a000000000000000000000000000000000000000000000000000000000\n      dup2\n      mstore\n      0x04\n      add\n      tag_103\n      swap1\n      tag_81\n      jump\t// in\n    tag_103:\n      mload(0x40)\n      dup1\n      swap2\n      sub\n      swap1\n      revert\n    tag_102:\n        /* \"Twitter.sol\":1503:1509  tweets */\n      0x01\n        /* \"Twitter.sol\":1503:1517  tweets[author] */\n      0x00\n        /* \"Twitter.sol\":1510:1516  author */\n      dup4\n        /* \"Twitter.sol\":1503:1517  tweets[author] */\n      0xffffffffffffffffffffffffffffffffffffffff\n      and\n      0xffffffffffffffffffffffffffffffffffffffff\n      and\n      dup2\n      mstore\n      0x20\n      add\n      swap1\n      dup2\n      mstore\n      0x20\n      add\n      0x00\n      keccak256\n        /* \"Twitter.sol\":1518:1520  id */\n      dup2\n        /* \"Twitter.sol\":1503:1521  tweets[author][id] */\n      dup2\n      sload\n      dup2\n      lt\n      tag_104\n      jumpi\n      tag_105\n      tag_77\n      jump\t// in\n    tag_105:\n    tag_104:\n      swap1\n      0x00\n      mstore\n      keccak256(0x00, 0x20)\n      swap1\n      0x05\n      mul\n      add\n        /* \"Twitter.sol\":1503:1527  tweets[author][id].likes */\n      0x04\n      add\n      0x00\n        /* \"Twitter.sol\":1503:1529  tweets[author][id].likes++ */\n      dup2\n      sload\n      dup1\n      swap3\n      swap2\n      swap1\n      tag_107\n      swap1\n      tag_108\n      jump\t// in\n    tag_107:\n      swap2\n      swap1\n      pop\n      sstore\n      pop\n        /* \"Twitter.sol\":1547:1607  TweetLiked(msg.sender, author, id, tweets[author][id].likes) */\n      0xe8a76fc0f16d11a00d1e93b689b63d76cf60af914dd3d915375dc41d01a0c3c8\n        /* \"Twitter.sol\":1558:1568  msg.sender */\n      caller\n        /* \"Twitter.sol\":1570:1576  author */\n      dup4\n        /* \"Twitter.sol\":1578:1580  id */\n      dup4\n        /* \"Twitter.sol\":1582:1588  tweets */\n      0x01\n        /* \"Twitter.sol\":1582:1596  tweets[author] */\n      0x00\n        /* \"Twitter.sol\":1589:1595  author */\n      dup8\n        /* \"Twitter.sol\":1582:1596  tweets[author] */\n      0xffffffffffffffffffffffffffffffffffffffff\n      and\n      0xffffffffffffffffffffffffffffffffffffffff\n      and\n      dup2\n      mstore\n      0x20\n      add\n      swap1\n      dup2\n      mstore\n      0x20\n      add\n      0x00\n      keccak256\n        /* \"Twitter.sol\":1597:1599  id */\n      dup6\n        /* \"Twitter.sol\":1582:1600  tweets[author][id] */\n      dup2\n      sload\n      dup2\n      lt\n      tag_109\n      jumpi\n      tag_110\n      tag_77\n      jump\t// in\n    tag_110:\n    tag_109:\n      swap1\n      0x00\n      mstore\n      keccak256(0x00, 0x20)\n      swap1\n      0x05\n      mul\n      add\n        /* \"Twitter.sol\":1582:1606  tweets[author][id].likes */\n      0x04\n      add\n      sload\n        /* \"Twitter.sol\":1547:1607  TweetLiked(msg.sender, author, id, tweets[author][id].likes) */\n      mload(0x40)\n      tag_112\n      swap5\n      swap4\n      swap3\n      swap2\n      swap1\n      tag_97\n      jump\t// in\n    tag_112:\n      mload(0x40)\n      dup1\n      swap2\n      sub\n      swap1\n      log1\n        /* \"Twitter.sol\":1368:1615  function likeTweet(address author, uint256 id) external{... */\n      pop\n      pop\n      jump\t// out\n        /* \"Twitter.sol\":85:122  uint256 public MAX_TWEET_LENGTH = 280 */\n    tag_33:\n      sload(0x00)\n      dup2\n      jump\t// out\n        /* \"Twitter.sol\":748:1260  function createTweet(string memory _tweet) public{... */\n    tag_39:\n        /* \"Twitter.sol\":842:858  MAX_TWEET_LENGTH */\n      sload(0x00)\n        /* \"Twitter.sol\":824:830  _tweet */\n      dup2\n        /* \"Twitter.sol\":818:838  bytes(_tweet).length */\n      mload\n        /* \"Twitter.sol\":818:858  bytes(_tweet).length <= MAX_TWEET_LENGTH */\n      gt\n      iszero\n        /* \"Twitter.sol\":810:882  require(bytes(_tweet).length <= MAX_TWEET_LENGTH, \"Tweet too long bruh\") */\n      tag_114\n      jumpi\n      mload(0x40)\n      0x08c379a000000000000000000000000000000000000000000000000000000000\n      dup2\n      mstore\n      0x04\n      add\n      tag_115\n      swap1\n      tag_116\n      jump\t// in\n    tag_115:\n      mload(0x40)\n      dup1\n      swap2\n      sub\n      swap1\n      revert\n    tag_114:\n        /* \"Twitter.sol\":895:916  Tweet memory newTweet */\n      0x00\n        /* \"Twitter.sol\":919:1108  Tweet({... */\n      mload(0x40)\n      dup1\n      0xa0\n      add\n      0x40\n      mstore\n      dup1\n        /* \"Twitter.sol\":944:950  tweets */\n      0x01\n        /* \"Twitter.sol\":944:962  tweets[msg.sender] */\n      0x00\n        /* \"Twitter.sol\":951:961  msg.sender */\n      caller\n        /* \"Twitter.sol\":944:962  tweets[msg.sender] */\n      0xffffffffffffffffffffffffffffffffffffffff\n      and\n      0xffffffffffffffffffffffffffffffffffffffff\n      and\n      dup2\n      mstore\n      0x20\n      add\n      swap1\n      dup2\n      mstore\n      0x20\n      add\n      0x00\n      keccak256\n        /* \"Twitter.sol\":944:969  tweets[msg.sender].length */\n      dup1\n      sload\n      swap1\n      pop\n        /* \"Twitter.sol\":919:1108  Tweet({... */\n      dup2\n      mstore\n      0x20\n      add\n        /* \"Twitter.sol\":992:1002  msg.sender */\n      caller\n        /* \"Twitter.sol\":919:1108  Tweet({... */\n      0xffffffffffffffffffffffffffffffffffffffff\n      and\n      dup2\n      mstore\n      0x20\n      add\n        /* \"Twitter.sol\":1026:1032  _tweet */\n      dup4\n        /* \"Twitter.sol\":919:1108  Tweet({... */\n      dup2\n      mstore\n      0x20\n      add\n        /* \"Twitter.sol\":1058:1073  block.timestamp */\n      timestamp\n        /* \"Twitter.sol\":919:1108  Tweet({... */\n      dup2\n      mstore\n      0x20\n      add\n        /* \"Twitter.sol\":1095:1096  0 */\n      0x00\n        /* \"Twitter.sol\":919:1108  Tweet({... */\n      dup2\n      mstore\n      pop\n        /* \"Twitter.sol\":895:1108  Tweet memory newTweet = Tweet({... */\n      swap1\n      pop\n        /* \"Twitter.sol\":1121:1127  tweets */\n      0x01\n        /* \"Twitter.sol\":1121:1139  tweets[msg.sender] */\n      0x00\n        /* \"Twitter.sol\":1128:1138  msg.sender */\n      caller\n        /* \"Twitter.sol\":1121:1139  tweets[msg.sender] */\n      0xffffffffffffffffffffffffffffffffffffffff\n      and\n      0xffffffffffffffffffffffffffffffffffffffff\n      and\n      dup2\n      mstore\n      0x20\n      add\n      swap1\n      dup2\n      mstore\n      0x20\n      add\n      0x00\n      keccak256\n        /* \"Twitter.sol\":1145:1153  newTweet */\n      dup2\n        /* \"Twitter.sol\":1121:1154  tweets[msg.sender].push(newTweet) */\n      swap1\n      dup1\n      0x01\n      dup2\n      sload\n      add\n      dup1\n      dup3\n      sstore\n      dup1\n      swap2\n      pop\n      pop\n      0x01\n      swap1\n      sub\n      swap1\n      0x00\n      mstore\n      keccak256(0x00, 0x20)\n      swap1\n      0x05\n      mul\n      add\n      0x00\n      swap1\n      swap2\n      swap1\n      swap2\n      swap1\n      swap2\n      pop\n      0x00\n      dup3\n      add\n      mload\n      dup2\n      0x00\n      add\n      sstore\n      0x20\n      dup3\n      add\n      mload\n      dup2\n      0x01\n      add\n      exp(0x0100, 0x00)\n      dup2\n      sload\n      dup2\n      0xffffffffffffffffffffffffffffffffffffffff\n      mul\n      not\n      and\n      swap1\n      dup4\n      0xffffffffffffffffffffffffffffffffffffffff\n      and\n      mul\n      or\n      swap1\n      sstore\n      pop\n      0x40\n      dup3\n      add\n      mload\n      dup2\n      0x02\n      add\n      swap1\n      dup2\n      tag_118\n      swap2\n      swap1\n      tag_119\n      jump\t// in\n    tag_118:\n      pop\n      0x60\n      dup3\n      add\n      mload\n      dup2\n      0x03\n      add\n      sstore\n      0x80\n      dup3\n      add\n      mload\n      dup2\n      0x04\n      add\n      sstore\n      pop\n      pop\n        /* \"Twitter.sol\":1172:1252  TweetCreated(newTweet.id, newTweet.author, newTweet.content, newTweet.timeStamp) */\n      0x16fd3c13e9d46923e0a8bce11c7b473ec508a72e6c96cd2404b29ce972afc29e\n        /* \"Twitter.sol\":1185:1193  newTweet */\n      dup2\n        /* \"Twitter.sol\":1185:1196  newTweet.id */\n      0x00\n      add\n      mload\n        /* \"Twitter.sol\":1198:1206  newTweet */\n      dup3\n        /* \"Twitter.sol\":1198:1213  newTweet.author */\n      0x20\n      add\n      mload\n        /* \"Twitter.sol\":1215:1223  newTweet */\n      dup4\n        /* \"Twitter.sol\":1215:1231  newTweet.content */\n      0x40\n      add\n      mload\n        /* \"Twitter.sol\":1233:1241  newTweet */\n      dup5\n        /* \"Twitter.sol\":1233:1251  newTweet.timeStamp */\n      0x60\n      add\n      mload\n        /* \"Twitter.sol\":1172:1252  TweetCreated(newTweet.id, newTweet.author, newTweet.content, newTweet.timeStamp) */\n      mload(0x40)\n      tag_120\n      swap5\n      swap4\n      swap3\n      swap2\n      swap1\n      tag_121\n      jump\t// in\n    tag_120:\n      mload(0x40)\n      dup1\n      swap2\n      sub\n      swap1\n      log1\n        /* \"Twitter.sol\":797:1260  {... */\n      pop\n        /* \"Twitter.sol\":748:1260  function createTweet(string memory _tweet) public{... */\n      pop\n      jump\t// out\n        /* \"Twitter.sol\":2293:2545  function getTotalLikes(address _author) external view returns(uint256){... */\n    tag_42:\n        /* \"Twitter.sol\":2355:2362  uint256 */\n      0x00\n        /* \"Twitter.sol\":2374:2392  uint256 totalLikes */\n      0x00\n        /* \"Twitter.sol\":2407:2413  uint i */\n      0x00\n        /* \"Twitter.sol\":2414:2415  0 */\n      0x00\n        /* \"Twitter.sol\":2407:2415  uint i=0 */\n      swap1\n      pop\n        /* \"Twitter.sol\":2403:2508  for(uint i=0;i<tweets[_author].length;i++){... */\n    tag_123:\n        /* \"Twitter.sol\":2418:2424  tweets */\n      0x01\n        /* \"Twitter.sol\":2418:2433  tweets[_author] */\n      0x00\n        /* \"Twitter.sol\":2425:2432  _author */\n      dup6\n        /* \"Twitter.sol\":2418:2433  tweets[_author] */\n      0xffffffffffffffffffffffffffffffffffffffff\n      and\n      0xffffffffffffffffffffffffffffffffffffffff\n      and\n      dup2\n      mstore\n      0x20\n      add\n      swap1\n      dup2\n      mstore\n      0x20\n      add\n      0x00\n      keccak256\n        /* \"Twitter.sol\":2418:2440  tweets[_author].length */\n      dup1\n      sload\n      swap1\n      pop\n        /* \"Twitter.sol\":2416:2417  i */\n      dup2\n        /* \"Twitter.sol\":2416:2440  i<tweets[_author].length */\n      lt\n        /* \"Twitter.sol\":2403:2508  for(uint i=0;i<tweets[_author].length;i++){... */\n      iszero\n      tag_124\n      jumpi\n        /* \"Twitter.sol\":2472:2478  tweets */\n      0x01\n        /* \"Twitter.sol\":2472:2487  tweets[_author] */\n      0x00\n        /* \"Twitter.sol\":2479:2486  _author */\n      dup6\n        /* \"Twitter.sol\":2472:2487  tweets[_author] */\n      0xffffffffffffffffffffffffffffffffffffffff\n      and\n      0xffffffffffffffffffffffffffffffffffffffff\n      and\n      dup2\n      mstore\n      0x20\n      add\n      swap1\n      dup2\n      mstore\n      0x20\n      add\n      0x00\n      keccak256\n        /* \"Twitter.sol\":2488:2489  i */\n      dup2\n        /* \"Twitter.sol\":2472:2490  tweets[_author][i] */\n      dup2\n      sload\n      dup2\n      lt\n      tag_126\n      jumpi\n      tag_127\n      tag_77\n      jump\t// in\n    tag_127:\n    tag_126:\n      swap1\n      0x00\n      mstore\n      keccak256(0x00, 0x20)\n      swap1\n      0x05\n      mul\n      add\n        /* \"Twitter.sol\":2472:2496  tweets[_author][i].likes */\n      0x04\n      add\n      sload\n        /* \"Twitter.sol\":2460:2496  totalLikes+=tweets[_author][i].likes */\n      dup3\n      tag_129\n      swap2\n      swap1\n      tag_130\n      jump\t// in\n    tag_129:\n      swap2\n      pop\n        /* \"Twitter.sol\":2441:2444  i++ */\n      dup1\n      dup1\n      0x01\n      add\n      swap2\n      pop\n      pop\n        /* \"Twitter.sol\":2403:2508  for(uint i=0;i<tweets[_author].length;i++){... */\n      jump(tag_123)\n    tag_124:\n      pop\n        /* \"Twitter.sol\":2527:2537  totalLikes */\n      dup1\n        /* \"Twitter.sol\":2520:2537  return totalLikes */\n      swap2\n      pop\n      pop\n        /* \"Twitter.sol\":2293:2545  function getTotalLikes(address _author) external view returns(uint256){... */\n      swap2\n      swap1\n      pop\n      jump\t// out\n        /* \"Twitter.sol\":531:650  function changeTweetLength(uint256 newTweetLength) public onlyOwner{... */\n    tag_47:\n        /* \"Twitter.sol\":470:475  owner */\n      0x02\n      0x00\n      swap1\n      sload\n      swap1\n      0x0100\n      exp\n      swap1\n      div\n      0xffffffffffffffffffffffffffffffffffffffff\n      and\n        /* \"Twitter.sol\":456:475  msg.sender == owner */\n      0xffffffffffffffffffffffffffffffffffffffff\n      and\n        /* \"Twitter.sol\":456:466  msg.sender */\n      caller\n        /* \"Twitter.sol\":456:475  msg.sender == owner */\n      0xffffffffffffffffffffffffffffffffffffffff\n      and\n      eq\n        /* \"Twitter.sol\":448:501  require(msg.sender == owner, \"You are not the owner\") */\n      tag_132\n      jumpi\n      mload(0x40)\n      0x08c379a000000000000000000000000000000000000000000000000000000000\n      dup2\n      mstore\n      0x04\n      add\n      tag_133\n      swap1\n      tag_134\n      jump\t// in\n    tag_133:\n      mload(0x40)\n      dup1\n      swap2\n      sub\n      swap1\n      revert\n    tag_132:\n        /* \"Twitter.sol\":628:642  newTweetLength */\n      dup1\n        /* \"Twitter.sol\":609:625  MAX_TWEET_LENGTH */\n      0x00\n        /* \"Twitter.sol\":609:642  MAX_TWEET_LENGTH = newTweetLength */\n      dup2\n      swap1\n      sstore\n      pop\n        /* \"Twitter.sol\":531:650  function changeTweetLength(uint256 newTweetLength) public onlyOwner{... */\n      pop\n      jump\t// out\n        /* \"Twitter.sol\":332:352  address public owner */\n    tag_49:\n      0x02\n      0x00\n      swap1\n      sload\n      swap1\n      0x0100\n      exp\n      swap1\n      div\n      0xffffffffffffffffffffffffffffffffffffffff\n      and\n      dup2\n      jump\t// out\n        /* \"Twitter.sol\":2054:2163  function getTweet(uint _i) public view returns (Tweet memory){... */\n    tag_54:\n        /* \"Twitter.sol\":2102:2114  Tweet memory */\n      tag_136\n      tag_137\n      jump\t// in\n    tag_136:\n        /* \"Twitter.sol\":2133:2139  tweets */\n      0x01\n        /* \"Twitter.sol\":2133:2151  tweets[msg.sender] */\n      0x00\n        /* \"Twitter.sol\":2140:2150  msg.sender */\n      caller\n        /* \"Twitter.sol\":2133:2151  tweets[msg.sender] */\n      0xffffffffffffffffffffffffffffffffffffffff\n      and\n      0xffffffffffffffffffffffffffffffffffffffff\n      and\n      dup2\n      mstore\n      0x20\n      add\n      swap1\n      dup2\n      mstore\n      0x20\n      add\n      0x00\n      keccak256\n        /* \"Twitter.sol\":2152:2154  _i */\n      dup3\n        /* \"Twitter.sol\":2133:2155  tweets[msg.sender][_i] */\n      dup2\n      sload\n      dup2\n      lt\n      tag_139\n      jumpi\n      tag_140\n      tag_77\n      jump\t// in\n    tag_140:\n    tag_139:\n      swap1\n      0x00\n      mstore\n      keccak256(0x00, 0x20)\n      swap1\n      0x05\n      mul\n      add\n        /* \"Twitter.sol\":2126:2155  return tweets[msg.sender][_i] */\n      mload(0x40)\n      dup1\n      0xa0\n      add\n      0x40\n      mstore\n      swap1\n      dup2\n      0x00\n      dup3\n      add\n      sload\n      dup2\n      mstore\n      0x20\n      add\n      0x01\n      dup3\n      add\n      0x00\n      swap1\n      sload\n      swap1\n      0x0100\n      exp\n      swap1\n      div\n      0xffffffffffffffffffffffffffffffffffffffff\n      and\n      0xffffffffffffffffffffffffffffffffffffffff\n      and\n      0xffffffffffffffffffffffffffffffffffffffff\n      and\n      dup2\n      mstore\n      0x20\n      add\n      0x02\n      dup3\n      add\n      dup1\n      sload\n      tag_142\n      swap1\n      tag_60\n      jump\t// in\n    tag_142:\n      dup1\n      0x1f\n      add\n      0x20\n      dup1\n      swap2\n      div\n      mul\n      0x20\n      add\n      mload(0x40)\n      swap1\n      dup2\n      add\n      0x40\n      mstore\n      dup1\n      swap3\n      swap2\n      swap1\n      dup2\n      dup2\n      mstore\n      0x20\n      add\n      dup3\n      dup1\n      sload\n      tag_143\n      swap1\n      tag_60\n      jump\t// in\n    tag_143:\n      dup1\n      iszero\n      tag_144\n      jumpi\n      dup1\n      0x1f\n      lt\n      tag_145\n      jumpi\n      0x0100\n      dup1\n      dup4\n      sload\n      div\n      mul\n      dup4\n      mstore\n      swap2\n      0x20\n      add\n      swap2\n      jump(tag_144)\n    tag_145:\n      dup3\n      add\n      swap2\n      swap1\n      0x00\n      mstore\n      keccak256(0x00, 0x20)\n      swap1\n    tag_146:\n      dup2\n      sload\n      dup2\n      mstore\n      swap1\n      0x01\n      add\n      swap1\n      0x20\n      add\n      dup1\n      dup4\n      gt\n      tag_146\n      jumpi\n      dup3\n      swap1\n      sub\n      0x1f\n      and\n      dup3\n      add\n      swap2\n    tag_144:\n      pop\n      pop\n      pop\n      pop\n      pop\n      dup2\n      mstore\n      0x20\n      add\n      0x03\n      dup3\n      add\n      sload\n      dup2\n      mstore\n      0x20\n      add\n      0x04\n      dup3\n      add\n      sload\n      dup2\n      mstore\n      pop\n      pop\n      swap1\n      pop\n        /* \"Twitter.sol\":2054:2163  function getTweet(uint _i) public view returns (Tweet memory){... */\n      swap2\n      swap1\n      pop\n      jump\t// out\n    tag_137:\n      mload(0x40)\n      dup1\n      0xa0\n      add\n      0x40\n      mstore\n      dup1\n      0x00\n      dup2\n      mstore\n      0x20\n      add\n      and(0xffffffffffffffffffffffffffffffffffffffff, 0x00)\n      dup2\n      mstore\n      0x20\n      add\n      0x60\n      dup2\n      mstore\n      0x20\n      add\n      0x00\n      dup2\n      mstore\n      0x20\n      add\n      0x00\n      dup2\n      mstore\n      pop\n      swap1\n      jump\t// out\n        /* \"#utility.yul\":7:82   */\n    tag_147:\n        /* \"#utility.yul\":40:46   */\n      0x00\n        /* \"#utility.yul\":73:75   */\n      0x40\n        /* \"#utility.yul\":67:76   */\n      mload\n        /* \"#utility.yul\":57:76   */\n      swap1\n      pop\n        /* \"#utility.yul\":7:82   */\n      swap1\n      jump\t// out\n        /* \"#utility.yul\":88:205   */\n    tag_148:\n        /* \"#utility.yul\":197:198   */\n      0x00\n        /* \"#utility.yul\":194:195   */\n      0x00\n        /* \"#utility.yul\":187:199   */\n      revert\n        /* \"#utility.yul\":211:328   */\n    tag_149:\n        /* \"#utility.yul\":320:321   */\n      0x00\n        /* \"#utility.yul\":317:318   */\n      0x00\n        /* \"#utility.yul\":310:322   */\n      revert\n        /* \"#utility.yul\":334:460   */\n    tag_150:\n        /* \"#utility.yul\":371:378   */\n      0x00\n        /* \"#utility.yul\":411:453   */\n      0xffffffffffffffffffffffffffffffffffffffff\n        /* \"#utility.yul\":404:409   */\n      dup3\n        /* \"#utility.yul\":400:454   */\n      and\n        /* \"#utility.yul\":389:454   */\n      swap1\n      pop\n        /* \"#utility.yul\":334:460   */\n      swap2\n      swap1\n      pop\n      jump\t// out\n        /* \"#utility.yul\":466:562   */\n    tag_151:\n        /* \"#utility.yul\":503:510   */\n      0x00\n        /* \"#utility.yul\":532:556   */\n      tag_216\n        /* \"#utility.yul\":550:555   */\n      dup3\n        /* \"#utility.yul\":532:556   */\n      tag_150\n      jump\t// in\n    tag_216:\n        /* \"#utility.yul\":521:556   */\n      swap1\n      pop\n        /* \"#utility.yul\":466:562   */\n      swap2\n      swap1\n      pop\n      jump\t// out\n        /* \"#utility.yul\":568:690   */\n    tag_152:\n        /* \"#utility.yul\":641:665   */\n      tag_218\n        /* \"#utility.yul\":659:664   */\n      dup2\n        /* \"#utility.yul\":641:665   */\n      tag_151\n      jump\t// in\n    tag_218:\n        /* \"#utility.yul\":634:639   */\n      dup2\n        /* \"#utility.yul\":631:666   */\n      eq\n        /* \"#utility.yul\":621:684   */\n      tag_219\n      jumpi\n        /* \"#utility.yul\":680:681   */\n      0x00\n        /* \"#utility.yul\":677:678   */\n      0x00\n        /* \"#utility.yul\":670:682   */\n      revert\n        /* \"#utility.yul\":621:684   */\n    tag_219:\n        /* \"#utility.yul\":568:690   */\n      pop\n      jump\t// out\n        /* \"#utility.yul\":696:835   */\n    tag_153:\n        /* \"#utility.yul\":742:747   */\n      0x00\n        /* \"#utility.yul\":780:786   */\n      dup2\n        /* \"#utility.yul\":767:787   */\n      calldataload\n        /* \"#utility.yul\":758:787   */\n      swap1\n      pop\n        /* \"#utility.yul\":796:829   */\n      tag_221\n        /* \"#utility.yul\":823:828   */\n      dup2\n        /* \"#utility.yul\":796:829   */\n      tag_152\n      jump\t// in\n    tag_221:\n        /* \"#utility.yul\":696:835   */\n      swap3\n      swap2\n      pop\n      pop\n      jump\t// out\n        /* \"#utility.yul\":841:918   */\n    tag_154:\n        /* \"#utility.yul\":878:885   */\n      0x00\n        /* \"#utility.yul\":907:912   */\n      dup2\n        /* \"#utility.yul\":896:912   */\n      swap1\n      pop\n        /* \"#utility.yul\":841:918   */\n      swap2\n      swap1\n      pop\n      jump\t// out\n        /* \"#utility.yul\":924:1046   */\n    tag_155:\n        /* \"#utility.yul\":997:1021   */\n      tag_224\n        /* \"#utility.yul\":1015:1020   */\n      dup2\n        /* \"#utility.yul\":997:1021   */\n      tag_154\n      jump\t// in\n    tag_224:\n        /* \"#utility.yul\":990:995   */\n      dup2\n        /* \"#utility.yul\":987:1022   */\n      eq\n        /* \"#utility.yul\":977:1040   */\n      tag_225\n      jumpi\n        /* \"#utility.yul\":1036:1037   */\n      0x00\n        /* \"#utility.yul\":1033:1034   */\n      0x00\n        /* \"#utility.yul\":1026:1038   */\n      revert\n        /* \"#utility.yul\":977:1040   */\n    tag_225:\n        /* \"#utility.yul\":924:1046   */\n      pop\n      jump\t// out\n        /* \"#utility.yul\":1052:1191   */\n    tag_156:\n        /* \"#utility.yul\":1098:1103   */\n      0x00\n        /* \"#utility.yul\":1136:1142   */\n      dup2\n        /* \"#utility.yul\":1123:1143   */\n      calldataload\n        /* \"#utility.yul\":1114:1143   */\n      swap1\n      pop\n        /* \"#utility.yul\":1152:1185   */\n      tag_227\n        /* \"#utility.yul\":1179:1184   */\n      dup2\n        /* \"#utility.yul\":1152:1185   */\n      tag_155\n      jump\t// in\n    tag_227:\n        /* \"#utility.yul\":1052:1191   */\n      swap3\n      swap2\n      pop\n      pop\n      jump\t// out\n        /* \"#utility.yul\":1197:1671   */\n    tag_16:\n        /* \"#utility.yul\":1265:1271   */\n      0x00\n        /* \"#utility.yul\":1273:1279   */\n      0x00\n        /* \"#utility.yul\":1322:1324   */\n      0x40\n        /* \"#utility.yul\":1310:1319   */\n      dup4\n        /* \"#utility.yul\":1301:1308   */\n      dup6\n        /* \"#utility.yul\":1297:1320   */\n      sub\n        /* \"#utility.yul\":1293:1325   */\n      slt\n        /* \"#utility.yul\":1290:1409   */\n      iszero\n      tag_229\n      jumpi\n        /* \"#utility.yul\":1328:1407   */\n      tag_230\n      tag_148\n      jump\t// in\n    tag_230:\n        /* \"#utility.yul\":1290:1409   */\n    tag_229:\n        /* \"#utility.yul\":1448:1449   */\n      0x00\n        /* \"#utility.yul\":1473:1526   */\n      tag_231\n        /* \"#utility.yul\":1518:1525   */\n      dup6\n        /* \"#utility.yul\":1509:1515   */\n      dup3\n        /* \"#utility.yul\":1498:1507   */\n      dup7\n        /* \"#utility.yul\":1494:1516   */\n      add\n        /* \"#utility.yul\":1473:1526   */\n      tag_153\n      jump\t// in\n    tag_231:\n        /* \"#utility.yul\":1463:1526   */\n      swap3\n      pop\n        /* \"#utility.yul\":1419:1536   */\n      pop\n        /* \"#utility.yul\":1575:1577   */\n      0x20\n        /* \"#utility.yul\":1601:1654   */\n      tag_232\n        /* \"#utility.yul\":1646:1653   */\n      dup6\n        /* \"#utility.yul\":1637:1643   */\n      dup3\n        /* \"#utility.yul\":1626:1635   */\n      dup7\n        /* \"#utility.yul\":1622:1644   */\n      add\n        /* \"#utility.yul\":1601:1654   */\n      tag_156\n      jump\t// in\n    tag_232:\n        /* \"#utility.yul\":1591:1654   */\n      swap2\n      pop\n        /* \"#utility.yul\":1546:1664   */\n      pop\n        /* \"#utility.yul\":1197:1671   */\n      swap3\n      pop\n      swap3\n      swap1\n      pop\n      jump\t// out\n        /* \"#utility.yul\":1677:1795   */\n    tag_157:\n        /* \"#utility.yul\":1764:1788   */\n      tag_234\n        /* \"#utility.yul\":1782:1787   */\n      dup2\n        /* \"#utility.yul\":1764:1788   */\n      tag_154\n      jump\t// in\n    tag_234:\n        /* \"#utility.yul\":1759:1762   */\n      dup3\n        /* \"#utility.yul\":1752:1789   */\n      mstore\n        /* \"#utility.yul\":1677:1795   */\n      pop\n      pop\n      jump\t// out\n        /* \"#utility.yul\":1801:1919   */\n    tag_158:\n        /* \"#utility.yul\":1888:1912   */\n      tag_236\n        /* \"#utility.yul\":1906:1911   */\n      dup2\n        /* \"#utility.yul\":1888:1912   */\n      tag_151\n      jump\t// in\n    tag_236:\n        /* \"#utility.yul\":1883:1886   */\n      dup3\n        /* \"#utility.yul\":1876:1913   */\n      mstore\n        /* \"#utility.yul\":1801:1919   */\n      pop\n      pop\n      jump\t// out\n        /* \"#utility.yul\":1925:2024   */\n    tag_159:\n        /* \"#utility.yul\":1977:1983   */\n      0x00\n        /* \"#utility.yul\":2011:2016   */\n      dup2\n        /* \"#utility.yul\":2005:2017   */\n      mload\n        /* \"#utility.yul\":1995:2017   */\n      swap1\n      pop\n        /* \"#utility.yul\":1925:2024   */\n      swap2\n      swap1\n      pop\n      jump\t// out\n        /* \"#utility.yul\":2030:2199   */\n    tag_160:\n        /* \"#utility.yul\":2114:2125   */\n      0x00\n        /* \"#utility.yul\":2148:2154   */\n      dup3\n        /* \"#utility.yul\":2143:2146   */\n      dup3\n        /* \"#utility.yul\":2136:2155   */\n      mstore\n        /* \"#utility.yul\":2188:2192   */\n      0x20\n        /* \"#utility.yul\":2183:2186   */\n      dup3\n        /* \"#utility.yul\":2179:2193   */\n      add\n        /* \"#utility.yul\":2164:2193   */\n      swap1\n      pop\n        /* \"#utility.yul\":2030:2199   */\n      swap3\n      swap2\n      pop\n      pop\n      jump\t// out\n        /* \"#utility.yul\":2205:2344   */\n    tag_161:\n        /* \"#utility.yul\":2294:2300   */\n      dup3\n        /* \"#utility.yul\":2289:2292   */\n      dup2\n        /* \"#utility.yul\":2284:2287   */\n      dup4\n        /* \"#utility.yul\":2278:2301   */\n      mcopy\n        /* \"#utility.yul\":2335:2336   */\n      0x00\n        /* \"#utility.yul\":2326:2332   */\n      dup4\n        /* \"#utility.yul\":2321:2324   */\n      dup4\n        /* \"#utility.yul\":2317:2333   */\n      add\n        /* \"#utility.yul\":2310:2337   */\n      mstore\n        /* \"#utility.yul\":2205:2344   */\n      pop\n      pop\n      pop\n      jump\t// out\n        /* \"#utility.yul\":2350:2452   */\n    tag_162:\n        /* \"#utility.yul\":2391:2397   */\n      0x00\n        /* \"#utility.yul\":2442:2444   */\n      0x1f\n        /* \"#utility.yul\":2438:2445   */\n      not\n        /* \"#utility.yul\":2433:2435   */\n      0x1f\n        /* \"#utility.yul\":2426:2431   */\n      dup4\n        /* \"#utility.yul\":2422:2436   */\n      add\n        /* \"#utility.yul\":2418:2446   */\n      and\n        /* \"#utility.yul\":2408:2446   */\n      swap1\n      pop\n        /* \"#utility.yul\":2350:2452   */\n      swap2\n      swap1\n      pop\n      jump\t// out\n        /* \"#utility.yul\":2458:2835   */\n    tag_163:\n        /* \"#utility.yul\":2546:2549   */\n      0x00\n        /* \"#utility.yul\":2574:2613   */\n      tag_242\n        /* \"#utility.yul\":2607:2612   */\n      dup3\n        /* \"#utility.yul\":2574:2613   */\n      tag_159\n      jump\t// in\n    tag_242:\n        /* \"#utility.yul\":2629:2700   */\n      tag_243\n        /* \"#utility.yul\":2693:2699   */\n      dup2\n        /* \"#utility.yul\":2688:2691   */\n      dup6\n        /* \"#utility.yul\":2629:2700   */\n      tag_160\n      jump\t// in\n    tag_243:\n        /* \"#utility.yul\":2622:2700   */\n      swap4\n      pop\n        /* \"#utility.yul\":2709:2774   */\n      tag_244\n        /* \"#utility.yul\":2767:2773   */\n      dup2\n        /* \"#utility.yul\":2762:2765   */\n      dup6\n        /* \"#utility.yul\":2755:2759   */\n      0x20\n        /* \"#utility.yul\":2748:2753   */\n      dup7\n        /* \"#utility.yul\":2744:2760   */\n      add\n        /* \"#utility.yul\":2709:2774   */\n      tag_161\n      jump\t// in\n    tag_244:\n        /* \"#utility.yul\":2799:2828   */\n      tag_245\n        /* \"#utility.yul\":2821:2827   */\n      dup2\n        /* \"#utility.yul\":2799:2828   */\n      tag_162\n      jump\t// in\n    tag_245:\n        /* \"#utility.yul\":2794:2797   */\n      dup5\n        /* \"#utility.yul\":2790:2829   */\n      add\n        /* \"#utility.yul\":2783:2829   */\n      swap2\n      pop\n        /* \"#utility.yul\":2550:2835   */\n      pop\n        /* \"#utility.yul\":2458:2835   */\n      swap3\n      swap2\n      pop\n      pop\n      jump\t// out\n        /* \"#utility.yul\":2841:3596   */\n    tag_19:\n        /* \"#utility.yul\":3066:3070   */\n      0x00\n        /* \"#utility.yul\":3104:3107   */\n      0xa0\n        /* \"#utility.yul\":3093:3102   */\n      dup3\n        /* \"#utility.yul\":3089:3108   */\n      add\n        /* \"#utility.yul\":3081:3108   */\n      swap1\n      pop\n        /* \"#utility.yul\":3118:3189   */\n      tag_247\n        /* \"#utility.yul\":3186:3187   */\n      0x00\n        /* \"#utility.yul\":3175:3184   */\n      dup4\n        /* \"#utility.yul\":3171:3188   */\n      add\n        /* \"#utility.yul\":3162:3168   */\n      dup9\n        /* \"#utility.yul\":3118:3189   */\n      tag_157\n      jump\t// in\n    tag_247:\n        /* \"#utility.yul\":3199:3271   */\n      tag_248\n        /* \"#utility.yul\":3267:3269   */\n      0x20\n        /* \"#utility.yul\":3256:3265   */\n      dup4\n        /* \"#utility.yul\":3252:3270   */\n      add\n        /* \"#utility.yul\":3243:3249   */\n      dup8\n        /* \"#utility.yul\":3199:3271   */\n      tag_158\n      jump\t// in\n    tag_248:\n        /* \"#utility.yul\":3318:3327   */\n      dup2\n        /* \"#utility.yul\":3312:3316   */\n      dup2\n        /* \"#utility.yul\":3308:3328   */\n      sub\n        /* \"#utility.yul\":3303:3305   */\n      0x40\n        /* \"#utility.yul\":3292:3301   */\n      dup4\n        /* \"#utility.yul\":3288:3306   */\n      add\n        /* \"#utility.yul\":3281:3329   */\n      mstore\n        /* \"#utility.yul\":3346:3424   */\n      tag_249\n        /* \"#utility.yul\":3419:3423   */\n      dup2\n        /* \"#utility.yul\":3410:3416   */\n      dup7\n        /* \"#utility.yul\":3346:3424   */\n      tag_163\n      jump\t// in\n    tag_249:\n        /* \"#utility.yul\":3338:3424   */\n      swap1\n      pop\n        /* \"#utility.yul\":3434:3506   */\n      tag_250\n        /* \"#utility.yul\":3502:3504   */\n      0x60\n        /* \"#utility.yul\":3491:3500   */\n      dup4\n        /* \"#utility.yul\":3487:3505   */\n      add\n        /* \"#utility.yul\":3478:3484   */\n      dup6\n        /* \"#utility.yul\":3434:3506   */\n      tag_157\n      jump\t// in\n    tag_250:\n        /* \"#utility.yul\":3516:3589   */\n      tag_251\n        /* \"#utility.yul\":3584:3587   */\n      0x80\n        /* \"#utility.yul\":3573:3582   */\n      dup4\n        /* \"#utility.yul\":3569:3588   */\n      add\n        /* \"#utility.yul\":3560:3566   */\n      dup5\n        /* \"#utility.yul\":3516:3589   */\n      tag_157\n      jump\t// in\n    tag_251:\n        /* \"#utility.yul\":2841:3596   */\n      swap7\n      swap6\n      pop\n      pop\n      pop\n      pop\n      pop\n      pop\n      jump\t// out\n        /* \"#utility.yul\":3602:3931   */\n    tag_22:\n        /* \"#utility.yul\":3661:3667   */\n      0x00\n        /* \"#utility.yul\":3710:3712   */\n      0x20\n        /* \"#utility.yul\":3698:3707   */\n      dup3\n        /* \"#utility.yul\":3689:3696   */\n      dup5\n        /* \"#utility.yul\":3685:3708   */\n      sub\n        /* \"#utility.yul\":3681:3713   */\n      slt\n        /* \"#utility.yul\":3678:3797   */\n      iszero\n      tag_253\n      jumpi\n        /* \"#utility.yul\":3716:3795   */\n      tag_254\n      tag_148\n      jump\t// in\n    tag_254:\n        /* \"#utility.yul\":3678:3797   */\n    tag_253:\n        /* \"#utility.yul\":3836:3837   */\n      0x00\n        /* \"#utility.yul\":3861:3914   */\n      tag_255\n        /* \"#utility.yul\":3906:3913   */\n      dup5\n        /* \"#utility.yul\":3897:3903   */\n      dup3\n        /* \"#utility.yul\":3886:3895   */\n      dup6\n        /* \"#utility.yul\":3882:3904   */\n      add\n        /* \"#utility.yul\":3861:3914   */\n      tag_153\n      jump\t// in\n    tag_255:\n        /* \"#utility.yul\":3851:3914   */\n      swap2\n      pop\n        /* \"#utility.yul\":3807:3924   */\n      pop\n        /* \"#utility.yul\":3602:3931   */\n      swap3\n      swap2\n      pop\n      pop\n      jump\t// out\n        /* \"#utility.yul\":3937:4072   */\n    tag_164:\n        /* \"#utility.yul\":4025:4031   */\n      0x00\n        /* \"#utility.yul\":4059:4064   */\n      dup2\n        /* \"#utility.yul\":4053:4065   */\n      mload\n        /* \"#utility.yul\":4043:4065   */\n      swap1\n      pop\n        /* \"#utility.yul\":3937:4072   */\n      swap2\n      swap1\n      pop\n      jump\t// out\n        /* \"#utility.yul\":4078:4283   */\n    tag_165:\n        /* \"#utility.yul\":4198:4209   */\n      0x00\n        /* \"#utility.yul\":4232:4238   */\n      dup3\n        /* \"#utility.yul\":4227:4230   */\n      dup3\n        /* \"#utility.yul\":4220:4239   */\n      mstore\n        /* \"#utility.yul\":4272:4276   */\n      0x20\n        /* \"#utility.yul\":4267:4270   */\n      dup3\n        /* \"#utility.yul\":4263:4277   */\n      add\n        /* \"#utility.yul\":4248:4277   */\n      swap1\n      pop\n        /* \"#utility.yul\":4078:4283   */\n      swap3\n      swap2\n      pop\n      pop\n      jump\t// out\n        /* \"#utility.yul\":4289:4442   */\n    tag_166:\n        /* \"#utility.yul\":4377:4381   */\n      0x00\n        /* \"#utility.yul\":4400:4403   */\n      dup2\n        /* \"#utility.yul\":4392:4403   */\n      swap1\n      pop\n        /* \"#utility.yul\":4430:4434   */\n      0x20\n        /* \"#utility.yul\":4425:4428   */\n      dup3\n        /* \"#utility.yul\":4421:4435   */\n      add\n        /* \"#utility.yul\":4413:4435   */\n      swap1\n      pop\n        /* \"#utility.yul\":4289:4442   */\n      swap2\n      swap1\n      pop\n      jump\t// out\n        /* \"#utility.yul\":4448:4556   */\n    tag_167:\n        /* \"#utility.yul\":4525:4549   */\n      tag_260\n        /* \"#utility.yul\":4543:4548   */\n      dup2\n        /* \"#utility.yul\":4525:4549   */\n      tag_154\n      jump\t// in\n    tag_260:\n        /* \"#utility.yul\":4520:4523   */\n      dup3\n        /* \"#utility.yul\":4513:4550   */\n      mstore\n        /* \"#utility.yul\":4448:4556   */\n      pop\n      pop\n      jump\t// out\n        /* \"#utility.yul\":4562:4670   */\n    tag_168:\n        /* \"#utility.yul\":4639:4663   */\n      tag_262\n        /* \"#utility.yul\":4657:4662   */\n      dup2\n        /* \"#utility.yul\":4639:4663   */\n      tag_151\n      jump\t// in\n    tag_262:\n        /* \"#utility.yul\":4634:4637   */\n      dup3\n        /* \"#utility.yul\":4627:4664   */\n      mstore\n        /* \"#utility.yul\":4562:4670   */\n      pop\n      pop\n      jump\t// out\n        /* \"#utility.yul\":4676:4835   */\n    tag_169:\n        /* \"#utility.yul\":4750:4761   */\n      0x00\n        /* \"#utility.yul\":4784:4790   */\n      dup3\n        /* \"#utility.yul\":4779:4782   */\n      dup3\n        /* \"#utility.yul\":4772:4791   */\n      mstore\n        /* \"#utility.yul\":4824:4828   */\n      0x20\n        /* \"#utility.yul\":4819:4822   */\n      dup3\n        /* \"#utility.yul\":4815:4829   */\n      add\n        /* \"#utility.yul\":4800:4829   */\n      swap1\n      pop\n        /* \"#utility.yul\":4676:4835   */\n      swap3\n      swap2\n      pop\n      pop\n      jump\t// out\n        /* \"#utility.yul\":4841:5198   */\n    tag_170:\n        /* \"#utility.yul\":4919:4922   */\n      0x00\n        /* \"#utility.yul\":4947:4986   */\n      tag_265\n        /* \"#utility.yul\":4980:4985   */\n      dup3\n        /* \"#utility.yul\":4947:4986   */\n      tag_159\n      jump\t// in\n    tag_265:\n        /* \"#utility.yul\":5002:5063   */\n      tag_266\n        /* \"#utility.yul\":5056:5062   */\n      dup2\n        /* \"#utility.yul\":5051:5054   */\n      dup6\n        /* \"#utility.yul\":5002:5063   */\n      tag_169\n      jump\t// in\n    tag_266:\n        /* \"#utility.yul\":4995:5063   */\n      swap4\n      pop\n        /* \"#utility.yul\":5072:5137   */\n      tag_267\n        /* \"#utility.yul\":5130:5136   */\n      dup2\n        /* \"#utility.yul\":5125:5128   */\n      dup6\n        /* \"#utility.yul\":5118:5122   */\n      0x20\n        /* \"#utility.yul\":5111:5116   */\n      dup7\n        /* \"#utility.yul\":5107:5123   */\n      add\n        /* \"#utility.yul\":5072:5137   */\n      tag_161\n      jump\t// in\n    tag_267:\n        /* \"#utility.yul\":5162:5191   */\n      tag_268\n        /* \"#utility.yul\":5184:5190   */\n      dup2\n        /* \"#utility.yul\":5162:5191   */\n      tag_162\n      jump\t// in\n    tag_268:\n        /* \"#utility.yul\":5157:5160   */\n      dup5\n        /* \"#utility.yul\":5153:5192   */\n      add\n        /* \"#utility.yul\":5146:5192   */\n      swap2\n      pop\n        /* \"#utility.yul\":4923:5198   */\n      pop\n        /* \"#utility.yul\":4841:5198   */\n      swap3\n      swap2\n      pop\n      pop\n      jump\t// out\n        /* \"#utility.yul\":5256:6375   */\n    tag_171:\n        /* \"#utility.yul\":5357:5360   */\n      0x00\n        /* \"#utility.yul\":5393:5397   */\n      0xa0\n        /* \"#utility.yul\":5388:5391   */\n      dup4\n        /* \"#utility.yul\":5384:5398   */\n      add\n        /* \"#utility.yul\":5478:5482   */\n      0x00\n        /* \"#utility.yul\":5471:5476   */\n      dup4\n        /* \"#utility.yul\":5467:5483   */\n      add\n        /* \"#utility.yul\":5461:5484   */\n      mload\n        /* \"#utility.yul\":5497:5560   */\n      tag_270\n        /* \"#utility.yul\":5554:5558   */\n      0x00\n        /* \"#utility.yul\":5549:5552   */\n      dup7\n        /* \"#utility.yul\":5545:5559   */\n      add\n        /* \"#utility.yul\":5531:5543   */\n      dup3\n        /* \"#utility.yul\":5497:5560   */\n      tag_167\n      jump\t// in\n    tag_270:\n        /* \"#utility.yul\":5408:5570   */\n      pop\n        /* \"#utility.yul\":5654:5658   */\n      0x20\n        /* \"#utility.yul\":5647:5652   */\n      dup4\n        /* \"#utility.yul\":5643:5659   */\n      add\n        /* \"#utility.yul\":5637:5660   */\n      mload\n        /* \"#utility.yul\":5673:5736   */\n      tag_271\n        /* \"#utility.yul\":5730:5734   */\n      0x20\n        /* \"#utility.yul\":5725:5728   */\n      dup7\n        /* \"#utility.yul\":5721:5735   */\n      add\n        /* \"#utility.yul\":5707:5719   */\n      dup3\n        /* \"#utility.yul\":5673:5736   */\n      tag_168\n      jump\t// in\n    tag_271:\n        /* \"#utility.yul\":5580:5746   */\n      pop\n        /* \"#utility.yul\":5831:5835   */\n      0x40\n        /* \"#utility.yul\":5824:5829   */\n      dup4\n        /* \"#utility.yul\":5820:5836   */\n      add\n        /* \"#utility.yul\":5814:5837   */\n      mload\n        /* \"#utility.yul\":5884:5887   */\n      dup5\n        /* \"#utility.yul\":5878:5882   */\n      dup3\n        /* \"#utility.yul\":5874:5888   */\n      sub\n        /* \"#utility.yul\":5867:5871   */\n      0x40\n        /* \"#utility.yul\":5862:5865   */\n      dup7\n        /* \"#utility.yul\":5858:5872   */\n      add\n        /* \"#utility.yul\":5851:5889   */\n      mstore\n        /* \"#utility.yul\":5910:5983   */\n      tag_272\n        /* \"#utility.yul\":5978:5982   */\n      dup3\n        /* \"#utility.yul\":5964:5976   */\n      dup3\n        /* \"#utility.yul\":5910:5983   */\n      tag_170\n      jump\t// in\n    tag_272:\n        /* \"#utility.yul\":5902:5983   */\n      swap2\n      pop\n        /* \"#utility.yul\":5756:5994   */\n      pop\n        /* \"#utility.yul\":6081:6085   */\n      0x60\n        /* \"#utility.yul\":6074:6079   */\n      dup4\n        /* \"#utility.yul\":6070:6086   */\n      add\n        /* \"#utility.yul\":6064:6087   */\n      mload\n        /* \"#utility.yul\":6100:6163   */\n      tag_273\n        /* \"#utility.yul\":6157:6161   */\n      0x60\n        /* \"#utility.yul\":6152:6155   */\n      dup7\n        /* \"#utility.yul\":6148:6162   */\n      add\n        /* \"#utility.yul\":6134:6146   */\n      dup3\n        /* \"#utility.yul\":6100:6163   */\n      tag_167\n      jump\t// in\n    tag_273:\n        /* \"#utility.yul\":6004:6173   */\n      pop\n        /* \"#utility.yul\":6256:6260   */\n      0x80\n        /* \"#utility.yul\":6249:6254   */\n      dup4\n        /* \"#utility.yul\":6245:6261   */\n      add\n        /* \"#utility.yul\":6239:6262   */\n      mload\n        /* \"#utility.yul\":6275:6338   */\n      tag_274\n        /* \"#utility.yul\":6332:6336   */\n      0x80\n        /* \"#utility.yul\":6327:6330   */\n      dup7\n        /* \"#utility.yul\":6323:6337   */\n      add\n        /* \"#utility.yul\":6309:6321   */\n      dup3\n        /* \"#utility.yul\":6275:6338   */\n      tag_167\n      jump\t// in\n    tag_274:\n        /* \"#utility.yul\":6183:6348   */\n      pop\n        /* \"#utility.yul\":6365:6369   */\n      dup1\n        /* \"#utility.yul\":6358:6369   */\n      swap2\n      pop\n        /* \"#utility.yul\":5362:6375   */\n      pop\n        /* \"#utility.yul\":5256:6375   */\n      swap3\n      swap2\n      pop\n      pop\n      jump\t// out\n        /* \"#utility.yul\":6381:6621   */\n    tag_172:\n        /* \"#utility.yul\":6492:6502   */\n      0x00\n        /* \"#utility.yul\":6527:6615   */\n      tag_276\n        /* \"#utility.yul\":6611:6614   */\n      dup4\n        /* \"#utility.yul\":6603:6609   */\n      dup4\n        /* \"#utility.yul\":6527:6615   */\n      tag_171\n      jump\t// in\n    tag_276:\n        /* \"#utility.yul\":6513:6615   */\n      swap1\n      pop\n        /* \"#utility.yul\":6381:6621   */\n      swap3\n      swap2\n      pop\n      pop\n      jump\t// out\n        /* \"#utility.yul\":6627:6761   */\n    tag_173:\n        /* \"#utility.yul\":6718:6722   */\n      0x00\n        /* \"#utility.yul\":6750:6754   */\n      0x20\n        /* \"#utility.yul\":6745:6748   */\n      dup3\n        /* \"#utility.yul\":6741:6755   */\n      add\n        /* \"#utility.yul\":6733:6755   */\n      swap1\n      pop\n        /* \"#utility.yul\":6627:6761   */\n      swap2\n      swap1\n      pop\n      jump\t// out\n        /* \"#utility.yul\":6823:7902   */\n    tag_174:\n        /* \"#utility.yul\":6984:6987   */\n      0x00\n        /* \"#utility.yul\":7013:7088   */\n      tag_279\n        /* \"#utility.yul\":7082:7087   */\n      dup3\n        /* \"#utility.yul\":7013:7088   */\n      tag_164\n      jump\t// in\n    tag_279:\n        /* \"#utility.yul\":7104:7211   */\n      tag_280\n        /* \"#utility.yul\":7204:7210   */\n      dup2\n        /* \"#utility.yul\":7199:7202   */\n      dup6\n        /* \"#utility.yul\":7104:7211   */\n      tag_165\n      jump\t// in\n    tag_280:\n        /* \"#utility.yul\":7097:7211   */\n      swap4\n      pop\n        /* \"#utility.yul\":7237:7240   */\n      dup4\n        /* \"#utility.yul\":7282:7286   */\n      0x20\n        /* \"#utility.yul\":7274:7280   */\n      dup3\n        /* \"#utility.yul\":7270:7287   */\n      mul\n        /* \"#utility.yul\":7265:7268   */\n      dup6\n        /* \"#utility.yul\":7261:7288   */\n      add\n        /* \"#utility.yul\":7312:7389   */\n      tag_281\n        /* \"#utility.yul\":7383:7388   */\n      dup6\n        /* \"#utility.yul\":7312:7389   */\n      tag_166\n      jump\t// in\n    tag_281:\n        /* \"#utility.yul\":7412:7419   */\n      dup1\n        /* \"#utility.yul\":7443:7444   */\n      0x00\n        /* \"#utility.yul\":7428:7857   */\n    tag_282:\n        /* \"#utility.yul\":7453:7459   */\n      dup6\n        /* \"#utility.yul\":7450:7451   */\n      dup2\n        /* \"#utility.yul\":7447:7460   */\n      lt\n        /* \"#utility.yul\":7428:7857   */\n      iszero\n      tag_284\n      jumpi\n        /* \"#utility.yul\":7524:7533   */\n      dup5\n        /* \"#utility.yul\":7518:7522   */\n      dup5\n        /* \"#utility.yul\":7514:7534   */\n      sub\n        /* \"#utility.yul\":7509:7512   */\n      dup10\n        /* \"#utility.yul\":7502:7535   */\n      mstore\n        /* \"#utility.yul\":7575:7581   */\n      dup2\n        /* \"#utility.yul\":7569:7582   */\n      mload\n        /* \"#utility.yul\":7603:7709   */\n      tag_285\n        /* \"#utility.yul\":7704:7708   */\n      dup6\n        /* \"#utility.yul\":7689:7702   */\n      dup3\n        /* \"#utility.yul\":7603:7709   */\n      tag_172\n      jump\t// in\n    tag_285:\n        /* \"#utility.yul\":7595:7709   */\n      swap5\n      pop\n        /* \"#utility.yul\":7732:7813   */\n      tag_286\n        /* \"#utility.yul\":7806:7812   */\n      dup4\n        /* \"#utility.yul\":7732:7813   */\n      tag_173\n      jump\t// in\n    tag_286:\n        /* \"#utility.yul\":7722:7813   */\n      swap3\n      pop\n        /* \"#utility.yul\":7842:7846   */\n      0x20\n        /* \"#utility.yul\":7837:7840   */\n      dup11\n        /* \"#utility.yul\":7833:7847   */\n      add\n        /* \"#utility.yul\":7826:7847   */\n      swap10\n      pop\n        /* \"#utility.yul\":7488:7857   */\n      pop\n        /* \"#utility.yul\":7475:7476   */\n      0x01\n        /* \"#utility.yul\":7472:7473   */\n      dup2\n        /* \"#utility.yul\":7468:7477   */\n      add\n        /* \"#utility.yul\":7463:7477   */\n      swap1\n      pop\n        /* \"#utility.yul\":7428:7857   */\n      jump(tag_282)\n    tag_284:\n        /* \"#utility.yul\":7432:7446   */\n      pop\n        /* \"#utility.yul\":7873:7877   */\n      dup3\n        /* \"#utility.yul\":7866:7877   */\n      swap8\n      pop\n        /* \"#utility.yul\":7893:7896   */\n      dup8\n        /* \"#utility.yul\":7886:7896   */\n      swap6\n      pop\n        /* \"#utility.yul\":6989:7902   */\n      pop\n      pop\n      pop\n      pop\n      pop\n        /* \"#utility.yul\":6823:7902   */\n      swap3\n      swap2\n      pop\n      pop\n      jump\t// out\n        /* \"#utility.yul\":7908:8365   */\n    tag_25:\n        /* \"#utility.yul\":8093:8097   */\n      0x00\n        /* \"#utility.yul\":8131:8133   */\n      0x20\n        /* \"#utility.yul\":8120:8129   */\n      dup3\n        /* \"#utility.yul\":8116:8134   */\n      add\n        /* \"#utility.yul\":8108:8134   */\n      swap1\n      pop\n        /* \"#utility.yul\":8180:8189   */\n      dup2\n        /* \"#utility.yul\":8174:8178   */\n      dup2\n        /* \"#utility.yul\":8170:8190   */\n      sub\n        /* \"#utility.yul\":8166:8167   */\n      0x00\n        /* \"#utility.yul\":8155:8164   */\n      dup4\n        /* \"#utility.yul\":8151:8168   */\n      add\n        /* \"#utility.yul\":8144:8191   */\n      mstore\n        /* \"#utility.yul\":8208:8358   */\n      tag_288\n        /* \"#utility.yul\":8353:8357   */\n      dup2\n        /* \"#utility.yul\":8344:8350   */\n      dup5\n        /* \"#utility.yul\":8208:8358   */\n      tag_174\n      jump\t// in\n    tag_288:\n        /* \"#utility.yul\":8200:8358   */\n      swap1\n      pop\n        /* \"#utility.yul\":7908:8365   */\n      swap3\n      swap2\n      pop\n      pop\n      jump\t// out\n        /* \"#utility.yul\":8371:8593   */\n    tag_35:\n        /* \"#utility.yul\":8464:8468   */\n      0x00\n        /* \"#utility.yul\":8502:8504   */\n      0x20\n        /* \"#utility.yul\":8491:8500   */\n      dup3\n        /* \"#utility.yul\":8487:8505   */\n      add\n        /* \"#utility.yul\":8479:8505   */\n      swap1\n      pop\n        /* \"#utility.yul\":8515:8586   */\n      tag_290\n        /* \"#utility.yul\":8583:8584   */\n      0x00\n        /* \"#utility.yul\":8572:8581   */\n      dup4\n        /* \"#utility.yul\":8568:8585   */\n      add\n        /* \"#utility.yul\":8559:8565   */\n      dup5\n        /* \"#utility.yul\":8515:8586   */\n      tag_157\n      jump\t// in\n    tag_290:\n        /* \"#utility.yul\":8371:8593   */\n      swap3\n      swap2\n      pop\n      pop\n      jump\t// out\n        /* \"#utility.yul\":8599:8716   */\n    tag_175:\n        /* \"#utility.yul\":8708:8709   */\n      0x00\n        /* \"#utility.yul\":8705:8706   */\n      0x00\n        /* \"#utility.yul\":8698:8710   */\n      revert\n        /* \"#utility.yul\":8722:8839   */\n    tag_176:\n        /* \"#utility.yul\":8831:8832   */\n      0x00\n        /* \"#utility.yul\":8828:8829   */\n      0x00\n        /* \"#utility.yul\":8821:8833   */\n      revert\n        /* \"#utility.yul\":8845:9025   */\n    tag_177:\n        /* \"#utility.yul\":8893:8970   */\n      0x4e487b7100000000000000000000000000000000000000000000000000000000\n        /* \"#utility.yul\":8890:8891   */\n      0x00\n        /* \"#utility.yul\":8883:8971   */\n      mstore\n        /* \"#utility.yul\":8990:8994   */\n      0x41\n        /* \"#utility.yul\":8987:8988   */\n      0x04\n        /* \"#utility.yul\":8980:8995   */\n      mstore\n        /* \"#utility.yul\":9014:9018   */\n      0x24\n        /* \"#utility.yul\":9011:9012   */\n      0x00\n        /* \"#utility.yul\":9004:9019   */\n      revert\n        /* \"#utility.yul\":9031:9312   */\n    tag_178:\n        /* \"#utility.yul\":9114:9141   */\n      tag_295\n        /* \"#utility.yul\":9136:9140   */\n      dup3\n        /* \"#utility.yul\":9114:9141   */\n      tag_162\n      jump\t// in\n    tag_295:\n        /* \"#utility.yul\":9106:9112   */\n      dup2\n        /* \"#utility.yul\":9102:9142   */\n      add\n        /* \"#utility.yul\":9244:9250   */\n      dup2\n        /* \"#utility.yul\":9232:9242   */\n      dup2\n        /* \"#utility.yul\":9229:9251   */\n      lt\n        /* \"#utility.yul\":9208:9226   */\n      0xffffffffffffffff\n        /* \"#utility.yul\":9196:9206   */\n      dup3\n        /* \"#utility.yul\":9193:9227   */\n      gt\n        /* \"#utility.yul\":9190:9252   */\n      or\n        /* \"#utility.yul\":9187:9275   */\n      iszero\n      tag_296\n      jumpi\n        /* \"#utility.yul\":9255:9273   */\n      tag_297\n      tag_177\n      jump\t// in\n    tag_297:\n        /* \"#utility.yul\":9187:9275   */\n    tag_296:\n        /* \"#utility.yul\":9295:9305   */\n      dup1\n        /* \"#utility.yul\":9291:9293   */\n      0x40\n        /* \"#utility.yul\":9284:9306   */\n      mstore\n        /* \"#utility.yul\":9074:9312   */\n      pop\n        /* \"#utility.yul\":9031:9312   */\n      pop\n      pop\n      jump\t// out\n        /* \"#utility.yul\":9318:9447   */\n    tag_179:\n        /* \"#utility.yul\":9352:9358   */\n      0x00\n        /* \"#utility.yul\":9379:9399   */\n      tag_299\n      tag_147\n      jump\t// in\n    tag_299:\n        /* \"#utility.yul\":9369:9399   */\n      swap1\n      pop\n        /* \"#utility.yul\":9408:9441   */\n      tag_300\n        /* \"#utility.yul\":9436:9440   */\n      dup3\n        /* \"#utility.yul\":9428:9434   */\n      dup3\n        /* \"#utility.yul\":9408:9441   */\n      tag_178\n      jump\t// in\n    tag_300:\n        /* \"#utility.yul\":9318:9447   */\n      swap2\n      swap1\n      pop\n      jump\t// out\n        /* \"#utility.yul\":9453:9761   */\n    tag_180:\n        /* \"#utility.yul\":9515:9519   */\n      0x00\n        /* \"#utility.yul\":9605:9623   */\n      0xffffffffffffffff\n        /* \"#utility.yul\":9597:9603   */\n      dup3\n        /* \"#utility.yul\":9594:9624   */\n      gt\n        /* \"#utility.yul\":9591:9647   */\n      iszero\n      tag_302\n      jumpi\n        /* \"#utility.yul\":9627:9645   */\n      tag_303\n      tag_177\n      jump\t// in\n    tag_303:\n        /* \"#utility.yul\":9591:9647   */\n    tag_302:\n        /* \"#utility.yul\":9665:9694   */\n      tag_304\n        /* \"#utility.yul\":9687:9693   */\n      dup3\n        /* \"#utility.yul\":9665:9694   */\n      tag_162\n      jump\t// in\n    tag_304:\n        /* \"#utility.yul\":9657:9694   */\n      swap1\n      pop\n        /* \"#utility.yul\":9749:9753   */\n      0x20\n        /* \"#utility.yul\":9743:9747   */\n      dup2\n        /* \"#utility.yul\":9739:9754   */\n      add\n        /* \"#utility.yul\":9731:9754   */\n      swap1\n      pop\n        /* \"#utility.yul\":9453:9761   */\n      swap2\n      swap1\n      pop\n      jump\t// out\n        /* \"#utility.yul\":9767:9915   */\n    tag_181:\n        /* \"#utility.yul\":9865:9871   */\n      dup3\n        /* \"#utility.yul\":9860:9863   */\n      dup2\n        /* \"#utility.yul\":9855:9858   */\n      dup4\n        /* \"#utility.yul\":9842:9872   */\n      calldatacopy\n        /* \"#utility.yul\":9906:9907   */\n      0x00\n        /* \"#utility.yul\":9897:9903   */\n      dup4\n        /* \"#utility.yul\":9892:9895   */\n      dup4\n        /* \"#utility.yul\":9888:9904   */\n      add\n        /* \"#utility.yul\":9881:9908   */\n      mstore\n        /* \"#utility.yul\":9767:9915   */\n      pop\n      pop\n      pop\n      jump\t// out\n        /* \"#utility.yul\":9921:10346   */\n    tag_182:\n        /* \"#utility.yul\":9999:10004   */\n      0x00\n        /* \"#utility.yul\":10024:10090   */\n      tag_307\n        /* \"#utility.yul\":10040:10089   */\n      tag_308\n        /* \"#utility.yul\":10082:10088   */\n      dup5\n        /* \"#utility.yul\":10040:10089   */\n      tag_180\n      jump\t// in\n    tag_308:\n        /* \"#utility.yul\":10024:10090   */\n      tag_179\n      jump\t// in\n    tag_307:\n        /* \"#utility.yul\":10015:10090   */\n      swap1\n      pop\n        /* \"#utility.yul\":10113:10119   */\n      dup3\n        /* \"#utility.yul\":10106:10111   */\n      dup2\n        /* \"#utility.yul\":10099:10120   */\n      mstore\n        /* \"#utility.yul\":10151:10155   */\n      0x20\n        /* \"#utility.yul\":10144:10149   */\n      dup2\n        /* \"#utility.yul\":10140:10156   */\n      add\n        /* \"#utility.yul\":10189:10192   */\n      dup5\n        /* \"#utility.yul\":10180:10186   */\n      dup5\n        /* \"#utility.yul\":10175:10178   */\n      dup5\n        /* \"#utility.yul\":10171:10187   */\n      add\n        /* \"#utility.yul\":10168:10193   */\n      gt\n        /* \"#utility.yul\":10165:10277   */\n      iszero\n      tag_309\n      jumpi\n        /* \"#utility.yul\":10196:10275   */\n      tag_310\n      tag_176\n      jump\t// in\n    tag_310:\n        /* \"#utility.yul\":10165:10277   */\n    tag_309:\n        /* \"#utility.yul\":10286:10340   */\n      tag_311\n        /* \"#utility.yul\":10333:10339   */\n      dup5\n        /* \"#utility.yul\":10328:10331   */\n      dup3\n        /* \"#utility.yul\":10323:10326   */\n      dup6\n        /* \"#utility.yul\":10286:10340   */\n      tag_181\n      jump\t// in\n    tag_311:\n        /* \"#utility.yul\":10005:10346   */\n      pop\n        /* \"#utility.yul\":9921:10346   */\n      swap4\n      swap3\n      pop\n      pop\n      pop\n      jump\t// out\n        /* \"#utility.yul\":10366:10706   */\n    tag_183:\n        /* \"#utility.yul\":10422:10427   */\n      0x00\n        /* \"#utility.yul\":10471:10474   */\n      dup3\n        /* \"#utility.yul\":10464:10468   */\n      0x1f\n        /* \"#utility.yul\":10456:10462   */\n      dup4\n        /* \"#utility.yul\":10452:10469   */\n      add\n        /* \"#utility.yul\":10448:10475   */\n      slt\n        /* \"#utility.yul\":10438:10560   */\n      tag_313\n      jumpi\n        /* \"#utility.yul\":10479:10558   */\n      tag_314\n      tag_175\n      jump\t// in\n    tag_314:\n        /* \"#utility.yul\":10438:10560   */\n    tag_313:\n        /* \"#utility.yul\":10596:10602   */\n      dup2\n        /* \"#utility.yul\":10583:10603   */\n      calldataload\n        /* \"#utility.yul\":10621:10700   */\n      tag_315\n        /* \"#utility.yul\":10696:10699   */\n      dup5\n        /* \"#utility.yul\":10688:10694   */\n      dup3\n        /* \"#utility.yul\":10681:10685   */\n      0x20\n        /* \"#utility.yul\":10673:10679   */\n      dup7\n        /* \"#utility.yul\":10669:10686   */\n      add\n        /* \"#utility.yul\":10621:10700   */\n      tag_182\n      jump\t// in\n    tag_315:\n        /* \"#utility.yul\":10612:10700   */\n      swap2\n      pop\n        /* \"#utility.yul\":10428:10706   */\n      pop\n        /* \"#utility.yul\":10366:10706   */\n      swap3\n      swap2\n      pop\n      pop\n      jump\t// out\n        /* \"#utility.yul\":10712:11221   */\n    tag_38:\n        /* \"#utility.yul\":10781:10787   */\n      0x00\n        /* \"#utility.yul\":10830:10832   */\n      0x20\n        /* \"#utility.yul\":10818:10827   */\n      dup3\n        /* \"#utility.yul\":10809:10816   */\n      dup5\n        /* \"#utility.yul\":10805:10828   */\n      sub\n        /* \"#utility.yul\":10801:10833   */\n      slt\n        /* \"#utility.yul\":10798:10917   */\n      iszero\n      tag_317\n      jumpi\n        /* \"#utility.yul\":10836:10915   */\n      tag_318\n      tag_148\n      jump\t// in\n    tag_318:\n        /* \"#utility.yul\":10798:10917   */\n    tag_317:\n        /* \"#utility.yul\":10984:10985   */\n      0x00\n        /* \"#utility.yul\":10973:10982   */\n      dup3\n        /* \"#utility.yul\":10969:10986   */\n      add\n        /* \"#utility.yul\":10956:10987   */\n      calldataload\n        /* \"#utility.yul\":11014:11032   */\n      0xffffffffffffffff\n        /* \"#utility.yul\":11006:11012   */\n      dup2\n        /* \"#utility.yul\":11003:11033   */\n      gt\n        /* \"#utility.yul\":11000:11117   */\n      iszero\n      tag_319\n      jumpi\n        /* \"#utility.yul\":11036:11115   */\n      tag_320\n      tag_149\n      jump\t// in\n    tag_320:\n        /* \"#utility.yul\":11000:11117   */\n    tag_319:\n        /* \"#utility.yul\":11141:11204   */\n      tag_321\n        /* \"#utility.yul\":11196:11203   */\n      dup5\n        /* \"#utility.yul\":11187:11193   */\n      dup3\n        /* \"#utility.yul\":11176:11185   */\n      dup6\n        /* \"#utility.yul\":11172:11194   */\n      add\n        /* \"#utility.yul\":11141:11204   */\n      tag_183\n      jump\t// in\n    tag_321:\n        /* \"#utility.yul\":11131:11204   */\n      swap2\n      pop\n        /* \"#utility.yul\":10927:11214   */\n      pop\n        /* \"#utility.yul\":10712:11221   */\n      swap3\n      swap2\n      pop\n      pop\n      jump\t// out\n        /* \"#utility.yul\":11227:11556   */\n    tag_46:\n        /* \"#utility.yul\":11286:11292   */\n      0x00\n        /* \"#utility.yul\":11335:11337   */\n      0x20\n        /* \"#utility.yul\":11323:11332   */\n      dup3\n        /* \"#utility.yul\":11314:11321   */\n      dup5\n        /* \"#utility.yul\":11310:11333   */\n      sub\n        /* \"#utility.yul\":11306:11338   */\n      slt\n        /* \"#utility.yul\":11303:11422   */\n      iszero\n      tag_323\n      jumpi\n        /* \"#utility.yul\":11341:11420   */\n      tag_324\n      tag_148\n      jump\t// in\n    tag_324:\n        /* \"#utility.yul\":11303:11422   */\n    tag_323:\n        /* \"#utility.yul\":11461:11462   */\n      0x00\n        /* \"#utility.yul\":11486:11539   */\n      tag_325\n        /* \"#utility.yul\":11531:11538   */\n      dup5\n        /* \"#utility.yul\":11522:11528   */\n      dup3\n        /* \"#utility.yul\":11511:11520   */\n      dup6\n        /* \"#utility.yul\":11507:11529   */\n      add\n        /* \"#utility.yul\":11486:11539   */\n      tag_156\n      jump\t// in\n    tag_325:\n        /* \"#utility.yul\":11476:11539   */\n      swap2\n      pop\n        /* \"#utility.yul\":11432:11549   */\n      pop\n        /* \"#utility.yul\":11227:11556   */\n      swap3\n      swap2\n      pop\n      pop\n      jump\t// out\n        /* \"#utility.yul\":11562:11784   */\n    tag_51:\n        /* \"#utility.yul\":11655:11659   */\n      0x00\n        /* \"#utility.yul\":11693:11695   */\n      0x20\n        /* \"#utility.yul\":11682:11691   */\n      dup3\n        /* \"#utility.yul\":11678:11696   */\n      add\n        /* \"#utility.yul\":11670:11696   */\n      swap1\n      pop\n        /* \"#utility.yul\":11706:11777   */\n      tag_327\n        /* \"#utility.yul\":11774:11775   */\n      0x00\n        /* \"#utility.yul\":11763:11772   */\n      dup4\n        /* \"#utility.yul\":11759:11776   */\n      add\n        /* \"#utility.yul\":11750:11756   */\n      dup5\n        /* \"#utility.yul\":11706:11777   */\n      tag_158\n      jump\t// in\n    tag_327:\n        /* \"#utility.yul\":11562:11784   */\n      swap3\n      swap2\n      pop\n      pop\n      jump\t// out\n        /* \"#utility.yul\":11842:12971   */\n    tag_184:\n        /* \"#utility.yul\":11953:11956   */\n      0x00\n        /* \"#utility.yul\":11989:11993   */\n      0xa0\n        /* \"#utility.yul\":11984:11987   */\n      dup4\n        /* \"#utility.yul\":11980:11994   */\n      add\n        /* \"#utility.yul\":12074:12078   */\n      0x00\n        /* \"#utility.yul\":12067:12072   */\n      dup4\n        /* \"#utility.yul\":12063:12079   */\n      add\n        /* \"#utility.yul\":12057:12080   */\n      mload\n        /* \"#utility.yul\":12093:12156   */\n      tag_329\n        /* \"#utility.yul\":12150:12154   */\n      0x00\n        /* \"#utility.yul\":12145:12148   */\n      dup7\n        /* \"#utility.yul\":12141:12155   */\n      add\n        /* \"#utility.yul\":12127:12139   */\n      dup3\n        /* \"#utility.yul\":12093:12156   */\n      tag_167\n      jump\t// in\n    tag_329:\n        /* \"#utility.yul\":12004:12166   */\n      pop\n        /* \"#utility.yul\":12250:12254   */\n      0x20\n        /* \"#utility.yul\":12243:12248   */\n      dup4\n        /* \"#utility.yul\":12239:12255   */\n      add\n        /* \"#utility.yul\":12233:12256   */\n      mload\n        /* \"#utility.yul\":12269:12332   */\n      tag_330\n        /* \"#utility.yul\":12326:12330   */\n      0x20\n        /* \"#utility.yul\":12321:12324   */\n      dup7\n        /* \"#utility.yul\":12317:12331   */\n      add\n        /* \"#utility.yul\":12303:12315   */\n      dup3\n        /* \"#utility.yul\":12269:12332   */\n      tag_168\n      jump\t// in\n    tag_330:\n        /* \"#utility.yul\":12176:12342   */\n      pop\n        /* \"#utility.yul\":12427:12431   */\n      0x40\n        /* \"#utility.yul\":12420:12425   */\n      dup4\n        /* \"#utility.yul\":12416:12432   */\n      add\n        /* \"#utility.yul\":12410:12433   */\n      mload\n        /* \"#utility.yul\":12480:12483   */\n      dup5\n        /* \"#utility.yul\":12474:12478   */\n      dup3\n        /* \"#utility.yul\":12470:12484   */\n      sub\n        /* \"#utility.yul\":12463:12467   */\n      0x40\n        /* \"#utility.yul\":12458:12461   */\n      dup7\n        /* \"#utility.yul\":12454:12468   */\n      add\n        /* \"#utility.yul\":12447:12485   */\n      mstore\n        /* \"#utility.yul\":12506:12579   */\n      tag_331\n        /* \"#utility.yul\":12574:12578   */\n      dup3\n        /* \"#utility.yul\":12560:12572   */\n      dup3\n        /* \"#utility.yul\":12506:12579   */\n      tag_170\n      jump\t// in\n    tag_331:\n        /* \"#utility.yul\":12498:12579   */\n      swap2\n      pop\n        /* \"#utility.yul\":12352:12590   */\n      pop\n        /* \"#utility.yul\":12677:12681   */\n      0x60\n        /* \"#utility.yul\":12670:12675   */\n      dup4\n        /* \"#utility.yul\":12666:12682   */\n      add\n        /* \"#utility.yul\":12660:12683   */\n      mload\n        /* \"#utility.yul\":12696:12759   */\n      tag_332\n        /* \"#utility.yul\":12753:12757   */\n      0x60\n        /* \"#utility.yul\":12748:12751   */\n      dup7\n        /* \"#utility.yul\":12744:12758   */\n      add\n        /* \"#utility.yul\":12730:12742   */\n      dup3\n        /* \"#utility.yul\":12696:12759   */\n      tag_167\n      jump\t// in\n    tag_332:\n        /* \"#utility.yul\":12600:12769   */\n      pop\n        /* \"#utility.yul\":12852:12856   */\n      0x80\n        /* \"#utility.yul\":12845:12850   */\n      dup4\n        /* \"#utility.yul\":12841:12857   */\n      add\n        /* \"#utility.yul\":12835:12858   */\n      mload\n        /* \"#utility.yul\":12871:12934   */\n      tag_333\n        /* \"#utility.yul\":12928:12932   */\n      0x80\n        /* \"#utility.yul\":12923:12926   */\n      dup7\n        /* \"#utility.yul\":12919:12933   */\n      add\n        /* \"#utility.yul\":12905:12917   */\n      dup3\n        /* \"#utility.yul\":12871:12934   */\n      tag_167\n      jump\t// in\n    tag_333:\n        /* \"#utility.yul\":12779:12944   */\n      pop\n        /* \"#utility.yul\":12961:12965   */\n      dup1\n        /* \"#utility.yul\":12954:12965   */\n      swap2\n      pop\n        /* \"#utility.yul\":11958:12971   */\n      pop\n        /* \"#utility.yul\":11842:12971   */\n      swap3\n      swap2\n      pop\n      pop\n      jump\t// out\n        /* \"#utility.yul\":12977:13334   */\n    tag_56:\n        /* \"#utility.yul\":13112:13116   */\n      0x00\n        /* \"#utility.yul\":13150:13152   */\n      0x20\n        /* \"#utility.yul\":13139:13148   */\n      dup3\n        /* \"#utility.yul\":13135:13153   */\n      add\n        /* \"#utility.yul\":13127:13153   */\n      swap1\n      pop\n        /* \"#utility.yul\":13199:13208   */\n      dup2\n        /* \"#utility.yul\":13193:13197   */\n      dup2\n        /* \"#utility.yul\":13189:13209   */\n      sub\n        /* \"#utility.yul\":13185:13186   */\n      0x00\n        /* \"#utility.yul\":13174:13183   */\n      dup4\n        /* \"#utility.yul\":13170:13187   */\n      add\n        /* \"#utility.yul\":13163:13210   */\n      mstore\n        /* \"#utility.yul\":13227:13327   */\n      tag_335\n        /* \"#utility.yul\":13322:13326   */\n      dup2\n        /* \"#utility.yul\":13313:13319   */\n      dup5\n        /* \"#utility.yul\":13227:13327   */\n      tag_184\n      jump\t// in\n    tag_335:\n        /* \"#utility.yul\":13219:13327   */\n      swap1\n      pop\n        /* \"#utility.yul\":12977:13334   */\n      swap3\n      swap2\n      pop\n      pop\n      jump\t// out\n        /* \"#utility.yul\":13340:13520   */\n    tag_185:\n        /* \"#utility.yul\":13388:13465   */\n      0x4e487b7100000000000000000000000000000000000000000000000000000000\n        /* \"#utility.yul\":13385:13386   */\n      0x00\n        /* \"#utility.yul\":13378:13466   */\n      mstore\n        /* \"#utility.yul\":13485:13489   */\n      0x22\n        /* \"#utility.yul\":13482:13483   */\n      0x04\n        /* \"#utility.yul\":13475:13490   */\n      mstore\n        /* \"#utility.yul\":13509:13513   */\n      0x24\n        /* \"#utility.yul\":13506:13507   */\n      0x00\n        /* \"#utility.yul\":13499:13514   */\n      revert\n        /* \"#utility.yul\":13526:13846   */\n    tag_60:\n        /* \"#utility.yul\":13570:13576   */\n      0x00\n        /* \"#utility.yul\":13607:13608   */\n      0x02\n        /* \"#utility.yul\":13601:13605   */\n      dup3\n        /* \"#utility.yul\":13597:13609   */\n      div\n        /* \"#utility.yul\":13587:13609   */\n      swap1\n      pop\n        /* \"#utility.yul\":13654:13655   */\n      0x01\n        /* \"#utility.yul\":13648:13652   */\n      dup3\n        /* \"#utility.yul\":13644:13656   */\n      and\n        /* \"#utility.yul\":13675:13693   */\n      dup1\n        /* \"#utility.yul\":13665:13746   */\n      tag_338\n      jumpi\n        /* \"#utility.yul\":13731:13735   */\n      0x7f\n        /* \"#utility.yul\":13723:13729   */\n      dup3\n        /* \"#utility.yul\":13719:13736   */\n      and\n        /* \"#utility.yul\":13709:13736   */\n      swap2\n      pop\n        /* \"#utility.yul\":13665:13746   */\n    tag_338:\n        /* \"#utility.yul\":13793:13795   */\n      0x20\n        /* \"#utility.yul\":13785:13791   */\n      dup3\n        /* \"#utility.yul\":13782:13796   */\n      lt\n        /* \"#utility.yul\":13762:13780   */\n      dup2\n        /* \"#utility.yul\":13759:13797   */\n      sub\n        /* \"#utility.yul\":13756:13840   */\n      tag_339\n      jumpi\n        /* \"#utility.yul\":13812:13830   */\n      tag_340\n      tag_185\n      jump\t// in\n    tag_340:\n        /* \"#utility.yul\":13756:13840   */\n    tag_339:\n        /* \"#utility.yul\":13577:13846   */\n      pop\n        /* \"#utility.yul\":13526:13846   */\n      swap2\n      swap1\n      pop\n      jump\t// out\n        /* \"#utility.yul\":13852:14032   */\n    tag_77:\n        /* \"#utility.yul\":13900:13977   */\n      0x4e487b7100000000000000000000000000000000000000000000000000000000\n        /* \"#utility.yul\":13897:13898   */\n      0x00\n        /* \"#utility.yul\":13890:13978   */\n      mstore\n        /* \"#utility.yul\":13997:14001   */\n      0x32\n        /* \"#utility.yul\":13994:13995   */\n      0x04\n        /* \"#utility.yul\":13987:14002   */\n      mstore\n        /* \"#utility.yul\":14021:14025   */\n      0x24\n        /* \"#utility.yul\":14018:14019   */\n      0x00\n        /* \"#utility.yul\":14011:14026   */\n      revert\n        /* \"#utility.yul\":14038:14206   */\n    tag_186:\n        /* \"#utility.yul\":14178:14198   */\n      0x547765657420646f65736e742065786973740000000000000000000000000000\n        /* \"#utility.yul\":14174:14175   */\n      0x00\n        /* \"#utility.yul\":14166:14172   */\n      dup3\n        /* \"#utility.yul\":14162:14176   */\n      add\n        /* \"#utility.yul\":14155:14199   */\n      mstore\n        /* \"#utility.yul\":14038:14206   */\n      pop\n      jump\t// out\n        /* \"#utility.yul\":14212:14578   */\n    tag_187:\n        /* \"#utility.yul\":14354:14357   */\n      0x00\n        /* \"#utility.yul\":14375:14442   */\n      tag_344\n        /* \"#utility.yul\":14439:14441   */\n      0x12\n        /* \"#utility.yul\":14434:14437   */\n      dup4\n        /* \"#utility.yul\":14375:14442   */\n      tag_160\n      jump\t// in\n    tag_344:\n        /* \"#utility.yul\":14368:14442   */\n      swap2\n      pop\n        /* \"#utility.yul\":14451:14544   */\n      tag_345\n        /* \"#utility.yul\":14540:14543   */\n      dup3\n        /* \"#utility.yul\":14451:14544   */\n      tag_186\n      jump\t// in\n    tag_345:\n        /* \"#utility.yul\":14569:14571   */\n      0x20\n        /* \"#utility.yul\":14564:14567   */\n      dup3\n        /* \"#utility.yul\":14560:14572   */\n      add\n        /* \"#utility.yul\":14553:14572   */\n      swap1\n      pop\n        /* \"#utility.yul\":14212:14578   */\n      swap2\n      swap1\n      pop\n      jump\t// out\n        /* \"#utility.yul\":14584:15003   */\n    tag_81:\n        /* \"#utility.yul\":14750:14754   */\n      0x00\n        /* \"#utility.yul\":14788:14790   */\n      0x20\n        /* \"#utility.yul\":14777:14786   */\n      dup3\n        /* \"#utility.yul\":14773:14791   */\n      add\n        /* \"#utility.yul\":14765:14791   */\n      swap1\n      pop\n        /* \"#utility.yul\":14837:14846   */\n      dup2\n        /* \"#utility.yul\":14831:14835   */\n      dup2\n        /* \"#utility.yul\":14827:14847   */\n      sub\n        /* \"#utility.yul\":14823:14824   */\n      0x00\n        /* \"#utility.yul\":14812:14821   */\n      dup4\n        /* \"#utility.yul\":14808:14825   */\n      add\n        /* \"#utility.yul\":14801:14848   */\n      mstore\n        /* \"#utility.yul\":14865:14996   */\n      tag_347\n        /* \"#utility.yul\":14991:14995   */\n      dup2\n        /* \"#utility.yul\":14865:14996   */\n      tag_187\n      jump\t// in\n    tag_347:\n        /* \"#utility.yul\":14857:14996   */\n      swap1\n      pop\n        /* \"#utility.yul\":14584:15003   */\n      swap2\n      swap1\n      pop\n      jump\t// out\n        /* \"#utility.yul\":15009:15176   */\n    tag_188:\n        /* \"#utility.yul\":15149:15168   */\n      0x547765657420686173206e6f206c696b65000000000000000000000000000000\n        /* \"#utility.yul\":15145:15146   */\n      0x00\n        /* \"#utility.yul\":15137:15143   */\n      dup3\n        /* \"#utility.yul\":15133:15147   */\n      add\n        /* \"#utility.yul\":15126:15169   */\n      mstore\n        /* \"#utility.yul\":15009:15176   */\n      pop\n      jump\t// out\n        /* \"#utility.yul\":15182:15548   */\n    tag_189:\n        /* \"#utility.yul\":15324:15327   */\n      0x00\n        /* \"#utility.yul\":15345:15412   */\n      tag_350\n        /* \"#utility.yul\":15409:15411   */\n      0x11\n        /* \"#utility.yul\":15404:15407   */\n      dup4\n        /* \"#utility.yul\":15345:15412   */\n      tag_160\n      jump\t// in\n    tag_350:\n        /* \"#utility.yul\":15338:15412   */\n      swap2\n      pop\n        /* \"#utility.yul\":15421:15514   */\n      tag_351\n        /* \"#utility.yul\":15510:15513   */\n      dup3\n        /* \"#utility.yul\":15421:15514   */\n      tag_188\n      jump\t// in\n    tag_351:\n        /* \"#utility.yul\":15539:15541   */\n      0x20\n        /* \"#utility.yul\":15534:15537   */\n      dup3\n        /* \"#utility.yul\":15530:15542   */\n      add\n        /* \"#utility.yul\":15523:15542   */\n      swap1\n      pop\n        /* \"#utility.yul\":15182:15548   */\n      swap2\n      swap1\n      pop\n      jump\t// out\n        /* \"#utility.yul\":15554:15973   */\n    tag_87:\n        /* \"#utility.yul\":15720:15724   */\n      0x00\n        /* \"#utility.yul\":15758:15760   */\n      0x20\n        /* \"#utility.yul\":15747:15756   */\n      dup3\n        /* \"#utility.yul\":15743:15761   */\n      add\n        /* \"#utility.yul\":15735:15761   */\n      swap1\n      pop\n        /* \"#utility.yul\":15807:15816   */\n      dup2\n        /* \"#utility.yul\":15801:15805   */\n      dup2\n        /* \"#utility.yul\":15797:15817   */\n      sub\n        /* \"#utility.yul\":15793:15794   */\n      0x00\n        /* \"#utility.yul\":15782:15791   */\n      dup4\n        /* \"#utility.yul\":15778:15795   */\n      add\n        /* \"#utility.yul\":15771:15818   */\n      mstore\n        /* \"#utility.yul\":15835:15966   */\n      tag_353\n        /* \"#utility.yul\":15961:15965   */\n      dup2\n        /* \"#utility.yul\":15835:15966   */\n      tag_189\n      jump\t// in\n    tag_353:\n        /* \"#utility.yul\":15827:15966   */\n      swap1\n      pop\n        /* \"#utility.yul\":15554:15973   */\n      swap2\n      swap1\n      pop\n      jump\t// out\n        /* \"#utility.yul\":15979:16159   */\n    tag_190:\n        /* \"#utility.yul\":16027:16104   */\n      0x4e487b7100000000000000000000000000000000000000000000000000000000\n        /* \"#utility.yul\":16024:16025   */\n      0x00\n        /* \"#utility.yul\":16017:16105   */\n      mstore\n        /* \"#utility.yul\":16124:16128   */\n      0x11\n        /* \"#utility.yul\":16121:16122   */\n      0x04\n        /* \"#utility.yul\":16114:16129   */\n      mstore\n        /* \"#utility.yul\":16148:16152   */\n      0x24\n        /* \"#utility.yul\":16145:16146   */\n      0x00\n        /* \"#utility.yul\":16138:16153   */\n      revert\n        /* \"#utility.yul\":16165:16336   */\n    tag_92:\n        /* \"#utility.yul\":16204:16207   */\n      0x00\n        /* \"#utility.yul\":16227:16251   */\n      tag_356\n        /* \"#utility.yul\":16245:16250   */\n      dup3\n        /* \"#utility.yul\":16227:16251   */\n      tag_154\n      jump\t// in\n    tag_356:\n        /* \"#utility.yul\":16218:16251   */\n      swap2\n      pop\n        /* \"#utility.yul\":16273:16277   */\n      0x00\n        /* \"#utility.yul\":16266:16271   */\n      dup3\n        /* \"#utility.yul\":16263:16278   */\n      sub\n        /* \"#utility.yul\":16260:16301   */\n      tag_357\n      jumpi\n        /* \"#utility.yul\":16281:16299   */\n      tag_358\n      tag_190\n      jump\t// in\n    tag_358:\n        /* \"#utility.yul\":16260:16301   */\n    tag_357:\n        /* \"#utility.yul\":16328:16329   */\n      0x01\n        /* \"#utility.yul\":16321:16326   */\n      dup3\n        /* \"#utility.yul\":16317:16330   */\n      sub\n        /* \"#utility.yul\":16310:16330   */\n      swap1\n      pop\n        /* \"#utility.yul\":16165:16336   */\n      swap2\n      swap1\n      pop\n      jump\t// out\n        /* \"#utility.yul\":16342:16895   */\n    tag_97:\n        /* \"#utility.yul\":16519:16523   */\n      0x00\n        /* \"#utility.yul\":16557:16560   */\n      0x80\n        /* \"#utility.yul\":16546:16555   */\n      dup3\n        /* \"#utility.yul\":16542:16561   */\n      add\n        /* \"#utility.yul\":16534:16561   */\n      swap1\n      pop\n        /* \"#utility.yul\":16571:16642   */\n      tag_360\n        /* \"#utility.yul\":16639:16640   */\n      0x00\n        /* \"#utility.yul\":16628:16637   */\n      dup4\n        /* \"#utility.yul\":16624:16641   */\n      add\n        /* \"#utility.yul\":16615:16621   */\n      dup8\n        /* \"#utility.yul\":16571:16642   */\n      tag_158\n      jump\t// in\n    tag_360:\n        /* \"#utility.yul\":16652:16724   */\n      tag_361\n        /* \"#utility.yul\":16720:16722   */\n      0x20\n        /* \"#utility.yul\":16709:16718   */\n      dup4\n        /* \"#utility.yul\":16705:16723   */\n      add\n        /* \"#utility.yul\":16696:16702   */\n      dup7\n        /* \"#utility.yul\":16652:16724   */\n      tag_158\n      jump\t// in\n    tag_361:\n        /* \"#utility.yul\":16734:16806   */\n      tag_362\n        /* \"#utility.yul\":16802:16804   */\n      0x40\n        /* \"#utility.yul\":16791:16800   */\n      dup4\n        /* \"#utility.yul\":16787:16805   */\n      add\n        /* \"#utility.yul\":16778:16784   */\n      dup6\n        /* \"#utility.yul\":16734:16806   */\n      tag_157\n      jump\t// in\n    tag_362:\n        /* \"#utility.yul\":16816:16888   */\n      tag_363\n        /* \"#utility.yul\":16884:16886   */\n      0x60\n        /* \"#utility.yul\":16873:16882   */\n      dup4\n        /* \"#utility.yul\":16869:16887   */\n      add\n        /* \"#utility.yul\":16860:16866   */\n      dup5\n        /* \"#utility.yul\":16816:16888   */\n      tag_157\n      jump\t// in\n    tag_363:\n        /* \"#utility.yul\":16342:16895   */\n      swap6\n      swap5\n      pop\n      pop\n      pop\n      pop\n      pop\n      jump\t// out\n        /* \"#utility.yul\":16901:17134   */\n    tag_108:\n        /* \"#utility.yul\":16940:16943   */\n      0x00\n        /* \"#utility.yul\":16963:16987   */\n      tag_365\n        /* \"#utility.yul\":16981:16986   */\n      dup3\n        /* \"#utility.yul\":16963:16987   */\n      tag_154\n      jump\t// in\n    tag_365:\n        /* \"#utility.yul\":16954:16987   */\n      swap2\n      pop\n        /* \"#utility.yul\":17009:17075   */\n      0xffffffffffffffffffffffffffffffffffffffffffffffffffffffffffffffff\n        /* \"#utility.yul\":17002:17007   */\n      dup3\n        /* \"#utility.yul\":16999:17076   */\n      sub\n        /* \"#utility.yul\":16996:17099   */\n      tag_366\n      jumpi\n        /* \"#utility.yul\":17079:17097   */\n      tag_367\n      tag_190\n      jump\t// in\n    tag_367:\n        /* \"#utility.yul\":16996:17099   */\n    tag_366:\n        /* \"#utility.yul\":17126:17127   */\n      0x01\n        /* \"#utility.yul\":17119:17124   */\n      dup3\n        /* \"#utility.yul\":17115:17128   */\n      add\n        /* \"#utility.yul\":17108:17128   */\n      swap1\n      pop\n        /* \"#utility.yul\":16901:17134   */\n      swap2\n      swap1\n      pop\n      jump\t// out\n        /* \"#utility.yul\":17140:17309   */\n    tag_191:\n        /* \"#utility.yul\":17280:17301   */\n      0x547765657420746f6f206c6f6e67206272756800000000000000000000000000\n        /* \"#utility.yul\":17276:17277   */\n      0x00\n        /* \"#utility.yul\":17268:17274   */\n      dup3\n        /* \"#utility.yul\":17264:17278   */\n      add\n        /* \"#utility.yul\":17257:17302   */\n      mstore\n        /* \"#utility.yul\":17140:17309   */\n      pop\n      jump\t// out\n        /* \"#utility.yul\":17315:17681   */\n    tag_192:\n        /* \"#utility.yul\":17457:17460   */\n      0x00\n        /* \"#utility.yul\":17478:17545   */\n      tag_370\n        /* \"#utility.yul\":17542:17544   */\n      0x13\n        /* \"#utility.yul\":17537:17540   */\n      dup4\n        /* \"#utility.yul\":17478:17545   */\n      tag_160\n      jump\t// in\n    tag_370:\n        /* \"#utility.yul\":17471:17545   */\n      swap2\n      pop\n        /* \"#utility.yul\":17554:17647   */\n      tag_371\n        /* \"#utility.yul\":17643:17646   */\n      dup3\n        /* \"#utility.yul\":17554:17647   */\n      tag_191\n      jump\t// in\n    tag_371:\n        /* \"#utility.yul\":17672:17674   */\n      0x20\n        /* \"#utility.yul\":17667:17670   */\n      dup3\n        /* \"#utility.yul\":17663:17675   */\n      add\n        /* \"#utility.yul\":17656:17675   */\n      swap1\n      pop\n        /* \"#utility.yul\":17315:17681   */\n      swap2\n      swap1\n      pop\n      jump\t// out\n        /* \"#utility.yul\":17687:18106   */\n    tag_116:\n        /* \"#utility.yul\":17853:17857   */\n      0x00\n        /* \"#utility.yul\":17891:17893   */\n      0x20\n        /* \"#utility.yul\":17880:17889   */\n      dup3\n        /* \"#utility.yul\":17876:17894   */\n      add\n        /* \"#utility.yul\":17868:17894   */\n      swap1\n      pop\n        /* \"#utility.yul\":17940:17949   */\n      dup2\n        /* \"#utility.yul\":17934:17938   */\n      dup2\n        /* \"#utility.yul\":17930:17950   */\n      sub\n        /* \"#utility.yul\":17926:17927   */\n      0x00\n        /* \"#utility.yul\":17915:17924   */\n      dup4\n        /* \"#utility.yul\":17911:17928   */\n      add\n        /* \"#utility.yul\":17904:17951   */\n      mstore\n        /* \"#utility.yul\":17968:18099   */\n      tag_373\n        /* \"#utility.yul\":18094:18098   */\n      dup2\n        /* \"#utility.yul\":17968:18099   */\n      tag_192\n      jump\t// in\n    tag_373:\n        /* \"#utility.yul\":17960:18099   */\n      swap1\n      pop\n        /* \"#utility.yul\":17687:18106   */\n      swap2\n      swap1\n      pop\n      jump\t// out\n        /* \"#utility.yul\":18112:18253   */\n    tag_193:\n        /* \"#utility.yul\":18161:18165   */\n      0x00\n        /* \"#utility.yul\":18184:18187   */\n      dup2\n        /* \"#utility.yul\":18176:18187   */\n      swap1\n      pop\n        /* \"#utility.yul\":18207:18210   */\n      dup2\n        /* \"#utility.yul\":18204:18205   */\n      0x00\n        /* \"#utility.yul\":18197:18211   */\n      mstore\n        /* \"#utility.yul\":18241:18245   */\n      0x20\n        /* \"#utility.yul\":18238:18239   */\n      0x00\n        /* \"#utility.yul\":18228:18246   */\n      keccak256\n        /* \"#utility.yul\":18220:18246   */\n      swap1\n      pop\n        /* \"#utility.yul\":18112:18253   */\n      swap2\n      swap1\n      pop\n      jump\t// out\n        /* \"#utility.yul\":18259:18352   */\n    tag_194:\n        /* \"#utility.yul\":18296:18302   */\n      0x00\n        /* \"#utility.yul\":18343:18345   */\n      0x20\n        /* \"#utility.yul\":18338:18340   */\n      0x1f\n        /* \"#utility.yul\":18331:18336   */\n      dup4\n        /* \"#utility.yul\":18327:18341   */\n      add\n        /* \"#utility.yul\":18323:18346   */\n      div\n        /* \"#utility.yul\":18313:18346   */\n      swap1\n      pop\n        /* \"#utility.yul\":18259:18352   */\n      swap2\n      swap1\n      pop\n      jump\t// out\n        /* \"#utility.yul\":18358:18465   */\n    tag_195:\n        /* \"#utility.yul\":18402:18410   */\n      0x00\n        /* \"#utility.yul\":18452:18457   */\n      dup3\n        /* \"#utility.yul\":18446:18450   */\n      dup3\n        /* \"#utility.yul\":18442:18458   */\n      shl\n        /* \"#utility.yul\":18421:18458   */\n      swap1\n      pop\n        /* \"#utility.yul\":18358:18465   */\n      swap3\n      swap2\n      pop\n      pop\n      jump\t// out\n        /* \"#utility.yul\":18471:18864   */\n    tag_196:\n        /* \"#utility.yul\":18540:18546   */\n      0x00\n        /* \"#utility.yul\":18590:18591   */\n      0x08\n        /* \"#utility.yul\":18578:18588   */\n      dup4\n        /* \"#utility.yul\":18574:18592   */\n      mul\n        /* \"#utility.yul\":18613:18710   */\n      tag_378\n        /* \"#utility.yul\":18643:18709   */\n      0xffffffffffffffffffffffffffffffffffffffffffffffffffffffffffffffff\n        /* \"#utility.yul\":18632:18641   */\n      dup3\n        /* \"#utility.yul\":18613:18710   */\n      tag_195\n      jump\t// in\n    tag_378:\n        /* \"#utility.yul\":18731:18770   */\n      tag_379\n        /* \"#utility.yul\":18761:18769   */\n      dup7\n        /* \"#utility.yul\":18750:18759   */\n      dup4\n        /* \"#utility.yul\":18731:18770   */\n      tag_195\n      jump\t// in\n    tag_379:\n        /* \"#utility.yul\":18719:18770   */\n      swap6\n      pop\n        /* \"#utility.yul\":18803:18807   */\n      dup1\n        /* \"#utility.yul\":18799:18808   */\n      not\n        /* \"#utility.yul\":18792:18797   */\n      dup5\n        /* \"#utility.yul\":18788:18809   */\n      and\n        /* \"#utility.yul\":18779:18809   */\n      swap4\n      pop\n        /* \"#utility.yul\":18852:18856   */\n      dup1\n        /* \"#utility.yul\":18842:18850   */\n      dup7\n        /* \"#utility.yul\":18838:18857   */\n      and\n        /* \"#utility.yul\":18831:18836   */\n      dup5\n        /* \"#utility.yul\":18828:18858   */\n      or\n        /* \"#utility.yul\":18818:18858   */\n      swap3\n      pop\n        /* \"#utility.yul\":18547:18864   */\n      pop\n      pop\n        /* \"#utility.yul\":18471:18864   */\n      swap4\n      swap3\n      pop\n      pop\n      pop\n      jump\t// out\n        /* \"#utility.yul\":18870:18930   */\n    tag_197:\n        /* \"#utility.yul\":18898:18901   */\n      0x00\n        /* \"#utility.yul\":18919:18924   */\n      dup2\n        /* \"#utility.yul\":18912:18924   */\n      swap1\n      pop\n        /* \"#utility.yul\":18870:18930   */\n      swap2\n      swap1\n      pop\n      jump\t// out\n        /* \"#utility.yul\":18936:19078   */\n    tag_198:\n        /* \"#utility.yul\":18986:18995   */\n      0x00\n        /* \"#utility.yul\":19019:19072   */\n      tag_382\n        /* \"#utility.yul\":19037:19071   */\n      tag_383\n        /* \"#utility.yul\":19046:19070   */\n      tag_384\n        /* \"#utility.yul\":19064:19069   */\n      dup5\n        /* \"#utility.yul\":19046:19070   */\n      tag_154\n      jump\t// in\n    tag_384:\n        /* \"#utility.yul\":19037:19071   */\n      tag_197\n      jump\t// in\n    tag_383:\n        /* \"#utility.yul\":19019:19072   */\n      tag_154\n      jump\t// in\n    tag_382:\n        /* \"#utility.yul\":19006:19072   */\n      swap1\n      pop\n        /* \"#utility.yul\":18936:19078   */\n      swap2\n      swap1\n      pop\n      jump\t// out\n        /* \"#utility.yul\":19084:19159   */\n    tag_199:\n        /* \"#utility.yul\":19127:19130   */\n      0x00\n        /* \"#utility.yul\":19148:19153   */\n      dup2\n        /* \"#utility.yul\":19141:19153   */\n      swap1\n      pop\n        /* \"#utility.yul\":19084:19159   */\n      swap2\n      swap1\n      pop\n      jump\t// out\n        /* \"#utility.yul\":19165:19434   */\n    tag_200:\n        /* \"#utility.yul\":19275:19314   */\n      tag_387\n        /* \"#utility.yul\":19306:19313   */\n      dup4\n        /* \"#utility.yul\":19275:19314   */\n      tag_198\n      jump\t// in\n    tag_387:\n        /* \"#utility.yul\":19336:19427   */\n      tag_388\n        /* \"#utility.yul\":19385:19426   */\n      tag_389\n        /* \"#utility.yul\":19409:19425   */\n      dup3\n        /* \"#utility.yul\":19385:19426   */\n      tag_199\n      jump\t// in\n    tag_389:\n        /* \"#utility.yul\":19377:19383   */\n      dup5\n        /* \"#utility.yul\":19370:19374   */\n      dup5\n        /* \"#utility.yul\":19364:19375   */\n      sload\n        /* \"#utility.yul\":19336:19427   */\n      tag_196\n      jump\t// in\n    tag_388:\n        /* \"#utility.yul\":19330:19334   */\n      dup3\n        /* \"#utility.yul\":19323:19428   */\n      sstore\n        /* \"#utility.yul\":19241:19434   */\n      pop\n        /* \"#utility.yul\":19165:19434   */\n      pop\n      pop\n      pop\n      jump\t// out\n        /* \"#utility.yul\":19440:19513   */\n    tag_201:\n        /* \"#utility.yul\":19485:19488   */\n      0x00\n        /* \"#utility.yul\":19506:19507   */\n      0x00\n        /* \"#utility.yul\":19499:19507   */\n      swap1\n      pop\n        /* \"#utility.yul\":19440:19513   */\n      swap1\n      jump\t// out\n        /* \"#utility.yul\":19519:19708   */\n    tag_202:\n        /* \"#utility.yul\":19596:19628   */\n      tag_392\n      tag_201\n      jump\t// in\n    tag_392:\n        /* \"#utility.yul\":19637:19702   */\n      tag_393\n        /* \"#utility.yul\":19695:19701   */\n      dup2\n        /* \"#utility.yul\":19687:19693   */\n      dup5\n        /* \"#utility.yul\":19681:19685   */\n      dup5\n        /* \"#utility.yul\":19637:19702   */\n      tag_200\n      jump\t// in\n    tag_393:\n        /* \"#utility.yul\":19572:19708   */\n      pop\n        /* \"#utility.yul\":19519:19708   */\n      pop\n      pop\n      jump\t// out\n        /* \"#utility.yul\":19714:19900   */\n    tag_203:\n        /* \"#utility.yul\":19774:19894   */\n    tag_395:\n        /* \"#utility.yul\":19791:19794   */\n      dup2\n        /* \"#utility.yul\":19784:19789   */\n      dup2\n        /* \"#utility.yul\":19781:19795   */\n      lt\n        /* \"#utility.yul\":19774:19894   */\n      iszero\n      tag_397\n      jumpi\n        /* \"#utility.yul\":19845:19884   */\n      tag_398\n        /* \"#utility.yul\":19882:19883   */\n      0x00\n        /* \"#utility.yul\":19875:19880   */\n      dup3\n        /* \"#utility.yul\":19845:19884   */\n      tag_202\n      jump\t// in\n    tag_398:\n        /* \"#utility.yul\":19818:19819   */\n      0x01\n        /* \"#utility.yul\":19811:19816   */\n      dup2\n        /* \"#utility.yul\":19807:19820   */\n      add\n        /* \"#utility.yul\":19798:19820   */\n      swap1\n      pop\n        /* \"#utility.yul\":19774:19894   */\n      jump(tag_395)\n    tag_397:\n        /* \"#utility.yul\":19714:19900   */\n      pop\n      pop\n      jump\t// out\n        /* \"#utility.yul\":19906:20449   */\n    tag_204:\n        /* \"#utility.yul\":20007:20009   */\n      0x1f\n        /* \"#utility.yul\":20002:20005   */\n      dup3\n        /* \"#utility.yul\":19999:20010   */\n      gt\n        /* \"#utility.yul\":19996:20442   */\n      iszero\n      tag_400\n      jumpi\n        /* \"#utility.yul\":20041:20079   */\n      tag_401\n        /* \"#utility.yul\":20073:20078   */\n      dup2\n        /* \"#utility.yul\":20041:20079   */\n      tag_193\n      jump\t// in\n    tag_401:\n        /* \"#utility.yul\":20125:20154   */\n      tag_402\n        /* \"#utility.yul\":20143:20153   */\n      dup5\n        /* \"#utility.yul\":20125:20154   */\n      tag_194\n      jump\t// in\n    tag_402:\n        /* \"#utility.yul\":20115:20123   */\n      dup2\n        /* \"#utility.yul\":20111:20155   */\n      add\n        /* \"#utility.yul\":20308:20310   */\n      0x20\n        /* \"#utility.yul\":20296:20306   */\n      dup6\n        /* \"#utility.yul\":20293:20311   */\n      lt\n        /* \"#utility.yul\":20290:20339   */\n      iszero\n      tag_403\n      jumpi\n        /* \"#utility.yul\":20329:20337   */\n      dup2\n        /* \"#utility.yul\":20314:20337   */\n      swap1\n      pop\n        /* \"#utility.yul\":20290:20339   */\n    tag_403:\n        /* \"#utility.yul\":20352:20432   */\n      tag_404\n        /* \"#utility.yul\":20408:20430   */\n      tag_405\n        /* \"#utility.yul\":20426:20429   */\n      dup6\n        /* \"#utility.yul\":20408:20430   */\n      tag_194\n      jump\t// in\n    tag_405:\n        /* \"#utility.yul\":20398:20406   */\n      dup4\n        /* \"#utility.yul\":20394:20431   */\n      add\n        /* \"#utility.yul\":20381:20392   */\n      dup3\n        /* \"#utility.yul\":20352:20432   */\n      tag_203\n      jump\t// in\n    tag_404:\n        /* \"#utility.yul\":20011:20442   */\n      pop\n      pop\n        /* \"#utility.yul\":19996:20442   */\n    tag_400:\n        /* \"#utility.yul\":19906:20449   */\n      pop\n      pop\n      pop\n      jump\t// out\n        /* \"#utility.yul\":20455:20572   */\n    tag_205:\n        /* \"#utility.yul\":20509:20517   */\n      0x00\n        /* \"#utility.yul\":20559:20564   */\n      dup3\n        /* \"#utility.yul\":20553:20557   */\n      dup3\n        /* \"#utility.yul\":20549:20565   */\n      shr\n        /* \"#utility.yul\":20528:20565   */\n      swap1\n      pop\n        /* \"#utility.yul\":20455:20572   */\n      swap3\n      swap2\n      pop\n      pop\n      jump\t// out\n        /* \"#utility.yul\":20578:20747   */\n    tag_206:\n        /* \"#utility.yul\":20622:20628   */\n      0x00\n        /* \"#utility.yul\":20655:20706   */\n      tag_408\n        /* \"#utility.yul\":20703:20704   */\n      0x00\n        /* \"#utility.yul\":20699:20705   */\n      not\n        /* \"#utility.yul\":20691:20696   */\n      dup5\n        /* \"#utility.yul\":20688:20689   */\n      0x08\n        /* \"#utility.yul\":20684:20697   */\n      mul\n        /* \"#utility.yul\":20655:20706   */\n      tag_205\n      jump\t// in\n    tag_408:\n        /* \"#utility.yul\":20651:20707   */\n      not\n        /* \"#utility.yul\":20736:20740   */\n      dup1\n        /* \"#utility.yul\":20730:20734   */\n      dup4\n        /* \"#utility.yul\":20726:20741   */\n      and\n        /* \"#utility.yul\":20716:20741   */\n      swap2\n      pop\n        /* \"#utility.yul\":20629:20747   */\n      pop\n        /* \"#utility.yul\":20578:20747   */\n      swap3\n      swap2\n      pop\n      pop\n      jump\t// out\n        /* \"#utility.yul\":20752:21047   */\n    tag_207:\n        /* \"#utility.yul\":20828:20832   */\n      0x00\n        /* \"#utility.yul\":20974:21003   */\n      tag_410\n        /* \"#utility.yul\":20999:21002   */\n      dup4\n        /* \"#utility.yul\":20993:20997   */\n      dup4\n        /* \"#utility.yul\":20974:21003   */\n      tag_206\n      jump\t// in\n    tag_410:\n        /* \"#utility.yul\":20966:21003   */\n      swap2\n      pop\n        /* \"#utility.yul\":21036:21039   */\n      dup3\n        /* \"#utility.yul\":21033:21034   */\n      0x02\n        /* \"#utility.yul\":21029:21040   */\n      mul\n        /* \"#utility.yul\":21023:21027   */\n      dup3\n        /* \"#utility.yul\":21020:21041   */\n      or\n        /* \"#utility.yul\":21012:21041   */\n      swap1\n      pop\n        /* \"#utility.yul\":20752:21047   */\n      swap3\n      swap2\n      pop\n      pop\n      jump\t// out\n        /* \"#utility.yul\":21052:22447   */\n    tag_119:\n        /* \"#utility.yul\":21169:21206   */\n      tag_412\n        /* \"#utility.yul\":21202:21205   */\n      dup3\n        /* \"#utility.yul\":21169:21206   */\n      tag_159\n      jump\t// in\n    tag_412:\n        /* \"#utility.yul\":21271:21289   */\n      0xffffffffffffffff\n        /* \"#utility.yul\":21263:21269   */\n      dup2\n        /* \"#utility.yul\":21260:21290   */\n      gt\n        /* \"#utility.yul\":21257:21313   */\n      iszero\n      tag_413\n      jumpi\n        /* \"#utility.yul\":21293:21311   */\n      tag_414\n      tag_177\n      jump\t// in\n    tag_414:\n        /* \"#utility.yul\":21257:21313   */\n    tag_413:\n        /* \"#utility.yul\":21337:21375   */\n      tag_415\n        /* \"#utility.yul\":21369:21373   */\n      dup3\n        /* \"#utility.yul\":21363:21374   */\n      sload\n        /* \"#utility.yul\":21337:21375   */\n      tag_60\n      jump\t// in\n    tag_415:\n        /* \"#utility.yul\":21422:21489   */\n      tag_416\n        /* \"#utility.yul\":21482:21488   */\n      dup3\n        /* \"#utility.yul\":21474:21480   */\n      dup3\n        /* \"#utility.yul\":21468:21472   */\n      dup6\n        /* \"#utility.yul\":21422:21489   */\n      tag_204\n      jump\t// in\n    tag_416:\n        /* \"#utility.yul\":21516:21517   */\n      0x00\n        /* \"#utility.yul\":21540:21544   */\n      0x20\n        /* \"#utility.yul\":21527:21544   */\n      swap1\n      pop\n        /* \"#utility.yul\":21572:21574   */\n      0x1f\n        /* \"#utility.yul\":21564:21570   */\n      dup4\n        /* \"#utility.yul\":21561:21575   */\n      gt\n        /* \"#utility.yul\":21589:21590   */\n      0x01\n        /* \"#utility.yul\":21584:22202   */\n      dup2\n      eq\n      tag_418\n      jumpi\n        /* \"#utility.yul\":22246:22247   */\n      0x00\n        /* \"#utility.yul\":22263:22269   */\n      dup5\n        /* \"#utility.yul\":22260:22337   */\n      iszero\n      tag_419\n      jumpi\n        /* \"#utility.yul\":22312:22321   */\n      dup3\n        /* \"#utility.yul\":22307:22310   */\n      dup8\n        /* \"#utility.yul\":22303:22322   */\n      add\n        /* \"#utility.yul\":22297:22323   */\n      mload\n        /* \"#utility.yul\":22288:22323   */\n      swap1\n      pop\n        /* \"#utility.yul\":22260:22337   */\n    tag_419:\n        /* \"#utility.yul\":22363:22430   */\n      tag_420\n        /* \"#utility.yul\":22423:22429   */\n      dup6\n        /* \"#utility.yul\":22416:22421   */\n      dup3\n        /* \"#utility.yul\":22363:22430   */\n      tag_207\n      jump\t// in\n    tag_420:\n        /* \"#utility.yul\":22357:22361   */\n      dup7\n        /* \"#utility.yul\":22350:22431   */\n      sstore\n        /* \"#utility.yul\":22219:22441   */\n      pop\n        /* \"#utility.yul\":21554:22441   */\n      jump(tag_417)\n        /* \"#utility.yul\":21584:22202   */\n    tag_418:\n        /* \"#utility.yul\":21636:21640   */\n      0x1f\n        /* \"#utility.yul\":21632:21641   */\n      not\n        /* \"#utility.yul\":21624:21630   */\n      dup5\n        /* \"#utility.yul\":21620:21642   */\n      and\n        /* \"#utility.yul\":21670:21707   */\n      tag_421\n        /* \"#utility.yul\":21702:21706   */\n      dup7\n        /* \"#utility.yul\":21670:21707   */\n      tag_193\n      jump\t// in\n    tag_421:\n        /* \"#utility.yul\":21729:21730   */\n      0x00\n        /* \"#utility.yul\":21743:21951   */\n    tag_422:\n        /* \"#utility.yul\":21757:21764   */\n      dup3\n        /* \"#utility.yul\":21754:21755   */\n      dup2\n        /* \"#utility.yul\":21751:21765   */\n      lt\n        /* \"#utility.yul\":21743:21951   */\n      iszero\n      tag_424\n      jumpi\n        /* \"#utility.yul\":21836:21845   */\n      dup5\n        /* \"#utility.yul\":21831:21834   */\n      dup10\n        /* \"#utility.yul\":21827:21846   */\n      add\n        /* \"#utility.yul\":21821:21847   */\n      mload\n        /* \"#utility.yul\":21813:21819   */\n      dup3\n        /* \"#utility.yul\":21806:21848   */\n      sstore\n        /* \"#utility.yul\":21887:21888   */\n      0x01\n        /* \"#utility.yul\":21879:21885   */\n      dup3\n        /* \"#utility.yul\":21875:21889   */\n      add\n        /* \"#utility.yul\":21865:21889   */\n      swap2\n      pop\n        /* \"#utility.yul\":21934:21936   */\n      0x20\n        /* \"#utility.yul\":21923:21932   */\n      dup6\n        /* \"#utility.yul\":21919:21937   */\n      add\n        /* \"#utility.yul\":21906:21937   */\n      swap5\n      pop\n        /* \"#utility.yul\":21780:21784   */\n      0x20\n        /* \"#utility.yul\":21777:21778   */\n      dup2\n        /* \"#utility.yul\":21773:21785   */\n      add\n        /* \"#utility.yul\":21768:21785   */\n      swap1\n      pop\n        /* \"#utility.yul\":21743:21951   */\n      jump(tag_422)\n    tag_424:\n        /* \"#utility.yul\":21979:21985   */\n      dup7\n        /* \"#utility.yul\":21970:21977   */\n      dup4\n        /* \"#utility.yul\":21967:21986   */\n      lt\n        /* \"#utility.yul\":21964:22143   */\n      iszero\n      tag_425\n      jumpi\n        /* \"#utility.yul\":22037:22046   */\n      dup5\n        /* \"#utility.yul\":22032:22035   */\n      dup10\n        /* \"#utility.yul\":22028:22047   */\n      add\n        /* \"#utility.yul\":22022:22048   */\n      mload\n        /* \"#utility.yul\":22080:22128   */\n      tag_426\n        /* \"#utility.yul\":22122:22126   */\n      0x1f\n        /* \"#utility.yul\":22114:22120   */\n      dup10\n        /* \"#utility.yul\":22110:22127   */\n      and\n        /* \"#utility.yul\":22099:22108   */\n      dup3\n        /* \"#utility.yul\":22080:22128   */\n      tag_206\n      jump\t// in\n    tag_426:\n        /* \"#utility.yul\":22072:22078   */\n      dup4\n        /* \"#utility.yul\":22065:22129   */\n      sstore\n        /* \"#utility.yul\":21987:22143   */\n      pop\n        /* \"#utility.yul\":21964:22143   */\n    tag_425:\n        /* \"#utility.yul\":22189:22190   */\n      0x01\n        /* \"#utility.yul\":22185:22186   */\n      0x02\n        /* \"#utility.yul\":22177:22183   */\n      dup9\n        /* \"#utility.yul\":22173:22187   */\n      mul\n        /* \"#utility.yul\":22169:22191   */\n      add\n        /* \"#utility.yul\":22163:22167   */\n      dup9\n        /* \"#utility.yul\":22156:22192   */\n      sstore\n        /* \"#utility.yul\":21591:22202   */\n      pop\n      pop\n      pop\n        /* \"#utility.yul\":21554:22441   */\n    tag_417:\n      pop\n        /* \"#utility.yul\":21144:22447   */\n      pop\n      pop\n      pop\n        /* \"#utility.yul\":21052:22447   */\n      pop\n      pop\n      jump\t// out\n        /* \"#utility.yul\":22453:23097   */\n    tag_121:\n        /* \"#utility.yul\":22650:22654   */\n      0x00\n        /* \"#utility.yul\":22688:22691   */\n      0x80\n        /* \"#utility.yul\":22677:22686   */\n      dup3\n        /* \"#utility.yul\":22673:22692   */\n      add\n        /* \"#utility.yul\":22665:22692   */\n      swap1\n      pop\n        /* \"#utility.yul\":22702:22773   */\n      tag_428\n        /* \"#utility.yul\":22770:22771   */\n      0x00\n        /* \"#utility.yul\":22759:22768   */\n      dup4\n        /* \"#utility.yul\":22755:22772   */\n      add\n        /* \"#utility.yul\":22746:22752   */\n      dup8\n        /* \"#utility.yul\":22702:22773   */\n      tag_157\n      jump\t// in\n    tag_428:\n        /* \"#utility.yul\":22783:22855   */\n      tag_429\n        /* \"#utility.yul\":22851:22853   */\n      0x20\n        /* \"#utility.yul\":22840:22849   */\n      dup4\n        /* \"#utility.yul\":22836:22854   */\n      add\n        /* \"#utility.yul\":22827:22833   */\n      dup7\n        /* \"#utility.yul\":22783:22855   */\n      tag_158\n      jump\t// in\n    tag_429:\n        /* \"#utility.yul\":22902:22911   */\n      dup2\n        /* \"#utility.yul\":22896:22900   */\n      dup2\n        /* \"#utility.yul\":22892:22912   */\n      sub\n        /* \"#utility.yul\":22887:22889   */\n      0x40\n        /* \"#utility.yul\":22876:22885   */\n      dup4\n        /* \"#utility.yul\":22872:22890   */\n      add\n        /* \"#utility.yul\":22865:22913   */\n      mstore\n        /* \"#utility.yul\":22930:23008   */\n      tag_430\n        /* \"#utility.yul\":23003:23007   */\n      dup2\n        /* \"#utility.yul\":22994:23000   */\n      dup6\n        /* \"#utility.yul\":22930:23008   */\n      tag_163\n      jump\t// in\n    tag_430:\n        /* \"#utility.yul\":22922:23008   */\n      swap1\n      pop\n        /* \"#utility.yul\":23018:23090   */\n      tag_431\n        /* \"#utility.yul\":23086:23088   */\n      0x60\n        /* \"#utility.yul\":23075:23084   */\n      dup4\n        /* \"#utility.yul\":23071:23089   */\n      add\n        /* \"#utility.yul\":23062:23068   */\n      dup5\n        /* \"#utility.yul\":23018:23090   */\n      tag_157\n      jump\t// in\n    tag_431:\n        /* \"#utility.yul\":22453:23097   */\n      swap6\n      swap5\n      pop\n      pop\n      pop\n      pop\n      pop\n      jump\t// out\n        /* \"#utility.yul\":23103:23294   */\n    tag_130:\n        /* \"#utility.yul\":23143:23146   */\n      0x00\n        /* \"#utility.yul\":23162:23182   */\n      tag_433\n        /* \"#utility.yul\":23180:23181   */\n      dup3\n        /* \"#utility.yul\":23162:23182   */\n      tag_154\n      jump\t// in\n    tag_433:\n        /* \"#utility.yul\":23157:23182   */\n      swap2\n      pop\n        /* \"#utility.yul\":23196:23216   */\n      tag_434\n        /* \"#utility.yul\":23214:23215   */\n      dup4\n        /* \"#utility.yul\":23196:23216   */\n      tag_154\n      jump\t// in\n    tag_434:\n        /* \"#utility.yul\":23191:23216   */\n      swap3\n      pop\n        /* \"#utility.yul\":23239:23240   */\n      dup3\n        /* \"#utility.yul\":23236:23237   */\n      dup3\n        /* \"#utility.yul\":23232:23241   */\n      add\n        /* \"#utility.yul\":23225:23241   */\n      swap1\n      pop\n        /* \"#utility.yul\":23260:23263   */\n      dup1\n        /* \"#utility.yul\":23257:23258   */\n      dup3\n        /* \"#utility.yul\":23254:23264   */\n      gt\n        /* \"#utility.yul\":23251:23287   */\n      iszero\n      tag_435\n      jumpi\n        /* \"#utility.yul\":23267:23285   */\n      tag_436\n      tag_190\n      jump\t// in\n    tag_436:\n        /* \"#utility.yul\":23251:23287   */\n    tag_435:\n        /* \"#utility.yul\":23103:23294   */\n      swap3\n      swap2\n      pop\n      pop\n      jump\t// out\n        /* \"#utility.yul\":23300:23471   */\n    tag_208:\n        /* \"#utility.yul\":23440:23463   */\n      0x596f7520617265206e6f7420746865206f776e65720000000000000000000000\n        /* \"#utility.yul\":23436:23437   */\n      0x00\n        /* \"#utility.yul\":23428:23434   */\n      dup3\n        /* \"#utility.yul\":23424:23438   */\n      add\n        /* \"#utility.yul\":23417:23464   */\n      mstore\n        /* \"#utility.yul\":23300:23471   */\n      pop\n      jump\t// out\n        /* \"#utility.yul\":23477:23843   */\n    tag_209:\n        /* \"#utility.yul\":23619:23622   */\n      0x00\n        /* \"#utility.yul\":23640:23707   */\n      tag_439\n        /* \"#utility.yul\":23704:23706   */\n      0x15\n        /* \"#utility.yul\":23699:23702   */\n      dup4\n        /* \"#utility.yul\":23640:23707   */\n      tag_160\n      jump\t// in\n    tag_439:\n        /* \"#utility.yul\":23633:23707   */\n      swap2\n      pop\n        /* \"#utility.yul\":23716:23809   */\n      tag_440\n        /* \"#utility.yul\":23805:23808   */\n      dup3\n        /* \"#utility.yul\":23716:23809   */\n      tag_208\n      jump\t// in\n    tag_440:\n        /* \"#utility.yul\":23834:23836   */\n      0x20\n        /* \"#utility.yul\":23829:23832   */\n      dup3\n        /* \"#utility.yul\":23825:23837   */\n      add\n        /* \"#utility.yul\":23818:23837   */\n      swap1\n      pop\n        /* \"#utility.yul\":23477:23843   */\n      swap2\n      swap1\n      pop\n      jump\t// out\n        /* \"#utility.yul\":23849:24268   */\n    tag_134:\n        /* \"#utility.yul\":24015:24019   */\n      0x00\n        /* \"#utility.yul\":24053:24055   */\n      0x20\n        /* \"#utility.yul\":24042:24051   */\n      dup3\n        /* \"#utility.yul\":24038:24056   */\n      add\n        /* \"#utility.yul\":24030:24056   */\n      swap1\n      pop\n        /* \"#utility.yul\":24102:24111   */\n      dup2\n        /* \"#utility.yul\":24096:24100   */\n      dup2\n        /* \"#utility.yul\":24092:24112   */\n      sub\n        /* \"#utility.yul\":24088:24089   */\n      0x00\n        /* \"#utility.yul\":24077:24086   */\n      dup4\n        /* \"#utility.yul\":24073:24090   */\n      add\n        /* \"#utility.yul\":24066:24113   */\n      mstore\n        /* \"#utility.yul\":24130:24261   */\n      tag_442\n        /* \"#utility.yul\":24256:24260   */\n      dup2\n        /* \"#utility.yul\":24130:24261   */\n      tag_209\n      jump\t// in\n    tag_442:\n        /* \"#utility.yul\":24122:24261   */\n      swap1\n      pop\n        /* \"#utility.yul\":23849:24268   */\n      swap2\n      swap1\n      pop\n      jump\t// out\n\n    auxdata: 0xa2646970667358221220751b41d9e4bdeab4db871ddd19c4c874c695cf40333b819a2c1abad70e42c21464736f6c634300081e0033\n}\n",
				"bytecode": {
					"linkReferences": {},
					"object": "60806040526101185f553480156013575f5ffd5b503360025f6101000a81548173ffffffffffffffffffffffffffffffffffffffff021916908373ffffffffffffffffffffffffffffffffffffffff160217905550611a0b806100615f395ff3fe608060405234801561000f575f5ffd5b506004361061009c575f3560e01c80637c9cd2bc116100645780637c9cd2bc1461015a578063820785cc14610176578063888a7880146101a65780638da5cb5b146101c2578063c3ad5ecb146101e05761009c565b806305a1b4a9146100a057806312e7ee1c146100d45780633d9b569f1461010457806363378216146101205780636eb107971461013c575b5f5ffd5b6100ba60048036038101906100b59190610e7b565b610210565b6040516100cb959493929190610f47565b60405180910390f35b6100ee60048036038101906100e99190610f9f565b610301565b6040516100fb919061115e565b60405180910390f35b61011e60048036038101906101199190610e7b565b61049c565b005b61013a60048036038101906101359190610e7b565b6106ed565b005b61014461089e565b604051610151919061117e565b60405180910390f35b610174600480360381019061016f91906112c3565b6108a3565b005b610190600480360381019061018b9190610f9f565b610a96565b60405161019d919061117e565b60405180910390f35b6101c060048036038101906101bb919061130a565b610b68565b005b6101ca610c00565b6040516101d79190611335565b60405180910390f35b6101fa60048036038101906101f5919061130a565b610c25565b60405161020791906113c1565b60405180910390f35b6001602052815f5260405f208181548110610229575f80fd5b905f5260205f2090600502015f9150915050805f015490806001015f9054906101000a900473ffffffffffffffffffffffffffffffffffffffff16908060020180546102749061140e565b80601f01602080910402602001604051908101604052809291908181526020018280546102a09061140e565b80156102eb5780601f106102c2576101008083540402835291602001916102eb565b820191905f5260205f20905b8154815290600101906020018083116102ce57829003601f168201915b5050505050908060030154908060040154905085565b606060015f8373ffffffffffffffffffffffffffffffffffffffff1673ffffffffffffffffffffffffffffffffffffffff1681526020019081526020015f20805480602002602001604051908101604052809291908181526020015f905b82821015610491578382905f5260205f2090600502016040518060a00160405290815f8201548152602001600182015f9054906101000a900473ffffffffffffffffffffffffffffffffffffffff1673ffffffffffffffffffffffffffffffffffffffff1673ffffffffffffffffffffffffffffffffffffffff1681526020016002820180546103ee9061140e565b80601f016020809104026020016040519081016040528092919081815260200182805461041a9061140e565b80156104655780601f1061043c57610100808354040283529160200191610465565b820191905f5260205f20905b81548152906001019060200180831161044857829003601f168201915b50505050508152602001600382015481526020016004820154815250508152602001906001019061035f565b505050509050919050565b8060015f8473ffffffffffffffffffffffffffffffffffffffff1673ffffffffffffffffffffffffffffffffffffffff1681526020019081526020015f2082815481106104ec576104eb61143e565b5b905f5260205f2090600502015f01541461053b576040517f08c379a0000000000000000000000000000000000000000000000000000000008152600401610532906114b5565b60405180910390fd5b5f60015f8473ffffffffffffffffffffffffffffffffffffffff1673ffffffffffffffffffffffffffffffffffffffff1681526020019081526020015f20828154811061058b5761058a61143e565b5b905f5260205f20906005020160040154116105db576040517f08c379a00000000000000000000000000000000000000000000000000000000081526004016105d29061151d565b60405180910390fd5b60015f8373ffffffffffffffffffffffffffffffffffffffff1673ffffffffffffffffffffffffffffffffffffffff1681526020019081526020015f20818154811061062a5761062961143e565b5b905f5260205f2090600502016004015f81548092919061064990611568565b91905055507f762c2616349603ac16eba0de8e6141b79129a07ab63bd99e0a80b3a47171694333838360015f8773ffffffffffffffffffffffffffffffffffffffff1673ffffffffffffffffffffffffffffffffffffffff1681526020019081526020015f2085815481106106c1576106c061143e565b5b905f5260205f209060050201600401546040516106e1949392919061158f565b60405180910390a15050565b8060015f8473ffffffffffffffffffffffffffffffffffffffff1673ffffffffffffffffffffffffffffffffffffffff1681526020019081526020015f20828154811061073d5761073c61143e565b5b905f5260205f2090600502015f01541461078c576040517f08c379a0000000000000000000000000000000000000000000000000000000008152600401610783906114b5565b60405180910390fd5b60015f8373ffffffffffffffffffffffffffffffffffffffff1673ffffffffffffffffffffffffffffffffffffffff1681526020019081526020015f2081815481106107db576107da61143e565b5b905f5260205f2090600502016004015f8154809291906107fa906115d2565b91905055507fe8a76fc0f16d11a00d1e93b689b63d76cf60af914dd3d915375dc41d01a0c3c833838360015f8773ffffffffffffffffffffffffffffffffffffffff1673ffffffffffffffffffffffffffffffffffffffff1681526020019081526020015f2085815481106108725761087161143e565b5b905f5260205f20906005020160040154604051610892949392919061158f565b60405180910390a15050565b5f5481565b5f54815111156108e8576040517f08c379a00000000000000000000000000000000000000000000000000000000081526004016108df90611663565b60405180910390fd5b5f6040518060a0016040528060015f3373ffffffffffffffffffffffffffffffffffffffff1673ffffffffffffffffffffffffffffffffffffffff1681526020019081526020015f208054905081526020013373ffffffffffffffffffffffffffffffffffffffff1681526020018381526020014281526020015f815250905060015f3373ffffffffffffffffffffffffffffffffffffffff1673ffffffffffffffffffffffffffffffffffffffff1681526020019081526020015f2081908060018154018082558091505060019003905f5260205f2090600502015f909190919091505f820151815f01556020820151816001015f6101000a81548173ffffffffffffffffffffffffffffffffffffffff021916908373ffffffffffffffffffffffffffffffffffffffff1602179055506040820151816002019081610a2f9190611821565b50606082015181600301556080820151816004015550507f16fd3c13e9d46923e0a8bce11c7b473ec508a72e6c96cd2404b29ce972afc29e815f0151826020015183604001518460600151604051610a8a94939291906118f0565b60405180910390a15050565b5f5f5f5f90505b60015f8573ffffffffffffffffffffffffffffffffffffffff1673ffffffffffffffffffffffffffffffffffffffff1681526020019081526020015f2080549050811015610b5e5760015f8573ffffffffffffffffffffffffffffffffffffffff1673ffffffffffffffffffffffffffffffffffffffff1681526020019081526020015f208181548110610b3457610b3361143e565b5b905f5260205f2090600502016004015482610b4f919061193a565b91508080600101915050610a9d565b5080915050919050565b60025f9054906101000a900473ffffffffffffffffffffffffffffffffffffffff1673ffffffffffffffffffffffffffffffffffffffff163373ffffffffffffffffffffffffffffffffffffffff1614610bf7576040517f08c379a0000000000000000000000000000000000000000000000000000000008152600401610bee906119b7565b60405180910390fd5b805f8190555050565b60025f9054906101000a900473ffffffffffffffffffffffffffffffffffffffff1681565b610c2d610d9c565b60015f3373ffffffffffffffffffffffffffffffffffffffff1673ffffffffffffffffffffffffffffffffffffffff1681526020019081526020015f208281548110610c7c57610c7b61143e565b5b905f5260205f2090600502016040518060a00160405290815f8201548152602001600182015f9054906101000a900473ffffffffffffffffffffffffffffffffffffffff1673ffffffffffffffffffffffffffffffffffffffff1673ffffffffffffffffffffffffffffffffffffffff168152602001600282018054610d019061140e565b80601f0160208091040260200160405190810160405280929190818152602001828054610d2d9061140e565b8015610d785780601f10610d4f57610100808354040283529160200191610d78565b820191905f5260205f20905b815481529060010190602001808311610d5b57829003601f168201915b50505050508152602001600382015481526020016004820154815250509050919050565b6040518060a001604052805f81526020015f73ffffffffffffffffffffffffffffffffffffffff168152602001606081526020015f81526020015f81525090565b5f604051905090565b5f5ffd5b5f5ffd5b5f73ffffffffffffffffffffffffffffffffffffffff82169050919050565b5f610e1782610dee565b9050919050565b610e2781610e0d565b8114610e31575f5ffd5b50565b5f81359050610e4281610e1e565b92915050565b5f819050919050565b610e5a81610e48565b8114610e64575f5ffd5b50565b5f81359050610e7581610e51565b92915050565b5f5f60408385031215610e9157610e90610de6565b5b5f610e9e85828601610e34565b9250506020610eaf85828601610e67565b9150509250929050565b610ec281610e48565b82525050565b610ed181610e0d565b82525050565b5f81519050919050565b5f82825260208201905092915050565b8281835e5f83830152505050565b5f601f19601f8301169050919050565b5f610f1982610ed7565b610f238185610ee1565b9350610f33818560208601610ef1565b610f3c81610eff565b840191505092915050565b5f60a082019050610f5a5f830188610eb9565b610f676020830187610ec8565b8181036040830152610f798186610f0f565b9050610f886060830185610eb9565b610f956080830184610eb9565b9695505050505050565b5f60208284031215610fb457610fb3610de6565b5b5f610fc184828501610e34565b91505092915050565b5f81519050919050565b5f82825260208201905092915050565b5f819050602082019050919050565b610ffc81610e48565b82525050565b61100b81610e0d565b82525050565b5f82825260208201905092915050565b5f61102b82610ed7565b6110358185611011565b9350611045818560208601610ef1565b61104e81610eff565b840191505092915050565b5f60a083015f83015161106e5f860182610ff3565b5060208301516110816020860182611002565b50604083015184820360408601526110998282611021565b91505060608301516110ae6060860182610ff3565b5060808301516110c16080860182610ff3565b508091505092915050565b5f6110d78383611059565b905092915050565b5f602082019050919050565b5f6110f582610fca565b6110ff8185610fd4565b93508360208202850161111185610fe4565b805f5b8581101561114c578484038952815161112d85826110cc565b9450611138836110df565b925060208a01995050600181019050611114565b50829750879550505050505092915050565b5f6020820190508181035f83015261117681846110eb565b905092915050565b5f6020820190506111915f830184610eb9565b92915050565b5f5ffd5b5f5ffd5b7f4e487b71000000000000000000000000000000000000000000000000000000005f52604160045260245ffd5b6111d582610eff565b810181811067ffffffffffffffff821117156111f4576111f361119f565b5b80604052505050565b5f611206610ddd565b905061121282826111cc565b919050565b5f67ffffffffffffffff8211156112315761123061119f565b5b61123a82610eff565b9050602081019050919050565b828183375f83830152505050565b5f61126761126284611217565b6111fd565b9050828152602081018484840111156112835761128261119b565b5b61128e848285611247565b509392505050565b5f82601f8301126112aa576112a9611197565b5b81356112ba848260208601611255565b91505092915050565b5f602082840312156112d8576112d7610de6565b5b5f82013567ffffffffffffffff8111156112f5576112f4610dea565b5b61130184828501611296565b91505092915050565b5f6020828403121561131f5761131e610de6565b5b5f61132c84828501610e67565b91505092915050565b5f6020820190506113485f830184610ec8565b92915050565b5f60a083015f8301516113635f860182610ff3565b5060208301516113766020860182611002565b506040830151848203604086015261138e8282611021565b91505060608301516113a36060860182610ff3565b5060808301516113b66080860182610ff3565b508091505092915050565b5f6020820190508181035f8301526113d9818461134e565b905092915050565b7f4e487b71000000000000000000000000000000000000000000000000000000005f52602260045260245ffd5b5f600282049050600182168061142557607f821691505b602082108103611438576114376113e1565b5b50919050565b7f4e487b71000000000000000000000000000000000000000000000000000000005f52603260045260245ffd5b7f547765657420646f65736e7420657869737400000000000000000000000000005f82015250565b5f61149f601283610ee1565b91506114aa8261146b565b602082019050919050565b5f6020820190508181035f8301526114cc81611493565b9050919050565b7f547765657420686173206e6f206c696b650000000000000000000000000000005f82015250565b5f611507601183610ee1565b9150611512826114d3565b602082019050919050565b5f6020820190508181035f830152611534816114fb565b9050919050565b7f4e487b71000000000000000000000000000000000000000000000000000000005f52601160045260245ffd5b5f61157282610e48565b91505f82036115845761158361153b565b5b600182039050919050565b5f6080820190506115a25f830187610ec8565b6115af6020830186610ec8565b6115bc6040830185610eb9565b6115c96060830184610eb9565b95945050505050565b5f6115dc82610e48565b91507fffffffffffffffffffffffffffffffffffffffffffffffffffffffffffffffff820361160e5761160d61153b565b5b600182019050919050565b7f547765657420746f6f206c6f6e672062727568000000000000000000000000005f82015250565b5f61164d601383610ee1565b915061165882611619565b602082019050919050565b5f6020820190508181035f83015261167a81611641565b9050919050565b5f819050815f5260205f209050919050565b5f6020601f8301049050919050565b5f82821b905092915050565b5f600883026116dd7fffffffffffffffffffffffffffffffffffffffffffffffffffffffffffffffff826116a2565b6116e786836116a2565b95508019841693508086168417925050509392505050565b5f819050919050565b5f61172261171d61171884610e48565b6116ff565b610e48565b9050919050565b5f819050919050565b61173b83611708565b61174f61174782611729565b8484546116ae565b825550505050565b5f5f905090565b611766611757565b611771818484611732565b505050565b5b81811015611794576117895f8261175e565b600181019050611777565b5050565b601f8211156117d9576117aa81611681565b6117b384611693565b810160208510156117c2578190505b6117d66117ce85611693565b830182611776565b50505b505050565b5f82821c905092915050565b5f6117f95f19846008026117de565b1980831691505092915050565b5f61181183836117ea565b9150826002028217905092915050565b61182a82610ed7565b67ffffffffffffffff8111156118435761184261119f565b5b61184d825461140e565b611858828285611798565b5f60209050601f831160018114611889575f8415611877578287015190505b6118818582611806565b8655506118e8565b601f19841661189786611681565b5f5b828110156118be57848901518255600182019150602085019450602081019050611899565b868310156118db57848901516118d7601f8916826117ea565b8355505b6001600288020188555050505b505050505050565b5f6080820190506119035f830187610eb9565b6119106020830186610ec8565b81810360408301526119228185610f0f565b90506119316060830184610eb9565b95945050505050565b5f61194482610e48565b915061194f83610e48565b92508282019050808211156119675761196661153b565b5b92915050565b7f596f7520617265206e6f7420746865206f776e657200000000000000000000005f82015250565b5f6119a1601583610ee1565b91506119ac8261196d565b602082019050919050565b5f6020820190508181035f8301526119ce81611995565b905091905056fea2646970667358221220751b41d9e4bdeab4db871ddd19c4c874c695cf40333b819a2c1abad70e42c21464736f6c634300081e0033",
					"opcodes": "PUSH1 0x80 PUSH1 0x40 MSTORE PUSH2 0x118 PUSH0 SSTORE CALLVALUE DUP1 ISZERO PUSH1 0x13 JUMPI PUSH0 PUSH0 REVERT JUMPDEST POP CALLER PUSH1 0x2 PUSH0 PUSH2 0x100 EXP DUP2 SLOAD DUP2 PUSH20 0xFFFFFFFFFFFFFFFFFFFFFFFFFFFFFFFFFFFFFFFF MUL NOT AND SWAP1 DUP4 PUSH20 0xFFFFFFFFFFFFFFFFFFFFFFFFFFFFFFFFFFFFFFFF AND MUL OR SWAP1 SSTORE POP PUSH2 0x1A0B DUP1 PUSH2 0x61 PUSH0 CODECOPY PUSH0 RETURN INVALID PUSH1 0x80 PUSH1 0x40 MSTORE CALLVALUE DUP1 ISZERO PUSH2 0xF JUMPI PUSH0 PUSH0 REVERT JUMPDEST POP PUSH1 0x4 CALLDATASIZE LT PUSH2 0x9C JUMPI PUSH0 CALLDATALOAD PUSH1 0xE0 SHR DUP1 PUSH4 0x7C9CD2BC GT PUSH2 0x64 JUMPI DUP1 PUSH4 0x7C9CD2BC EQ PUSH2 0x15A JUMPI DUP1 PUSH4 0x820785CC EQ PUSH2 0x176 JUMPI DUP1 PUSH4 0x888A7880 EQ PUSH2 0x1A6 JUMPI DUP1 PUSH4 0x8DA5CB5B EQ PUSH2 0x1C2 JUMPI DUP1 PUSH4 0xC3AD5ECB EQ PUSH2 0x1E0 JUMPI PUSH2 0x9C JUMP JUMPDEST DUP1 PUSH4 0x5A1B4A9 EQ PUSH2 0xA0 JUMPI DUP1 PUSH4 0x12E7EE1C EQ PUSH2 0xD4 JUMPI DUP1 PUSH4 0x3D9B569F EQ PUSH2 0x104 JUMPI DUP1 PUSH4 0x63378216 EQ PUSH2 0x120 JUMPI DUP1 PUSH4 0x6EB10797 EQ PUSH2 0x13C JUMPI JUMPDEST PUSH0 PUSH0 REVERT JUMPDEST PUSH2 0xBA PUSH1 0x4 DUP1 CALLDATASIZE SUB DUP2 ADD SWAP1 PUSH2 0xB5 SWAP2 SWAP1 PUSH2 0xE7B JUMP JUMPDEST PUSH2 0x210 JUMP JUMPDEST PUSH1 0x40 MLOAD PUSH2 0xCB SWAP6 SWAP5 SWAP4 SWAP3 SWAP2 SWAP1 PUSH2 0xF47 JUMP JUMPDEST PUSH1 0x40 MLOAD DUP1 SWAP2 SUB SWAP1 RETURN JUMPDEST PUSH2 0xEE PUSH1 0x4 DUP1 CALLDATASIZE SUB DUP2 ADD SWAP1 PUSH2 0xE9 SWAP2 SWAP1 PUSH2 0xF9F JUMP JUMPDEST PUSH2 0x301 JUMP JUMPDEST PUSH1 0x40 MLOAD PUSH2 0xFB SWAP2 SWAP1 PUSH2 0x115E JUMP JUMPDEST PUSH1 0x40 MLOAD DUP1 SWAP2 SUB SWAP1 RETURN JUMPDEST PUSH2 0x11E PUSH1 0x4 DUP1 CALLDATASIZE SUB DUP2 ADD SWAP1 PUSH2 0x119 SWAP2 SWAP1 PUSH2 0xE7B JUMP JUMPDEST PUSH2 0x49C JUMP JUMPDEST STOP JUMPDEST PUSH2 0x13A PUSH1 0x4 DUP1 CALLDATASIZE SUB DUP2 ADD SWAP1 PUSH2 0x135 SWAP2 SWAP1 PUSH2 0xE7B JUMP JUMPDEST PUSH2 0x6ED JUMP JUMPDEST STOP JUMPDEST PUSH2 0x144 PUSH2 0x89E JUMP JUMPDEST PUSH1 0x40 MLOAD PUSH2 0x151 SWAP2 SWAP1 PUSH2 0x117E JUMP JUMPDEST PUSH1 0x40 MLOAD DUP1 SWAP2 SUB SWAP1 RETURN JUMPDEST PUSH2 0x174 PUSH1 0x4 DUP1 CALLDATASIZE SUB DUP2 ADD SWAP1 PUSH2 0x16F SWAP2 SWAP1 PUSH2 0x12C3 JUMP JUMPDEST PUSH2 0x8A3 JUMP JUMPDEST STOP JUMPDEST PUSH2 0x190 PUSH1 0x4 DUP1 CALLDATASIZE SUB DUP2 ADD SWAP1 PUSH2 0x18B SWAP2 SWAP1 PUSH2 0xF9F JUMP JUMPDEST PUSH2 0xA96 JUMP JUMPDEST PUSH1 0x40 MLOAD PUSH2 0x19D SWAP2 SWAP1 PUSH2 0x117E JUMP JUMPDEST PUSH1 0x40 MLOAD DUP1 SWAP2 SUB SWAP1 RETURN JUMPDEST PUSH2 0x1C0 PUSH1 0x4 DUP1 CALLDATASIZE SUB DUP2 ADD SWAP1 PUSH2 0x1BB SWAP2 SWAP1 PUSH2 0x130A JUMP JUMPDEST PUSH2 0xB68 JUMP JUMPDEST STOP JUMPDEST PUSH2 0x1CA PUSH2 0xC00 JUMP JUMPDEST PUSH1 0x40 MLOAD PUSH2 0x1D7 SWAP2 SWAP1 PUSH2 0x1335 JUMP JUMPDEST PUSH1 0x40 MLOAD DUP1 SWAP2 SUB SWAP1 RETURN JUMPDEST PUSH2 0x1FA PUSH1 0x4 DUP1 CALLDATASIZE SUB DUP2 ADD SWAP1 PUSH2 0x1F5 SWAP2 SWAP1 PUSH2 0x130A JUMP JUMPDEST PUSH2 0xC25 JUMP JUMPDEST PUSH1 0x40 MLOAD PUSH2 0x207 SWAP2 SWAP1 PUSH2 0x13C1 JUMP JUMPDEST PUSH1 0x40 MLOAD DUP1 SWAP2 SUB SWAP1 RETURN JUMPDEST PUSH1 0x1 PUSH1 0x20 MSTORE DUP2 PUSH0 MSTORE PUSH1 0x40 PUSH0 KECCAK256 DUP2 DUP2 SLOAD DUP2 LT PUSH2 0x229 JUMPI PUSH0 DUP1 REVERT JUMPDEST SWAP1 PUSH0 MSTORE PUSH1 0x20 PUSH0 KECCAK256 SWAP1 PUSH1 0x5 MUL ADD PUSH0 SWAP2 POP SWAP2 POP POP DUP1 PUSH0 ADD SLOAD SWAP1 DUP1 PUSH1 0x1 ADD PUSH0 SWAP1 SLOAD SWAP1 PUSH2 0x100 EXP SWAP1 DIV PUSH20 0xFFFFFFFFFFFFFFFFFFFFFFFFFFFFFFFFFFFFFFFF AND SWAP1 DUP1 PUSH1 0x2 ADD DUP1 SLOAD PUSH2 0x274 SWAP1 PUSH2 0x140E JUMP JUMPDEST DUP1 PUSH1 0x1F ADD PUSH1 0x20 DUP1 SWAP2 DIV MUL PUSH1 0x20 ADD PUSH1 0x40 MLOAD SWAP1 DUP2 ADD PUSH1 0x40 MSTORE DUP1 SWAP3 SWAP2 SWAP1 DUP2 DUP2 MSTORE PUSH1 0x20 ADD DUP3 DUP1 SLOAD PUSH2 0x2A0 SWAP1 PUSH2 0x140E JUMP JUMPDEST DUP1 ISZERO PUSH2 0x2EB JUMPI DUP1 PUSH1 0x1F LT PUSH2 0x2C2 JUMPI PUSH2 0x100 DUP1 DUP4 SLOAD DIV MUL DUP4 MSTORE SWAP2 PUSH1 0x20 ADD SWAP2 PUSH2 0x2EB JUMP JUMPDEST DUP3 ADD SWAP2 SWAP1 PUSH0 MSTORE PUSH1 0x20 PUSH0 KECCAK256 SWAP1 JUMPDEST DUP2 SLOAD DUP2 MSTORE SWAP1 PUSH1 0x1 ADD SWAP1 PUSH1 0x20 ADD DUP1 DUP4 GT PUSH2 0x2CE JUMPI DUP3 SWAP1 SUB PUSH1 0x1F AND DUP3 ADD SWAP2 JUMPDEST POP POP POP POP POP SWAP1 DUP1 PUSH1 0x3 ADD SLOAD SWAP1 DUP1 PUSH1 0x4 ADD SLOAD SWAP1 POP DUP6 JUMP JUMPDEST PUSH1 0x60 PUSH1 0x1 PUSH0 DUP4 PUSH20 0xFFFFFFFFFFFFFFFFFFFFFFFFFFFFFFFFFFFFFFFF AND PUSH20 0xFFFFFFFFFFFFFFFFFFFFFFFFFFFFFFFFFFFFFFFF AND DUP2 MSTORE PUSH1 0x20 ADD SWAP1 DUP2 MSTORE PUSH1 0x20 ADD PUSH0 KECCAK256 DUP1 SLOAD DUP1 PUSH1 0x20 MUL PUSH1 0x20 ADD PUSH1 0x40 MLOAD SWAP1 DUP2 ADD PUSH1 0x40 MSTORE DUP1 SWAP3 SWAP2 SWAP1 DUP2 DUP2 MSTORE PUSH1 0x20 ADD PUSH0 SWAP1 JUMPDEST DUP3 DUP3 LT ISZERO PUSH2 0x491 JUMPI DUP4 DUP3 SWAP1 PUSH0 MSTORE PUSH1 0x20 PUSH0 KECCAK256 SWAP1 PUSH1 0x5 MUL ADD PUSH1 0x40 MLOAD DUP1 PUSH1 0xA0 ADD PUSH1 0x40 MSTORE SWAP1 DUP2 PUSH0 DUP3 ADD SLOAD DUP2 MSTORE PUSH1 0x20 ADD PUSH1 0x1 DUP3 ADD PUSH0 SWAP1 SLOAD SWAP1 PUSH2 0x100 EXP SWAP1 DIV PUSH20 0xFFFFFFFFFFFFFFFFFFFFFFFFFFFFFFFFFFFFFFFF AND PUSH20 0xFFFFFFFFFFFFFFFFFFFFFFFFFFFFFFFFFFFFFFFF AND PUSH20 0xFFFFFFFFFFFFFFFFFFFFFFFFFFFFFFFFFFFFFFFF AND DUP2 MSTORE PUSH1 0x20 ADD PUSH1 0x2 DUP3 ADD DUP1 SLOAD PUSH2 0x3EE SWAP1 PUSH2 0x140E JUMP JUMPDEST DUP1 PUSH1 0x1F ADD PUSH1 0x20 DUP1 SWAP2 DIV MUL PUSH1 0x20 ADD PUSH1 0x40 MLOAD SWAP1 DUP2 ADD PUSH1 0x40 MSTORE DUP1 SWAP3 SWAP2 SWAP1 DUP2 DUP2 MSTORE PUSH1 0x20 ADD DUP3 DUP1 SLOAD PUSH2 0x41A SWAP1 PUSH2 0x140E JUMP JUMPDEST DUP1 ISZERO PUSH2 0x465 JUMPI DUP1 PUSH1 0x1F LT PUSH2 0x43C JUMPI PUSH2 0x100 DUP1 DUP4 SLOAD DIV MUL DUP4 MSTORE SWAP2 PUSH1 0x20 ADD SWAP2 PUSH2 0x465 JUMP JUMPDEST DUP3 ADD SWAP2 SWAP1 PUSH0 MSTORE PUSH1 0x20 PUSH0 KECCAK256 SWAP1 JUMPDEST DUP2 SLOAD DUP2 MSTORE SWAP1 PUSH1 0x1 ADD SWAP1 PUSH1 0x20 ADD DUP1 DUP4 GT PUSH2 0x448 JUMPI DUP3 SWAP1 SUB PUSH1 0x1F AND DUP3 ADD SWAP2 JUMPDEST POP POP POP POP POP DUP2 MSTORE PUSH1 0x20 ADD PUSH1 0x3 DUP3 ADD SLOAD DUP2 MSTORE PUSH1 0x20 ADD PUSH1 0x4 DUP3 ADD SLOAD DUP2 MSTORE POP POP DUP2 MSTORE PUSH1 0x20 ADD SWAP1 PUSH1 0x1 ADD SWAP1 PUSH2 0x35F JUMP JUMPDEST POP POP POP POP SWAP1 POP SWAP2 SWAP1 POP JUMP JUMPDEST DUP1 PUSH1 0x1 PUSH0 DUP5 PUSH20 0xFFFFFFFFFFFFFFFFFFFFFFFFFFFFFFFFFFFFFFFF AND PUSH20 0xFFFFFFFFFFFFFFFFFFFFFFFFFFFFFFFFFFFFFFFF AND DUP2 MSTORE PUSH1 0x20 ADD SWAP1 DUP2 MSTORE PUSH1 0x20 ADD PUSH0 KECCAK256 DUP3 DUP2 SLOAD DUP2 LT PUSH2 0x4EC JUMPI PUSH2 0x4EB PUSH2 0x143E JUMP JUMPDEST JUMPDEST SWAP1 PUSH0 MSTORE PUSH1 0x20 PUSH0 KECCAK256 SWAP1 PUSH1 0x5 MUL ADD PUSH0 ADD SLOAD EQ PUSH2 0x53B JUMPI PUSH1 0x40 MLOAD PUSH32 0x8C379A000000000000000000000000000000000000000000000000000000000 DUP2 MSTORE PUSH1 0x4 ADD PUSH2 0x532 SWAP1 PUSH2 0x14B5 JUMP JUMPDEST PUSH1 0x40 MLOAD DUP1 SWAP2 SUB SWAP1 REVERT JUMPDEST PUSH0 PUSH1 0x1 PUSH0 DUP5 PUSH20 0xFFFFFFFFFFFFFFFFFFFFFFFFFFFFFFFFFFFFFFFF AND PUSH20 0xFFFFFFFFFFFFFFFFFFFFFFFFFFFFFFFFFFFFFFFF AND DUP2 MSTORE PUSH1 0x20 ADD SWAP1 DUP2 MSTORE PUSH1 0x20 ADD PUSH0 KECCAK256 DUP3 DUP2 SLOAD DUP2 LT PUSH2 0x58B JUMPI PUSH2 0x58A PUSH2 0x143E JUMP JUMPDEST JUMPDEST SWAP1 PUSH0 MSTORE PUSH1 0x20 PUSH0 KECCAK256 SWAP1 PUSH1 0x5 MUL ADD PUSH1 0x4 ADD SLOAD GT PUSH2 0x5DB JUMPI PUSH1 0x40 MLOAD PUSH32 0x8C379A000000000000000000000000000000000000000000000000000000000 DUP2 MSTORE PUSH1 0x4 ADD PUSH2 0x5D2 SWAP1 PUSH2 0x151D JUMP JUMPDEST PUSH1 0x40 MLOAD DUP1 SWAP2 SUB SWAP1 REVERT JUMPDEST PUSH1 0x1 PUSH0 DUP4 PUSH20 0xFFFFFFFFFFFFFFFFFFFFFFFFFFFFFFFFFFFFFFFF AND PUSH20 0xFFFFFFFFFFFFFFFFFFFFFFFFFFFFFFFFFFFFFFFF AND DUP2 MSTORE PUSH1 0x20 ADD SWAP1 DUP2 MSTORE PUSH1 0x20 ADD PUSH0 KECCAK256 DUP2 DUP2 SLOAD DUP2 LT PUSH2 0x62A JUMPI PUSH2 0x629 PUSH2 0x143E JUMP JUMPDEST JUMPDEST SWAP1 PUSH0 MSTORE PUSH1 0x20 PUSH0 KECCAK256 SWAP1 PUSH1 0x5 MUL ADD PUSH1 0x4 ADD PUSH0 DUP2 SLOAD DUP1 SWAP3 SWAP2 SWAP1 PUSH2 0x649 SWAP1 PUSH2 0x1568 JUMP JUMPDEST SWAP2 SWAP1 POP SSTORE POP PUSH32 0x762C2616349603AC16EBA0DE8E6141B79129A07AB63BD99E0A80B3A471716943 CALLER DUP4 DUP4 PUSH1 0x1 PUSH0 DUP8 PUSH20 0xFFFFFFFFFFFFFFFFFFFFFFFFFFFFFFFFFFFFFFFF AND PUSH20 0xFFFFFFFFFFFFFFFFFFFFFFFFFFFFFFFFFFFFFFFF AND DUP2 MSTORE PUSH1 0x20 ADD SWAP1 DUP2 MSTORE PUSH1 0x20 ADD PUSH0 KECCAK256 DUP6 DUP2 SLOAD DUP2 LT PUSH2 0x6C1 JUMPI PUSH2 0x6C0 PUSH2 0x143E JUMP JUMPDEST JUMPDEST SWAP1 PUSH0 MSTORE PUSH1 0x20 PUSH0 KECCAK256 SWAP1 PUSH1 0x5 MUL ADD PUSH1 0x4 ADD SLOAD PUSH1 0x40 MLOAD PUSH2 0x6E1 SWAP5 SWAP4 SWAP3 SWAP2 SWAP1 PUSH2 0x158F JUMP JUMPDEST PUSH1 0x40 MLOAD DUP1 SWAP2 SUB SWAP1 LOG1 POP POP JUMP JUMPDEST DUP1 PUSH1 0x1 PUSH0 DUP5 PUSH20 0xFFFFFFFFFFFFFFFFFFFFFFFFFFFFFFFFFFFFFFFF AND PUSH20 0xFFFFFFFFFFFFFFFFFFFFFFFFFFFFFFFFFFFFFFFF AND DUP2 MSTORE PUSH1 0x20 ADD SWAP1 DUP2 MSTORE PUSH1 0x20 ADD PUSH0 KECCAK256 DUP3 DUP2 SLOAD DUP2 LT PUSH2 0x73D JUMPI PUSH2 0x73C PUSH2 0x143E JUMP JUMPDEST JUMPDEST SWAP1 PUSH0 MSTORE PUSH1 0x20 PUSH0 KECCAK256 SWAP1 PUSH1 0x5 MUL ADD PUSH0 ADD SLOAD EQ PUSH2 0x78C JUMPI PUSH1 0x40 MLOAD PUSH32 0x8C379A000000000000000000000000000000000000000000000000000000000 DUP2 MSTORE PUSH1 0x4 ADD PUSH2 0x783 SWAP1 PUSH2 0x14B5 JUMP JUMPDEST PUSH1 0x40 MLOAD DUP1 SWAP2 SUB SWAP1 REVERT JUMPDEST PUSH1 0x1 PUSH0 DUP4 PUSH20 0xFFFFFFFFFFFFFFFFFFFFFFFFFFFFFFFFFFFFFFFF AND PUSH20 0xFFFFFFFFFFFFFFFFFFFFFFFFFFFFFFFFFFFFFFFF AND DUP2 MSTORE PUSH1 0x20 ADD SWAP1 DUP2 MSTORE PUSH1 0x20 ADD PUSH0 KECCAK256 DUP2 DUP2 SLOAD DUP2 LT PUSH2 0x7DB JUMPI PUSH2 0x7DA PUSH2 0x143E JUMP JUMPDEST JUMPDEST SWAP1 PUSH0 MSTORE PUSH1 0x20 PUSH0 KECCAK256 SWAP1 PUSH1 0x5 MUL ADD PUSH1 0x4 ADD PUSH0 DUP2 SLOAD DUP1 SWAP3 SWAP2 SWAP1 PUSH2 0x7FA SWAP1 PUSH2 0x15D2 JUMP JUMPDEST SWAP2 SWAP1 POP SSTORE POP PUSH32 0xE8A76FC0F16D11A00D1E93B689B63D76CF60AF914DD3D915375DC41D01A0C3C8 CALLER DUP4 DUP4 PUSH1 0x1 PUSH0 DUP8 PUSH20 0xFFFFFFFFFFFFFFFFFFFFFFFFFFFFFFFFFFFFFFFF AND PUSH20 0xFFFFFFFFFFFFFFFFFFFFFFFFFFFFFFFFFFFFFFFF AND DUP2 MSTORE PUSH1 0x20 ADD SWAP1 DUP2 MSTORE PUSH1 0x20 ADD PUSH0 KECCAK256 DUP6 DUP2 SLOAD DUP2 LT PUSH2 0x872 JUMPI PUSH2 0x871 PUSH2 0x143E JUMP JUMPDEST JUMPDEST SWAP1 PUSH0 MSTORE PUSH1 0x20 PUSH0 KECCAK256 SWAP1 PUSH1 0x5 MUL ADD PUSH1 0x4 ADD SLOAD PUSH1 0x40 MLOAD PUSH2 0x892 SWAP5 SWAP4 SWAP3 SWAP2 SWAP1 PUSH2 0x158F JUMP JUMPDEST PUSH1 0x40 MLOAD DUP1 SWAP2 SUB SWAP1 LOG1 POP POP JUMP JUMPDEST PUSH0 SLOAD DUP2 JUMP JUMPDEST PUSH0 SLOAD DUP2 MLOAD GT ISZERO PUSH2 0x8E8 JUMPI PUSH1 0x40 MLOAD PUSH32 0x8C379A000000000000000000000000000000000000000000000000000000000 DUP2 MSTORE PUSH1 0x4 ADD PUSH2 0x8DF SWAP1 PUSH2 0x1663 JUMP JUMPDEST PUSH1 0x40 MLOAD DUP1 SWAP2 SUB SWAP1 REVERT JUMPDEST PUSH0 PUSH1 0x40 MLOAD DUP1 PUSH1 0xA0 ADD PUSH1 0x40 MSTORE DUP1 PUSH1 0x1 PUSH0 CALLER PUSH20 0xFFFFFFFFFFFFFFFFFFFFFFFFFFFFFFFFFFFFFFFF AND PUSH20 0xFFFFFFFFFFFFFFFFFFFFFFFFFFFFFFFFFFFFFFFF AND DUP2 MSTORE PUSH1 0x20 ADD SWAP1 DUP2 MSTORE PUSH1 0x20 ADD PUSH0 KECCAK256 DUP1 SLOAD SWAP1 POP DUP2 MSTORE PUSH1 0x20 ADD CALLER PUSH20 0xFFFFFFFFFFFFFFFFFFFFFFFFFFFFFFFFFFFFFFFF AND DUP2 MSTORE PUSH1 0x20 ADD DUP4 DUP2 MSTORE PUSH1 0x20 ADD TIMESTAMP DUP2 MSTORE PUSH1 0x20 ADD PUSH0 DUP2 MSTORE POP SWAP1 POP PUSH1 0x1 PUSH0 CALLER PUSH20 0xFFFFFFFFFFFFFFFFFFFFFFFFFFFFFFFFFFFFFFFF AND PUSH20 0xFFFFFFFFFFFFFFFFFFFFFFFFFFFFFFFFFFFFFFFF AND DUP2 MSTORE PUSH1 0x20 ADD SWAP1 DUP2 MSTORE PUSH1 0x20 ADD PUSH0 KECCAK256 DUP2 SWAP1 DUP1 PUSH1 0x1 DUP2 SLOAD ADD DUP1 DUP3 SSTORE DUP1 SWAP2 POP POP PUSH1 0x1 SWAP1 SUB SWAP1 PUSH0 MSTORE PUSH1 0x20 PUSH0 KECCAK256 SWAP1 PUSH1 0x5 MUL ADD PUSH0 SWAP1 SWAP2 SWAP1 SWAP2 SWAP1 SWAP2 POP PUSH0 DUP3 ADD MLOAD DUP2 PUSH0 ADD SSTORE PUSH1 0x20 DUP3 ADD MLOAD DUP2 PUSH1 0x1 ADD PUSH0 PUSH2 0x100 EXP DUP2 SLOAD DUP2 PUSH20 0xFFFFFFFFFFFFFFFFFFFFFFFFFFFFFFFFFFFFFFFF MUL NOT AND SWAP1 DUP4 PUSH20 0xFFFFFFFFFFFFFFFFFFFFFFFFFFFFFFFFFFFFFFFF AND MUL OR SWAP1 SSTORE POP PUSH1 0x40 DUP3 ADD MLOAD DUP2 PUSH1 0x2 ADD SWAP1 DUP2 PUSH2 0xA2F SWAP2 SWAP1 PUSH2 0x1821 JUMP JUMPDEST POP PUSH1 0x60 DUP3 ADD MLOAD DUP2 PUSH1 0x3 ADD SSTORE PUSH1 0x80 DUP3 ADD MLOAD DUP2 PUSH1 0x4 ADD SSTORE POP POP PUSH32 0x16FD3C13E9D46923E0A8BCE11C7B473EC508A72E6C96CD2404B29CE972AFC29E DUP2 PUSH0 ADD MLOAD DUP3 PUSH1 0x20 ADD MLOAD DUP4 PUSH1 0x40 ADD MLOAD DUP5 PUSH1 0x60 ADD MLOAD PUSH1 0x40 MLOAD PUSH2 0xA8A SWAP5 SWAP4 SWAP3 SWAP2 SWAP1 PUSH2 0x18F0 JUMP JUMPDEST PUSH1 0x40 MLOAD DUP1 SWAP2 SUB SWAP1 LOG1 POP POP JUMP JUMPDEST PUSH0 PUSH0 PUSH0 PUSH0 SWAP1 POP JUMPDEST PUSH1 0x1 PUSH0 DUP6 PUSH20 0xFFFFFFFFFFFFFFFFFFFFFFFFFFFFFFFFFFFFFFFF AND PUSH20 0xFFFFFFFFFFFFFFFFFFFFFFFFFFFFFFFFFFFFFFFF AND DUP2 MSTORE PUSH1 0x20 ADD SWAP1 DUP2 MSTORE PUSH1 0x20 ADD PUSH0 KECCAK256 DUP1 SLOAD SWAP1 POP DUP2 LT ISZERO PUSH2 0xB5E JUMPI PUSH1 0x1 PUSH0 DUP6 PUSH20 0xFFFFFFFFFFFFFFFFFFFFFFFFFFFFFFFFFFFFFFFF AND PUSH20 0xFFFFFFFFFFFFFFFFFFFFFFFFFFFFFFFFFFFFFFFF AND DUP2 MSTORE PUSH1 0x20 ADD SWAP1 DUP2 MSTORE PUSH1 0x20 ADD PUSH0 KECCAK256 DUP2 DUP2 SLOAD DUP2 LT PUSH2 0xB34 JUMPI PUSH2 0xB33 PUSH2 0x143E JUMP JUMPDEST JUMPDEST SWAP1 PUSH0 MSTORE PUSH1 0x20 PUSH0 KECCAK256 SWAP1 PUSH1 0x5 MUL ADD PUSH1 0x4 ADD SLOAD DUP3 PUSH2 0xB4F SWAP2 SWAP1 PUSH2 0x193A JUMP JUMPDEST SWAP2 POP DUP1 DUP1 PUSH1 0x1 ADD SWAP2 POP POP PUSH2 0xA9D JUMP JUMPDEST POP DUP1 SWAP2 POP POP SWAP2 SWAP1 POP JUMP JUMPDEST PUSH1 0x2 PUSH0 SWAP1 SLOAD SWAP1 PUSH2 0x100 EXP SWAP1 DIV PUSH20 0xFFFFFFFFFFFFFFFFFFFFFFFFFFFFFFFFFFFFFFFF AND PUSH20 0xFFFFFFFFFFFFFFFFFFFFFFFFFFFFFFFFFFFFFFFF AND CALLER PUSH20 0xFFFFFFFFFFFFFFFFFFFFFFFFFFFFFFFFFFFFFFFF AND EQ PUSH2 0xBF7 JUMPI PUSH1 0x40 MLOAD PUSH32 0x8C379A000000000000000000000000000000000000000000000000000000000 DUP2 MSTORE PUSH1 0x4 ADD PUSH2 0xBEE SWAP1 PUSH2 0x19B7 JUMP JUMPDEST PUSH1 0x40 MLOAD DUP1 SWAP2 SUB SWAP1 REVERT JUMPDEST DUP1 PUSH0 DUP2 SWAP1 SSTORE POP POP JUMP JUMPDEST PUSH1 0x2 PUSH0 SWAP1 SLOAD SWAP1 PUSH2 0x100 EXP SWAP1 DIV PUSH20 0xFFFFFFFFFFFFFFFFFFFFFFFFFFFFFFFFFFFFFFFF AND DUP2 JUMP JUMPDEST PUSH2 0xC2D PUSH2 0xD9C JUMP JUMPDEST PUSH1 0x1 PUSH0 CALLER PUSH20 0xFFFFFFFFFFFFFFFFFFFFFFFFFFFFFFFFFFFFFFFF AND PUSH20 0xFFFFFFFFFFFFFFFFFFFFFFFFFFFFFFFFFFFFFFFF AND DUP2 MSTORE PUSH1 0x20 ADD SWAP1 DUP2 MSTORE PUSH1 0x20 ADD PUSH0 KECCAK256 DUP3 DUP2 SLOAD DUP2 LT PUSH2 0xC7C JUMPI PUSH2 0xC7B PUSH2 0x143E JUMP JUMPDEST JUMPDEST SWAP1 PUSH0 MSTORE PUSH1 0x20 PUSH0 KECCAK256 SWAP1 PUSH1 0x5 MUL ADD PUSH1 0x40 MLOAD DUP1 PUSH1 0xA0 ADD PUSH1 0x40 MSTORE SWAP1 DUP2 PUSH0 DUP3 ADD SLOAD DUP2 MSTORE PUSH1 0x20 ADD PUSH1 0x1 DUP3 ADD PUSH0 SWAP1 SLOAD SWAP1 PUSH2 0x100 EXP SWAP1 DIV PUSH20 0xFFFFFFFFFFFFFFFFFFFFFFFFFFFFFFFFFFFFFFFF AND PUSH20 0xFFFFFFFFFFFFFFFFFFFFFFFFFFFFFFFFFFFFFFFF AND PUSH20 0xFFFFFFFFFFFFFFFFFFFFFFFFFFFFFFFFFFFFFFFF AND DUP2 MSTORE PUSH1 0x20 ADD PUSH1 0x2 DUP3 ADD DUP1 SLOAD PUSH2 0xD01 SWAP1 PUSH2 0x140E JUMP JUMPDEST DUP1 PUSH1 0x1F ADD PUSH1 0x20 DUP1 SWAP2 DIV MUL PUSH1 0x20 ADD PUSH1 0x40 MLOAD SWAP1 DUP2 ADD PUSH1 0x40 MSTORE DUP1 SWAP3 SWAP2 SWAP1 DUP2 DUP2 MSTORE PUSH1 0x20 ADD DUP3 DUP1 SLOAD PUSH2 0xD2D SWAP1 PUSH2 0x140E JUMP JUMPDEST DUP1 ISZERO PUSH2 0xD78 JUMPI DUP1 PUSH1 0x1F LT PUSH2 0xD4F JUMPI PUSH2 0x100 DUP1 DUP4 SLOAD DIV MUL DUP4 MSTORE SWAP2 PUSH1 0x20 ADD SWAP2 PUSH2 0xD78 JUMP JUMPDEST DUP3 ADD SWAP2 SWAP1 PUSH0 MSTORE PUSH1 0x20 PUSH0 KECCAK256 SWAP1 JUMPDEST DUP2 SLOAD DUP2 MSTORE SWAP1 PUSH1 0x1 ADD SWAP1 PUSH1 0x20 ADD DUP1 DUP4 GT PUSH2 0xD5B JUMPI DUP3 SWAP1 SUB PUSH1 0x1F AND DUP3 ADD SWAP2 JUMPDEST POP POP POP POP POP DUP2 MSTORE PUSH1 0x20 ADD PUSH1 0x3 DUP3 ADD SLOAD DUP2 MSTORE PUSH1 0x20 ADD PUSH1 0x4 DUP3 ADD SLOAD DUP2 MSTORE POP POP SWAP1 POP SWAP2 SWAP1 POP JUMP JUMPDEST PUSH1 0x40 MLOAD DUP1 PUSH1 0xA0 ADD PUSH1 0x40 MSTORE DUP1 PUSH0 DUP2 MSTORE PUSH1 0x20 ADD PUSH0 PUSH20 0xFFFFFFFFFFFFFFFFFFFFFFFFFFFFFFFFFFFFFFFF AND DUP2 MSTORE PUSH1 0x20 ADD PUSH1 0x60 DUP2 MSTORE PUSH1 0x20 ADD PUSH0 DUP2 MSTORE PUSH1 0x20 ADD PUSH0 DUP2 MSTORE POP SWAP1 JUMP JUMPDEST PUSH0 PUSH1 0x40 MLOAD SWAP1 POP SWAP1 JUMP JUMPDEST PUSH0 PUSH0 REVERT JUMPDEST PUSH0 PUSH0 REVERT JUMPDEST PUSH0 PUSH20 0xFFFFFFFFFFFFFFFFFFFFFFFFFFFFFFFFFFFFFFFF DUP3 AND SWAP1 POP SWAP2 SWAP1 POP JUMP JUMPDEST PUSH0 PUSH2 0xE17 DUP3 PUSH2 0xDEE JUMP JUMPDEST SWAP1 POP SWAP2 SWAP1 POP JUMP JUMPDEST PUSH2 0xE27 DUP2 PUSH2 0xE0D JUMP JUMPDEST DUP2 EQ PUSH2 0xE31 JUMPI PUSH0 PUSH0 REVERT JUMPDEST POP JUMP JUMPDEST PUSH0 DUP2 CALLDATALOAD SWAP1 POP PUSH2 0xE42 DUP2 PUSH2 0xE1E JUMP JUMPDEST SWAP3 SWAP2 POP POP JUMP JUMPDEST PUSH0 DUP2 SWAP1 POP SWAP2 SWAP1 POP JUMP JUMPDEST PUSH2 0xE5A DUP2 PUSH2 0xE48 JUMP JUMPDEST DUP2 EQ PUSH2 0xE64 JUMPI PUSH0 PUSH0 REVERT JUMPDEST POP JUMP JUMPDEST PUSH0 DUP2 CALLDATALOAD SWAP1 POP PUSH2 0xE75 DUP2 PUSH2 0xE51 JUMP JUMPDEST SWAP3 SWAP2 POP POP JUMP JUMPDEST PUSH0 PUSH0 PUSH1 0x40 DUP4 DUP6 SUB SLT ISZERO PUSH2 0xE91 JUMPI PUSH2 0xE90 PUSH2 0xDE6 JUMP JUMPDEST JUMPDEST PUSH0 PUSH2 0xE9E DUP6 DUP3 DUP7 ADD PUSH2 0xE34 JUMP JUMPDEST SWAP3 POP POP PUSH1 0x20 PUSH2 0xEAF DUP6 DUP3 DUP7 ADD PUSH2 0xE67 JUMP JUMPDEST SWAP2 POP POP SWAP3 POP SWAP3 SWAP1 POP JUMP JUMPDEST PUSH2 0xEC2 DUP2 PUSH2 0xE48 JUMP JUMPDEST DUP3 MSTORE POP POP JUMP JUMPDEST PUSH2 0xED1 DUP2 PUSH2 0xE0D JUMP JUMPDEST DUP3 MSTORE POP POP JUMP JUMPDEST PUSH0 DUP2 MLOAD SWAP1 POP SWAP2 SWAP1 POP JUMP JUMPDEST PUSH0 DUP3 DUP3 MSTORE PUSH1 0x20 DUP3 ADD SWAP1 POP SWAP3 SWAP2 POP POP JUMP JUMPDEST DUP3 DUP2 DUP4 MCOPY PUSH0 DUP4 DUP4 ADD MSTORE POP POP POP JUMP JUMPDEST PUSH0 PUSH1 0x1F NOT PUSH1 0x1F DUP4 ADD AND SWAP1 POP SWAP2 SWAP1 POP JUMP JUMPDEST PUSH0 PUSH2 0xF19 DUP3 PUSH2 0xED7 JUMP JUMPDEST PUSH2 0xF23 DUP2 DUP6 PUSH2 0xEE1 JUMP JUMPDEST SWAP4 POP PUSH2 0xF33 DUP2 DUP6 PUSH1 0x20 DUP7 ADD PUSH2 0xEF1 JUMP JUMPDEST PUSH2 0xF3C DUP2 PUSH2 0xEFF JUMP JUMPDEST DUP5 ADD SWAP2 POP POP SWAP3 SWAP2 POP POP JUMP JUMPDEST PUSH0 PUSH1 0xA0 DUP3 ADD SWAP1 POP PUSH2 0xF5A PUSH0 DUP4 ADD DUP9 PUSH2 0xEB9 JUMP JUMPDEST PUSH2 0xF67 PUSH1 0x20 DUP4 ADD DUP8 PUSH2 0xEC8 JUMP JUMPDEST DUP2 DUP2 SUB PUSH1 0x40 DUP4 ADD MSTORE PUSH2 0xF79 DUP2 DUP7 PUSH2 0xF0F JUMP JUMPDEST SWAP1 POP PUSH2 0xF88 PUSH1 0x60 DUP4 ADD DUP6 PUSH2 0xEB9 JUMP JUMPDEST PUSH2 0xF95 PUSH1 0x80 DUP4 ADD DUP5 PUSH2 0xEB9 JUMP JUMPDEST SWAP7 SWAP6 POP POP POP POP POP POP JUMP JUMPDEST PUSH0 PUSH1 0x20 DUP3 DUP5 SUB SLT ISZERO PUSH2 0xFB4 JUMPI PUSH2 0xFB3 PUSH2 0xDE6 JUMP JUMPDEST JUMPDEST PUSH0 PUSH2 0xFC1 DUP5 DUP3 DUP6 ADD PUSH2 0xE34 JUMP JUMPDEST SWAP2 POP POP SWAP3 SWAP2 POP POP JUMP JUMPDEST PUSH0 DUP2 MLOAD SWAP1 POP SWAP2 SWAP1 POP JUMP JUMPDEST PUSH0 DUP3 DUP3 MSTORE PUSH1 0x20 DUP3 ADD SWAP1 POP SWAP3 SWAP2 POP POP JUMP JUMPDEST PUSH0 DUP2 SWAP1 POP PUSH1 0x20 DUP3 ADD SWAP1 POP SWAP2 SWAP1 POP JUMP JUMPDEST PUSH2 0xFFC DUP2 PUSH2 0xE48 JUMP JUMPDEST DUP3 MSTORE POP POP JUMP JUMPDEST PUSH2 0x100B DUP2 PUSH2 0xE0D JUMP JUMPDEST DUP3 MSTORE POP POP JUMP JUMPDEST PUSH0 DUP3 DUP3 MSTORE PUSH1 0x20 DUP3 ADD SWAP1 POP SWAP3 SWAP2 POP POP JUMP JUMPDEST PUSH0 PUSH2 0x102B DUP3 PUSH2 0xED7 JUMP JUMPDEST PUSH2 0x1035 DUP2 DUP6 PUSH2 0x1011 JUMP JUMPDEST SWAP4 POP PUSH2 0x1045 DUP2 DUP6 PUSH1 0x20 DUP7 ADD PUSH2 0xEF1 JUMP JUMPDEST PUSH2 0x104E DUP2 PUSH2 0xEFF JUMP JUMPDEST DUP5 ADD SWAP2 POP POP SWAP3 SWAP2 POP POP JUMP JUMPDEST PUSH0 PUSH1 0xA0 DUP4 ADD PUSH0 DUP4 ADD MLOAD PUSH2 0x106E PUSH0 DUP7 ADD DUP3 PUSH2 0xFF3 JUMP JUMPDEST POP PUSH1 0x20 DUP4 ADD MLOAD PUSH2 0x1081 PUSH1 0x20 DUP7 ADD DUP3 PUSH2 0x1002 JUMP JUMPDEST POP PUSH1 0x40 DUP4 ADD MLOAD DUP5 DUP3 SUB PUSH1 0x40 DUP7 ADD MSTORE PUSH2 0x1099 DUP3 DUP3 PUSH2 0x1021 JUMP JUMPDEST SWAP2 POP POP PUSH1 0x60 DUP4 ADD MLOAD PUSH2 0x10AE PUSH1 0x60 DUP7 ADD DUP3 PUSH2 0xFF3 JUMP JUMPDEST POP PUSH1 0x80 DUP4 ADD MLOAD PUSH2 0x10C1 PUSH1 0x80 DUP7 ADD DUP3 PUSH2 0xFF3 JUMP JUMPDEST POP DUP1 SWAP2 POP POP SWAP3 SWAP2 POP POP JUMP JUMPDEST PUSH0 PUSH2 0x10D7 DUP4 DUP4 PUSH2 0x1059 JUMP JUMPDEST SWAP1 POP SWAP3 SWAP2 POP POP JUMP JUMPDEST PUSH0 PUSH1 0x20 DUP3 ADD SWAP1 POP SWAP2 SWAP1 POP JUMP JUMPDEST PUSH0 PUSH2 0x10F5 DUP3 PUSH2 0xFCA JUMP JUMPDEST PUSH2 0x10FF DUP2 DUP6 PUSH2 0xFD4 JUMP JUMPDEST SWAP4 POP DUP4 PUSH1 0x20 DUP3 MUL DUP6 ADD PUSH2 0x1111 DUP6 PUSH2 0xFE4 JUMP JUMPDEST DUP1 PUSH0 JUMPDEST DUP6 DUP2 LT ISZERO PUSH2 0x114C JUMPI DUP5 DUP5 SUB DUP10 MSTORE DUP2 MLOAD PUSH2 0x112D DUP6 DUP3 PUSH2 0x10CC JUMP JUMPDEST SWAP5 POP PUSH2 0x1138 DUP4 PUSH2 0x10DF JUMP JUMPDEST SWAP3 POP PUSH1 0x20 DUP11 ADD SWAP10 POP POP PUSH1 0x1 DUP2 ADD SWAP1 POP PUSH2 0x1114 JUMP JUMPDEST POP DUP3 SWAP8 POP DUP8 SWAP6 POP POP POP POP POP POP SWAP3 SWAP2 POP POP JUMP JUMPDEST PUSH0 PUSH1 0x20 DUP3 ADD SWAP1 POP DUP2 DUP2 SUB PUSH0 DUP4 ADD MSTORE PUSH2 0x1176 DUP2 DUP5 PUSH2 0x10EB JUMP JUMPDEST SWAP1 POP SWAP3 SWAP2 POP POP JUMP JUMPDEST PUSH0 PUSH1 0x20 DUP3 ADD SWAP1 POP PUSH2 0x1191 PUSH0 DUP4 ADD DUP5 PUSH2 0xEB9 JUMP JUMPDEST SWAP3 SWAP2 POP POP JUMP JUMPDEST PUSH0 PUSH0 REVERT JUMPDEST PUSH0 PUSH0 REVERT JUMPDEST PUSH32 0x4E487B7100000000000000000000000000000000000000000000000000000000 PUSH0 MSTORE PUSH1 0x41 PUSH1 0x4 MSTORE PUSH1 0x24 PUSH0 REVERT JUMPDEST PUSH2 0x11D5 DUP3 PUSH2 0xEFF JUMP JUMPDEST DUP2 ADD DUP2 DUP2 LT PUSH8 0xFFFFFFFFFFFFFFFF DUP3 GT OR ISZERO PUSH2 0x11F4 JUMPI PUSH2 0x11F3 PUSH2 0x119F JUMP JUMPDEST JUMPDEST DUP1 PUSH1 0x40 MSTORE POP POP POP JUMP JUMPDEST PUSH0 PUSH2 0x1206 PUSH2 0xDDD JUMP JUMPDEST SWAP1 POP PUSH2 0x1212 DUP3 DUP3 PUSH2 0x11CC JUMP JUMPDEST SWAP2 SWAP1 POP JUMP JUMPDEST PUSH0 PUSH8 0xFFFFFFFFFFFFFFFF DUP3 GT ISZERO PUSH2 0x1231 JUMPI PUSH2 0x1230 PUSH2 0x119F JUMP JUMPDEST JUMPDEST PUSH2 0x123A DUP3 PUSH2 0xEFF JUMP JUMPDEST SWAP1 POP PUSH1 0x20 DUP2 ADD SWAP1 POP SWAP2 SWAP1 POP JUMP JUMPDEST DUP3 DUP2 DUP4 CALLDATACOPY PUSH0 DUP4 DUP4 ADD MSTORE POP POP POP JUMP JUMPDEST PUSH0 PUSH2 0x1267 PUSH2 0x1262 DUP5 PUSH2 0x1217 JUMP JUMPDEST PUSH2 0x11FD JUMP JUMPDEST SWAP1 POP DUP3 DUP2 MSTORE PUSH1 0x20 DUP2 ADD DUP5 DUP5 DUP5 ADD GT ISZERO PUSH2 0x1283 JUMPI PUSH2 0x1282 PUSH2 0x119B JUMP JUMPDEST JUMPDEST PUSH2 0x128E DUP5 DUP3 DUP6 PUSH2 0x1247 JUMP JUMPDEST POP SWAP4 SWAP3 POP POP POP JUMP JUMPDEST PUSH0 DUP3 PUSH1 0x1F DUP4 ADD SLT PUSH2 0x12AA JUMPI PUSH2 0x12A9 PUSH2 0x1197 JUMP JUMPDEST JUMPDEST DUP2 CALLDATALOAD PUSH2 0x12BA DUP5 DUP3 PUSH1 0x20 DUP7 ADD PUSH2 0x1255 JUMP JUMPDEST SWAP2 POP POP SWAP3 SWAP2 POP POP JUMP JUMPDEST PUSH0 PUSH1 0x20 DUP3 DUP5 SUB SLT ISZERO PUSH2 0x12D8 JUMPI PUSH2 0x12D7 PUSH2 0xDE6 JUMP JUMPDEST JUMPDEST PUSH0 DUP3 ADD CALLDATALOAD PUSH8 0xFFFFFFFFFFFFFFFF DUP2 GT ISZERO PUSH2 0x12F5 JUMPI PUSH2 0x12F4 PUSH2 0xDEA JUMP JUMPDEST JUMPDEST PUSH2 0x1301 DUP5 DUP3 DUP6 ADD PUSH2 0x1296 JUMP JUMPDEST SWAP2 POP POP SWAP3 SWAP2 POP POP JUMP JUMPDEST PUSH0 PUSH1 0x20 DUP3 DUP5 SUB SLT ISZERO PUSH2 0x131F JUMPI PUSH2 0x131E PUSH2 0xDE6 JUMP JUMPDEST JUMPDEST PUSH0 PUSH2 0x132C DUP5 DUP3 DUP6 ADD PUSH2 0xE67 JUMP JUMPDEST SWAP2 POP POP SWAP3 SWAP2 POP POP JUMP JUMPDEST PUSH0 PUSH1 0x20 DUP3 ADD SWAP1 POP PUSH2 0x1348 PUSH0 DUP4 ADD DUP5 PUSH2 0xEC8 JUMP JUMPDEST SWAP3 SWAP2 POP POP JUMP JUMPDEST PUSH0 PUSH1 0xA0 DUP4 ADD PUSH0 DUP4 ADD MLOAD PUSH2 0x1363 PUSH0 DUP7 ADD DUP3 PUSH2 0xFF3 JUMP JUMPDEST POP PUSH1 0x20 DUP4 ADD MLOAD PUSH2 0x1376 PUSH1 0x20 DUP7 ADD DUP3 PUSH2 0x1002 JUMP JUMPDEST POP PUSH1 0x40 DUP4 ADD MLOAD DUP5 DUP3 SUB PUSH1 0x40 DUP7 ADD MSTORE PUSH2 0x138E DUP3 DUP3 PUSH2 0x1021 JUMP JUMPDEST SWAP2 POP POP PUSH1 0x60 DUP4 ADD MLOAD PUSH2 0x13A3 PUSH1 0x60 DUP7 ADD DUP3 PUSH2 0xFF3 JUMP JUMPDEST POP PUSH1 0x80 DUP4 ADD MLOAD PUSH2 0x13B6 PUSH1 0x80 DUP7 ADD DUP3 PUSH2 0xFF3 JUMP JUMPDEST POP DUP1 SWAP2 POP POP SWAP3 SWAP2 POP POP JUMP JUMPDEST PUSH0 PUSH1 0x20 DUP3 ADD SWAP1 POP DUP2 DUP2 SUB PUSH0 DUP4 ADD MSTORE PUSH2 0x13D9 DUP2 DUP5 PUSH2 0x134E JUMP JUMPDEST SWAP1 POP SWAP3 SWAP2 POP POP JUMP JUMPDEST PUSH32 0x4E487B7100000000000000000000000000000000000000000000000000000000 PUSH0 MSTORE PUSH1 0x22 PUSH1 0x4 MSTORE PUSH1 0x24 PUSH0 REVERT JUMPDEST PUSH0 PUSH1 0x2 DUP3 DIV SWAP1 POP PUSH1 0x1 DUP3 AND DUP1 PUSH2 0x1425 JUMPI PUSH1 0x7F DUP3 AND SWAP2 POP JUMPDEST PUSH1 0x20 DUP3 LT DUP2 SUB PUSH2 0x1438 JUMPI PUSH2 0x1437 PUSH2 0x13E1 JUMP JUMPDEST JUMPDEST POP SWAP2 SWAP1 POP JUMP JUMPDEST PUSH32 0x4E487B7100000000000000000000000000000000000000000000000000000000 PUSH0 MSTORE PUSH1 0x32 PUSH1 0x4 MSTORE PUSH1 0x24 PUSH0 REVERT JUMPDEST PUSH32 0x547765657420646F65736E742065786973740000000000000000000000000000 PUSH0 DUP3 ADD MSTORE POP JUMP JUMPDEST PUSH0 PUSH2 0x149F PUSH1 0x12 DUP4 PUSH2 0xEE1 JUMP JUMPDEST SWAP2 POP PUSH2 0x14AA DUP3 PUSH2 0x146B JUMP JUMPDEST PUSH1 0x20 DUP3 ADD SWAP1 POP SWAP2 SWAP1 POP JUMP JUMPDEST PUSH0 PUSH1 0x20 DUP3 ADD SWAP1 POP DUP2 DUP2 SUB PUSH0 DUP4 ADD MSTORE PUSH2 0x14CC DUP2 PUSH2 0x1493 JUMP JUMPDEST SWAP1 POP SWAP2 SWAP1 POP JUMP JUMPDEST PUSH32 0x547765657420686173206E6F206C696B65000000000000000000000000000000 PUSH0 DUP3 ADD MSTORE POP JUMP JUMPDEST PUSH0 PUSH2 0x1507 PUSH1 0x11 DUP4 PUSH2 0xEE1 JUMP JUMPDEST SWAP2 POP PUSH2 0x1512 DUP3 PUSH2 0x14D3 JUMP JUMPDEST PUSH1 0x20 DUP3 ADD SWAP1 POP SWAP2 SWAP1 POP JUMP JUMPDEST PUSH0 PUSH1 0x20 DUP3 ADD SWAP1 POP DUP2 DUP2 SUB PUSH0 DUP4 ADD MSTORE PUSH2 0x1534 DUP2 PUSH2 0x14FB JUMP JUMPDEST SWAP1 POP SWAP2 SWAP1 POP JUMP JUMPDEST PUSH32 0x4E487B7100000000000000000000000000000000000000000000000000000000 PUSH0 MSTORE PUSH1 0x11 PUSH1 0x4 MSTORE PUSH1 0x24 PUSH0 REVERT JUMPDEST PUSH0 PUSH2 0x1572 DUP3 PUSH2 0xE48 JUMP JUMPDEST SWAP2 POP PUSH0 DUP3 SUB PUSH2 0x1584 JUMPI PUSH2 0x1583 PUSH2 0x153B JUMP JUMPDEST JUMPDEST PUSH1 0x1 DUP3 SUB SWAP1 POP SWAP2 SWAP1 POP JUMP JUMPDEST PUSH0 PUSH1 0x80 DUP3 ADD SWAP1 POP PUSH2 0x15A2 PUSH0 DUP4 ADD DUP8 PUSH2 0xEC8 JUMP JUMPDEST PUSH2 0x15AF PUSH1 0x20 DUP4 ADD DUP7 PUSH2 0xEC8 JUMP JUMPDEST PUSH2 0x15BC PUSH1 0x40 DUP4 ADD DUP6 PUSH2 0xEB9 JUMP JUMPDEST PUSH2 0x15C9 PUSH1 0x60 DUP4 ADD DUP5 PUSH2 0xEB9 JUMP JUMPDEST SWAP6 SWAP5 POP POP POP POP POP JUMP JUMPDEST PUSH0 PUSH2 0x15DC DUP3 PUSH2 0xE48 JUMP JUMPDEST SWAP2 POP PUSH32 0xFFFFFFFFFFFFFFFFFFFFFFFFFFFFFFFFFFFFFFFFFFFFFFFFFFFFFFFFFFFFFFFF DUP3 SUB PUSH2 0x160E JUMPI PUSH2 0x160D PUSH2 0x153B JUMP JUMPDEST JUMPDEST PUSH1 0x1 DUP3 ADD SWAP1 POP SWAP2 SWAP1 POP JUMP JUMPDEST PUSH32 0x547765657420746F6F206C6F6E67206272756800000000000000000000000000 PUSH0 DUP3 ADD MSTORE POP JUMP JUMPDEST PUSH0 PUSH2 0x164D PUSH1 0x13 DUP4 PUSH2 0xEE1 JUMP JUMPDEST SWAP2 POP PUSH2 0x1658 DUP3 PUSH2 0x1619 JUMP JUMPDEST PUSH1 0x20 DUP3 ADD SWAP1 POP SWAP2 SWAP1 POP JUMP JUMPDEST PUSH0 PUSH1 0x20 DUP3 ADD SWAP1 POP DUP2 DUP2 SUB PUSH0 DUP4 ADD MSTORE PUSH2 0x167A DUP2 PUSH2 0x1641 JUMP JUMPDEST SWAP1 POP SWAP2 SWAP1 POP JUMP JUMPDEST PUSH0 DUP2 SWAP1 POP DUP2 PUSH0 MSTORE PUSH1 0x20 PUSH0 KECCAK256 SWAP1 POP SWAP2 SWAP1 POP JUMP JUMPDEST PUSH0 PUSH1 0x20 PUSH1 0x1F DUP4 ADD DIV SWAP1 POP SWAP2 SWAP1 POP JUMP JUMPDEST PUSH0 DUP3 DUP3 SHL SWAP1 POP SWAP3 SWAP2 POP POP JUMP JUMPDEST PUSH0 PUSH1 0x8 DUP4 MUL PUSH2 0x16DD PUSH32 0xFFFFFFFFFFFFFFFFFFFFFFFFFFFFFFFFFFFFFFFFFFFFFFFFFFFFFFFFFFFFFFFF DUP3 PUSH2 0x16A2 JUMP JUMPDEST PUSH2 0x16E7 DUP7 DUP4 PUSH2 0x16A2 JUMP JUMPDEST SWAP6 POP DUP1 NOT DUP5 AND SWAP4 POP DUP1 DUP7 AND DUP5 OR SWAP3 POP POP POP SWAP4 SWAP3 POP POP POP JUMP JUMPDEST PUSH0 DUP2 SWAP1 POP SWAP2 SWAP1 POP JUMP JUMPDEST PUSH0 PUSH2 0x1722 PUSH2 0x171D PUSH2 0x1718 DUP5 PUSH2 0xE48 JUMP JUMPDEST PUSH2 0x16FF JUMP JUMPDEST PUSH2 0xE48 JUMP JUMPDEST SWAP1 POP SWAP2 SWAP1 POP JUMP JUMPDEST PUSH0 DUP2 SWAP1 POP SWAP2 SWAP1 POP JUMP JUMPDEST PUSH2 0x173B DUP4 PUSH2 0x1708 JUMP JUMPDEST PUSH2 0x174F PUSH2 0x1747 DUP3 PUSH2 0x1729 JUMP JUMPDEST DUP5 DUP5 SLOAD PUSH2 0x16AE JUMP JUMPDEST DUP3 SSTORE POP POP POP POP JUMP JUMPDEST PUSH0 PUSH0 SWAP1 POP SWAP1 JUMP JUMPDEST PUSH2 0x1766 PUSH2 0x1757 JUMP JUMPDEST PUSH2 0x1771 DUP2 DUP5 DUP5 PUSH2 0x1732 JUMP JUMPDEST POP POP POP JUMP JUMPDEST JUMPDEST DUP2 DUP2 LT ISZERO PUSH2 0x1794 JUMPI PUSH2 0x1789 PUSH0 DUP3 PUSH2 0x175E JUMP JUMPDEST PUSH1 0x1 DUP2 ADD SWAP1 POP PUSH2 0x1777 JUMP JUMPDEST POP POP JUMP JUMPDEST PUSH1 0x1F DUP3 GT ISZERO PUSH2 0x17D9 JUMPI PUSH2 0x17AA DUP2 PUSH2 0x1681 JUMP JUMPDEST PUSH2 0x17B3 DUP5 PUSH2 0x1693 JUMP JUMPDEST DUP2 ADD PUSH1 0x20 DUP6 LT ISZERO PUSH2 0x17C2 JUMPI DUP2 SWAP1 POP JUMPDEST PUSH2 0x17D6 PUSH2 0x17CE DUP6 PUSH2 0x1693 JUMP JUMPDEST DUP4 ADD DUP3 PUSH2 0x1776 JUMP JUMPDEST POP POP JUMPDEST POP POP POP JUMP JUMPDEST PUSH0 DUP3 DUP3 SHR SWAP1 POP SWAP3 SWAP2 POP POP JUMP JUMPDEST PUSH0 PUSH2 0x17F9 PUSH0 NOT DUP5 PUSH1 0x8 MUL PUSH2 0x17DE JUMP JUMPDEST NOT DUP1 DUP4 AND SWAP2 POP POP SWAP3 SWAP2 POP POP JUMP JUMPDEST PUSH0 PUSH2 0x1811 DUP4 DUP4 PUSH2 0x17EA JUMP JUMPDEST SWAP2 POP DUP3 PUSH1 0x2 MUL DUP3 OR SWAP1 POP SWAP3 SWAP2 POP POP JUMP JUMPDEST PUSH2 0x182A DUP3 PUSH2 0xED7 JUMP JUMPDEST PUSH8 0xFFFFFFFFFFFFFFFF DUP2 GT ISZERO PUSH2 0x1843 JUMPI PUSH2 0x1842 PUSH2 0x119F JUMP JUMPDEST JUMPDEST PUSH2 0x184D DUP3 SLOAD PUSH2 0x140E JUMP JUMPDEST PUSH2 0x1858 DUP3 DUP3 DUP6 PUSH2 0x1798 JUMP JUMPDEST PUSH0 PUSH1 0x20 SWAP1 POP PUSH1 0x1F DUP4 GT PUSH1 0x1 DUP2 EQ PUSH2 0x1889 JUMPI PUSH0 DUP5 ISZERO PUSH2 0x1877 JUMPI DUP3 DUP8 ADD MLOAD SWAP1 POP JUMPDEST PUSH2 0x1881 DUP6 DUP3 PUSH2 0x1806 JUMP JUMPDEST DUP7 SSTORE POP PUSH2 0x18E8 JUMP JUMPDEST PUSH1 0x1F NOT DUP5 AND PUSH2 0x1897 DUP7 PUSH2 0x1681 JUMP JUMPDEST PUSH0 JUMPDEST DUP3 DUP2 LT ISZERO PUSH2 0x18BE JUMPI DUP5 DUP10 ADD MLOAD DUP3 SSTORE PUSH1 0x1 DUP3 ADD SWAP2 POP PUSH1 0x20 DUP6 ADD SWAP5 POP PUSH1 0x20 DUP2 ADD SWAP1 POP PUSH2 0x1899 JUMP JUMPDEST DUP7 DUP4 LT ISZERO PUSH2 0x18DB JUMPI DUP5 DUP10 ADD MLOAD PUSH2 0x18D7 PUSH1 0x1F DUP10 AND DUP3 PUSH2 0x17EA JUMP JUMPDEST DUP4 SSTORE POP JUMPDEST PUSH1 0x1 PUSH1 0x2 DUP9 MUL ADD DUP9 SSTORE POP POP POP JUMPDEST POP POP POP POP POP POP JUMP JUMPDEST PUSH0 PUSH1 0x80 DUP3 ADD SWAP1 POP PUSH2 0x1903 PUSH0 DUP4 ADD DUP8 PUSH2 0xEB9 JUMP JUMPDEST PUSH2 0x1910 PUSH1 0x20 DUP4 ADD DUP7 PUSH2 0xEC8 JUMP JUMPDEST DUP2 DUP2 SUB PUSH1 0x40 DUP4 ADD MSTORE PUSH2 0x1922 DUP2 DUP6 PUSH2 0xF0F JUMP JUMPDEST SWAP1 POP PUSH2 0x1931 PUSH1 0x60 DUP4 ADD DUP5 PUSH2 0xEB9 JUMP JUMPDEST SWAP6 SWAP5 POP POP POP POP POP JUMP JUMPDEST PUSH0 PUSH2 0x1944 DUP3 PUSH2 0xE48 JUMP JUMPDEST SWAP2 POP PUSH2 0x194F DUP4 PUSH2 0xE48 JUMP JUMPDEST SWAP3 POP DUP3 DUP3 ADD SWAP1 POP DUP1 DUP3 GT ISZERO PUSH2 0x1967 JUMPI PUSH2 0x1966 PUSH2 0x153B JUMP JUMPDEST JUMPDEST SWAP3 SWAP2 POP POP JUMP JUMPDEST PUSH32 0x596F7520617265206E6F7420746865206F776E65720000000000000000000000 PUSH0 DUP3 ADD MSTORE POP JUMP JUMPDEST PUSH0 PUSH2 0x19A1 PUSH1 0x15 DUP4 PUSH2 0xEE1 JUMP JUMPDEST SWAP2 POP PUSH2 0x19AC DUP3 PUSH2 0x196D JUMP JUMPDEST PUSH1 0x20 DUP3 ADD SWAP1 POP SWAP2 SWAP1 POP JUMP JUMPDEST PUSH0 PUSH1 0x20 DUP3 ADD SWAP1 POP DUP2 DUP2 SUB PUSH0 DUP4 ADD MSTORE PUSH2 0x19CE DUP2 PUSH2 0x1995 JUMP JUMPDEST SWAP1 POP SWAP2 SWAP1 POP JUMP INVALID LOG2 PUSH5 0x6970667358 0x22 SLT KECCAK256 PUSH22 0x1B41D9E4BDEAB4DB871DDD19C4C874C695CF40333B81 SWAP11 0x2C BYTE 0xBA 0xD7 0xE TIMESTAMP 0xC2 EQ PUSH5 0x736F6C6343 STOP ADDMOD 0x1E STOP CALLER "
				},
				"gasEstimates": {
					"creation": {
						"codeDepositCost": "1333400",
						"executionCost": "47758",
						"totalCost": "1381158"
					},
					"external": {
						"MAX_TWEET_LENGTH()": "2513",
						"changeTweetLength(uint256)": "24727",
						"createTweet(string)": "infinite",
						"getAllTweets(address)": "infinite",
						"getTotalLikes(address)": "infinite",
						"getTweet(uint256)": "infinite",
						"likeTweet(address,uint256)": "infinite",
						"owner()": "2574",
						"tweets(address,uint256)": "infinite",
						"unlikeTweet(address,uint256)": "infinite"
					}
				},
				"methodIdentifiers": {
					"MAX_TWEET_LENGTH()": "6eb10797",
					"changeTweetLength(uint256)": "888a7880",
					"createTweet(string)": "7c9cd2bc",
					"getAllTweets(address)": "12e7ee1c",
					"getTotalLikes(address)": "820785cc",
					"getTweet(uint256)": "c3ad5ecb",
					"likeTweet(address,uint256)": "63378216",
					"owner()": "8da5cb5b",
					"tweets(address,uint256)": "05a1b4a9",
					"unlikeTweet(address,uint256)": "3d9b569f"
				}
			},
			"storageLayout": {
				"storage": [
					{
						"astId": 4,
						"contract": "Twitter.sol:Twitter",
						"label": "MAX_TWEET_LENGTH",
						"offset": 0,
						"slot": "0",
						"type": "t_uint256"
					},
					{
						"astId": 21,
						"contract": "Twitter.sol:Twitter",
						"label": "tweets",
						"offset": 0,
						"slot": "1",
						"type": "t_mapping(t_address,t_array(t_struct(Tweet)15_storage)dyn_storage)"
					},
					{
						"astId": 23,
						"contract": "Twitter.sol:Twitter",
						"label": "owner",
						"offset": 0,
						"slot": "2",
						"type": "t_address"
					}
				],
				"types": {
					"t_address": {
						"encoding": "inplace",
						"label": "address",
						"numberOfBytes": "20"
					},
					"t_array(t_struct(Tweet)15_storage)dyn_storage": {
						"base": "t_struct(Tweet)15_storage",
						"encoding": "dynamic_array",
						"label": "struct Twitter.Tweet[]",
						"numberOfBytes": "32"
					},
					"t_mapping(t_address,t_array(t_struct(Tweet)15_storage)dyn_storage)": {
						"encoding": "mapping",
						"key": "t_address",
						"label": "mapping(address => struct Twitter.Tweet[])",
						"numberOfBytes": "32",
						"value": "t_array(t_struct(Tweet)15_storage)dyn_storage"
					},
					"t_string_storage": {
						"encoding": "bytes",
						"label": "string",
						"numberOfBytes": "32"
					},
					"t_struct(Tweet)15_storage": {
						"encoding": "inplace",
						"label": "struct Twitter.Tweet",
						"members": [
							{
								"astId": 6,
								"contract": "Twitter.sol:Twitter",
								"label": "id",
								"offset": 0,
								"slot": "0",
								"type": "t_uint256"
							},
							{
								"astId": 8,
								"contract": "Twitter.sol:Twitter",
								"label": "author",
								"offset": 0,
								"slot": "1",
								"type": "t_address"
							},
							{
								"astId": 10,
								"contract": "Twitter.sol:Twitter",
								"label": "content",
								"offset": 0,
								"slot": "2",
								"type": "t_string_storage"
							},
							{
								"astId": 12,
								"contract": "Twitter.sol:Twitter",
								"label": "timeStamp",
								"offset": 0,
								"slot": "3",
								"type": "t_uint256"
							},
							{
								"astId": 14,
								"contract": "Twitter.sol:Twitter",
								"label": "likes",
								"offset": 0,
								"slot": "4",
								"type": "t_uint256"
							}
						],
						"numberOfBytes": "160"
					},
					"t_uint256": {
						"encoding": "inplace",
						"label": "uint256",
						"numberOfBytes": "32"
					}
				}
			},
			"userdoc": {
				"kind": "user",
				"methods": {},
				"version": 1
			}
		}
	}
}