{
	"ModifiersExcersice.sol": {
		"PausableToken": {
			"abi": [
				{
					"inputs": [],
					"stateMutability": "nonpayable",
					"type": "constructor"
				},
				{
					"inputs": [
						{
							"internalType": "address",
							"name": "",
							"type": "address"
						}
					],
					"name": "balances",
					"outputs": [
						{
							"internalType": "uint256",
							"name": "",
							"type": "uint256"
						}
					],
					"stateMutability": "view",
					"type": "function"
				},
				{
					"inputs": [],
					"name": "owner",
					"outputs": [
						{
							"internalType": "address",
							"name": "",
							"type": "address"
						}
					],
					"stateMutability": "view",
					"type": "function"
				},
				{
					"inputs": [],
					"name": "pause",
					"outputs": [],
					"stateMutability": "nonpayable",
					"type": "function"
				},
				{
					"inputs": [],
					"name": "paused",
					"outputs": [
						{
							"internalType": "bool",
							"name": "",
							"type": "bool"
						}
					],
					"stateMutability": "view",
					"type": "function"
				},
				{
					"inputs": [
						{
							"internalType": "address",
							"name": "to",
							"type": "address"
						},
						{
							"internalType": "uint256",
							"name": "amount",
							"type": "uint256"
						}
					],
					"name": "transfer",
					"outputs": [],
					"stateMutability": "nonpayable",
					"type": "function"
				},
				{
					"inputs": [],
					"name": "unpause",
					"outputs": [],
					"stateMutability": "nonpayable",
					"type": "function"
				}
			],
			"devdoc": {
				"kind": "dev",
				"methods": {},
				"version": 1
			},
			"evm": {
				"assembly": "    /* \"ModifiersExcersice.sol\":61:1132  contract PausableToken {... */\n  mstore(0x40, 0x80)\n    /* \"ModifiersExcersice.sol\":194:303  constructor() {... */\n  callvalue\n  dup1\n  iszero\n  tag_1\n  jumpi\n  revert(0x00, 0x00)\ntag_1:\n  pop\n    /* \"ModifiersExcersice.sol\":227:237  msg.sender */\n  caller\n    /* \"ModifiersExcersice.sol\":219:224  owner */\n  0x00\n  0x00\n    /* \"ModifiersExcersice.sol\":219:237  owner = msg.sender */\n  0x0100\n  exp\n  dup2\n  sload\n  dup2\n  0xffffffffffffffffffffffffffffffffffffffff\n  mul\n  not\n  and\n  swap1\n  dup4\n  0xffffffffffffffffffffffffffffffffffffffff\n  and\n  mul\n  or\n  swap1\n  sstore\n  pop\n    /* \"ModifiersExcersice.sol\":257:262  false */\n  0x00\n    /* \"ModifiersExcersice.sol\":248:254  paused */\n  0x00\n  0x14\n    /* \"ModifiersExcersice.sol\":248:262  paused = false */\n  0x0100\n  exp\n  dup2\n  sload\n  dup2\n  0xff\n  mul\n  not\n  and\n  swap1\n  dup4\n  iszero\n  iszero\n  mul\n  or\n  swap1\n  sstore\n  pop\n    /* \"ModifiersExcersice.sol\":291:295  1000 */\n  0x03e8\n    /* \"ModifiersExcersice.sol\":273:281  balances */\n  0x01\n    /* \"ModifiersExcersice.sol\":273:288  balances[owner] */\n  0x00\n    /* \"ModifiersExcersice.sol\":282:287  owner */\n  0x00\n  0x00\n  swap1\n  sload\n  swap1\n  0x0100\n  exp\n  swap1\n  div\n  0xffffffffffffffffffffffffffffffffffffffff\n  and\n    /* \"ModifiersExcersice.sol\":273:288  balances[owner] */\n  0xffffffffffffffffffffffffffffffffffffffff\n  and\n  0xffffffffffffffffffffffffffffffffffffffff\n  and\n  dup2\n  mstore\n  0x20\n  add\n  swap1\n  dup2\n  mstore\n  0x20\n  add\n  0x00\n  keccak256\n    /* \"ModifiersExcersice.sol\":273:295  balances[owner] = 1000 */\n  dup2\n  swap1\n  sstore\n  pop\n    /* \"ModifiersExcersice.sol\":61:1132  contract PausableToken {... */\n  dataSize(sub_0)\n  dup1\n  dataOffset(sub_0)\n  0x00\n  codecopy\n  0x00\n  return\nstop\n\nsub_0: assembly {\n        /* \"ModifiersExcersice.sol\":61:1132  contract PausableToken {... */\n      mstore(0x40, 0x80)\n      callvalue\n      dup1\n      iszero\n      tag_1\n      jumpi\n      revert(0x00, 0x00)\n    tag_1:\n      pop\n      jumpi(tag_2, lt(calldatasize, 0x04))\n      shr(0xe0, calldataload(0x00))\n      dup1\n      0x27e235e3\n      eq\n      tag_3\n      jumpi\n      dup1\n      0x3f4ba83a\n      eq\n      tag_4\n      jumpi\n      dup1\n      0x5c975abb\n      eq\n      tag_5\n      jumpi\n      dup1\n      0x8456cb59\n      eq\n      tag_6\n      jumpi\n      dup1\n      0x8da5cb5b\n      eq\n      tag_7\n      jumpi\n      dup1\n      0xa9059cbb\n      eq\n      tag_8\n      jumpi\n    tag_2:\n      revert(0x00, 0x00)\n        /* \"ModifiersExcersice.sol\":145:185  mapping(address => uint) public balances */\n    tag_3:\n      tag_9\n      0x04\n      dup1\n      calldatasize\n      sub\n      dup2\n      add\n      swap1\n      tag_10\n      swap2\n      swap1\n      tag_11\n      jump\t// in\n    tag_10:\n      tag_12\n      jump\t// in\n    tag_9:\n      mload(0x40)\n      tag_13\n      swap2\n      swap1\n      tag_14\n      jump\t// in\n    tag_13:\n      mload(0x40)\n      dup1\n      swap2\n      sub\n      swap1\n      return\n        /* \"ModifiersExcersice.sol\":767:835  function unpause() public onlyOwner{... */\n    tag_4:\n      tag_15\n      tag_16\n      jump\t// in\n    tag_15:\n      stop\n        /* \"ModifiersExcersice.sol\":118:136  bool public paused */\n    tag_5:\n      tag_17\n      tag_18\n      jump\t// in\n    tag_17:\n      mload(0x40)\n      tag_19\n      swap2\n      swap1\n      tag_20\n      jump\t// in\n    tag_19:\n      mload(0x40)\n      dup1\n      swap2\n      sub\n      swap1\n      return\n        /* \"ModifiersExcersice.sol\":694:759  function pause() public onlyOwner{... */\n    tag_6:\n      tag_21\n      tag_22\n      jump\t// in\n    tag_21:\n      stop\n        /* \"ModifiersExcersice.sol\":91:111  address public owner */\n    tag_7:\n      tag_23\n      tag_24\n      jump\t// in\n    tag_23:\n      mload(0x40)\n      tag_25\n      swap2\n      swap1\n      tag_26\n      jump\t// in\n    tag_25:\n      mload(0x40)\n      dup1\n      swap2\n      sub\n      swap1\n      return\n        /* \"ModifiersExcersice.sol\":904:1129  function transfer(address to, uint amount) public notPaused {... */\n    tag_8:\n      tag_27\n      0x04\n      dup1\n      calldatasize\n      sub\n      dup2\n      add\n      swap1\n      tag_28\n      swap2\n      swap1\n      tag_29\n      jump\t// in\n    tag_28:\n      tag_30\n      jump\t// in\n    tag_27:\n      stop\n        /* \"ModifiersExcersice.sol\":145:185  mapping(address => uint) public balances */\n    tag_12:\n      mstore(0x20, 0x01)\n      dup1\n      0x00\n      mstore\n      keccak256(0x00, 0x40)\n      0x00\n      swap2\n      pop\n      swap1\n      pop\n      sload\n      dup2\n      jump\t// out\n        /* \"ModifiersExcersice.sol\":767:835  function unpause() public onlyOwner{... */\n    tag_16:\n        /* \"ModifiersExcersice.sol\":448:453  owner */\n      0x00\n      0x00\n      swap1\n      sload\n      swap1\n      0x0100\n      exp\n      swap1\n      div\n      0xffffffffffffffffffffffffffffffffffffffff\n      and\n        /* \"ModifiersExcersice.sol\":434:453  msg.sender == owner */\n      0xffffffffffffffffffffffffffffffffffffffff\n      and\n        /* \"ModifiersExcersice.sol\":434:444  msg.sender */\n      caller\n        /* \"ModifiersExcersice.sol\":434:453  msg.sender == owner */\n      0xffffffffffffffffffffffffffffffffffffffff\n      and\n      eq\n        /* \"ModifiersExcersice.sol\":426:479  require(msg.sender == owner, \"You are not the owner\") */\n      tag_32\n      jumpi\n      mload(0x40)\n      0x08c379a000000000000000000000000000000000000000000000000000000000\n      dup2\n      mstore\n      0x04\n      add\n      tag_33\n      swap1\n      tag_34\n      jump\t// in\n    tag_33:\n      mload(0x40)\n      dup1\n      swap2\n      sub\n      swap1\n      revert\n    tag_32:\n        /* \"ModifiersExcersice.sol\":822:827  false */\n      0x00\n        /* \"ModifiersExcersice.sol\":813:819  paused */\n      0x00\n      0x14\n        /* \"ModifiersExcersice.sol\":813:827  paused = false */\n      0x0100\n      exp\n      dup2\n      sload\n      dup2\n      0xff\n      mul\n      not\n      and\n      swap1\n      dup4\n      iszero\n      iszero\n      mul\n      or\n      swap1\n      sstore\n      pop\n        /* \"ModifiersExcersice.sol\":767:835  function unpause() public onlyOwner{... */\n      jump\t// out\n        /* \"ModifiersExcersice.sol\":118:136  bool public paused */\n    tag_18:\n      0x00\n      0x14\n      swap1\n      sload\n      swap1\n      0x0100\n      exp\n      swap1\n      div\n      0xff\n      and\n      dup2\n      jump\t// out\n        /* \"ModifiersExcersice.sol\":694:759  function pause() public onlyOwner{... */\n    tag_22:\n        /* \"ModifiersExcersice.sol\":448:453  owner */\n      0x00\n      0x00\n      swap1\n      sload\n      swap1\n      0x0100\n      exp\n      swap1\n      div\n      0xffffffffffffffffffffffffffffffffffffffff\n      and\n        /* \"ModifiersExcersice.sol\":434:453  msg.sender == owner */\n      0xffffffffffffffffffffffffffffffffffffffff\n      and\n        /* \"ModifiersExcersice.sol\":434:444  msg.sender */\n      caller\n        /* \"ModifiersExcersice.sol\":434:453  msg.sender == owner */\n      0xffffffffffffffffffffffffffffffffffffffff\n      and\n      eq\n        /* \"ModifiersExcersice.sol\":426:479  require(msg.sender == owner, \"You are not the owner\") */\n      tag_37\n      jumpi\n      mload(0x40)\n      0x08c379a000000000000000000000000000000000000000000000000000000000\n      dup2\n      mstore\n      0x04\n      add\n      tag_38\n      swap1\n      tag_34\n      jump\t// in\n    tag_38:\n      mload(0x40)\n      dup1\n      swap2\n      sub\n      swap1\n      revert\n    tag_37:\n        /* \"ModifiersExcersice.sol\":747:751  true */\n      0x01\n        /* \"ModifiersExcersice.sol\":738:744  paused */\n      0x00\n      0x14\n        /* \"ModifiersExcersice.sol\":738:751  paused = true */\n      0x0100\n      exp\n      dup2\n      sload\n      dup2\n      0xff\n      mul\n      not\n      and\n      swap1\n      dup4\n      iszero\n      iszero\n      mul\n      or\n      swap1\n      sstore\n      pop\n        /* \"ModifiersExcersice.sol\":694:759  function pause() public onlyOwner{... */\n      jump\t// out\n        /* \"ModifiersExcersice.sol\":91:111  address public owner */\n    tag_24:\n      0x00\n      0x00\n      swap1\n      sload\n      swap1\n      0x0100\n      exp\n      swap1\n      div\n      0xffffffffffffffffffffffffffffffffffffffff\n      and\n      dup2\n      jump\t// out\n        /* \"ModifiersExcersice.sol\":904:1129  function transfer(address to, uint amount) public notPaused {... */\n    tag_30:\n        /* \"ModifiersExcersice.sol\":634:639  false */\n      0x00\n        /* \"ModifiersExcersice.sol\":624:639  paused == false */\n      iszero\n      iszero\n        /* \"ModifiersExcersice.sol\":624:630  paused */\n      0x00\n      0x14\n      swap1\n      sload\n      swap1\n      0x0100\n      exp\n      swap1\n      div\n      0xff\n      and\n        /* \"ModifiersExcersice.sol\":624:639  paused == false */\n      iszero\n      iszero\n      eq\n        /* \"ModifiersExcersice.sol\":616:666  require(paused == false, \"The contract is paused\") */\n      tag_41\n      jumpi\n      mload(0x40)\n      0x08c379a000000000000000000000000000000000000000000000000000000000\n      dup2\n      mstore\n      0x04\n      add\n      tag_42\n      swap1\n      tag_43\n      jump\t// in\n    tag_42:\n      mload(0x40)\n      dup1\n      swap2\n      sub\n      swap1\n      revert\n    tag_41:\n        /* \"ModifiersExcersice.sol\":1006:1012  amount */\n      dup1\n        /* \"ModifiersExcersice.sol\":983:991  balances */\n      0x01\n        /* \"ModifiersExcersice.sol\":983:1003  balances[msg.sender] */\n      0x00\n        /* \"ModifiersExcersice.sol\":992:1002  msg.sender */\n      caller\n        /* \"ModifiersExcersice.sol\":983:1003  balances[msg.sender] */\n      0xffffffffffffffffffffffffffffffffffffffff\n      and\n      0xffffffffffffffffffffffffffffffffffffffff\n      and\n      dup2\n      mstore\n      0x20\n      add\n      swap1\n      dup2\n      mstore\n      0x20\n      add\n      0x00\n      keccak256\n      sload\n        /* \"ModifiersExcersice.sol\":983:1012  balances[msg.sender]>= amount */\n      lt\n      iszero\n        /* \"ModifiersExcersice.sol\":975:1049  require(balances[msg.sender]>= amount, \"Not sufficient balance available\") */\n      tag_45\n      jumpi\n      mload(0x40)\n      0x08c379a000000000000000000000000000000000000000000000000000000000\n      dup2\n      mstore\n      0x04\n      add\n      tag_46\n      swap1\n      tag_47\n      jump\t// in\n    tag_46:\n      mload(0x40)\n      dup1\n      swap2\n      sub\n      swap1\n      revert\n    tag_45:\n        /* \"ModifiersExcersice.sol\":1084:1090  amount */\n      dup1\n        /* \"ModifiersExcersice.sol\":1062:1070  balances */\n      0x01\n        /* \"ModifiersExcersice.sol\":1062:1082  balances[msg.sender] */\n      0x00\n        /* \"ModifiersExcersice.sol\":1071:1081  msg.sender */\n      caller\n        /* \"ModifiersExcersice.sol\":1062:1082  balances[msg.sender] */\n      0xffffffffffffffffffffffffffffffffffffffff\n      and\n      0xffffffffffffffffffffffffffffffffffffffff\n      and\n      dup2\n      mstore\n      0x20\n      add\n      swap1\n      dup2\n      mstore\n      0x20\n      add\n      0x00\n      keccak256\n      0x00\n        /* \"ModifiersExcersice.sol\":1062:1090  balances[msg.sender]-=amount */\n      dup3\n      dup3\n      sload\n      tag_48\n      swap2\n      swap1\n      tag_49\n      jump\t// in\n    tag_48:\n      swap3\n      pop\n      pop\n      dup2\n      swap1\n      sstore\n      pop\n        /* \"ModifiersExcersice.sol\":1115:1121  amount */\n      dup1\n        /* \"ModifiersExcersice.sol\":1101:1109  balances */\n      0x01\n        /* \"ModifiersExcersice.sol\":1101:1113  balances[to] */\n      0x00\n        /* \"ModifiersExcersice.sol\":1110:1112  to */\n      dup5\n        /* \"ModifiersExcersice.sol\":1101:1113  balances[to] */\n      0xffffffffffffffffffffffffffffffffffffffff\n      and\n      0xffffffffffffffffffffffffffffffffffffffff\n      and\n      dup2\n      mstore\n      0x20\n      add\n      swap1\n      dup2\n      mstore\n      0x20\n      add\n      0x00\n      keccak256\n      0x00\n        /* \"ModifiersExcersice.sol\":1101:1121  balances[to]+=amount */\n      dup3\n      dup3\n      sload\n      tag_50\n      swap2\n      swap1\n      tag_51\n      jump\t// in\n    tag_50:\n      swap3\n      pop\n      pop\n      dup2\n      swap1\n      sstore\n      pop\n        /* \"ModifiersExcersice.sol\":904:1129  function transfer(address to, uint amount) public notPaused {... */\n      pop\n      pop\n      jump\t// out\n        /* \"#utility.yul\":88:205   */\n    tag_53:\n        /* \"#utility.yul\":197:198   */\n      0x00\n        /* \"#utility.yul\":194:195   */\n      0x00\n        /* \"#utility.yul\":187:199   */\n      revert\n        /* \"#utility.yul\":334:460   */\n    tag_55:\n        /* \"#utility.yul\":371:378   */\n      0x00\n        /* \"#utility.yul\":411:453   */\n      0xffffffffffffffffffffffffffffffffffffffff\n        /* \"#utility.yul\":404:409   */\n      dup3\n        /* \"#utility.yul\":400:454   */\n      and\n        /* \"#utility.yul\":389:454   */\n      swap1\n      pop\n        /* \"#utility.yul\":334:460   */\n      swap2\n      swap1\n      pop\n      jump\t// out\n        /* \"#utility.yul\":466:562   */\n    tag_56:\n        /* \"#utility.yul\":503:510   */\n      0x00\n        /* \"#utility.yul\":532:556   */\n      tag_80\n        /* \"#utility.yul\":550:555   */\n      dup3\n        /* \"#utility.yul\":532:556   */\n      tag_55\n      jump\t// in\n    tag_80:\n        /* \"#utility.yul\":521:556   */\n      swap1\n      pop\n        /* \"#utility.yul\":466:562   */\n      swap2\n      swap1\n      pop\n      jump\t// out\n        /* \"#utility.yul\":568:690   */\n    tag_57:\n        /* \"#utility.yul\":641:665   */\n      tag_82\n        /* \"#utility.yul\":659:664   */\n      dup2\n        /* \"#utility.yul\":641:665   */\n      tag_56\n      jump\t// in\n    tag_82:\n        /* \"#utility.yul\":634:639   */\n      dup2\n        /* \"#utility.yul\":631:666   */\n      eq\n        /* \"#utility.yul\":621:684   */\n      tag_83\n      jumpi\n        /* \"#utility.yul\":680:681   */\n      0x00\n        /* \"#utility.yul\":677:678   */\n      0x00\n        /* \"#utility.yul\":670:682   */\n      revert\n        /* \"#utility.yul\":621:684   */\n    tag_83:\n        /* \"#utility.yul\":568:690   */\n      pop\n      jump\t// out\n        /* \"#utility.yul\":696:835   */\n    tag_58:\n        /* \"#utility.yul\":742:747   */\n      0x00\n        /* \"#utility.yul\":780:786   */\n      dup2\n        /* \"#utility.yul\":767:787   */\n      calldataload\n        /* \"#utility.yul\":758:787   */\n      swap1\n      pop\n        /* \"#utility.yul\":796:829   */\n      tag_85\n        /* \"#utility.yul\":823:828   */\n      dup2\n        /* \"#utility.yul\":796:829   */\n      tag_57\n      jump\t// in\n    tag_85:\n        /* \"#utility.yul\":696:835   */\n      swap3\n      swap2\n      pop\n      pop\n      jump\t// out\n        /* \"#utility.yul\":841:1170   */\n    tag_11:\n        /* \"#utility.yul\":900:906   */\n      0x00\n        /* \"#utility.yul\":949:951   */\n      0x20\n        /* \"#utility.yul\":937:946   */\n      dup3\n        /* \"#utility.yul\":928:935   */\n      dup5\n        /* \"#utility.yul\":924:947   */\n      sub\n        /* \"#utility.yul\":920:952   */\n      slt\n        /* \"#utility.yul\":917:1036   */\n      iszero\n      tag_87\n      jumpi\n        /* \"#utility.yul\":955:1034   */\n      tag_88\n      tag_53\n      jump\t// in\n    tag_88:\n        /* \"#utility.yul\":917:1036   */\n    tag_87:\n        /* \"#utility.yul\":1075:1076   */\n      0x00\n        /* \"#utility.yul\":1100:1153   */\n      tag_89\n        /* \"#utility.yul\":1145:1152   */\n      dup5\n        /* \"#utility.yul\":1136:1142   */\n      dup3\n        /* \"#utility.yul\":1125:1134   */\n      dup6\n        /* \"#utility.yul\":1121:1143   */\n      add\n        /* \"#utility.yul\":1100:1153   */\n      tag_58\n      jump\t// in\n    tag_89:\n        /* \"#utility.yul\":1090:1153   */\n      swap2\n      pop\n        /* \"#utility.yul\":1046:1163   */\n      pop\n        /* \"#utility.yul\":841:1170   */\n      swap3\n      swap2\n      pop\n      pop\n      jump\t// out\n        /* \"#utility.yul\":1176:1253   */\n    tag_59:\n        /* \"#utility.yul\":1213:1220   */\n      0x00\n        /* \"#utility.yul\":1242:1247   */\n      dup2\n        /* \"#utility.yul\":1231:1247   */\n      swap1\n      pop\n        /* \"#utility.yul\":1176:1253   */\n      swap2\n      swap1\n      pop\n      jump\t// out\n        /* \"#utility.yul\":1259:1377   */\n    tag_60:\n        /* \"#utility.yul\":1346:1370   */\n      tag_92\n        /* \"#utility.yul\":1364:1369   */\n      dup2\n        /* \"#utility.yul\":1346:1370   */\n      tag_59\n      jump\t// in\n    tag_92:\n        /* \"#utility.yul\":1341:1344   */\n      dup3\n        /* \"#utility.yul\":1334:1371   */\n      mstore\n        /* \"#utility.yul\":1259:1377   */\n      pop\n      pop\n      jump\t// out\n        /* \"#utility.yul\":1383:1605   */\n    tag_14:\n        /* \"#utility.yul\":1476:1480   */\n      0x00\n        /* \"#utility.yul\":1514:1516   */\n      0x20\n        /* \"#utility.yul\":1503:1512   */\n      dup3\n        /* \"#utility.yul\":1499:1517   */\n      add\n        /* \"#utility.yul\":1491:1517   */\n      swap1\n      pop\n        /* \"#utility.yul\":1527:1598   */\n      tag_94\n        /* \"#utility.yul\":1595:1596   */\n      0x00\n        /* \"#utility.yul\":1584:1593   */\n      dup4\n        /* \"#utility.yul\":1580:1597   */\n      add\n        /* \"#utility.yul\":1571:1577   */\n      dup5\n        /* \"#utility.yul\":1527:1598   */\n      tag_60\n      jump\t// in\n    tag_94:\n        /* \"#utility.yul\":1383:1605   */\n      swap3\n      swap2\n      pop\n      pop\n      jump\t// out\n        /* \"#utility.yul\":1611:1701   */\n    tag_61:\n        /* \"#utility.yul\":1645:1652   */\n      0x00\n        /* \"#utility.yul\":1688:1693   */\n      dup2\n        /* \"#utility.yul\":1681:1694   */\n      iszero\n        /* \"#utility.yul\":1674:1695   */\n      iszero\n        /* \"#utility.yul\":1663:1695   */\n      swap1\n      pop\n        /* \"#utility.yul\":1611:1701   */\n      swap2\n      swap1\n      pop\n      jump\t// out\n        /* \"#utility.yul\":1707:1816   */\n    tag_62:\n        /* \"#utility.yul\":1788:1809   */\n      tag_97\n        /* \"#utility.yul\":1803:1808   */\n      dup2\n        /* \"#utility.yul\":1788:1809   */\n      tag_61\n      jump\t// in\n    tag_97:\n        /* \"#utility.yul\":1783:1786   */\n      dup3\n        /* \"#utility.yul\":1776:1810   */\n      mstore\n        /* \"#utility.yul\":1707:1816   */\n      pop\n      pop\n      jump\t// out\n        /* \"#utility.yul\":1822:2032   */\n    tag_20:\n        /* \"#utility.yul\":1909:1913   */\n      0x00\n        /* \"#utility.yul\":1947:1949   */\n      0x20\n        /* \"#utility.yul\":1936:1945   */\n      dup3\n        /* \"#utility.yul\":1932:1950   */\n      add\n        /* \"#utility.yul\":1924:1950   */\n      swap1\n      pop\n        /* \"#utility.yul\":1960:2025   */\n      tag_99\n        /* \"#utility.yul\":2022:2023   */\n      0x00\n        /* \"#utility.yul\":2011:2020   */\n      dup4\n        /* \"#utility.yul\":2007:2024   */\n      add\n        /* \"#utility.yul\":1998:2004   */\n      dup5\n        /* \"#utility.yul\":1960:2025   */\n      tag_62\n      jump\t// in\n    tag_99:\n        /* \"#utility.yul\":1822:2032   */\n      swap3\n      swap2\n      pop\n      pop\n      jump\t// out\n        /* \"#utility.yul\":2038:2156   */\n    tag_63:\n        /* \"#utility.yul\":2125:2149   */\n      tag_101\n        /* \"#utility.yul\":2143:2148   */\n      dup2\n        /* \"#utility.yul\":2125:2149   */\n      tag_56\n      jump\t// in\n    tag_101:\n        /* \"#utility.yul\":2120:2123   */\n      dup3\n        /* \"#utility.yul\":2113:2150   */\n      mstore\n        /* \"#utility.yul\":2038:2156   */\n      pop\n      pop\n      jump\t// out\n        /* \"#utility.yul\":2162:2384   */\n    tag_26:\n        /* \"#utility.yul\":2255:2259   */\n      0x00\n        /* \"#utility.yul\":2293:2295   */\n      0x20\n        /* \"#utility.yul\":2282:2291   */\n      dup3\n        /* \"#utility.yul\":2278:2296   */\n      add\n        /* \"#utility.yul\":2270:2296   */\n      swap1\n      pop\n        /* \"#utility.yul\":2306:2377   */\n      tag_103\n        /* \"#utility.yul\":2374:2375   */\n      0x00\n        /* \"#utility.yul\":2363:2372   */\n      dup4\n        /* \"#utility.yul\":2359:2376   */\n      add\n        /* \"#utility.yul\":2350:2356   */\n      dup5\n        /* \"#utility.yul\":2306:2377   */\n      tag_63\n      jump\t// in\n    tag_103:\n        /* \"#utility.yul\":2162:2384   */\n      swap3\n      swap2\n      pop\n      pop\n      jump\t// out\n        /* \"#utility.yul\":2390:2512   */\n    tag_64:\n        /* \"#utility.yul\":2463:2487   */\n      tag_105\n        /* \"#utility.yul\":2481:2486   */\n      dup2\n        /* \"#utility.yul\":2463:2487   */\n      tag_59\n      jump\t// in\n    tag_105:\n        /* \"#utility.yul\":2456:2461   */\n      dup2\n        /* \"#utility.yul\":2453:2488   */\n      eq\n        /* \"#utility.yul\":2443:2506   */\n      tag_106\n      jumpi\n        /* \"#utility.yul\":2502:2503   */\n      0x00\n        /* \"#utility.yul\":2499:2500   */\n      0x00\n        /* \"#utility.yul\":2492:2504   */\n      revert\n        /* \"#utility.yul\":2443:2506   */\n    tag_106:\n        /* \"#utility.yul\":2390:2512   */\n      pop\n      jump\t// out\n        /* \"#utility.yul\":2518:2657   */\n    tag_65:\n        /* \"#utility.yul\":2564:2569   */\n      0x00\n        /* \"#utility.yul\":2602:2608   */\n      dup2\n        /* \"#utility.yul\":2589:2609   */\n      calldataload\n        /* \"#utility.yul\":2580:2609   */\n      swap1\n      pop\n        /* \"#utility.yul\":2618:2651   */\n      tag_108\n        /* \"#utility.yul\":2645:2650   */\n      dup2\n        /* \"#utility.yul\":2618:2651   */\n      tag_64\n      jump\t// in\n    tag_108:\n        /* \"#utility.yul\":2518:2657   */\n      swap3\n      swap2\n      pop\n      pop\n      jump\t// out\n        /* \"#utility.yul\":2663:3137   */\n    tag_29:\n        /* \"#utility.yul\":2731:2737   */\n      0x00\n        /* \"#utility.yul\":2739:2745   */\n      0x00\n        /* \"#utility.yul\":2788:2790   */\n      0x40\n        /* \"#utility.yul\":2776:2785   */\n      dup4\n        /* \"#utility.yul\":2767:2774   */\n      dup6\n        /* \"#utility.yul\":2763:2786   */\n      sub\n        /* \"#utility.yul\":2759:2791   */\n      slt\n        /* \"#utility.yul\":2756:2875   */\n      iszero\n      tag_110\n      jumpi\n        /* \"#utility.yul\":2794:2873   */\n      tag_111\n      tag_53\n      jump\t// in\n    tag_111:\n        /* \"#utility.yul\":2756:2875   */\n    tag_110:\n        /* \"#utility.yul\":2914:2915   */\n      0x00\n        /* \"#utility.yul\":2939:2992   */\n      tag_112\n        /* \"#utility.yul\":2984:2991   */\n      dup6\n        /* \"#utility.yul\":2975:2981   */\n      dup3\n        /* \"#utility.yul\":2964:2973   */\n      dup7\n        /* \"#utility.yul\":2960:2982   */\n      add\n        /* \"#utility.yul\":2939:2992   */\n      tag_58\n      jump\t// in\n    tag_112:\n        /* \"#utility.yul\":2929:2992   */\n      swap3\n      pop\n        /* \"#utility.yul\":2885:3002   */\n      pop\n        /* \"#utility.yul\":3041:3043   */\n      0x20\n        /* \"#utility.yul\":3067:3120   */\n      tag_113\n        /* \"#utility.yul\":3112:3119   */\n      dup6\n        /* \"#utility.yul\":3103:3109   */\n      dup3\n        /* \"#utility.yul\":3092:3101   */\n      dup7\n        /* \"#utility.yul\":3088:3110   */\n      add\n        /* \"#utility.yul\":3067:3120   */\n      tag_65\n      jump\t// in\n    tag_113:\n        /* \"#utility.yul\":3057:3120   */\n      swap2\n      pop\n        /* \"#utility.yul\":3012:3130   */\n      pop\n        /* \"#utility.yul\":2663:3137   */\n      swap3\n      pop\n      swap3\n      swap1\n      pop\n      jump\t// out\n        /* \"#utility.yul\":3143:3312   */\n    tag_66:\n        /* \"#utility.yul\":3227:3238   */\n      0x00\n        /* \"#utility.yul\":3261:3267   */\n      dup3\n        /* \"#utility.yul\":3256:3259   */\n      dup3\n        /* \"#utility.yul\":3249:3268   */\n      mstore\n        /* \"#utility.yul\":3301:3305   */\n      0x20\n        /* \"#utility.yul\":3296:3299   */\n      dup3\n        /* \"#utility.yul\":3292:3306   */\n      add\n        /* \"#utility.yul\":3277:3306   */\n      swap1\n      pop\n        /* \"#utility.yul\":3143:3312   */\n      swap3\n      swap2\n      pop\n      pop\n      jump\t// out\n        /* \"#utility.yul\":3318:3489   */\n    tag_67:\n        /* \"#utility.yul\":3458:3481   */\n      0x596f7520617265206e6f7420746865206f776e65720000000000000000000000\n        /* \"#utility.yul\":3454:3455   */\n      0x00\n        /* \"#utility.yul\":3446:3452   */\n      dup3\n        /* \"#utility.yul\":3442:3456   */\n      add\n        /* \"#utility.yul\":3435:3482   */\n      mstore\n        /* \"#utility.yul\":3318:3489   */\n      pop\n      jump\t// out\n        /* \"#utility.yul\":3495:3861   */\n    tag_68:\n        /* \"#utility.yul\":3637:3640   */\n      0x00\n        /* \"#utility.yul\":3658:3725   */\n      tag_117\n        /* \"#utility.yul\":3722:3724   */\n      0x15\n        /* \"#utility.yul\":3717:3720   */\n      dup4\n        /* \"#utility.yul\":3658:3725   */\n      tag_66\n      jump\t// in\n    tag_117:\n        /* \"#utility.yul\":3651:3725   */\n      swap2\n      pop\n        /* \"#utility.yul\":3734:3827   */\n      tag_118\n        /* \"#utility.yul\":3823:3826   */\n      dup3\n        /* \"#utility.yul\":3734:3827   */\n      tag_67\n      jump\t// in\n    tag_118:\n        /* \"#utility.yul\":3852:3854   */\n      0x20\n        /* \"#utility.yul\":3847:3850   */\n      dup3\n        /* \"#utility.yul\":3843:3855   */\n      add\n        /* \"#utility.yul\":3836:3855   */\n      swap1\n      pop\n        /* \"#utility.yul\":3495:3861   */\n      swap2\n      swap1\n      pop\n      jump\t// out\n        /* \"#utility.yul\":3867:4286   */\n    tag_34:\n        /* \"#utility.yul\":4033:4037   */\n      0x00\n        /* \"#utility.yul\":4071:4073   */\n      0x20\n        /* \"#utility.yul\":4060:4069   */\n      dup3\n        /* \"#utility.yul\":4056:4074   */\n      add\n        /* \"#utility.yul\":4048:4074   */\n      swap1\n      pop\n        /* \"#utility.yul\":4120:4129   */\n      dup2\n        /* \"#utility.yul\":4114:4118   */\n      dup2\n        /* \"#utility.yul\":4110:4130   */\n      sub\n        /* \"#utility.yul\":4106:4107   */\n      0x00\n        /* \"#utility.yul\":4095:4104   */\n      dup4\n        /* \"#utility.yul\":4091:4108   */\n      add\n        /* \"#utility.yul\":4084:4131   */\n      mstore\n        /* \"#utility.yul\":4148:4279   */\n      tag_120\n        /* \"#utility.yul\":4274:4278   */\n      dup2\n        /* \"#utility.yul\":4148:4279   */\n      tag_68\n      jump\t// in\n    tag_120:\n        /* \"#utility.yul\":4140:4279   */\n      swap1\n      pop\n        /* \"#utility.yul\":3867:4286   */\n      swap2\n      swap1\n      pop\n      jump\t// out\n        /* \"#utility.yul\":4292:4464   */\n    tag_69:\n        /* \"#utility.yul\":4432:4456   */\n      0x54686520636f6e74726163742069732070617573656400000000000000000000\n        /* \"#utility.yul\":4428:4429   */\n      0x00\n        /* \"#utility.yul\":4420:4426   */\n      dup3\n        /* \"#utility.yul\":4416:4430   */\n      add\n        /* \"#utility.yul\":4409:4457   */\n      mstore\n        /* \"#utility.yul\":4292:4464   */\n      pop\n      jump\t// out\n        /* \"#utility.yul\":4470:4836   */\n    tag_70:\n        /* \"#utility.yul\":4612:4615   */\n      0x00\n        /* \"#utility.yul\":4633:4700   */\n      tag_123\n        /* \"#utility.yul\":4697:4699   */\n      0x16\n        /* \"#utility.yul\":4692:4695   */\n      dup4\n        /* \"#utility.yul\":4633:4700   */\n      tag_66\n      jump\t// in\n    tag_123:\n        /* \"#utility.yul\":4626:4700   */\n      swap2\n      pop\n        /* \"#utility.yul\":4709:4802   */\n      tag_124\n        /* \"#utility.yul\":4798:4801   */\n      dup3\n        /* \"#utility.yul\":4709:4802   */\n      tag_69\n      jump\t// in\n    tag_124:\n        /* \"#utility.yul\":4827:4829   */\n      0x20\n        /* \"#utility.yul\":4822:4825   */\n      dup3\n        /* \"#utility.yul\":4818:4830   */\n      add\n        /* \"#utility.yul\":4811:4830   */\n      swap1\n      pop\n        /* \"#utility.yul\":4470:4836   */\n      swap2\n      swap1\n      pop\n      jump\t// out\n        /* \"#utility.yul\":4842:5261   */\n    tag_43:\n        /* \"#utility.yul\":5008:5012   */\n      0x00\n        /* \"#utility.yul\":5046:5048   */\n      0x20\n        /* \"#utility.yul\":5035:5044   */\n      dup3\n        /* \"#utility.yul\":5031:5049   */\n      add\n        /* \"#utility.yul\":5023:5049   */\n      swap1\n      pop\n        /* \"#utility.yul\":5095:5104   */\n      dup2\n        /* \"#utility.yul\":5089:5093   */\n      dup2\n        /* \"#utility.yul\":5085:5105   */\n      sub\n        /* \"#utility.yul\":5081:5082   */\n      0x00\n        /* \"#utility.yul\":5070:5079   */\n      dup4\n        /* \"#utility.yul\":5066:5083   */\n      add\n        /* \"#utility.yul\":5059:5106   */\n      mstore\n        /* \"#utility.yul\":5123:5254   */\n      tag_126\n        /* \"#utility.yul\":5249:5253   */\n      dup2\n        /* \"#utility.yul\":5123:5254   */\n      tag_70\n      jump\t// in\n    tag_126:\n        /* \"#utility.yul\":5115:5254   */\n      swap1\n      pop\n        /* \"#utility.yul\":4842:5261   */\n      swap2\n      swap1\n      pop\n      jump\t// out\n        /* \"#utility.yul\":5267:5449   */\n    tag_71:\n        /* \"#utility.yul\":5407:5441   */\n      0x4e6f742073756666696369656e742062616c616e636520617661696c61626c65\n        /* \"#utility.yul\":5403:5404   */\n      0x00\n        /* \"#utility.yul\":5395:5401   */\n      dup3\n        /* \"#utility.yul\":5391:5405   */\n      add\n        /* \"#utility.yul\":5384:5442   */\n      mstore\n        /* \"#utility.yul\":5267:5449   */\n      pop\n      jump\t// out\n        /* \"#utility.yul\":5455:5821   */\n    tag_72:\n        /* \"#utility.yul\":5597:5600   */\n      0x00\n        /* \"#utility.yul\":5618:5685   */\n      tag_129\n        /* \"#utility.yul\":5682:5684   */\n      0x20\n        /* \"#utility.yul\":5677:5680   */\n      dup4\n        /* \"#utility.yul\":5618:5685   */\n      tag_66\n      jump\t// in\n    tag_129:\n        /* \"#utility.yul\":5611:5685   */\n      swap2\n      pop\n        /* \"#utility.yul\":5694:5787   */\n      tag_130\n        /* \"#utility.yul\":5783:5786   */\n      dup3\n        /* \"#utility.yul\":5694:5787   */\n      tag_71\n      jump\t// in\n    tag_130:\n        /* \"#utility.yul\":5812:5814   */\n      0x20\n        /* \"#utility.yul\":5807:5810   */\n      dup3\n        /* \"#utility.yul\":5803:5815   */\n      add\n        /* \"#utility.yul\":5796:5815   */\n      swap1\n      pop\n        /* \"#utility.yul\":5455:5821   */\n      swap2\n      swap1\n      pop\n      jump\t// out\n        /* \"#utility.yul\":5827:6246   */\n    tag_47:\n        /* \"#utility.yul\":5993:5997   */\n      0x00\n        /* \"#utility.yul\":6031:6033   */\n      0x20\n        /* \"#utility.yul\":6020:6029   */\n      dup3\n        /* \"#utility.yul\":6016:6034   */\n      add\n        /* \"#utility.yul\":6008:6034   */\n      swap1\n      pop\n        /* \"#utility.yul\":6080:6089   */\n      dup2\n        /* \"#utility.yul\":6074:6078   */\n      dup2\n        /* \"#utility.yul\":6070:6090   */\n      sub\n        /* \"#utility.yul\":6066:6067   */\n      0x00\n        /* \"#utility.yul\":6055:6064   */\n      dup4\n        /* \"#utility.yul\":6051:6068   */\n      add\n        /* \"#utility.yul\":6044:6091   */\n      mstore\n        /* \"#utility.yul\":6108:6239   */\n      tag_132\n        /* \"#utility.yul\":6234:6238   */\n      dup2\n        /* \"#utility.yul\":6108:6239   */\n      tag_72\n      jump\t// in\n    tag_132:\n        /* \"#utility.yul\":6100:6239   */\n      swap1\n      pop\n        /* \"#utility.yul\":5827:6246   */\n      swap2\n      swap1\n      pop\n      jump\t// out\n        /* \"#utility.yul\":6252:6432   */\n    tag_73:\n        /* \"#utility.yul\":6300:6377   */\n      0x4e487b7100000000000000000000000000000000000000000000000000000000\n        /* \"#utility.yul\":6297:6298   */\n      0x00\n        /* \"#utility.yul\":6290:6378   */\n      mstore\n        /* \"#utility.yul\":6397:6401   */\n      0x11\n        /* \"#utility.yul\":6394:6395   */\n      0x04\n        /* \"#utility.yul\":6387:6402   */\n      mstore\n        /* \"#utility.yul\":6421:6425   */\n      0x24\n        /* \"#utility.yul\":6418:6419   */\n      0x00\n        /* \"#utility.yul\":6411:6426   */\n      revert\n        /* \"#utility.yul\":6438:6632   */\n    tag_49:\n        /* \"#utility.yul\":6478:6482   */\n      0x00\n        /* \"#utility.yul\":6498:6518   */\n      tag_135\n        /* \"#utility.yul\":6516:6517   */\n      dup3\n        /* \"#utility.yul\":6498:6518   */\n      tag_59\n      jump\t// in\n    tag_135:\n        /* \"#utility.yul\":6493:6518   */\n      swap2\n      pop\n        /* \"#utility.yul\":6532:6552   */\n      tag_136\n        /* \"#utility.yul\":6550:6551   */\n      dup4\n        /* \"#utility.yul\":6532:6552   */\n      tag_59\n      jump\t// in\n    tag_136:\n        /* \"#utility.yul\":6527:6552   */\n      swap3\n      pop\n        /* \"#utility.yul\":6576:6577   */\n      dup3\n        /* \"#utility.yul\":6573:6574   */\n      dup3\n        /* \"#utility.yul\":6569:6578   */\n      sub\n        /* \"#utility.yul\":6561:6578   */\n      swap1\n      pop\n        /* \"#utility.yul\":6600:6601   */\n      dup2\n        /* \"#utility.yul\":6594:6598   */\n      dup2\n        /* \"#utility.yul\":6591:6602   */\n      gt\n        /* \"#utility.yul\":6588:6625   */\n      iszero\n      tag_137\n      jumpi\n        /* \"#utility.yul\":6605:6623   */\n      tag_138\n      tag_73\n      jump\t// in\n    tag_138:\n        /* \"#utility.yul\":6588:6625   */\n    tag_137:\n        /* \"#utility.yul\":6438:6632   */\n      swap3\n      swap2\n      pop\n      pop\n      jump\t// out\n        /* \"#utility.yul\":6638:6829   */\n    tag_51:\n        /* \"#utility.yul\":6678:6681   */\n      0x00\n        /* \"#utility.yul\":6697:6717   */\n      tag_140\n        /* \"#utility.yul\":6715:6716   */\n      dup3\n        /* \"#utility.yul\":6697:6717   */\n      tag_59\n      jump\t// in\n    tag_140:\n        /* \"#utility.yul\":6692:6717   */\n      swap2\n      pop\n        /* \"#utility.yul\":6731:6751   */\n      tag_141\n        /* \"#utility.yul\":6749:6750   */\n      dup4\n        /* \"#utility.yul\":6731:6751   */\n      tag_59\n      jump\t// in\n    tag_141:\n        /* \"#utility.yul\":6726:6751   */\n      swap3\n      pop\n        /* \"#utility.yul\":6774:6775   */\n      dup3\n        /* \"#utility.yul\":6771:6772   */\n      dup3\n        /* \"#utility.yul\":6767:6776   */\n      add\n        /* \"#utility.yul\":6760:6776   */\n      swap1\n      pop\n        /* \"#utility.yul\":6795:6798   */\n      dup1\n        /* \"#utility.yul\":6792:6793   */\n      dup3\n        /* \"#utility.yul\":6789:6799   */\n      gt\n        /* \"#utility.yul\":6786:6822   */\n      iszero\n      tag_142\n      jumpi\n        /* \"#utility.yul\":6802:6820   */\n      tag_143\n      tag_73\n      jump\t// in\n    tag_143:\n        /* \"#utility.yul\":6786:6822   */\n    tag_142:\n        /* \"#utility.yul\":6638:6829   */\n      swap3\n      swap2\n      pop\n      pop\n      jump\t// out\n\n    auxdata: 0xa264697066735822122053dec1f0e3d4ad15aff2292244ac3af24cd0b9b518c894c80aa0a3c949f06f3a64736f6c634300081e0033\n}\n",
				"bytecode": {
					"linkReferences": {},
					"object": "6080604052348015600e575f5ffd5b50335f5f6101000a81548173ffffffffffffffffffffffffffffffffffffffff021916908373ffffffffffffffffffffffffffffffffffffffff1602179055505f5f60146101000a81548160ff0219169083151502179055506103e860015f5f5f9054906101000a900473ffffffffffffffffffffffffffffffffffffffff1673ffffffffffffffffffffffffffffffffffffffff1673ffffffffffffffffffffffffffffffffffffffff1681526020019081526020015f20819055506107aa806100d85f395ff3fe608060405234801561000f575f5ffd5b5060043610610060575f3560e01c806327e235e3146100645780633f4ba83a146100945780635c975abb1461009e5780638456cb59146100bc5780638da5cb5b146100c6578063a9059cbb146100e4575b5f5ffd5b61007e6004803603810190610079919061047a565b610100565b60405161008b91906104bd565b60405180910390f35b61009c610115565b005b6100a66101be565b6040516100b391906104f0565b60405180910390f35b6100c46101d0565b005b6100ce61027a565b6040516100db9190610518565b60405180910390f35b6100fe60048036038101906100f9919061055b565b61029e565b005b6001602052805f5260405f205f915090505481565b5f5f9054906101000a900473ffffffffffffffffffffffffffffffffffffffff1673ffffffffffffffffffffffffffffffffffffffff163373ffffffffffffffffffffffffffffffffffffffff16146101a3576040517f08c379a000000000000000000000000000000000000000000000000000000000815260040161019a906105f3565b60405180910390fd5b5f5f60146101000a81548160ff021916908315150217905550565b5f60149054906101000a900460ff1681565b5f5f9054906101000a900473ffffffffffffffffffffffffffffffffffffffff1673ffffffffffffffffffffffffffffffffffffffff163373ffffffffffffffffffffffffffffffffffffffff161461025e576040517f08c379a0000000000000000000000000000000000000000000000000000000008152600401610255906105f3565b60405180910390fd5b60015f60146101000a81548160ff021916908315150217905550565b5f5f9054906101000a900473ffffffffffffffffffffffffffffffffffffffff1681565b5f15155f60149054906101000a900460ff161515146102f2576040517f08c379a00000000000000000000000000000000000000000000000000000000081526004016102e99061065b565b60405180910390fd5b8060015f3373ffffffffffffffffffffffffffffffffffffffff1673ffffffffffffffffffffffffffffffffffffffff1681526020019081526020015f20541015610372576040517f08c379a0000000000000000000000000000000000000000000000000000000008152600401610369906106c3565b60405180910390fd5b8060015f3373ffffffffffffffffffffffffffffffffffffffff1673ffffffffffffffffffffffffffffffffffffffff1681526020019081526020015f205f8282546103be919061070e565b925050819055508060015f8473ffffffffffffffffffffffffffffffffffffffff1673ffffffffffffffffffffffffffffffffffffffff1681526020019081526020015f205f8282546104119190610741565b925050819055505050565b5f5ffd5b5f73ffffffffffffffffffffffffffffffffffffffff82169050919050565b5f61044982610420565b9050919050565b6104598161043f565b8114610463575f5ffd5b50565b5f8135905061047481610450565b92915050565b5f6020828403121561048f5761048e61041c565b5b5f61049c84828501610466565b91505092915050565b5f819050919050565b6104b7816104a5565b82525050565b5f6020820190506104d05f8301846104ae565b92915050565b5f8115159050919050565b6104ea816104d6565b82525050565b5f6020820190506105035f8301846104e1565b92915050565b6105128161043f565b82525050565b5f60208201905061052b5f830184610509565b92915050565b61053a816104a5565b8114610544575f5ffd5b50565b5f8135905061055581610531565b92915050565b5f5f604083850312156105715761057061041c565b5b5f61057e85828601610466565b925050602061058f85828601610547565b9150509250929050565b5f82825260208201905092915050565b7f596f7520617265206e6f7420746865206f776e657200000000000000000000005f82015250565b5f6105dd601583610599565b91506105e8826105a9565b602082019050919050565b5f6020820190508181035f83015261060a816105d1565b9050919050565b7f54686520636f6e747261637420697320706175736564000000000000000000005f82015250565b5f610645601683610599565b915061065082610611565b602082019050919050565b5f6020820190508181035f83015261067281610639565b9050919050565b7f4e6f742073756666696369656e742062616c616e636520617661696c61626c655f82015250565b5f6106ad602083610599565b91506106b882610679565b602082019050919050565b5f6020820190508181035f8301526106da816106a1565b9050919050565b7f4e487b71000000000000000000000000000000000000000000000000000000005f52601160045260245ffd5b5f610718826104a5565b9150610723836104a5565b925082820390508181111561073b5761073a6106e1565b5b92915050565b5f61074b826104a5565b9150610756836104a5565b925082820190508082111561076e5761076d6106e1565b5b9291505056fea264697066735822122053dec1f0e3d4ad15aff2292244ac3af24cd0b9b518c894c80aa0a3c949f06f3a64736f6c634300081e0033",
					"opcodes": "PUSH1 0x80 PUSH1 0x40 MSTORE CALLVALUE DUP1 ISZERO PUSH1 0xE JUMPI PUSH0 PUSH0 REVERT JUMPDEST POP CALLER PUSH0 PUSH0 PUSH2 0x100 EXP DUP2 SLOAD DUP2 PUSH20 0xFFFFFFFFFFFFFFFFFFFFFFFFFFFFFFFFFFFFFFFF MUL NOT AND SWAP1 DUP4 PUSH20 0xFFFFFFFFFFFFFFFFFFFFFFFFFFFFFFFFFFFFFFFF AND MUL OR SWAP1 SSTORE POP PUSH0 PUSH0 PUSH1 0x14 PUSH2 0x100 EXP DUP2 SLOAD DUP2 PUSH1 0xFF MUL NOT AND SWAP1 DUP4 ISZERO ISZERO MUL OR SWAP1 SSTORE POP PUSH2 0x3E8 PUSH1 0x1 PUSH0 PUSH0 PUSH0 SWAP1 SLOAD SWAP1 PUSH2 0x100 EXP SWAP1 DIV PUSH20 0xFFFFFFFFFFFFFFFFFFFFFFFFFFFFFFFFFFFFFFFF AND PUSH20 0xFFFFFFFFFFFFFFFFFFFFFFFFFFFFFFFFFFFFFFFF AND PUSH20 0xFFFFFFFFFFFFFFFFFFFFFFFFFFFFFFFFFFFFFFFF AND DUP2 MSTORE PUSH1 0x20 ADD SWAP1 DUP2 MSTORE PUSH1 0x20 ADD PUSH0 KECCAK256 DUP2 SWAP1 SSTORE POP PUSH2 0x7AA DUP1 PUSH2 0xD8 PUSH0 CODECOPY PUSH0 RETURN INVALID PUSH1 0x80 PUSH1 0x40 MSTORE CALLVALUE DUP1 ISZERO PUSH2 0xF JUMPI PUSH0 PUSH0 REVERT JUMPDEST POP PUSH1 0x4 CALLDATASIZE LT PUSH2 0x60 JUMPI PUSH0 CALLDATALOAD PUSH1 0xE0 SHR DUP1 PUSH4 0x27E235E3 EQ PUSH2 0x64 JUMPI DUP1 PUSH4 0x3F4BA83A EQ PUSH2 0x94 JUMPI DUP1 PUSH4 0x5C975ABB EQ PUSH2 0x9E JUMPI DUP1 PUSH4 0x8456CB59 EQ PUSH2 0xBC JUMPI DUP1 PUSH4 0x8DA5CB5B EQ PUSH2 0xC6 JUMPI DUP1 PUSH4 0xA9059CBB EQ PUSH2 0xE4 JUMPI JUMPDEST PUSH0 PUSH0 REVERT JUMPDEST PUSH2 0x7E PUSH1 0x4 DUP1 CALLDATASIZE SUB DUP2 ADD SWAP1 PUSH2 0x79 SWAP2 SWAP1 PUSH2 0x47A JUMP JUMPDEST PUSH2 0x100 JUMP JUMPDEST PUSH1 0x40 MLOAD PUSH2 0x8B SWAP2 SWAP1 PUSH2 0x4BD JUMP JUMPDEST PUSH1 0x40 MLOAD DUP1 SWAP2 SUB SWAP1 RETURN JUMPDEST PUSH2 0x9C PUSH2 0x115 JUMP JUMPDEST STOP JUMPDEST PUSH2 0xA6 PUSH2 0x1BE JUMP JUMPDEST PUSH1 0x40 MLOAD PUSH2 0xB3 SWAP2 SWAP1 PUSH2 0x4F0 JUMP JUMPDEST PUSH1 0x40 MLOAD DUP1 SWAP2 SUB SWAP1 RETURN JUMPDEST PUSH2 0xC4 PUSH2 0x1D0 JUMP JUMPDEST STOP JUMPDEST PUSH2 0xCE PUSH2 0x27A JUMP JUMPDEST PUSH1 0x40 MLOAD PUSH2 0xDB SWAP2 SWAP1 PUSH2 0x518 JUMP JUMPDEST PUSH1 0x40 MLOAD DUP1 SWAP2 SUB SWAP1 RETURN JUMPDEST PUSH2 0xFE PUSH1 0x4 DUP1 CALLDATASIZE SUB DUP2 ADD SWAP1 PUSH2 0xF9 SWAP2 SWAP1 PUSH2 0x55B JUMP JUMPDEST PUSH2 0x29E JUMP JUMPDEST STOP JUMPDEST PUSH1 0x1 PUSH1 0x20 MSTORE DUP1 PUSH0 MSTORE PUSH1 0x40 PUSH0 KECCAK256 PUSH0 SWAP2 POP SWAP1 POP SLOAD DUP2 JUMP JUMPDEST PUSH0 PUSH0 SWAP1 SLOAD SWAP1 PUSH2 0x100 EXP SWAP1 DIV PUSH20 0xFFFFFFFFFFFFFFFFFFFFFFFFFFFFFFFFFFFFFFFF AND PUSH20 0xFFFFFFFFFFFFFFFFFFFFFFFFFFFFFFFFFFFFFFFF AND CALLER PUSH20 0xFFFFFFFFFFFFFFFFFFFFFFFFFFFFFFFFFFFFFFFF AND EQ PUSH2 0x1A3 JUMPI PUSH1 0x40 MLOAD PUSH32 0x8C379A000000000000000000000000000000000000000000000000000000000 DUP2 MSTORE PUSH1 0x4 ADD PUSH2 0x19A SWAP1 PUSH2 0x5F3 JUMP JUMPDEST PUSH1 0x40 MLOAD DUP1 SWAP2 SUB SWAP1 REVERT JUMPDEST PUSH0 PUSH0 PUSH1 0x14 PUSH2 0x100 EXP DUP2 SLOAD DUP2 PUSH1 0xFF MUL NOT AND SWAP1 DUP4 ISZERO ISZERO MUL OR SWAP1 SSTORE POP JUMP JUMPDEST PUSH0 PUSH1 0x14 SWAP1 SLOAD SWAP1 PUSH2 0x100 EXP SWAP1 DIV PUSH1 0xFF AND DUP2 JUMP JUMPDEST PUSH0 PUSH0 SWAP1 SLOAD SWAP1 PUSH2 0x100 EXP SWAP1 DIV PUSH20 0xFFFFFFFFFFFFFFFFFFFFFFFFFFFFFFFFFFFFFFFF AND PUSH20 0xFFFFFFFFFFFFFFFFFFFFFFFFFFFFFFFFFFFFFFFF AND CALLER PUSH20 0xFFFFFFFFFFFFFFFFFFFFFFFFFFFFFFFFFFFFFFFF AND EQ PUSH2 0x25E JUMPI PUSH1 0x40 MLOAD PUSH32 0x8C379A000000000000000000000000000000000000000000000000000000000 DUP2 MSTORE PUSH1 0x4 ADD PUSH2 0x255 SWAP1 PUSH2 0x5F3 JUMP JUMPDEST PUSH1 0x40 MLOAD DUP1 SWAP2 SUB SWAP1 REVERT JUMPDEST PUSH1 0x1 PUSH0 PUSH1 0x14 PUSH2 0x100 EXP DUP2 SLOAD DUP2 PUSH1 0xFF MUL NOT AND SWAP1 DUP4 ISZERO ISZERO MUL OR SWAP1 SSTORE POP JUMP JUMPDEST PUSH0 PUSH0 SWAP1 SLOAD SWAP1 PUSH2 0x100 EXP SWAP1 DIV PUSH20 0xFFFFFFFFFFFFFFFFFFFFFFFFFFFFFFFFFFFFFFFF AND DUP2 JUMP JUMPDEST PUSH0 ISZERO ISZERO PUSH0 PUSH1 0x14 SWAP1 SLOAD SWAP1 PUSH2 0x100 EXP SWAP1 DIV PUSH1 0xFF AND ISZERO ISZERO EQ PUSH2 0x2F2 JUMPI PUSH1 0x40 MLOAD PUSH32 0x8C379A000000000000000000000000000000000000000000000000000000000 DUP2 MSTORE PUSH1 0x4 ADD PUSH2 0x2E9 SWAP1 PUSH2 0x65B JUMP JUMPDEST PUSH1 0x40 MLOAD DUP1 SWAP2 SUB SWAP1 REVERT JUMPDEST DUP1 PUSH1 0x1 PUSH0 CALLER PUSH20 0xFFFFFFFFFFFFFFFFFFFFFFFFFFFFFFFFFFFFFFFF AND PUSH20 0xFFFFFFFFFFFFFFFFFFFFFFFFFFFFFFFFFFFFFFFF AND DUP2 MSTORE PUSH1 0x20 ADD SWAP1 DUP2 MSTORE PUSH1 0x20 ADD PUSH0 KECCAK256 SLOAD LT ISZERO PUSH2 0x372 JUMPI PUSH1 0x40 MLOAD PUSH32 0x8C379A000000000000000000000000000000000000000000000000000000000 DUP2 MSTORE PUSH1 0x4 ADD PUSH2 0x369 SWAP1 PUSH2 0x6C3 JUMP JUMPDEST PUSH1 0x40 MLOAD DUP1 SWAP2 SUB SWAP1 REVERT JUMPDEST DUP1 PUSH1 0x1 PUSH0 CALLER PUSH20 0xFFFFFFFFFFFFFFFFFFFFFFFFFFFFFFFFFFFFFFFF AND PUSH20 0xFFFFFFFFFFFFFFFFFFFFFFFFFFFFFFFFFFFFFFFF AND DUP2 MSTORE PUSH1 0x20 ADD SWAP1 DUP2 MSTORE PUSH1 0x20 ADD PUSH0 KECCAK256 PUSH0 DUP3 DUP3 SLOAD PUSH2 0x3BE SWAP2 SWAP1 PUSH2 0x70E JUMP JUMPDEST SWAP3 POP POP DUP2 SWAP1 SSTORE POP DUP1 PUSH1 0x1 PUSH0 DUP5 PUSH20 0xFFFFFFFFFFFFFFFFFFFFFFFFFFFFFFFFFFFFFFFF AND PUSH20 0xFFFFFFFFFFFFFFFFFFFFFFFFFFFFFFFFFFFFFFFF AND DUP2 MSTORE PUSH1 0x20 ADD SWAP1 DUP2 MSTORE PUSH1 0x20 ADD PUSH0 KECCAK256 PUSH0 DUP3 DUP3 SLOAD PUSH2 0x411 SWAP2 SWAP1 PUSH2 0x741 JUMP JUMPDEST SWAP3 POP POP DUP2 SWAP1 SSTORE POP POP POP JUMP JUMPDEST PUSH0 PUSH0 REVERT JUMPDEST PUSH0 PUSH20 0xFFFFFFFFFFFFFFFFFFFFFFFFFFFFFFFFFFFFFFFF DUP3 AND SWAP1 POP SWAP2 SWAP1 POP JUMP JUMPDEST PUSH0 PUSH2 0x449 DUP3 PUSH2 0x420 JUMP JUMPDEST SWAP1 POP SWAP2 SWAP1 POP JUMP JUMPDEST PUSH2 0x459 DUP2 PUSH2 0x43F JUMP JUMPDEST DUP2 EQ PUSH2 0x463 JUMPI PUSH0 PUSH0 REVERT JUMPDEST POP JUMP JUMPDEST PUSH0 DUP2 CALLDATALOAD SWAP1 POP PUSH2 0x474 DUP2 PUSH2 0x450 JUMP JUMPDEST SWAP3 SWAP2 POP POP JUMP JUMPDEST PUSH0 PUSH1 0x20 DUP3 DUP5 SUB SLT ISZERO PUSH2 0x48F JUMPI PUSH2 0x48E PUSH2 0x41C JUMP JUMPDEST JUMPDEST PUSH0 PUSH2 0x49C DUP5 DUP3 DUP6 ADD PUSH2 0x466 JUMP JUMPDEST SWAP2 POP POP SWAP3 SWAP2 POP POP JUMP JUMPDEST PUSH0 DUP2 SWAP1 POP SWAP2 SWAP1 POP JUMP JUMPDEST PUSH2 0x4B7 DUP2 PUSH2 0x4A5 JUMP JUMPDEST DUP3 MSTORE POP POP JUMP JUMPDEST PUSH0 PUSH1 0x20 DUP3 ADD SWAP1 POP PUSH2 0x4D0 PUSH0 DUP4 ADD DUP5 PUSH2 0x4AE JUMP JUMPDEST SWAP3 SWAP2 POP POP JUMP JUMPDEST PUSH0 DUP2 ISZERO ISZERO SWAP1 POP SWAP2 SWAP1 POP JUMP JUMPDEST PUSH2 0x4EA DUP2 PUSH2 0x4D6 JUMP JUMPDEST DUP3 MSTORE POP POP JUMP JUMPDEST PUSH0 PUSH1 0x20 DUP3 ADD SWAP1 POP PUSH2 0x503 PUSH0 DUP4 ADD DUP5 PUSH2 0x4E1 JUMP JUMPDEST SWAP3 SWAP2 POP POP JUMP JUMPDEST PUSH2 0x512 DUP2 PUSH2 0x43F JUMP JUMPDEST DUP3 MSTORE POP POP JUMP JUMPDEST PUSH0 PUSH1 0x20 DUP3 ADD SWAP1 POP PUSH2 0x52B PUSH0 DUP4 ADD DUP5 PUSH2 0x509 JUMP JUMPDEST SWAP3 SWAP2 POP POP JUMP JUMPDEST PUSH2 0x53A DUP2 PUSH2 0x4A5 JUMP JUMPDEST DUP2 EQ PUSH2 0x544 JUMPI PUSH0 PUSH0 REVERT JUMPDEST POP JUMP JUMPDEST PUSH0 DUP2 CALLDATALOAD SWAP1 POP PUSH2 0x555 DUP2 PUSH2 0x531 JUMP JUMPDEST SWAP3 SWAP2 POP POP JUMP JUMPDEST PUSH0 PUSH0 PUSH1 0x40 DUP4 DUP6 SUB SLT ISZERO PUSH2 0x571 JUMPI PUSH2 0x570 PUSH2 0x41C JUMP JUMPDEST JUMPDEST PUSH0 PUSH2 0x57E DUP6 DUP3 DUP7 ADD PUSH2 0x466 JUMP JUMPDEST SWAP3 POP POP PUSH1 0x20 PUSH2 0x58F DUP6 DUP3 DUP7 ADD PUSH2 0x547 JUMP JUMPDEST SWAP2 POP POP SWAP3 POP SWAP3 SWAP1 POP JUMP JUMPDEST PUSH0 DUP3 DUP3 MSTORE PUSH1 0x20 DUP3 ADD SWAP1 POP SWAP3 SWAP2 POP POP JUMP JUMPDEST PUSH32 0x596F7520617265206E6F7420746865206F776E65720000000000000000000000 PUSH0 DUP3 ADD MSTORE POP JUMP JUMPDEST PUSH0 PUSH2 0x5DD PUSH1 0x15 DUP4 PUSH2 0x599 JUMP JUMPDEST SWAP2 POP PUSH2 0x5E8 DUP3 PUSH2 0x5A9 JUMP JUMPDEST PUSH1 0x20 DUP3 ADD SWAP1 POP SWAP2 SWAP1 POP JUMP JUMPDEST PUSH0 PUSH1 0x20 DUP3 ADD SWAP1 POP DUP2 DUP2 SUB PUSH0 DUP4 ADD MSTORE PUSH2 0x60A DUP2 PUSH2 0x5D1 JUMP JUMPDEST SWAP1 POP SWAP2 SWAP1 POP JUMP JUMPDEST PUSH32 0x54686520636F6E74726163742069732070617573656400000000000000000000 PUSH0 DUP3 ADD MSTORE POP JUMP JUMPDEST PUSH0 PUSH2 0x645 PUSH1 0x16 DUP4 PUSH2 0x599 JUMP JUMPDEST SWAP2 POP PUSH2 0x650 DUP3 PUSH2 0x611 JUMP JUMPDEST PUSH1 0x20 DUP3 ADD SWAP1 POP SWAP2 SWAP1 POP JUMP JUMPDEST PUSH0 PUSH1 0x20 DUP3 ADD SWAP1 POP DUP2 DUP2 SUB PUSH0 DUP4 ADD MSTORE PUSH2 0x672 DUP2 PUSH2 0x639 JUMP JUMPDEST SWAP1 POP SWAP2 SWAP1 POP JUMP JUMPDEST PUSH32 0x4E6F742073756666696369656E742062616C616E636520617661696C61626C65 PUSH0 DUP3 ADD MSTORE POP JUMP JUMPDEST PUSH0 PUSH2 0x6AD PUSH1 0x20 DUP4 PUSH2 0x599 JUMP JUMPDEST SWAP2 POP PUSH2 0x6B8 DUP3 PUSH2 0x679 JUMP JUMPDEST PUSH1 0x20 DUP3 ADD SWAP1 POP SWAP2 SWAP1 POP JUMP JUMPDEST PUSH0 PUSH1 0x20 DUP3 ADD SWAP1 POP DUP2 DUP2 SUB PUSH0 DUP4 ADD MSTORE PUSH2 0x6DA DUP2 PUSH2 0x6A1 JUMP JUMPDEST SWAP1 POP SWAP2 SWAP1 POP JUMP JUMPDEST PUSH32 0x4E487B7100000000000000000000000000000000000000000000000000000000 PUSH0 MSTORE PUSH1 0x11 PUSH1 0x4 MSTORE PUSH1 0x24 PUSH0 REVERT JUMPDEST PUSH0 PUSH2 0x718 DUP3 PUSH2 0x4A5 JUMP JUMPDEST SWAP2 POP PUSH2 0x723 DUP4 PUSH2 0x4A5 JUMP JUMPDEST SWAP3 POP DUP3 DUP3 SUB SWAP1 POP DUP2 DUP2 GT ISZERO PUSH2 0x73B JUMPI PUSH2 0x73A PUSH2 0x6E1 JUMP JUMPDEST JUMPDEST SWAP3 SWAP2 POP POP JUMP JUMPDEST PUSH0 PUSH2 0x74B DUP3 PUSH2 0x4A5 JUMP JUMPDEST SWAP2 POP PUSH2 0x756 DUP4 PUSH2 0x4A5 JUMP JUMPDEST SWAP3 POP DUP3 DUP3 ADD SWAP1 POP DUP1 DUP3 GT ISZERO PUSH2 0x76E JUMPI PUSH2 0x76D PUSH2 0x6E1 JUMP JUMPDEST JUMPDEST SWAP3 SWAP2 POP POP JUMP INVALID LOG2 PUSH5 0x6970667358 0x22 SLT KECCAK256 MSTORE8 0xDE 0xC1 CREATE CALLF 0xD4AD ISZERO 0xAF CALLCODE 0x29 0x22 PREVRANDAO 0xAC GASPRICE CALLCODE 0x4C 0xD0 0xB9 0xB5 XOR 0xC8 SWAP5 0xC8 EXP LOG0 LOG3 0xC9 BLOBHASH CREATE PUSH16 0x3A64736F6C634300081E003300000000 "
				},
				"gasEstimates": {
					"creation": {
						"codeDepositCost": "392400",
						"executionCost": "73343",
						"totalCost": "465743"
					},
					"external": {
						"balances(address)": "2780",
						"owner()": "2573",
						"pause()": "26671",
						"paused()": "2538",
						"transfer(address,uint256)": "infinite",
						"unpause()": "26626"
					}
				},
				"methodIdentifiers": {
					"balances(address)": "27e235e3",
					"owner()": "8da5cb5b",
					"pause()": "8456cb59",
					"paused()": "5c975abb",
					"transfer(address,uint256)": "a9059cbb",
					"unpause()": "3f4ba83a"
				}
			},
			"storageLayout": {
				"storage": [
					{
						"astId": 3,
						"contract": "ModifiersExcersice.sol:PausableToken",
						"label": "owner",
						"offset": 0,
						"slot": "0",
						"type": "t_address"
					},
					{
						"astId": 5,
						"contract": "ModifiersExcersice.sol:PausableToken",
						"label": "paused",
						"offset": 20,
						"slot": "0",
						"type": "t_bool"
					},
					{
						"astId": 9,
						"contract": "ModifiersExcersice.sol:PausableToken",
						"label": "balances",
						"offset": 0,
						"slot": "1",
						"type": "t_mapping(t_address,t_uint256)"
					}
				],
				"types": {
					"t_address": {
						"encoding": "inplace",
						"label": "address",
						"numberOfBytes": "20"
					},
					"t_bool": {
						"encoding": "inplace",
						"label": "bool",
						"numberOfBytes": "1"
					},
					"t_mapping(t_address,t_uint256)": {
						"encoding": "mapping",
						"key": "t_address",
						"label": "mapping(address => uint256)",
						"numberOfBytes": "32",
						"value": "t_uint256"
					},
					"t_uint256": {
						"encoding": "inplace",
						"label": "uint256",
						"numberOfBytes": "32"
					}
				}
			},
			"userdoc": {
				"kind": "user",
				"methods": {},
				"version": 1
			}
		}
	}
}